{
  "_format": "hh-sol-artifact-1",
  "contractName": "CropFarm",
  "sourceName": "contracts/Token.sol",
  "abi": [
    {
      "inputs": [],
      "stateMutability": "nonpayable",
      "type": "constructor"
    },
    {
      "anonymous": false,
      "inputs": [
        {
          "indexed": true,
          "internalType": "address",
          "name": "account",
          "type": "address"
        },
        {
          "indexed": true,
          "internalType": "address",
          "name": "operator",
          "type": "address"
        },
        {
          "indexed": false,
          "internalType": "bool",
          "name": "approved",
          "type": "bool"
        }
      ],
      "name": "ApprovalForAll",
      "type": "event"
    },
    {
      "anonymous": false,
      "inputs": [
        {
          "indexed": false,
          "internalType": "address",
          "name": "",
          "type": "address"
        },
        {
          "indexed": false,
          "internalType": "uint256",
          "name": "",
          "type": "uint256"
        }
      ],
      "name": "Received",
      "type": "event"
    },
    {
      "anonymous": false,
      "inputs": [
        {
          "indexed": true,
          "internalType": "address",
          "name": "operator",
          "type": "address"
        },
        {
          "indexed": true,
          "internalType": "address",
          "name": "from",
          "type": "address"
        },
        {
          "indexed": true,
          "internalType": "address",
          "name": "to",
          "type": "address"
        },
        {
          "indexed": false,
          "internalType": "uint256[]",
          "name": "ids",
          "type": "uint256[]"
        },
        {
          "indexed": false,
          "internalType": "uint256[]",
          "name": "values",
          "type": "uint256[]"
        }
      ],
      "name": "TransferBatch",
      "type": "event"
    },
    {
      "anonymous": false,
      "inputs": [
        {
          "indexed": true,
          "internalType": "address",
          "name": "operator",
          "type": "address"
        },
        {
          "indexed": true,
          "internalType": "address",
          "name": "from",
          "type": "address"
        },
        {
          "indexed": true,
          "internalType": "address",
          "name": "to",
          "type": "address"
        },
        {
          "indexed": false,
          "internalType": "uint256",
          "name": "id",
          "type": "uint256"
        },
        {
          "indexed": false,
          "internalType": "uint256",
          "name": "value",
          "type": "uint256"
        }
      ],
      "name": "TransferSingle",
      "type": "event"
    },
    {
      "anonymous": false,
      "inputs": [
        {
          "indexed": false,
          "internalType": "string",
          "name": "value",
          "type": "string"
        },
        {
          "indexed": true,
          "internalType": "uint256",
          "name": "id",
          "type": "uint256"
        }
      ],
      "name": "URI",
      "type": "event"
    },
    {
      "stateMutability": "payable",
      "type": "fallback"
    },
    {
      "inputs": [],
      "name": "BLUEBERRY",
      "outputs": [
        {
          "internalType": "uint256",
          "name": "",
          "type": "uint256"
        }
      ],
      "stateMutability": "view",
      "type": "function"
    },
    {
      "inputs": [],
      "name": "CAULIFLOWER",
      "outputs": [
        {
          "internalType": "uint256",
          "name": "",
          "type": "uint256"
        }
      ],
      "stateMutability": "view",
      "type": "function"
    },
    {
      "inputs": [],
      "name": "CHILIPEPPER",
      "outputs": [
        {
          "internalType": "uint256",
          "name": "",
          "type": "uint256"
        }
      ],
      "stateMutability": "view",
      "type": "function"
    },
    {
      "inputs": [],
      "name": "CORN",
      "outputs": [
        {
          "internalType": "uint256",
          "name": "",
          "type": "uint256"
        }
      ],
      "stateMutability": "view",
      "type": "function"
    },
    {
      "inputs": [],
      "name": "EGGPLANT",
      "outputs": [
        {
          "internalType": "uint256",
          "name": "",
          "type": "uint256"
        }
      ],
      "stateMutability": "view",
      "type": "function"
    },
    {
      "inputs": [],
      "name": "LETTUCE",
      "outputs": [
        {
          "internalType": "uint256",
          "name": "",
          "type": "uint256"
        }
      ],
      "stateMutability": "view",
      "type": "function"
    },
    {
      "inputs": [],
      "name": "NULL",
      "outputs": [
        {
          "internalType": "uint256",
          "name": "",
          "type": "uint256"
        }
      ],
      "stateMutability": "view",
      "type": "function"
    },
    {
      "inputs": [],
      "name": "POTATO",
      "outputs": [
        {
          "internalType": "uint256",
          "name": "",
          "type": "uint256"
        }
      ],
      "stateMutability": "view",
      "type": "function"
    },
    {
      "inputs": [],
      "name": "PUMPKIN",
      "outputs": [
        {
          "internalType": "uint256",
          "name": "",
          "type": "uint256"
        }
      ],
      "stateMutability": "view",
      "type": "function"
    },
    {
      "inputs": [],
      "name": "STRAWBERRY",
      "outputs": [
        {
          "internalType": "uint256",
          "name": "",
          "type": "uint256"
        }
      ],
      "stateMutability": "view",
      "type": "function"
    },
    {
      "inputs": [],
      "name": "TOMATO",
      "outputs": [
        {
          "internalType": "uint256",
          "name": "",
          "type": "uint256"
        }
      ],
      "stateMutability": "view",
      "type": "function"
    },
    {
      "inputs": [],
      "name": "WATERMELON",
      "outputs": [
        {
          "internalType": "uint256",
          "name": "",
          "type": "uint256"
        }
      ],
      "stateMutability": "view",
      "type": "function"
    },
    {
      "inputs": [],
      "name": "WHEAT",
      "outputs": [
        {
          "internalType": "uint256",
          "name": "",
          "type": "uint256"
        }
      ],
      "stateMutability": "view",
      "type": "function"
    },
    {
      "inputs": [
        {
          "internalType": "address",
          "name": "account",
          "type": "address"
        },
        {
          "internalType": "uint256",
          "name": "id",
          "type": "uint256"
        }
      ],
      "name": "balanceOf",
      "outputs": [
        {
          "internalType": "uint256",
          "name": "",
          "type": "uint256"
        }
      ],
      "stateMutability": "view",
      "type": "function"
    },
    {
      "inputs": [
        {
          "internalType": "address[]",
          "name": "accounts",
          "type": "address[]"
        },
        {
          "internalType": "uint256[]",
          "name": "ids",
          "type": "uint256[]"
        }
      ],
      "name": "balanceOfBatch",
      "outputs": [
        {
          "internalType": "uint256[]",
          "name": "",
          "type": "uint256[]"
        }
      ],
      "stateMutability": "view",
      "type": "function"
    },
    {
      "inputs": [
        {
          "internalType": "address",
          "name": "",
          "type": "address"
        },
        {
          "internalType": "uint256",
          "name": "",
          "type": "uint256"
        }
      ],
      "name": "balances",
      "outputs": [
        {
          "internalType": "uint256",
          "name": "availableBalance",
          "type": "uint256"
        },
        {
          "internalType": "uint256",
          "name": "stakedBalance",
          "type": "uint256"
        }
      ],
      "stateMutability": "view",
      "type": "function"
    },
    {
      "inputs": [],
      "name": "buyPlot",
      "outputs": [],
      "stateMutability": "payable",
      "type": "function"
    },
    {
      "inputs": [
        {
          "internalType": "uint256",
          "name": "",
          "type": "uint256"
        }
      ],
      "name": "crops",
      "outputs": [
        {
          "internalType": "uint256",
          "name": "id",
          "type": "uint256"
        },
        {
          "internalType": "uint256",
          "name": "growTime",
          "type": "uint256"
        },
        {
          "internalType": "uint256",
          "name": "harvest",
          "type": "uint256"
        },
        {
          "internalType": "string",
          "name": "name",
          "type": "string"
        }
      ],
      "stateMutability": "view",
      "type": "function"
    },
    {
      "inputs": [
        {
          "internalType": "uint256",
          "name": "id",
          "type": "uint256"
        }
      ],
      "name": "exists",
      "outputs": [
        {
          "internalType": "bool",
          "name": "",
          "type": "bool"
        }
      ],
      "stateMutability": "view",
      "type": "function"
    },
    {
      "inputs": [
        {
          "internalType": "uint256",
          "name": "_plot",
          "type": "uint256"
        }
      ],
      "name": "harvest",
      "outputs": [],
      "stateMutability": "nonpayable",
      "type": "function"
    },
    {
      "inputs": [
        {
          "internalType": "address",
          "name": "account",
          "type": "address"
        },
        {
          "internalType": "address",
          "name": "operator",
          "type": "address"
        }
      ],
      "name": "isApprovedForAll",
      "outputs": [
        {
          "internalType": "bool",
          "name": "",
          "type": "bool"
        }
      ],
      "stateMutability": "view",
      "type": "function"
    },
    {
      "inputs": [
        {
          "internalType": "address",
          "name": "",
          "type": "address"
        },
        {
          "internalType": "address",
          "name": "",
          "type": "address"
        },
        {
          "internalType": "uint256",
          "name": "",
          "type": "uint256"
        },
        {
          "internalType": "uint256",
          "name": "",
          "type": "uint256"
        },
        {
          "internalType": "bytes",
          "name": "",
          "type": "bytes"
        }
      ],
      "name": "onERC1155Received",
      "outputs": [
        {
          "internalType": "bytes4",
          "name": "",
          "type": "bytes4"
        }
      ],
      "stateMutability": "nonpayable",
      "type": "function"
    },
    {
      "inputs": [
        {
          "internalType": "uint256",
          "name": "_plot",
          "type": "uint256"
        },
        {
          "internalType": "uint256",
          "name": "_id",
          "type": "uint256"
        }
      ],
      "name": "plant",
      "outputs": [],
      "stateMutability": "nonpayable",
      "type": "function"
    },
    {
      "inputs": [
        {
          "internalType": "address",
          "name": "",
          "type": "address"
        }
      ],
      "name": "plotnum",
      "outputs": [
        {
          "internalType": "uint256",
          "name": "",
          "type": "uint256"
        }
      ],
      "stateMutability": "view",
      "type": "function"
    },
    {
      "inputs": [
        {
          "internalType": "address",
          "name": "from",
          "type": "address"
        },
        {
          "internalType": "address",
          "name": "to",
          "type": "address"
        },
        {
          "internalType": "uint256[]",
          "name": "ids",
          "type": "uint256[]"
        },
        {
          "internalType": "uint256[]",
          "name": "amounts",
          "type": "uint256[]"
        },
        {
          "internalType": "bytes",
          "name": "data",
          "type": "bytes"
        }
      ],
      "name": "safeBatchTransferFrom",
      "outputs": [],
      "stateMutability": "nonpayable",
      "type": "function"
    },
    {
      "inputs": [
        {
          "internalType": "address",
          "name": "from",
          "type": "address"
        },
        {
          "internalType": "address",
          "name": "to",
          "type": "address"
        },
        {
          "internalType": "uint256",
          "name": "id",
          "type": "uint256"
        },
        {
          "internalType": "uint256",
          "name": "amount",
          "type": "uint256"
        },
        {
          "internalType": "bytes",
          "name": "data",
          "type": "bytes"
        }
      ],
      "name": "safeTransferFrom",
      "outputs": [],
      "stateMutability": "nonpayable",
      "type": "function"
    },
    {
      "inputs": [
        {
          "internalType": "address",
          "name": "operator",
          "type": "address"
        },
        {
          "internalType": "bool",
          "name": "approved",
          "type": "bool"
        }
      ],
      "name": "setApprovalForAll",
      "outputs": [],
      "stateMutability": "nonpayable",
      "type": "function"
    },
    {
      "inputs": [
        {
          "internalType": "bytes4",
          "name": "interfaceId",
          "type": "bytes4"
        }
      ],
      "name": "supportsInterface",
      "outputs": [
        {
          "internalType": "bool",
          "name": "",
          "type": "bool"
        }
      ],
      "stateMutability": "view",
      "type": "function"
    },
    {
      "inputs": [
        {
          "internalType": "uint256",
          "name": "id",
          "type": "uint256"
        }
      ],
      "name": "totalSupply",
      "outputs": [
        {
          "internalType": "uint256",
          "name": "",
          "type": "uint256"
        }
      ],
      "stateMutability": "view",
      "type": "function"
    },
    {
      "inputs": [
        {
          "internalType": "uint256",
          "name": "",
          "type": "uint256"
        }
      ],
      "name": "uri",
      "outputs": [
        {
          "internalType": "string",
          "name": "",
          "type": "string"
        }
      ],
      "stateMutability": "view",
      "type": "function"
    },
    {
      "inputs": [
        {
          "internalType": "address",
          "name": "_account",
          "type": "address"
        },
        {
          "internalType": "uint256",
          "name": "_id",
          "type": "uint256"
        },
        {
          "internalType": "uint256",
          "name": "_member",
          "type": "uint256"
        }
      ],
      "name": "viewBalance",
      "outputs": [
        {
          "internalType": "uint256",
          "name": "",
          "type": "uint256"
        }
      ],
      "stateMutability": "view",
      "type": "function"
    },
    {
      "inputs": [
        {
          "internalType": "address",
          "name": "_account",
          "type": "address"
        },
        {
          "internalType": "uint256",
          "name": "_plot",
          "type": "uint256"
        }
      ],
      "name": "viewGrowStatus",
      "outputs": [
        {
          "internalType": "uint256",
          "name": "",
          "type": "uint256"
        },
        {
          "internalType": "uint256",
          "name": "",
          "type": "uint256"
        }
      ],
      "stateMutability": "view",
      "type": "function"
    },
    {
      "inputs": [
        {
          "internalType": "address",
          "name": "_account",
          "type": "address"
        },
        {
          "internalType": "uint256",
          "name": "_id",
          "type": "uint256"
        }
      ],
      "name": "viewPlot",
      "outputs": [
        {
          "internalType": "uint256",
          "name": "",
          "type": "uint256"
        },
        {
          "internalType": "string",
          "name": "",
          "type": "string"
        }
      ],
      "stateMutability": "view",
      "type": "function"
    },
    {
      "stateMutability": "payable",
      "type": "receive"
    }
  ],
  "bytecode": "0x60806040523480156200001157600080fd5b506040518060600160405280603381526020016200648a603391396200003d8162000c6760201b60201c565b50620000643360016103e86040518060200160405280600081525062000c8360201b60201c565b6200008a3360026103e86040518060200160405280600081525062000c8360201b60201c565b620000b03360036103e86040518060200160405280600081525062000c8360201b60201c565b620000d63360046103e86040518060200160405280600081525062000c8360201b60201c565b620000fc3360056103e86040518060200160405280600081525062000c8360201b60201c565b620001223360066103e86040518060200160405280600081525062000c8360201b60201c565b620001483360076103e86040518060200160405280600081525062000c8360201b60201c565b6200016e3360086103e86040518060200160405280600081525062000c8360201b60201c565b620001943360096103e86040518060200160405280600081525062000c8360201b60201c565b620001ba33600a6103e86040518060200160405280600081525062000c8360201b60201c565b620001e033600b6103e86040518060200160405280600081525062000c8360201b60201c565b6200020633600c6103e86040518060200160405280600081525062000c8360201b60201c565b6000604051806104e001604052806000815260200160008152602001600081526020016001815260200160648152602001600381526020016002815260200160c8815260200160038152602001600381526020016064815260200160048152602001600481526020016101f48152602001600681526020016005815260200160648152602001600681526020016006815260200160c8815260200160028152602001600781526020016064815260200160028152602001600881526020016101f4815260200160038152602001600981526020016064815260200160058152602001600a815260200160c8815260200160028152602001600b81526020016064815260200160048152602001600c81526020016101f48152602001600681525090506000604051806101a001604052806040518060200160405280600081525081526020016040518060400160405280600581526020017f576865617400000000000000000000000000000000000000000000000000000081525081526020016040518060400160405280600481526020017f436f726e0000000000000000000000000000000000000000000000000000000081525081526020016040518060400160405280600681526020017f506f7461746f000000000000000000000000000000000000000000000000000081525081526020016040518060400160405280600a81526020017f537472617762657272790000000000000000000000000000000000000000000081525081526020016040518060400160405280600981526020017f426c75656265727279000000000000000000000000000000000000000000000081525081526020016040518060400160405280600a81526020017f57617465726d656c6f6e0000000000000000000000000000000000000000000081525081526020016040518060400160405280600781526020017f50756d706b696e0000000000000000000000000000000000000000000000000081525081526020016040518060400160405280600781526020017f4c6574747563650000000000000000000000000000000000000000000000000081525081526020016040518060400160405280600681526020017f546f6d61746f000000000000000000000000000000000000000000000000000081525081526020016040518060400160405280600b81526020017f4361756c69666c6f77657200000000000000000000000000000000000000000081525081526020016040518060400160405280600881526020017f456767706c616e7400000000000000000000000000000000000000000000000081525081526020016040518060400160405280600c81526020017f4368696c6920506570706572000000000000000000000000000000000000000081525081525090506000600190505b600c81116200078757826003826200062f919062001835565b6027811062000667577f4e487b7100000000000000000000000000000000000000000000000000000000600052603260045260246000fd5b6020020151600660008381526020019081526020016000206000018190555082600160038362000698919062001835565b620006a49190620017d8565b60278110620006dc577f4e487b7100000000000000000000000000000000000000000000000000000000600052603260045260246000fd5b602002015160066000838152602001908152602001600020600101819055508260026003836200070d919062001835565b620007199190620017d8565b6027811062000751577f4e487b7100000000000000000000000000000000000000000000000000000000600052603260045260246000fd5b602002015160066000838152602001908152602001600020600201819055506001816200077f9190620017d8565b905062000616565b506000600190505b600c81116200081a578181600d8110620007d2577f4e487b7100000000000000000000000000000000000000000000000000000000600052603260045260246000fd5b60200201516006600083815260200190815260200160002060030190805190602001906200080292919062001426565b50600181620008129190620017d8565b90506200078f565b506103e8600460003373ffffffffffffffffffffffffffffffffffffffff1673ffffffffffffffffffffffffffffffffffffffff168152602001908152602001600020600060018152602001908152602001600020600001819055506103e8600460003373ffffffffffffffffffffffffffffffffffffffff1673ffffffffffffffffffffffffffffffffffffffff168152602001908152602001600020600060028152602001908152602001600020600001819055506103e8600460003373ffffffffffffffffffffffffffffffffffffffff1673ffffffffffffffffffffffffffffffffffffffff168152602001908152602001600020600060038152602001908152602001600020600001819055506103e8600460003373ffffffffffffffffffffffffffffffffffffffff1673ffffffffffffffffffffffffffffffffffffffff168152602001908152602001600020600060048152602001908152602001600020600001819055506103e8600460003373ffffffffffffffffffffffffffffffffffffffff1673ffffffffffffffffffffffffffffffffffffffff168152602001908152602001600020600060058152602001908152602001600020600001819055506103e8600460003373ffffffffffffffffffffffffffffffffffffffff1673ffffffffffffffffffffffffffffffffffffffff168152602001908152602001600020600060068152602001908152602001600020600001819055506103e8600460003373ffffffffffffffffffffffffffffffffffffffff1673ffffffffffffffffffffffffffffffffffffffff168152602001908152602001600020600060078152602001908152602001600020600001819055506103e8600460003373ffffffffffffffffffffffffffffffffffffffff1673ffffffffffffffffffffffffffffffffffffffff168152602001908152602001600020600060088152602001908152602001600020600001819055506103e8600460003373ffffffffffffffffffffffffffffffffffffffff1673ffffffffffffffffffffffffffffffffffffffff168152602001908152602001600020600060098152602001908152602001600020600001819055506103e8600460003373ffffffffffffffffffffffffffffffffffffffff1673ffffffffffffffffffffffffffffffffffffffff1681526020019081526020016000206000600a8152602001908152602001600020600001819055506103e8600460003373ffffffffffffffffffffffffffffffffffffffff1673ffffffffffffffffffffffffffffffffffffffff1681526020019081526020016000206000600b8152602001908152602001600020600001819055506103e8600460003373ffffffffffffffffffffffffffffffffffffffff1673ffffffffffffffffffffffffffffffffffffffff1681526020019081526020016000206000600c815260200190815260200160002060000181905550505062001cb8565b806002908051906020019062000c7f92919062001426565b5050565b600073ffffffffffffffffffffffffffffffffffffffff168473ffffffffffffffffffffffffffffffffffffffff16141562000cf6576040517f08c379a000000000000000000000000000000000000000000000000000000000815260040162000ced9062001747565b60405180910390fd5b600062000d0862000e6b60201b60201c565b9050600062000d1d8562000e7360201b60201c565b9050600062000d328562000e7360201b60201c565b905062000d4b8360008985858962000f3c60201b60201c565b8460008088815260200190815260200160002060008973ffffffffffffffffffffffffffffffffffffffff1673ffffffffffffffffffffffffffffffffffffffff168152602001908152602001600020600082825462000dac9190620017d8565b925050819055508673ffffffffffffffffffffffffffffffffffffffff16600073ffffffffffffffffffffffffffffffffffffffff168473ffffffffffffffffffffffffffffffffffffffff167fc3d58168c5ae7397731d063d5bbf3d657854427343f4c083240f7aacaa2d0f62898960405162000e2c92919062001769565b60405180910390a462000e4b8360008985858962000f5f60201b60201c565b62000e628360008989898962000f6760201b60201c565b50505050505050565b600033905090565b60606000600167ffffffffffffffff81111562000eb9577f4e487b7100000000000000000000000000000000000000000000000000000000600052604160045260246000fd5b60405190808252806020026020018201604052801562000ee85781602001602082028036833780820191505090505b509050828160008151811062000f27577f4e487b7100000000000000000000000000000000000000000000000000000000600052603260045260246000fd5b60200260200101818152505080915050919050565b62000f578686868686866200117160201b62001ba11760201c565b505050505050565b505050505050565b62000f938473ffffffffffffffffffffffffffffffffffffffff16620013fb60201b62001e0b1760201c565b1562001169578373ffffffffffffffffffffffffffffffffffffffff1663f23a6e6187878686866040518663ffffffff1660e01b815260040162000fdc95949392919062001659565b602060405180830381600087803b15801562000ff757600080fd5b505af19250505080156200102b57506040513d601f19601f82011682018060405250810190620010289190620014ed565b60015b620010dd576200103a62001a7d565b806308c379a014156200109e57506200105262001bfc565b806200105f5750620010a0565b806040517f08c379a0000000000000000000000000000000000000000000000000000000008152600401620010959190620016bd565b60405180910390fd5b505b6040517f08c379a0000000000000000000000000000000000000000000000000000000008152600401620010d490620016e1565b60405180910390fd5b63f23a6e6160e01b7bffffffffffffffffffffffffffffffffffffffffffffffffffffffff1916817bffffffffffffffffffffffffffffffffffffffffffffffffffffffff19161462001167576040517f08c379a00000000000000000000000000000000000000000000000000000000081526004016200115e9062001703565b60405180910390fd5b505b505050505050565b6200118c8686868686866200141e60201b62001e2e1760201c565b600073ffffffffffffffffffffffffffffffffffffffff168573ffffffffffffffffffffffffffffffffffffffff161415620012935760005b8351811015620012915782818151811062001209577f4e487b7100000000000000000000000000000000000000000000000000000000600052603260045260246000fd5b6020026020010151600360008684815181106200124f577f4e487b7100000000000000000000000000000000000000000000000000000000600052603260045260246000fd5b602002602001015181526020019081526020016000206000828254620012769190620017d8565b92505081905550806200128990620019a2565b9050620011c5565b505b600073ffffffffffffffffffffffffffffffffffffffff168473ffffffffffffffffffffffffffffffffffffffff161415620013f35760005b8351811015620013f157600084828151811062001312577f4e487b7100000000000000000000000000000000000000000000000000000000600052603260045260246000fd5b60200260200101519050600084838151811062001358577f4e487b7100000000000000000000000000000000000000000000000000000000600052603260045260246000fd5b6020026020010151905060006003600084815260200190815260200160002054905081811015620013c0576040517f08c379a0000000000000000000000000000000000000000000000000000000008152600401620013b79062001725565b60405180910390fd5b818103600360008581526020019081526020016000208190555050505080620013e990620019a2565b9050620012cc565b505b505050505050565b6000808273ffffffffffffffffffffffffffffffffffffffff163b119050919050565b505050505050565b828054620014349062001936565b90600052602060002090601f016020900481019282620014585760008555620014a4565b82601f106200147357805160ff1916838001178555620014a4565b82800160010185558215620014a4579182015b82811115620014a357825182559160200191906001019062001486565b5b509050620014b39190620014b7565b5090565b5b80821115620014d2576000816000905550600101620014b8565b5090565b600081519050620014e78162001c9e565b92915050565b6000602082840312156200150057600080fd5b60006200151084828501620014d6565b91505092915050565b620015248162001896565b82525050565b60006200153782620017a0565b620015438185620017b6565b93506200155581856020860162001900565b620015608162001aa2565b840191505092915050565b60006200157882620017ab565b620015848185620017c7565b93506200159681856020860162001900565b620015a18162001aa2565b840191505092915050565b6000620015bb603483620017c7565b9150620015c88262001ac0565b604082019050919050565b6000620015e2602883620017c7565b9150620015ef8262001b0f565b604082019050919050565b600062001609602883620017c7565b9150620016168262001b5e565b604082019050919050565b600062001630602183620017c7565b91506200163d8262001bad565b604082019050919050565b6200165381620018f6565b82525050565b600060a08201905062001670600083018862001519565b6200167f602083018762001519565b6200168e604083018662001648565b6200169d606083018562001648565b8181036080830152620016b181846200152a565b90509695505050505050565b60006020820190508181036000830152620016d981846200156b565b905092915050565b60006020820190508181036000830152620016fc81620015ac565b9050919050565b600060208201905081810360008301526200171e81620015d3565b9050919050565b600060208201905081810360008301526200174081620015fa565b9050919050565b60006020820190508181036000830152620017628162001621565b9050919050565b600060408201905062001780600083018562001648565b6200178f602083018462001648565b9392505050565b6000604051905090565b600081519050919050565b600081519050919050565b600082825260208201905092915050565b600082825260208201905092915050565b6000620017e582620018f6565b9150620017f283620018f6565b9250827fffffffffffffffffffffffffffffffffffffffffffffffffffffffffffffffff038211156200182a5762001829620019f0565b5b828201905092915050565b60006200184282620018f6565b91506200184f83620018f6565b9250817fffffffffffffffffffffffffffffffffffffffffffffffffffffffffffffffff04831182151516156200188b576200188a620019f0565b5b828202905092915050565b6000620018a382620018d6565b9050919050565b60007fffffffff0000000000000000000000000000000000000000000000000000000082169050919050565b600073ffffffffffffffffffffffffffffffffffffffff82169050919050565b6000819050919050565b60005b838110156200192057808201518184015260208101905062001903565b8381111562001930576000848401525b50505050565b600060028204905060018216806200194f57607f821691505b6020821081141562001966576200196562001a1f565b5b50919050565b620019778262001aa2565b810181811067ffffffffffffffff8211171562001999576200199862001a4e565b5b80604052505050565b6000620019af82620018f6565b91507fffffffffffffffffffffffffffffffffffffffffffffffffffffffffffffffff821415620019e557620019e4620019f0565b5b600182019050919050565b7f4e487b7100000000000000000000000000000000000000000000000000000000600052601160045260246000fd5b7f4e487b7100000000000000000000000000000000000000000000000000000000600052602260045260246000fd5b7f4e487b7100000000000000000000000000000000000000000000000000000000600052604160045260246000fd5b600060033d111562001a9f5760046000803e62001a9c60005162001ab3565b90505b90565b6000601f19601f8301169050919050565b60008160e01c9050919050565b7f455243313135353a207472616e7366657220746f206e6f6e204552433131353560008201527f526563656976657220696d706c656d656e746572000000000000000000000000602082015250565b7f455243313135353a204552433131353552656365697665722072656a6563746560008201527f6420746f6b656e73000000000000000000000000000000000000000000000000602082015250565b7f455243313135353a206275726e20616d6f756e74206578636565647320746f7460008201527f616c537570706c79000000000000000000000000000000000000000000000000602082015250565b7f455243313135353a206d696e7420746f20746865207a65726f2061646472657360008201527f7300000000000000000000000000000000000000000000000000000000000000602082015250565b600060443d101562001c0e5762001c9b565b62001c1862001796565b60043d036004823e80513d602482011167ffffffffffffffff8211171562001c4257505062001c9b565b808201805167ffffffffffffffff81111562001c62575050505062001c9b565b80602083010160043d03850181111562001c8157505050505062001c9b565b62001c92826020018501866200196c565b82955050505050505b90565b62001ca981620018aa565b811462001cb557600080fd5b50565b6147c28062001cc86000396000f3fe6080604052600436106101f15760003560e01c806392658a281161010d578063cbf1304d116100a0578063e985e9c51161006f578063e985e9c51461079c578063f23a6e61146107d9578063f242432a14610816578063f26be3fc1461083f578063ff2dff2d1461086a57610231565b8063cbf1304d146106df578063ddc632621461071d578063e3f8f55514610746578063e52272841461077157610231565b8063a9993b9f116100dc578063a9993b9f14610621578063bd85b0391461064c578063bf701ed414610689578063c3d7f0bf146106b457610231565b806392658a281461057957806393a501e7146105a25780639f2685f7146105cd578063a22cb465146105f857610231565b806339b2727f1161018557806359098a551161015457806359098a55146104d957806370c9f1a5146104e35780637d0c78f2146105235780638d44a9a21461054e57610231565b806339b2727f146103f657806349e66311146104215780634e1273f41461045f5780634f558e791461049c57610231565b80630e89341c116101c15780630e89341c146103155780632568c63714610352578063297fa6da146103905780632eb2c2d6146103cd57610231565b8062fdd58e1461023357806301ffc9a71461027057806303b46fcc146102ad5780630812bd40146102ea57610231565b36610231577f88a5966d370b9919b20f3e2c13ff65706f196a4e32cc2c12bf57088f885258743334604051610227929190613a3e565b60405180910390a1005b005b34801561023f57600080fd5b5061025a60048036038101906102559190613425565b610895565b6040516102679190613d58565b60405180910390f35b34801561027c57600080fd5b506102976004803603810190610292919061351c565b61095e565b6040516102a49190613ac0565b60405180910390f35b3480156102b957600080fd5b506102d460048036038101906102cf9190613461565b610a40565b6040516102e19190613d58565b60405180910390f35b3480156102f657600080fd5b506102ff610b15565b60405161030c9190613d58565b60405180910390f35b34801561032157600080fd5b5061033c6004803603810190610337919061356e565b610b1a565b6040516103499190613af6565b60405180910390f35b34801561035e57600080fd5b5061037960048036038101906103749190613425565b610bae565b604051610387929190613da3565b60405180910390f35b34801561039c57600080fd5b506103b760048036038101906103b29190613236565b610ccb565b6040516103c49190613d58565b60405180910390f35b3480156103d957600080fd5b506103f460048036038101906103ef919061329b565b610ce3565b005b34801561040257600080fd5b5061040b610d84565b6040516104189190613d58565b60405180910390f35b34801561042d57600080fd5b5061044860048036038101906104439190613425565b610d89565b604051610456929190613d73565b60405180910390f35b34801561046b57600080fd5b50610486600480360381019061048191906134b0565b610f27565b6040516104939190613a67565b60405180910390f35b3480156104a857600080fd5b506104c360048036038101906104be919061356e565b6110d8565b6040516104d09190613ac0565b60405180910390f35b6104e16110ec565b005b3480156104ef57600080fd5b5061050a6004803603810190610505919061356e565b611198565b60405161051a9493929190613dcc565b60405180910390f35b34801561052f57600080fd5b50610538611250565b6040516105459190613d58565b60405180910390f35b34801561055a57600080fd5b50610563611255565b6040516105709190613d58565b60405180910390f35b34801561058557600080fd5b506105a0600480360381019061059b9190613597565b61125a565b005b3480156105ae57600080fd5b506105b76116b3565b6040516105c49190613d58565b60405180910390f35b3480156105d957600080fd5b506105e26116b8565b6040516105ef9190613d58565b60405180910390f35b34801561060457600080fd5b5061061f600480360381019061061a91906133e9565b6116bd565b005b34801561062d57600080fd5b506106366116d3565b6040516106439190613d58565b60405180910390f35b34801561065857600080fd5b50610673600480360381019061066e919061356e565b6116d8565b6040516106809190613d58565b60405180910390f35b34801561069557600080fd5b5061069e6116f5565b6040516106ab9190613d58565b60405180910390f35b3480156106c057600080fd5b506106c96116fa565b6040516106d69190613d58565b60405180910390f35b3480156106eb57600080fd5b5061070660048036038101906107019190613425565b6116ff565b604051610714929190613da3565b60405180910390f35b34801561072957600080fd5b50610744600480360381019061073f919061356e565b611730565b005b34801561075257600080fd5b5061075b611a43565b6040516107689190613d58565b60405180910390f35b34801561077d57600080fd5b50610786611a48565b6040516107939190613d58565b60405180910390f35b3480156107a857600080fd5b506107c360048036038101906107be919061325f565b611a4d565b6040516107d09190613ac0565b60405180910390f35b3480156107e557600080fd5b5061080060048036038101906107fb919061335a565b611ae1565b60405161080d9190613adb565b60405180910390f35b34801561082257600080fd5b5061083d6004803603810190610838919061335a565b611af6565b005b34801561084b57600080fd5b50610854611b97565b6040516108619190613d58565b60405180910390f35b34801561087657600080fd5b5061087f611b9c565b60405161088c9190613d58565b60405180910390f35b60008073ffffffffffffffffffffffffffffffffffffffff168373ffffffffffffffffffffffffffffffffffffffff161415610906576040517f08c379a00000000000000000000000000000000000000000000000000000000081526004016108fd90613b98565b60405180910390fd5b60008083815260200190815260200160002060008473ffffffffffffffffffffffffffffffffffffffff1673ffffffffffffffffffffffffffffffffffffffff16815260200190815260200160002054905092915050565b60007fd9b67a26000000000000000000000000000000000000000000000000000000007bffffffffffffffffffffffffffffffffffffffffffffffffffffffff1916827bffffffffffffffffffffffffffffffffffffffffffffffffffffffff19161480610a2957507f0e89341c000000000000000000000000000000000000000000000000000000007bffffffffffffffffffffffffffffffffffffffffffffffffffffffff1916827bffffffffffffffffffffffffffffffffffffffffffffffffffffffff1916145b80610a395750610a3882611e36565b5b9050919050565b600080821415610aa557600460008573ffffffffffffffffffffffffffffffffffffffff1673ffffffffffffffffffffffffffffffffffffffff1681526020019081526020016000206000848152602001908152602001600020600001549050610b0e565b6001821415610b0957600460008573ffffffffffffffffffffffffffffffffffffffff1673ffffffffffffffffffffffffffffffffffffffff1681526020019081526020016000206000848152602001908152602001600020600101549050610b0e565b600090505b9392505050565b600581565b606060028054610b2990614077565b80601f0160208091040260200160405190810160405280929190818152602001828054610b5590614077565b8015610ba25780601f10610b7757610100808354040283529160200191610ba2565b820191906000526020600020905b815481529060010190602001808311610b8557829003601f168201915b50505050509050919050565b600080600560008573ffffffffffffffffffffffffffffffffffffffff1673ffffffffffffffffffffffffffffffffffffffff16815260200190815260200160002060000183600a8110610c2b577f4e487b7100000000000000000000000000000000000000000000000000000000600052603260045260246000fd5b600502016004015442610c3e9190613f8d565b600560008673ffffffffffffffffffffffffffffffffffffffff1673ffffffffffffffffffffffffffffffffffffffff16815260200190815260200160002060000184600a8110610cb8577f4e487b7100000000000000000000000000000000000000000000000000000000600052603260045260246000fd5b6005020160030154915091509250929050565b60076020528060005260406000206000915090505481565b610ceb611ea0565b73ffffffffffffffffffffffffffffffffffffffff168573ffffffffffffffffffffffffffffffffffffffff161480610d315750610d3085610d2b611ea0565b611a4d565b5b610d70576040517f08c379a0000000000000000000000000000000000000000000000000000000008152600401610d6790613b38565b60405180910390fd5b610d7d8585858585611ea8565b5050505050565b600a81565b60006060600560008573ffffffffffffffffffffffffffffffffffffffff1673ffffffffffffffffffffffffffffffffffffffff16815260200190815260200160002060000183600a8110610e07577f4e487b7100000000000000000000000000000000000000000000000000000000600052603260045260246000fd5b6005020160010154600560008673ffffffffffffffffffffffffffffffffffffffff1673ffffffffffffffffffffffffffffffffffffffff16815260200190815260200160002060000184600a8110610e89577f4e487b7100000000000000000000000000000000000000000000000000000000600052603260045260246000fd5b60050201600201808054610e9c90614077565b80601f0160208091040260200160405190810160405280929190818152602001828054610ec890614077565b8015610f155780601f10610eea57610100808354040283529160200191610f15565b820191906000526020600020905b815481529060010190602001808311610ef857829003601f168201915b50505050509050915091509250929050565b60608151835114610f6d576040517f08c379a0000000000000000000000000000000000000000000000000000000008152600401610f6490613cd8565b60405180910390fd5b6000835167ffffffffffffffff811115610fb0577f4e487b7100000000000000000000000000000000000000000000000000000000600052604160045260246000fd5b604051908082528060200260200182016040528015610fde5781602001602082028036833780820191505090505b50905060005b84518110156110cd57611077858281518110611029577f4e487b7100000000000000000000000000000000000000000000000000000000600052603260045260246000fd5b602002602001015185838151811061106a577f4e487b7100000000000000000000000000000000000000000000000000000000600052603260045260246000fd5b6020026020010151610895565b8282815181106110b0577f4e487b7100000000000000000000000000000000000000000000000000000000600052603260045260246000fd5b602002602001018181525050806110c6906140da565b9050610fe4565b508091505092915050565b6000806110e4836116d8565b119050919050565b6003600760003373ffffffffffffffffffffffffffffffffffffffff1673ffffffffffffffffffffffffffffffffffffffff16815260200190815260200160002054101561116f576040517f08c379a000000000000000000000000000000000000000000000000000000000815260040161116690613d38565b60405180910390fd5b61117833612216565b61119633306009600a604051806020016040528060008152506122f3565b565b60066020528060005260406000206000915090508060000154908060010154908060020154908060030180546111cd90614077565b80601f01602080910402602001604051908101604052809291908181526020018280546111f990614077565b80156112465780601f1061121b57610100808354040283529160200191611246565b820191906000526020600020905b81548152906001019060200180831161122957829003601f168201915b5050505050905084565b600981565b600681565b6001600460003373ffffffffffffffffffffffffffffffffffffffff1673ffffffffffffffffffffffffffffffffffffffff16815260200190815260200160002060008381526020019081526020016000206000015410156112f1576040517f08c379a00000000000000000000000000000000000000000000000000000000081526004016112e890613bb8565b60405180910390fd5b6000600760003373ffffffffffffffffffffffffffffffffffffffff1673ffffffffffffffffffffffffffffffffffffffff16815260200190815260200160002054141561137f576003600760003373ffffffffffffffffffffffffffffffffffffffff1673ffffffffffffffffffffffffffffffffffffffff168152602001908152602001600020819055505b600760003373ffffffffffffffffffffffffffffffffffffffff1673ffffffffffffffffffffffffffffffffffffffff168152602001908152602001600020548210611400576040517f08c379a00000000000000000000000000000000000000000000000000000000081526004016113f790613b78565b60405180910390fd5b60011515600560003373ffffffffffffffffffffffffffffffffffffffff1673ffffffffffffffffffffffffffffffffffffffff16815260200190815260200160002060000183600a811061147e577f4e487b7100000000000000000000000000000000000000000000000000000000600052603260045260246000fd5b6005020160000160009054906101000a900460ff16151514156114d6576040517f08c379a00000000000000000000000000000000000000000000000000000000081526004016114cd90613bf8565b60405180910390fd5b6001600460003373ffffffffffffffffffffffffffffffffffffffff1673ffffffffffffffffffffffffffffffffffffffff1681526020019081526020016000206000838152602001908152602001600020600001600082825461153a9190613f8d565b925050819055506001600460003373ffffffffffffffffffffffffffffffffffffffff1673ffffffffffffffffffffffffffffffffffffffff168152602001908152602001600020600083815260200190815260200160002060010160008282546115a59190613f37565b925050819055506000600560003373ffffffffffffffffffffffffffffffffffffffff1673ffffffffffffffffffffffffffffffffffffffff16815260200190815260200160002060000183600a8110611628577f4e487b7100000000000000000000000000000000000000000000000000000000600052603260045260246000fd5b600502019050428160040181905550818160010181905550600660008381526020019081526020016000206003018160020190805461166690614077565b611671929190612f4f565b506006600083815260200190815260200160002060010154816003018190555060018160000160006101000a81548160ff021916908315150217905550505050565b600c81565b600381565b6116cf6116c8611ea0565b83836124e3565b5050565b600881565b600060036000838152602001908152602001600020549050919050565b600781565b600b81565b6004602052816000526040600020602052806000526040600020600091509150508060000154908060010154905082565b6000600560003373ffffffffffffffffffffffffffffffffffffffff1673ffffffffffffffffffffffffffffffffffffffff16815260200190815260200160002060000182600a81106117ac577f4e487b7100000000000000000000000000000000000000000000000000000000600052603260045260246000fd5b6005020190506000816001015414156117fa576040517f08c379a00000000000000000000000000000000000000000000000000000000081526004016117f190613bd8565b60405180910390fd5b806003015481600401544261180f9190613f8d565b1015611850576040517f08c379a000000000000000000000000000000000000000000000000000000000815260040161184790613c98565b60405180910390fd5b6000816001015490506118963382600160066000868152602001908152602001600020600201546118819190613f8d565b60405180602001604052806000815250612650565b600560003373ffffffffffffffffffffffffffffffffffffffff1673ffffffffffffffffffffffffffffffffffffffff16815260200190815260200160002060000183600a8110611910577f4e487b7100000000000000000000000000000000000000000000000000000000600052603260045260246000fd5b60050201600080820160006101000a81549060ff021916905560018201600090556002820160006119419190612fdc565b6003820160009055600482016000905550506001600460003373ffffffffffffffffffffffffffffffffffffffff1673ffffffffffffffffffffffffffffffffffffffff168152602001908152602001600020600083815260200190815260200160002060010160008282546119b79190613f8d565b925050819055506006600082815260200190815260200160002060020154600460003373ffffffffffffffffffffffffffffffffffffffff1673ffffffffffffffffffffffffffffffffffffffff16815260200190815260200160002060008381526020019081526020016000206000016000828254611a379190613f37565b92505081905550505050565b600281565b600481565b6000600160008473ffffffffffffffffffffffffffffffffffffffff1673ffffffffffffffffffffffffffffffffffffffff16815260200190815260200160002060008373ffffffffffffffffffffffffffffffffffffffff1673ffffffffffffffffffffffffffffffffffffffff16815260200190815260200160002060009054906101000a900460ff16905092915050565b600063f23a6e6160e01b905095945050505050565b611afe611ea0565b73ffffffffffffffffffffffffffffffffffffffff168573ffffffffffffffffffffffffffffffffffffffff161480611b445750611b4385611b3e611ea0565b611a4d565b5b611b83576040517f08c379a0000000000000000000000000000000000000000000000000000000008152600401611b7a90613b38565b60405180910390fd5b611b9085858585856122f3565b5050505050565b600081565b600181565b611baf868686868686611e2e565b600073ffffffffffffffffffffffffffffffffffffffff168573ffffffffffffffffffffffffffffffffffffffff161415611cad5760005b8351811015611cab57828181518110611c29577f4e487b7100000000000000000000000000000000000000000000000000000000600052603260045260246000fd5b602002602001015160036000868481518110611c6e577f4e487b7100000000000000000000000000000000000000000000000000000000600052603260045260246000fd5b602002602001015181526020019081526020016000206000828254611c939190613f37565b9250508190555080611ca4906140da565b9050611be7565b505b600073ffffffffffffffffffffffffffffffffffffffff168473ffffffffffffffffffffffffffffffffffffffff161415611e035760005b8351811015611e01576000848281518110611d29577f4e487b7100000000000000000000000000000000000000000000000000000000600052603260045260246000fd5b602002602001015190506000848381518110611d6e577f4e487b7100000000000000000000000000000000000000000000000000000000600052603260045260246000fd5b6020026020010151905060006003600084815260200190815260200160002054905081811015611dd3576040517f08c379a0000000000000000000000000000000000000000000000000000000008152600401611dca90613c58565b60405180910390fd5b818103600360008581526020019081526020016000208190555050505080611dfa906140da565b9050611ce5565b505b505050505050565b6000808273ffffffffffffffffffffffffffffffffffffffff163b119050919050565b505050505050565b60007f01ffc9a7000000000000000000000000000000000000000000000000000000007bffffffffffffffffffffffffffffffffffffffffffffffffffffffff1916827bffffffffffffffffffffffffffffffffffffffffffffffffffffffff1916149050919050565b600033905090565b8151835114611eec576040517f08c379a0000000000000000000000000000000000000000000000000000000008152600401611ee390613cf8565b60405180910390fd5b600073ffffffffffffffffffffffffffffffffffffffff168473ffffffffffffffffffffffffffffffffffffffff161415611f5c576040517f08c379a0000000000000000000000000000000000000000000000000000000008152600401611f5390613c18565b60405180910390fd5b6000611f66611ea0565b9050611f76818787878787612801565b60005b8451811015612173576000858281518110611fbd577f4e487b7100000000000000000000000000000000000000000000000000000000600052603260045260246000fd5b602002602001015190506000858381518110612002577f4e487b7100000000000000000000000000000000000000000000000000000000600052603260045260246000fd5b60200260200101519050600080600084815260200190815260200160002060008b73ffffffffffffffffffffffffffffffffffffffff1673ffffffffffffffffffffffffffffffffffffffff168152602001908152602001600020549050818110156120a3576040517f08c379a000000000000000000000000000000000000000000000000000000000815260040161209a90613c38565b60405180910390fd5b81810360008085815260200190815260200160002060008c73ffffffffffffffffffffffffffffffffffffffff1673ffffffffffffffffffffffffffffffffffffffff168152602001908152602001600020819055508160008085815260200190815260200160002060008b73ffffffffffffffffffffffffffffffffffffffff1673ffffffffffffffffffffffffffffffffffffffff16815260200190815260200160002060008282546121589190613f37565b925050819055505050508061216c906140da565b9050611f79565b508473ffffffffffffffffffffffffffffffffffffffff168673ffffffffffffffffffffffffffffffffffffffff168273ffffffffffffffffffffffffffffffffffffffff167f4a39dc06d4c0dbc64b70af90fd698a233a518aa5d07e595d983b8c0526c8f7fb87876040516121ea929190613a89565b60405180910390a4612200818787878787612817565b61220e81878787878761281f565b505050505050565b600a600760008373ffffffffffffffffffffffffffffffffffffffff1673ffffffffffffffffffffffffffffffffffffffff168152602001908152602001600020541115612299576040517f08c379a000000000000000000000000000000000000000000000000000000000815260040161229090613c78565b60405180910390fd5b6001600760008373ffffffffffffffffffffffffffffffffffffffff1673ffffffffffffffffffffffffffffffffffffffff16815260200190815260200160002060008282546122e99190613f37565b9250508190555050565b600073ffffffffffffffffffffffffffffffffffffffff168473ffffffffffffffffffffffffffffffffffffffff161415612363576040517f08c379a000000000000000000000000000000000000000000000000000000000815260040161235a90613c18565b60405180910390fd5b6000600460008773ffffffffffffffffffffffffffffffffffffffff1673ffffffffffffffffffffffffffffffffffffffff1681526020019081526020016000206000858152602001908152602001600020600001549050828110156123fe576040517f08c379a00000000000000000000000000000000000000000000000000000000081526004016123f590613c38565b60405180910390fd5b828161240a9190613f8d565b905082600460008773ffffffffffffffffffffffffffffffffffffffff1673ffffffffffffffffffffffffffffffffffffffff1681526020019081526020016000206000868152602001908152602001600020600001600082825461246f9190613f37565b9250508190555080600460008873ffffffffffffffffffffffffffffffffffffffff1673ffffffffffffffffffffffffffffffffffffffff1681526020019081526020016000206000868152602001908152602001600020600001819055506124db8686868686612a06565b505050505050565b8173ffffffffffffffffffffffffffffffffffffffff168373ffffffffffffffffffffffffffffffffffffffff161415612552576040517f08c379a000000000000000000000000000000000000000000000000000000000815260040161254990613cb8565b60405180910390fd5b80600160008573ffffffffffffffffffffffffffffffffffffffff1673ffffffffffffffffffffffffffffffffffffffff16815260200190815260200160002060008473ffffffffffffffffffffffffffffffffffffffff1673ffffffffffffffffffffffffffffffffffffffff16815260200190815260200160002060006101000a81548160ff0219169083151502179055508173ffffffffffffffffffffffffffffffffffffffff168373ffffffffffffffffffffffffffffffffffffffff167f17307eab39ab6107e8899845ad3d59bd9653f200f220920489ca2b5937696c31836040516126439190613ac0565b60405180910390a3505050565b600073ffffffffffffffffffffffffffffffffffffffff168473ffffffffffffffffffffffffffffffffffffffff1614156126c0576040517f08c379a00000000000000000000000000000000000000000000000000000000081526004016126b790613d18565b60405180910390fd5b60006126ca611ea0565b905060006126d785612ca2565b905060006126e485612ca2565b90506126f583600089858589612801565b8460008088815260200190815260200160002060008973ffffffffffffffffffffffffffffffffffffffff1673ffffffffffffffffffffffffffffffffffffffff16815260200190815260200160002060008282546127549190613f37565b925050819055508673ffffffffffffffffffffffffffffffffffffffff16600073ffffffffffffffffffffffffffffffffffffffff168473ffffffffffffffffffffffffffffffffffffffff167fc3d58168c5ae7397731d063d5bbf3d657854427343f4c083240f7aacaa2d0f6289896040516127d2929190613da3565b60405180910390a46127e983600089858589612817565b6127f883600089898989612d68565b50505050505050565b61280f868686868686611ba1565b505050505050565b505050505050565b61283e8473ffffffffffffffffffffffffffffffffffffffff16611e0b565b156129fe578373ffffffffffffffffffffffffffffffffffffffff1663bc197c8187878686866040518663ffffffff1660e01b815260040161288495949392919061397c565b602060405180830381600087803b15801561289e57600080fd5b505af19250505080156128cf57506040513d601f19601f820116820180604052508101906128cc9190613545565b60015b612975576128db6141b0565b806308c379a0141561293857506128f061469a565b806128fb575061293a565b806040517f08c379a000000000000000000000000000000000000000000000000000000000815260040161292f9190613af6565b60405180910390fd5b505b6040517f08c379a000000000000000000000000000000000000000000000000000000000815260040161296c90613b18565b60405180910390fd5b63bc197c8160e01b7bffffffffffffffffffffffffffffffffffffffffffffffffffffffff1916817bffffffffffffffffffffffffffffffffffffffffffffffffffffffff1916146129fc576040517f08c379a00000000000000000000000000000000000000000000000000000000081526004016129f390613b58565b60405180910390fd5b505b505050505050565b600073ffffffffffffffffffffffffffffffffffffffff168473ffffffffffffffffffffffffffffffffffffffff161415612a76576040517f08c379a0000000000000000000000000000000000000000000000000000000008152600401612a6d90613c18565b60405180910390fd5b6000612a80611ea0565b90506000612a8d85612ca2565b90506000612a9a85612ca2565b9050612aaa838989858589612801565b600080600088815260200190815260200160002060008a73ffffffffffffffffffffffffffffffffffffffff1673ffffffffffffffffffffffffffffffffffffffff16815260200190815260200160002054905085811015612b41576040517f08c379a0000000000000000000000000000000000000000000000000000000008152600401612b3890613c38565b60405180910390fd5b85810360008089815260200190815260200160002060008b73ffffffffffffffffffffffffffffffffffffffff1673ffffffffffffffffffffffffffffffffffffffff168152602001908152602001600020819055508560008089815260200190815260200160002060008a73ffffffffffffffffffffffffffffffffffffffff1673ffffffffffffffffffffffffffffffffffffffff1681526020019081526020016000206000828254612bf69190613f37565b925050819055508773ffffffffffffffffffffffffffffffffffffffff168973ffffffffffffffffffffffffffffffffffffffff168573ffffffffffffffffffffffffffffffffffffffff167fc3d58168c5ae7397731d063d5bbf3d657854427343f4c083240f7aacaa2d0f628a8a604051612c73929190613da3565b60405180910390a4612c89848a8a86868a612817565b612c97848a8a8a8a8a612d68565b505050505050505050565b60606000600167ffffffffffffffff811115612ce7577f4e487b7100000000000000000000000000000000000000000000000000000000600052604160045260246000fd5b604051908082528060200260200182016040528015612d155781602001602082028036833780820191505090505b5090508281600081518110612d53577f4e487b7100000000000000000000000000000000000000000000000000000000600052603260045260246000fd5b60200260200101818152505080915050919050565b612d878473ffffffffffffffffffffffffffffffffffffffff16611e0b565b15612f47578373ffffffffffffffffffffffffffffffffffffffff1663f23a6e6187878686866040518663ffffffff1660e01b8152600401612dcd9594939291906139e4565b602060405180830381600087803b158015612de757600080fd5b505af1925050508015612e1857506040513d601f19601f82011682018060405250810190612e159190613545565b60015b612ebe57612e246141b0565b806308c379a01415612e815750612e3961469a565b80612e445750612e83565b806040517f08c379a0000000000000000000000000000000000000000000000000000000008152600401612e789190613af6565b60405180910390fd5b505b6040517f08c379a0000000000000000000000000000000000000000000000000000000008152600401612eb590613b18565b60405180910390fd5b63f23a6e6160e01b7bffffffffffffffffffffffffffffffffffffffffffffffffffffffff1916817bffffffffffffffffffffffffffffffffffffffffffffffffffffffff191614612f45576040517f08c379a0000000000000000000000000000000000000000000000000000000008152600401612f3c90613b58565b60405180910390fd5b505b505050505050565b828054612f5b90614077565b90600052602060002090601f016020900481019282612f7d5760008555612fcb565b82601f10612f8e5780548555612fcb565b82800160010185558215612fcb57600052602060002091601f016020900482015b82811115612fca578254825591600101919060010190612faf565b5b509050612fd8919061301c565b5090565b508054612fe890614077565b6000825580601f10612ffa5750613019565b601f016020900490600052602060002090810190613018919061301c565b5b50565b5b8082111561303557600081600090555060010161301d565b5090565b600061304c61304784613e3d565b613e18565b9050808382526020820190508285602086028201111561306b57600080fd5b60005b8581101561309b5781613081888261314f565b84526020840193506020830192505060018101905061306e565b5050509392505050565b60006130b86130b384613e69565b613e18565b905080838252602082019050828560208602820111156130d757600080fd5b60005b8581101561310757816130ed8882613221565b8452602084019350602083019250506001810190506130da565b5050509392505050565b600061312461311f84613e95565b613e18565b90508281526020810184848401111561313c57600080fd5b613147848285614035565b509392505050565b60008135905061315e81614730565b92915050565b600082601f83011261317557600080fd5b8135613185848260208601613039565b91505092915050565b600082601f83011261319f57600080fd5b81356131af8482602086016130a5565b91505092915050565b6000813590506131c781614747565b92915050565b6000813590506131dc8161475e565b92915050565b6000815190506131f18161475e565b92915050565b600082601f83011261320857600080fd5b8135613218848260208601613111565b91505092915050565b60008135905061323081614775565b92915050565b60006020828403121561324857600080fd5b60006132568482850161314f565b91505092915050565b6000806040838503121561327257600080fd5b60006132808582860161314f565b92505060206132918582860161314f565b9150509250929050565b600080600080600060a086880312156132b357600080fd5b60006132c18882890161314f565b95505060206132d28882890161314f565b945050604086013567ffffffffffffffff8111156132ef57600080fd5b6132fb8882890161318e565b935050606086013567ffffffffffffffff81111561331857600080fd5b6133248882890161318e565b925050608086013567ffffffffffffffff81111561334157600080fd5b61334d888289016131f7565b9150509295509295909350565b600080600080600060a0868803121561337257600080fd5b60006133808882890161314f565b95505060206133918882890161314f565b94505060406133a288828901613221565b93505060606133b388828901613221565b925050608086013567ffffffffffffffff8111156133d057600080fd5b6133dc888289016131f7565b9150509295509295909350565b600080604083850312156133fc57600080fd5b600061340a8582860161314f565b925050602061341b858286016131b8565b9150509250929050565b6000806040838503121561343857600080fd5b60006134468582860161314f565b925050602061345785828601613221565b9150509250929050565b60008060006060848603121561347657600080fd5b60006134848682870161314f565b935050602061349586828701613221565b92505060406134a686828701613221565b9150509250925092565b600080604083850312156134c357600080fd5b600083013567ffffffffffffffff8111156134dd57600080fd5b6134e985828601613164565b925050602083013567ffffffffffffffff81111561350657600080fd5b6135128582860161318e565b9150509250929050565b60006020828403121561352e57600080fd5b600061353c848285016131cd565b91505092915050565b60006020828403121561355757600080fd5b6000613565848285016131e2565b91505092915050565b60006020828403121561358057600080fd5b600061358e84828501613221565b91505092915050565b600080604083850312156135aa57600080fd5b60006135b885828601613221565b92505060206135c985828601613221565b9150509250929050565b60006135df838361395e565b60208301905092915050565b6135f481613fc1565b82525050565b600061360582613ed6565b61360f8185613f04565b935061361a83613ec6565b8060005b8381101561364b57815161363288826135d3565b975061363d83613ef7565b92505060018101905061361e565b5085935050505092915050565b61366181613fd3565b82525050565b61367081613fdf565b82525050565b600061368182613ee1565b61368b8185613f15565b935061369b818560208601614044565b6136a4816141d2565b840191505092915050565b60006136ba82613eec565b6136c48185613f26565b93506136d4818560208601614044565b6136dd816141d2565b840191505092915050565b60006136f5603483613f26565b9150613700826141f0565b604082019050919050565b6000613718602f83613f26565b91506137238261423f565b604082019050919050565b600061373b602883613f26565b91506137468261428e565b604082019050919050565b600061375e601a83613f26565b9150613769826142dd565b602082019050919050565b6000613781602a83613f26565b915061378c82614306565b604082019050919050565b60006137a4601a83613f26565b91506137af82614355565b602082019050919050565b60006137c7601d83613f26565b91506137d28261437e565b602082019050919050565b60006137ea601783613f26565b91506137f5826143a7565b602082019050919050565b600061380d602583613f26565b9150613818826143d0565b604082019050919050565b6000613830602a83613f26565b915061383b8261441f565b604082019050919050565b6000613853602883613f26565b915061385e8261446e565b604082019050919050565b6000613876602083613f26565b9150613881826144bd565b602082019050919050565b6000613899601683613f26565b91506138a4826144e6565b602082019050919050565b60006138bc602983613f26565b91506138c78261450f565b604082019050919050565b60006138df602983613f26565b91506138ea8261455e565b604082019050919050565b6000613902602883613f26565b915061390d826145ad565b604082019050919050565b6000613925602183613f26565b9150613930826145fc565b604082019050919050565b6000613948603483613f26565b91506139538261464b565b604082019050919050565b6139678161402b565b82525050565b6139768161402b565b82525050565b600060a08201905061399160008301886135eb565b61399e60208301876135eb565b81810360408301526139b081866135fa565b905081810360608301526139c481856135fa565b905081810360808301526139d88184613676565b90509695505050505050565b600060a0820190506139f960008301886135eb565b613a0660208301876135eb565b613a13604083018661396d565b613a20606083018561396d565b8181036080830152613a328184613676565b90509695505050505050565b6000604082019050613a5360008301856135eb565b613a60602083018461396d565b9392505050565b60006020820190508181036000830152613a8181846135fa565b905092915050565b60006040820190508181036000830152613aa381856135fa565b90508181036020830152613ab781846135fa565b90509392505050565b6000602082019050613ad56000830184613658565b92915050565b6000602082019050613af06000830184613667565b92915050565b60006020820190508181036000830152613b1081846136af565b905092915050565b60006020820190508181036000830152613b31816136e8565b9050919050565b60006020820190508181036000830152613b518161370b565b9050919050565b60006020820190508181036000830152613b718161372e565b9050919050565b60006020820190508181036000830152613b9181613751565b9050919050565b60006020820190508181036000830152613bb181613774565b9050919050565b60006020820190508181036000830152613bd181613797565b9050919050565b60006020820190508181036000830152613bf1816137ba565b9050919050565b60006020820190508181036000830152613c11816137dd565b9050919050565b60006020820190508181036000830152613c3181613800565b9050919050565b60006020820190508181036000830152613c5181613823565b9050919050565b60006020820190508181036000830152613c7181613846565b9050919050565b60006020820190508181036000830152613c9181613869565b9050919050565b60006020820190508181036000830152613cb18161388c565b9050919050565b60006020820190508181036000830152613cd1816138af565b9050919050565b60006020820190508181036000830152613cf1816138d2565b9050919050565b60006020820190508181036000830152613d11816138f5565b9050919050565b60006020820190508181036000830152613d3181613918565b9050919050565b60006020820190508181036000830152613d518161393b565b9050919050565b6000602082019050613d6d600083018461396d565b92915050565b6000604082019050613d88600083018561396d565b8181036020830152613d9a81846136af565b90509392505050565b6000604082019050613db8600083018561396d565b613dc5602083018461396d565b9392505050565b6000608082019050613de1600083018761396d565b613dee602083018661396d565b613dfb604083018561396d565b8181036060830152613e0d81846136af565b905095945050505050565b6000613e22613e33565b9050613e2e82826140a9565b919050565b6000604051905090565b600067ffffffffffffffff821115613e5857613e57614181565b5b602082029050602081019050919050565b600067ffffffffffffffff821115613e8457613e83614181565b5b602082029050602081019050919050565b600067ffffffffffffffff821115613eb057613eaf614181565b5b613eb9826141d2565b9050602081019050919050565b6000819050602082019050919050565b600081519050919050565b600081519050919050565b600081519050919050565b6000602082019050919050565b600082825260208201905092915050565b600082825260208201905092915050565b600082825260208201905092915050565b6000613f428261402b565b9150613f4d8361402b565b9250827fffffffffffffffffffffffffffffffffffffffffffffffffffffffffffffffff03821115613f8257613f81614123565b5b828201905092915050565b6000613f988261402b565b9150613fa38361402b565b925082821015613fb657613fb5614123565b5b828203905092915050565b6000613fcc8261400b565b9050919050565b60008115159050919050565b60007fffffffff0000000000000000000000000000000000000000000000000000000082169050919050565b600073ffffffffffffffffffffffffffffffffffffffff82169050919050565b6000819050919050565b82818337600083830152505050565b60005b83811015614062578082015181840152602081019050614047565b83811115614071576000848401525b50505050565b6000600282049050600182168061408f57607f821691505b602082108114156140a3576140a2614152565b5b50919050565b6140b2826141d2565b810181811067ffffffffffffffff821117156140d1576140d0614181565b5b80604052505050565b60006140e58261402b565b91507fffffffffffffffffffffffffffffffffffffffffffffffffffffffffffffffff82141561411857614117614123565b5b600182019050919050565b7f4e487b7100000000000000000000000000000000000000000000000000000000600052601160045260246000fd5b7f4e487b7100000000000000000000000000000000000000000000000000000000600052602260045260246000fd5b7f4e487b7100000000000000000000000000000000000000000000000000000000600052604160045260246000fd5b600060033d11156141cf5760046000803e6141cc6000516141e3565b90505b90565b6000601f19601f8301169050919050565b60008160e01c9050919050565b7f455243313135353a207472616e7366657220746f206e6f6e204552433131353560008201527f526563656976657220696d706c656d656e746572000000000000000000000000602082015250565b7f455243313135353a2063616c6c6572206973206e6f7420746f6b656e206f776e60008201527f6572206e6f7220617070726f7665640000000000000000000000000000000000602082015250565b7f455243313135353a204552433131353552656365697665722072656a6563746560008201527f6420746f6b656e73000000000000000000000000000000000000000000000000602082015250565b7f596f7520646f6e2774206f776e20656e6f756768206c616e6421000000000000600082015250565b7f455243313135353a2061646472657373207a65726f206973206e6f742061207660008201527f616c6964206f776e657200000000000000000000000000000000000000000000602082015250565b7f4e6f7420656e6f7567682063726f707320746f20706c616e7421000000000000600082015250565b7f4e6f7468696e6720706c616e74656420696e207468697320706c6f7421000000600082015250565b7f5468697320706c6f74206973206e6f7420656d70747921000000000000000000600082015250565b7f455243313135353a207472616e7366657220746f20746865207a65726f20616460008201527f6472657373000000000000000000000000000000000000000000000000000000602082015250565b7f455243313135353a20696e73756666696369656e742062616c616e636520666f60008201527f72207472616e7366657200000000000000000000000000000000000000000000602082015250565b7f455243313135353a206275726e20616d6f756e74206578636565647320746f7460008201527f616c537570706c79000000000000000000000000000000000000000000000000602082015250565b7f43616e277420696e637265617365206e756d626572206f66205f706c6f74732e600082015250565b7f43726f70206e6f7420646f6e652067726f77696e672e00000000000000000000600082015250565b7f455243313135353a2073657474696e6720617070726f76616c2073746174757360008201527f20666f722073656c660000000000000000000000000000000000000000000000602082015250565b7f455243313135353a206163636f756e747320616e6420696473206c656e67746860008201527f206d69736d617463680000000000000000000000000000000000000000000000602082015250565b7f455243313135353a2069647320616e6420616d6f756e7473206c656e6774682060008201527f6d69736d61746368000000000000000000000000000000000000000000000000602082015250565b7f455243313135353a206d696e7420746f20746865207a65726f2061646472657360008201527f7300000000000000000000000000000000000000000000000000000000000000602082015250565b7f55736572206d75737420706c616e742063726f7073206f6e6365206265666f7260008201527f652070757263686173696e67205f706c6f747321000000000000000000000000602082015250565b600060443d10156146aa5761472d565b6146b2613e33565b60043d036004823e80513d602482011167ffffffffffffffff821117156146da57505061472d565b808201805167ffffffffffffffff8111156146f8575050505061472d565b80602083010160043d03850181111561471557505050505061472d565b614724826020018501866140a9565b82955050505050505b90565b61473981613fc1565b811461474457600080fd5b50565b61475081613fd3565b811461475b57600080fd5b50565b61476781613fdf565b811461477257600080fd5b50565b61477e8161402b565b811461478957600080fd5b5056fea26469706673582212206726dae30e994e642a940edf53dc9b4b76273ff08c2b3f0101c9f48281b342df64736f6c6343000801003368747470733a2f2f626c6f636b63726f70732e73332e616d617a6f6e6177732e636f6d2f746f6b656e732f7b69647d2e706e67",
  "linkReferences": {},
  "deployedLinkReferences": {}
}