{
  "_format": "hh-sol-artifact-1",
  "contractName": "CropFarm",
  "sourceName": "contracts/Token.sol",
  "abi": [
    {
      "inputs": [],
      "stateMutability": "nonpayable",
      "type": "constructor"
    },
    {
      "anonymous": false,
      "inputs": [
        {
          "indexed": true,
          "internalType": "address",
          "name": "account",
          "type": "address"
        },
        {
          "indexed": true,
          "internalType": "address",
          "name": "operator",
          "type": "address"
        },
        {
          "indexed": false,
          "internalType": "bool",
          "name": "approved",
          "type": "bool"
        }
      ],
      "name": "ApprovalForAll",
      "type": "event"
    },
    {
      "anonymous": false,
      "inputs": [
        {
          "indexed": true,
          "internalType": "address",
          "name": "operator",
          "type": "address"
        },
        {
          "indexed": true,
          "internalType": "address",
          "name": "from",
          "type": "address"
        },
        {
          "indexed": true,
          "internalType": "address",
          "name": "to",
          "type": "address"
        },
        {
          "indexed": false,
          "internalType": "uint256[]",
          "name": "ids",
          "type": "uint256[]"
        },
        {
          "indexed": false,
          "internalType": "uint256[]",
          "name": "values",
          "type": "uint256[]"
        }
      ],
      "name": "TransferBatch",
      "type": "event"
    },
    {
      "anonymous": false,
      "inputs": [
        {
          "indexed": true,
          "internalType": "address",
          "name": "operator",
          "type": "address"
        },
        {
          "indexed": true,
          "internalType": "address",
          "name": "from",
          "type": "address"
        },
        {
          "indexed": true,
          "internalType": "address",
          "name": "to",
          "type": "address"
        },
        {
          "indexed": false,
          "internalType": "uint256",
          "name": "id",
          "type": "uint256"
        },
        {
          "indexed": false,
          "internalType": "uint256",
          "name": "value",
          "type": "uint256"
        }
      ],
      "name": "TransferSingle",
      "type": "event"
    },
    {
      "anonymous": false,
      "inputs": [
        {
          "indexed": false,
          "internalType": "string",
          "name": "value",
          "type": "string"
        },
        {
          "indexed": true,
          "internalType": "uint256",
          "name": "id",
          "type": "uint256"
        }
      ],
      "name": "URI",
      "type": "event"
    },
    {
      "stateMutability": "payable",
      "type": "fallback"
    },
    {
      "inputs": [],
      "name": "CORN",
      "outputs": [
        {
          "internalType": "uint256",
          "name": "",
          "type": "uint256"
        }
      ],
      "stateMutability": "view",
      "type": "function"
    },
    {
      "inputs": [],
      "name": "MELON",
      "outputs": [
        {
          "internalType": "uint256",
          "name": "",
          "type": "uint256"
        }
      ],
      "stateMutability": "view",
      "type": "function"
    },
    {
      "inputs": [],
      "name": "NULL",
      "outputs": [
        {
          "internalType": "uint256",
          "name": "",
          "type": "uint256"
        }
      ],
      "stateMutability": "view",
      "type": "function"
    },
    {
      "inputs": [],
      "name": "TOMATO",
      "outputs": [
        {
          "internalType": "uint256",
          "name": "",
          "type": "uint256"
        }
      ],
      "stateMutability": "view",
      "type": "function"
    },
    {
      "inputs": [],
      "name": "WHEAT",
      "outputs": [
        {
          "internalType": "uint256",
          "name": "",
          "type": "uint256"
        }
      ],
      "stateMutability": "view",
      "type": "function"
    },
    {
      "inputs": [
        {
          "internalType": "address",
          "name": "account",
          "type": "address"
        },
        {
          "internalType": "uint256",
          "name": "id",
          "type": "uint256"
        }
      ],
      "name": "balanceOf",
      "outputs": [
        {
          "internalType": "uint256",
          "name": "",
          "type": "uint256"
        }
      ],
      "stateMutability": "view",
      "type": "function"
    },
    {
      "inputs": [
        {
          "internalType": "address[]",
          "name": "accounts",
          "type": "address[]"
        },
        {
          "internalType": "uint256[]",
          "name": "ids",
          "type": "uint256[]"
        }
      ],
      "name": "balanceOfBatch",
      "outputs": [
        {
          "internalType": "uint256[]",
          "name": "",
          "type": "uint256[]"
        }
      ],
      "stateMutability": "view",
      "type": "function"
    },
    {
      "inputs": [
        {
          "internalType": "address",
          "name": "",
          "type": "address"
        },
        {
          "internalType": "uint256",
          "name": "",
          "type": "uint256"
        }
      ],
      "name": "balances",
      "outputs": [
        {
          "internalType": "uint256",
          "name": "availableBalance",
          "type": "uint256"
        },
        {
          "internalType": "uint256",
          "name": "stakedBalance",
          "type": "uint256"
        }
      ],
      "stateMutability": "view",
      "type": "function"
    },
    {
      "inputs": [],
      "name": "buyPlot",
      "outputs": [],
      "stateMutability": "nonpayable",
      "type": "function"
    },
    {
      "inputs": [
        {
          "internalType": "uint256",
          "name": "",
          "type": "uint256"
        }
      ],
      "name": "crops",
      "outputs": [
        {
          "internalType": "uint256",
          "name": "id",
          "type": "uint256"
        },
        {
          "internalType": "uint256",
          "name": "growTime",
          "type": "uint256"
        },
        {
          "internalType": "uint256",
          "name": "harvest",
          "type": "uint256"
        },
        {
          "internalType": "string",
          "name": "name",
          "type": "string"
        }
      ],
      "stateMutability": "view",
      "type": "function"
    },
    {
      "inputs": [
        {
          "internalType": "uint256",
          "name": "id",
          "type": "uint256"
        }
      ],
      "name": "exists",
      "outputs": [
        {
          "internalType": "bool",
          "name": "",
          "type": "bool"
        }
      ],
      "stateMutability": "view",
      "type": "function"
    },
    {
      "inputs": [
        {
          "internalType": "uint256",
          "name": "_plot",
          "type": "uint256"
        }
      ],
      "name": "harvest",
      "outputs": [],
      "stateMutability": "nonpayable",
      "type": "function"
    },
    {
      "inputs": [
        {
          "internalType": "address",
          "name": "account",
          "type": "address"
        },
        {
          "internalType": "address",
          "name": "operator",
          "type": "address"
        }
      ],
      "name": "isApprovedForAll",
      "outputs": [
        {
          "internalType": "bool",
          "name": "",
          "type": "bool"
        }
      ],
      "stateMutability": "view",
      "type": "function"
    },
    {
      "inputs": [
        {
          "internalType": "address",
          "name": "",
          "type": "address"
        },
        {
          "internalType": "address",
          "name": "",
          "type": "address"
        },
        {
          "internalType": "uint256",
          "name": "",
          "type": "uint256"
        },
        {
          "internalType": "uint256",
          "name": "",
          "type": "uint256"
        },
        {
          "internalType": "bytes",
          "name": "",
          "type": "bytes"
        }
      ],
      "name": "onERC1155Received",
      "outputs": [
        {
          "internalType": "bytes4",
          "name": "",
          "type": "bytes4"
        }
      ],
      "stateMutability": "nonpayable",
      "type": "function"
    },
    {
      "inputs": [
        {
          "internalType": "uint256",
          "name": "_plot",
          "type": "uint256"
        },
        {
          "internalType": "uint256",
          "name": "_id",
          "type": "uint256"
        }
      ],
      "name": "plant",
      "outputs": [],
      "stateMutability": "nonpayable",
      "type": "function"
    },
    {
      "inputs": [
        {
          "internalType": "address",
          "name": "",
          "type": "address"
        }
      ],
      "name": "plotnum",
      "outputs": [
        {
          "internalType": "uint256",
          "name": "",
          "type": "uint256"
        }
      ],
      "stateMutability": "view",
      "type": "function"
    },
    {
      "inputs": [
        {
          "internalType": "address",
          "name": "from",
          "type": "address"
        },
        {
          "internalType": "address",
          "name": "to",
          "type": "address"
        },
        {
          "internalType": "uint256[]",
          "name": "ids",
          "type": "uint256[]"
        },
        {
          "internalType": "uint256[]",
          "name": "amounts",
          "type": "uint256[]"
        },
        {
          "internalType": "bytes",
          "name": "data",
          "type": "bytes"
        }
      ],
      "name": "safeBatchTransferFrom",
      "outputs": [],
      "stateMutability": "nonpayable",
      "type": "function"
    },
    {
      "inputs": [
        {
          "internalType": "address",
          "name": "from",
          "type": "address"
        },
        {
          "internalType": "address",
          "name": "to",
          "type": "address"
        },
        {
          "internalType": "uint256",
          "name": "id",
          "type": "uint256"
        },
        {
          "internalType": "uint256",
          "name": "amount",
          "type": "uint256"
        },
        {
          "internalType": "bytes",
          "name": "data",
          "type": "bytes"
        }
      ],
      "name": "safeTransferFrom",
      "outputs": [],
      "stateMutability": "nonpayable",
      "type": "function"
    },
    {
      "inputs": [
        {
          "internalType": "address",
          "name": "operator",
          "type": "address"
        },
        {
          "internalType": "bool",
          "name": "approved",
          "type": "bool"
        }
      ],
      "name": "setApprovalForAll",
      "outputs": [],
      "stateMutability": "nonpayable",
      "type": "function"
    },
    {
      "inputs": [
        {
          "internalType": "bytes4",
          "name": "interfaceId",
          "type": "bytes4"
        }
      ],
      "name": "supportsInterface",
      "outputs": [
        {
          "internalType": "bool",
          "name": "",
          "type": "bool"
        }
      ],
      "stateMutability": "view",
      "type": "function"
    },
    {
      "inputs": [
        {
          "internalType": "uint256",
          "name": "id",
          "type": "uint256"
        }
      ],
      "name": "totalSupply",
      "outputs": [
        {
          "internalType": "uint256",
          "name": "",
          "type": "uint256"
        }
      ],
      "stateMutability": "view",
      "type": "function"
    },
    {
      "inputs": [
        {
          "internalType": "uint256",
          "name": "",
          "type": "uint256"
        }
      ],
      "name": "uri",
      "outputs": [
        {
          "internalType": "string",
          "name": "",
          "type": "string"
        }
      ],
      "stateMutability": "view",
      "type": "function"
    },
    {
      "inputs": [
        {
          "internalType": "address",
          "name": "_account",
          "type": "address"
        },
        {
          "internalType": "uint256",
          "name": "_id",
          "type": "uint256"
        },
        {
          "internalType": "uint256",
          "name": "_member",
          "type": "uint256"
        }
      ],
      "name": "viewBalance",
      "outputs": [
        {
          "internalType": "uint256",
          "name": "",
          "type": "uint256"
        }
      ],
      "stateMutability": "view",
      "type": "function"
    },
    {
      "inputs": [
        {
          "internalType": "address",
          "name": "_account",
          "type": "address"
        },
        {
          "internalType": "uint256",
          "name": "_plot",
          "type": "uint256"
        }
      ],
      "name": "viewGrowStatus",
      "outputs": [
        {
          "internalType": "uint256",
          "name": "",
          "type": "uint256"
        },
        {
          "internalType": "uint256",
          "name": "",
          "type": "uint256"
        }
      ],
      "stateMutability": "view",
      "type": "function"
    },
    {
      "inputs": [
        {
          "internalType": "address",
          "name": "_account",
          "type": "address"
        },
        {
          "internalType": "uint256",
          "name": "_id",
          "type": "uint256"
        }
      ],
      "name": "viewPlot",
      "outputs": [
        {
          "internalType": "uint256",
          "name": "",
          "type": "uint256"
        },
        {
          "internalType": "string",
          "name": "",
          "type": "string"
        }
      ],
      "stateMutability": "view",
      "type": "function"
    }
  ],
  "bytecode": "0x60806040523480156200001157600080fd5b50604051806060016040528060278152602001620057fb602791396200003d816200062460201b60201c565b50620000643360016103e8604051806020016040528060008152506200064060201b60201c565b6200008a3360026103e8604051806020016040528060008152506200064060201b60201c565b620000b03360036103e8604051806020016040528060008152506200064060201b60201c565b620000d63360046103e8604051806020016040528060008152506200064060201b60201c565b6000604051806101e00160405280600061ffff168152602001600061ffff168152602001600061ffff168152602001600161ffff168152602001606461ffff168152602001600361ffff168152602001600261ffff16815260200160c861ffff168152602001600561ffff168152602001600361ffff168152602001606461ffff168152602001600561ffff168152602001600461ffff1681526020016101f461ffff168152602001600261ffff16815250905060006040518060a001604052806040518060200160405280600081525081526020016040518060400160405280600681526020017f546f6d61746f000000000000000000000000000000000000000000000000000081525081526020016040518060400160405280600481526020017f436f726e0000000000000000000000000000000000000000000000000000000081525081526020016040518060400160405280600581526020017f576865617400000000000000000000000000000000000000000000000000000081525081526020016040518060400160405280600581526020017f4d656c6f6e00000000000000000000000000000000000000000000000000000081525081525090506000600190505b600481116200041c5782600382620002b8919062001125565b600f8110620002f0577f4e487b7100000000000000000000000000000000000000000000000000000000600052603260045260246000fd5b602002015161ffff16600660008381526020019081526020016000206000018190555082600160038362000325919062001125565b620003319190620010c8565b600f811062000369577f4e487b7100000000000000000000000000000000000000000000000000000000600052603260045260246000fd5b602002015161ffff1660066000838152602001908152602001600020600101819055508260026003836200039e919062001125565b620003aa9190620010c8565b600f8110620003e2577f4e487b7100000000000000000000000000000000000000000000000000000000600052603260045260246000fd5b602002015161ffff166006600083815260200190815260200160002060020181905550600181620004149190620010c8565b90506200029f565b506000600190505b60048111620004af5781816005811062000467577f4e487b7100000000000000000000000000000000000000000000000000000000600052603260045260246000fd5b60200201516006600083815260200190815260200160002060030190805190602001906200049792919062000d5f565b50600181620004a79190620010c8565b905062000424565b506103e8600460003373ffffffffffffffffffffffffffffffffffffffff1673ffffffffffffffffffffffffffffffffffffffff168152602001908152602001600020600060018152602001908152602001600020600001819055506103e8600460003373ffffffffffffffffffffffffffffffffffffffff1673ffffffffffffffffffffffffffffffffffffffff168152602001908152602001600020600060028152602001908152602001600020600001819055506103e8600460003373ffffffffffffffffffffffffffffffffffffffff1673ffffffffffffffffffffffffffffffffffffffff168152602001908152602001600020600060038152602001908152602001600020600001819055506103e8600460003373ffffffffffffffffffffffffffffffffffffffff1673ffffffffffffffffffffffffffffffffffffffff16815260200190815260200160002060006004815260200190815260200160002060000181905550505062001594565b80600290805190602001906200063c92919062000d5f565b5050565b600073ffffffffffffffffffffffffffffffffffffffff168473ffffffffffffffffffffffffffffffffffffffff161415620006b3576040517f08c379a0000000000000000000000000000000000000000000000000000000008152600401620006aa9062001037565b60405180910390fd5b6000620006c56200080560201b60201c565b9050620006fe81600087620006e0886200080d60201b60201c565b620006f1886200080d60201b60201c565b87620008d660201b60201c565b8260008086815260200190815260200160002060008773ffffffffffffffffffffffffffffffffffffffff1673ffffffffffffffffffffffffffffffffffffffff16815260200190815260200160002060008282546200075f9190620010c8565b925050819055508473ffffffffffffffffffffffffffffffffffffffff16600073ffffffffffffffffffffffffffffffffffffffff168273ffffffffffffffffffffffffffffffffffffffff167fc3d58168c5ae7397731d063d5bbf3d657854427343f4c083240f7aacaa2d0f628787604051620007df92919062001059565b60405180910390a4620007fe81600087878787620008f960201b60201c565b5050505050565b600033905090565b60606000600167ffffffffffffffff81111562000853577f4e487b7100000000000000000000000000000000000000000000000000000000600052604160045260246000fd5b604051908082528060200260200182016040528015620008825781602001602082028036833780820191505090505b5090508281600081518110620008c1577f4e487b7100000000000000000000000000000000000000000000000000000000600052603260045260246000fd5b60200260200101818152505080915050919050565b620008f186868686868662000b0360201b6200192a1760201c565b505050505050565b620009258473ffffffffffffffffffffffffffffffffffffffff1662000d3460201b62001b3c1760201c565b1562000afb578373ffffffffffffffffffffffffffffffffffffffff1663f23a6e6187878686866040518663ffffffff1660e01b81526004016200096e95949392919062000f6b565b602060405180830381600087803b1580156200098957600080fd5b505af1925050508015620009bd57506040513d601f19601f82011682018060405250810190620009ba919062000e26565b60015b62000a6f57620009cc620013a8565b806308c379a0141562000a305750620009e4620014d8565b80620009f1575062000a32565b806040517f08c379a000000000000000000000000000000000000000000000000000000000815260040162000a27919062000fcf565b60405180910390fd5b505b6040517f08c379a000000000000000000000000000000000000000000000000000000000815260040162000a669062000ff3565b60405180910390fd5b63f23a6e6160e01b7bffffffffffffffffffffffffffffffffffffffffffffffffffffffff1916817bffffffffffffffffffffffffffffffffffffffffffffffffffffffff19161462000af9576040517f08c379a000000000000000000000000000000000000000000000000000000000815260040162000af09062001015565b60405180910390fd5b505b505050505050565b62000b1e86868686868662000d5760201b62001b5f1760201c565b600073ffffffffffffffffffffffffffffffffffffffff168573ffffffffffffffffffffffffffffffffffffffff16141562000c255760005b835181101562000c235782818151811062000b9b577f4e487b7100000000000000000000000000000000000000000000000000000000600052603260045260246000fd5b60200260200101516003600086848151811062000be1577f4e487b7100000000000000000000000000000000000000000000000000000000600052603260045260246000fd5b60200260200101518152602001908152602001600020600082825462000c089190620010c8565b925050819055508062000c1b90620012cd565b905062000b57565b505b600073ffffffffffffffffffffffffffffffffffffffff168473ffffffffffffffffffffffffffffffffffffffff16141562000d2c5760005b835181101562000d2a5782818151811062000ca2577f4e487b7100000000000000000000000000000000000000000000000000000000600052603260045260246000fd5b60200260200101516003600086848151811062000ce8577f4e487b7100000000000000000000000000000000000000000000000000000000600052603260045260246000fd5b60200260200101518152602001908152602001600020600082825462000d0f919062001186565b925050819055508062000d2290620012cd565b905062000c5e565b505b505050505050565b6000808273ffffffffffffffffffffffffffffffffffffffff163b119050919050565b505050505050565b82805462000d6d9062001261565b90600052602060002090601f01602090048101928262000d91576000855562000ddd565b82601f1062000dac57805160ff191683800117855562000ddd565b8280016001018555821562000ddd579182015b8281111562000ddc57825182559160200191906001019062000dbf565b5b50905062000dec919062000df0565b5090565b5b8082111562000e0b57600081600090555060010162000df1565b5090565b60008151905062000e20816200157a565b92915050565b60006020828403121562000e3957600080fd5b600062000e498482850162000e0f565b91505092915050565b62000e5d81620011c1565b82525050565b600062000e708262001090565b62000e7c8185620010a6565b935062000e8e8185602086016200122b565b62000e9981620013cd565b840191505092915050565b600062000eb1826200109b565b62000ebd8185620010b7565b935062000ecf8185602086016200122b565b62000eda81620013cd565b840191505092915050565b600062000ef4603483620010b7565b915062000f0182620013eb565b604082019050919050565b600062000f1b602883620010b7565b915062000f28826200143a565b604082019050919050565b600062000f42602183620010b7565b915062000f4f8262001489565b604082019050919050565b62000f658162001221565b82525050565b600060a08201905062000f82600083018862000e52565b62000f91602083018762000e52565b62000fa0604083018662000f5a565b62000faf606083018562000f5a565b818103608083015262000fc3818462000e63565b90509695505050505050565b6000602082019050818103600083015262000feb818462000ea4565b905092915050565b600060208201905081810360008301526200100e8162000ee5565b9050919050565b60006020820190508181036000830152620010308162000f0c565b9050919050565b60006020820190508181036000830152620010528162000f33565b9050919050565b600060408201905062001070600083018562000f5a565b6200107f602083018462000f5a565b9392505050565b6000604051905090565b600081519050919050565b600081519050919050565b600082825260208201905092915050565b600082825260208201905092915050565b6000620010d58262001221565b9150620010e28362001221565b9250827fffffffffffffffffffffffffffffffffffffffffffffffffffffffffffffffff038211156200111a57620011196200131b565b5b828201905092915050565b6000620011328262001221565b91506200113f8362001221565b9250817fffffffffffffffffffffffffffffffffffffffffffffffffffffffffffffffff04831182151516156200117b576200117a6200131b565b5b828202905092915050565b6000620011938262001221565b9150620011a08362001221565b925082821015620011b657620011b56200131b565b5b828203905092915050565b6000620011ce8262001201565b9050919050565b60007fffffffff0000000000000000000000000000000000000000000000000000000082169050919050565b600073ffffffffffffffffffffffffffffffffffffffff82169050919050565b6000819050919050565b60005b838110156200124b5780820151818401526020810190506200122e565b838111156200125b576000848401525b50505050565b600060028204905060018216806200127a57607f821691505b602082108114156200129157620012906200134a565b5b50919050565b620012a282620013cd565b810181811067ffffffffffffffff82111715620012c457620012c362001379565b5b80604052505050565b6000620012da8262001221565b91507fffffffffffffffffffffffffffffffffffffffffffffffffffffffffffffffff82141562001310576200130f6200131b565b5b600182019050919050565b7f4e487b7100000000000000000000000000000000000000000000000000000000600052601160045260246000fd5b7f4e487b7100000000000000000000000000000000000000000000000000000000600052602260045260246000fd5b7f4e487b7100000000000000000000000000000000000000000000000000000000600052604160045260246000fd5b600060033d1115620013ca5760046000803e620013c7600051620013de565b90505b90565b6000601f19601f8301169050919050565b60008160e01c9050919050565b7f455243313135353a207472616e7366657220746f206e6f6e204552433131353560008201527f526563656976657220696d706c656d656e746572000000000000000000000000602082015250565b7f455243313135353a204552433131353552656365697665722072656a6563746560008201527f6420746f6b656e73000000000000000000000000000000000000000000000000602082015250565b7f455243313135353a206d696e7420746f20746865207a65726f2061646472657360008201527f7300000000000000000000000000000000000000000000000000000000000000602082015250565b600060443d1015620014ea5762001577565b620014f462001086565b60043d036004823e80513d602482011167ffffffffffffffff821117156200151e57505062001577565b808201805167ffffffffffffffff8111156200153e575050505062001577565b80602083010160043d0385018111156200155d57505050505062001577565b6200156e8260200185018662001297565b82955050505050505b90565b6200158581620011d5565b81146200159157600080fd5b50565b61425780620015a46000396000f3fe6080604052600436106101695760003560e01c80637d0c78f2116100d1578063e3f8f5551161008a578063f242432a11610064578063f242432a146105d9578063f26be3fc14610602578063f43e39181461062d578063ff2dff2d146106585761016a565b8063e3f8f55514610534578063e985e9c51461055f578063f23a6e611461059c5761016a565b80637d0c78f21461041357806392658a281461043e578063a22cb46514610467578063bd85b03914610490578063cbf1304d146104cd578063ddc632621461050b5761016a565b80632eb2c2d6116101235780632eb2c2d6146102db57806349e66311146103045780634e1273f4146103425780634f558e791461037f57806359098a55146103bc57806370c9f1a5146103d35761016a565b8062fdd58e1461016c57806301ffc9a7146101a957806303b46fcc146101e65780630e89341c146102235780632568c63714610260578063297fa6da1461029e5761016a565b5b005b34801561017857600080fd5b50610193600480360381019061018e9190612f75565b610683565b6040516101a0919061383c565b60405180910390f35b3480156101b557600080fd5b506101d060048036038101906101cb919061306c565b61074c565b6040516101dd91906135c4565b60405180910390f35b3480156101f257600080fd5b5061020d60048036038101906102089190612fb1565b61082e565b60405161021a919061383c565b60405180910390f35b34801561022f57600080fd5b5061024a600480360381019061024591906130be565b610903565b60405161025791906135fa565b60405180910390f35b34801561026c57600080fd5b5061028760048036038101906102829190612f75565b610997565b604051610295929190613887565b60405180910390f35b3480156102aa57600080fd5b506102c560048036038101906102c09190612d86565b610ab4565b6040516102d2919061383c565b60405180910390f35b3480156102e757600080fd5b5061030260048036038101906102fd9190612deb565b610acc565b005b34801561031057600080fd5b5061032b60048036038101906103269190612f75565b610b6d565b604051610339929190613857565b60405180910390f35b34801561034e57600080fd5b5061036960048036038101906103649190613000565b610d0b565b604051610376919061356b565b60405180910390f35b34801561038b57600080fd5b506103a660048036038101906103a191906130be565b610ebc565b6040516103b391906135c4565b60405180910390f35b3480156103c857600080fd5b506103d1610ed0565b005b3480156103df57600080fd5b506103fa60048036038101906103f591906130be565b610f7c565b60405161040a94939291906138b0565b60405180910390f35b34801561041f57600080fd5b50610428611034565b604051610435919061383c565b60405180910390f35b34801561044a57600080fd5b50610465600480360381019061046091906130e7565b611039565b005b34801561047357600080fd5b5061048e60048036038101906104899190612f39565b611492565b005b34801561049c57600080fd5b506104b760048036038101906104b291906130be565b6114a8565b6040516104c4919061383c565b60405180910390f35b3480156104d957600080fd5b506104f460048036038101906104ef9190612f75565b6114c5565b604051610502929190613887565b60405180910390f35b34801561051757600080fd5b50610532600480360381019061052d91906130be565b6114f6565b005b34801561054057600080fd5b506105496117cc565b604051610556919061383c565b60405180910390f35b34801561056b57600080fd5b5061058660048036038101906105819190612daf565b6117d1565b60405161059391906135c4565b60405180910390f35b3480156105a857600080fd5b506105c360048036038101906105be9190612eaa565b611865565b6040516105d091906135df565b60405180910390f35b3480156105e557600080fd5b5061060060048036038101906105fb9190612eaa565b61187a565b005b34801561060e57600080fd5b5061061761191b565b604051610624919061383c565b60405180910390f35b34801561063957600080fd5b50610642611920565b60405161064f919061383c565b60405180910390f35b34801561066457600080fd5b5061066d611925565b60405161067a919061383c565b60405180910390f35b60008073ffffffffffffffffffffffffffffffffffffffff168373ffffffffffffffffffffffffffffffffffffffff1614156106f4576040517f08c379a00000000000000000000000000000000000000000000000000000000081526004016106eb9061365c565b60405180910390fd5b60008083815260200190815260200160002060008473ffffffffffffffffffffffffffffffffffffffff1673ffffffffffffffffffffffffffffffffffffffff16815260200190815260200160002054905092915050565b60007fd9b67a26000000000000000000000000000000000000000000000000000000007bffffffffffffffffffffffffffffffffffffffffffffffffffffffff1916827bffffffffffffffffffffffffffffffffffffffffffffffffffffffff1916148061081757507f0e89341c000000000000000000000000000000000000000000000000000000007bffffffffffffffffffffffffffffffffffffffffffffffffffffffff1916827bffffffffffffffffffffffffffffffffffffffffffffffffffffffff1916145b80610827575061082682611b67565b5b9050919050565b60008082141561089357600460008573ffffffffffffffffffffffffffffffffffffffff1673ffffffffffffffffffffffffffffffffffffffff16815260200190815260200160002060008481526020019081526020016000206000015490506108fc565b60018214156108f757600460008573ffffffffffffffffffffffffffffffffffffffff1673ffffffffffffffffffffffffffffffffffffffff16815260200190815260200160002060008481526020019081526020016000206001015490506108fc565b600090505b9392505050565b60606002805461091290613b5b565b80601f016020809104026020016040519081016040528092919081815260200182805461093e90613b5b565b801561098b5780601f106109605761010080835404028352916020019161098b565b820191906000526020600020905b81548152906001019060200180831161096e57829003601f168201915b50505050509050919050565b600080600560008573ffffffffffffffffffffffffffffffffffffffff1673ffffffffffffffffffffffffffffffffffffffff16815260200190815260200160002060000183600a8110610a14577f4e487b7100000000000000000000000000000000000000000000000000000000600052603260045260246000fd5b600502016004015442610a279190613a71565b600560008673ffffffffffffffffffffffffffffffffffffffff1673ffffffffffffffffffffffffffffffffffffffff16815260200190815260200160002060000184600a8110610aa1577f4e487b7100000000000000000000000000000000000000000000000000000000600052603260045260246000fd5b6005020160030154915091509250929050565b60076020528060005260406000206000915090505481565b610ad4611bd1565b73ffffffffffffffffffffffffffffffffffffffff168573ffffffffffffffffffffffffffffffffffffffff161480610b1a5750610b1985610b14611bd1565b6117d1565b5b610b59576040517f08c379a0000000000000000000000000000000000000000000000000000000008152600401610b509061373c565b60405180910390fd5b610b668585858585611bd9565b5050505050565b60006060600560008573ffffffffffffffffffffffffffffffffffffffff1673ffffffffffffffffffffffffffffffffffffffff16815260200190815260200160002060000183600a8110610beb577f4e487b7100000000000000000000000000000000000000000000000000000000600052603260045260246000fd5b6005020160010154600560008673ffffffffffffffffffffffffffffffffffffffff1673ffffffffffffffffffffffffffffffffffffffff16815260200190815260200160002060000184600a8110610c6d577f4e487b7100000000000000000000000000000000000000000000000000000000600052603260045260246000fd5b60050201600201808054610c8090613b5b565b80601f0160208091040260200160405190810160405280929190818152602001828054610cac90613b5b565b8015610cf95780601f10610cce57610100808354040283529160200191610cf9565b820191906000526020600020905b815481529060010190602001808311610cdc57829003601f168201915b50505050509050915091509250929050565b60608151835114610d51576040517f08c379a0000000000000000000000000000000000000000000000000000000008152600401610d48906137dc565b60405180910390fd5b6000835167ffffffffffffffff811115610d94577f4e487b7100000000000000000000000000000000000000000000000000000000600052604160045260246000fd5b604051908082528060200260200182016040528015610dc25781602001602082028036833780820191505090505b50905060005b8451811015610eb157610e5b858281518110610e0d577f4e487b7100000000000000000000000000000000000000000000000000000000600052603260045260246000fd5b6020026020010151858381518110610e4e577f4e487b7100000000000000000000000000000000000000000000000000000000600052603260045260246000fd5b6020026020010151610683565b828281518110610e94577f4e487b7100000000000000000000000000000000000000000000000000000000600052603260045260246000fd5b60200260200101818152505080610eaa90613bbe565b9050610dc8565b508091505092915050565b600080610ec8836114a8565b119050919050565b6003600760003373ffffffffffffffffffffffffffffffffffffffff1673ffffffffffffffffffffffffffffffffffffffff168152602001908152602001600020541015610f53576040517f08c379a0000000000000000000000000000000000000000000000000000000008152600401610f4a9061381c565b60405180910390fd5b610f7133306001600a60405180602001604052806000815250611f39565b610f7a33612129565b565b6006602052806000526040600020600091509050806000015490806001015490806002015490806003018054610fb190613b5b565b80601f0160208091040260200160405190810160405280929190818152602001828054610fdd90613b5b565b801561102a5780601f10610fff5761010080835404028352916020019161102a565b820191906000526020600020905b81548152906001019060200180831161100d57829003601f168201915b5050505050905084565b600181565b6001600460003373ffffffffffffffffffffffffffffffffffffffff1673ffffffffffffffffffffffffffffffffffffffff16815260200190815260200160002060008381526020019081526020016000206000015410156110d0576040517f08c379a00000000000000000000000000000000000000000000000000000000081526004016110c7906136bc565b60405180910390fd5b6000600760003373ffffffffffffffffffffffffffffffffffffffff1673ffffffffffffffffffffffffffffffffffffffff16815260200190815260200160002054141561115e576003600760003373ffffffffffffffffffffffffffffffffffffffff1673ffffffffffffffffffffffffffffffffffffffff168152602001908152602001600020819055505b600760003373ffffffffffffffffffffffffffffffffffffffff1673ffffffffffffffffffffffffffffffffffffffff1681526020019081526020016000205482106111df576040517f08c379a00000000000000000000000000000000000000000000000000000000081526004016111d69061367c565b60405180910390fd5b60011515600560003373ffffffffffffffffffffffffffffffffffffffff1673ffffffffffffffffffffffffffffffffffffffff16815260200190815260200160002060000183600a811061125d577f4e487b7100000000000000000000000000000000000000000000000000000000600052603260045260246000fd5b6005020160000160009054906101000a900460ff16151514156112b5576040517f08c379a00000000000000000000000000000000000000000000000000000000081526004016112ac906136fc565b60405180910390fd5b6000600560003373ffffffffffffffffffffffffffffffffffffffff1673ffffffffffffffffffffffffffffffffffffffff16815260200190815260200160002060000183600a8110611331577f4e487b7100000000000000000000000000000000000000000000000000000000600052603260045260246000fd5b600502019050428160040181905550818160010181905550600660008381526020019081526020016000206003018160020190805461136f90613b5b565b61137a929190612a9f565b506006600083815260200190815260200160002060010154816003018190555060018160000160006101000a81548160ff0219169083151502179055506001600460003373ffffffffffffffffffffffffffffffffffffffff1673ffffffffffffffffffffffffffffffffffffffff1681526020019081526020016000206000848152602001908152602001600020600001600082825461141b9190613a71565b925050819055506001600460003373ffffffffffffffffffffffffffffffffffffffff1673ffffffffffffffffffffffffffffffffffffffff168152602001908152602001600020600084815260200190815260200160002060010160008282546114869190613a1b565b92505081905550505050565b6114a461149d611bd1565b8383612206565b5050565b600060036000838152602001908152602001600020549050919050565b6004602052816000526040600020602052806000526040600020600091509150508060000154908060010154905082565b6000600560003373ffffffffffffffffffffffffffffffffffffffff1673ffffffffffffffffffffffffffffffffffffffff16815260200190815260200160002060000182600a8110611572577f4e487b7100000000000000000000000000000000000000000000000000000000600052603260045260246000fd5b6005020190506000816001015414156115c0576040517f08c379a00000000000000000000000000000000000000000000000000000000081526004016115b7906136dc565b60405180910390fd5b80600301548160040154426115d59190613a71565b1015611616576040517f08c379a000000000000000000000000000000000000000000000000000000000815260040161160d9061379c565b60405180910390fd5b6000816001015490506006600082815260200190815260200160002060020154600460003373ffffffffffffffffffffffffffffffffffffffff1673ffffffffffffffffffffffffffffffffffffffff168152602001908152602001600020600083815260200190815260200160002060000160008282546116989190613a1b565b925050819055506001600460003373ffffffffffffffffffffffffffffffffffffffff1673ffffffffffffffffffffffffffffffffffffffff168152602001908152602001600020600083815260200190815260200160002060010160008282546117039190613a71565b92505081905550600560003373ffffffffffffffffffffffffffffffffffffffff1673ffffffffffffffffffffffffffffffffffffffff16815260200190815260200160002060000183600a8110611784577f4e487b7100000000000000000000000000000000000000000000000000000000600052603260045260246000fd5b60050201600080820160006101000a81549060ff021916905560018201600090556002820160006117b59190612b2c565b600382016000905560048201600090555050505050565b600281565b6000600160008473ffffffffffffffffffffffffffffffffffffffff1673ffffffffffffffffffffffffffffffffffffffff16815260200190815260200160002060008373ffffffffffffffffffffffffffffffffffffffff1673ffffffffffffffffffffffffffffffffffffffff16815260200190815260200160002060009054906101000a900460ff16905092915050565b600063f23a6e6160e01b905095945050505050565b611882611bd1565b73ffffffffffffffffffffffffffffffffffffffff168573ffffffffffffffffffffffffffffffffffffffff1614806118c857506118c7856118c2611bd1565b6117d1565b5b611907576040517f08c379a00000000000000000000000000000000000000000000000000000000081526004016118fe9061369c565b60405180910390fd5b6119148585858585611f39565b5050505050565b600081565b600481565b600381565b611938868686868686611b5f565b600073ffffffffffffffffffffffffffffffffffffffff168573ffffffffffffffffffffffffffffffffffffffff161415611a365760005b8351811015611a34578281815181106119b2577f4e487b7100000000000000000000000000000000000000000000000000000000600052603260045260246000fd5b6020026020010151600360008684815181106119f7577f4e487b7100000000000000000000000000000000000000000000000000000000600052603260045260246000fd5b602002602001015181526020019081526020016000206000828254611a1c9190613a1b565b9250508190555080611a2d90613bbe565b9050611970565b505b600073ffffffffffffffffffffffffffffffffffffffff168473ffffffffffffffffffffffffffffffffffffffff161415611b345760005b8351811015611b3257828181518110611ab0577f4e487b7100000000000000000000000000000000000000000000000000000000600052603260045260246000fd5b602002602001015160036000868481518110611af5577f4e487b7100000000000000000000000000000000000000000000000000000000600052603260045260246000fd5b602002602001015181526020019081526020016000206000828254611b1a9190613a71565b9250508190555080611b2b90613bbe565b9050611a6e565b505b505050505050565b6000808273ffffffffffffffffffffffffffffffffffffffff163b119050919050565b505050505050565b60007f01ffc9a7000000000000000000000000000000000000000000000000000000007bffffffffffffffffffffffffffffffffffffffffffffffffffffffff1916827bffffffffffffffffffffffffffffffffffffffffffffffffffffffff1916149050919050565b600033905090565b8151835114611c1d576040517f08c379a0000000000000000000000000000000000000000000000000000000008152600401611c14906137fc565b60405180910390fd5b600073ffffffffffffffffffffffffffffffffffffffff168473ffffffffffffffffffffffffffffffffffffffff161415611c8d576040517f08c379a0000000000000000000000000000000000000000000000000000000008152600401611c849061371c565b60405180910390fd5b6000611c97611bd1565b9050611ca7818787878787612373565b60005b8451811015611ea4576000858281518110611cee577f4e487b7100000000000000000000000000000000000000000000000000000000600052603260045260246000fd5b602002602001015190506000858381518110611d33577f4e487b7100000000000000000000000000000000000000000000000000000000600052603260045260246000fd5b60200260200101519050600080600084815260200190815260200160002060008b73ffffffffffffffffffffffffffffffffffffffff1673ffffffffffffffffffffffffffffffffffffffff16815260200190815260200160002054905081811015611dd4576040517f08c379a0000000000000000000000000000000000000000000000000000000008152600401611dcb9061375c565b60405180910390fd5b81810360008085815260200190815260200160002060008c73ffffffffffffffffffffffffffffffffffffffff1673ffffffffffffffffffffffffffffffffffffffff168152602001908152602001600020819055508160008085815260200190815260200160002060008b73ffffffffffffffffffffffffffffffffffffffff1673ffffffffffffffffffffffffffffffffffffffff1681526020019081526020016000206000828254611e899190613a1b565b9250508190555050505080611e9d90613bbe565b9050611caa565b508473ffffffffffffffffffffffffffffffffffffffff168673ffffffffffffffffffffffffffffffffffffffff168273ffffffffffffffffffffffffffffffffffffffff167f4a39dc06d4c0dbc64b70af90fd698a233a518aa5d07e595d983b8c0526c8f7fb8787604051611f1b92919061358d565b60405180910390a4611f31818787878787612389565b505050505050565b600073ffffffffffffffffffffffffffffffffffffffff168473ffffffffffffffffffffffffffffffffffffffff161415611fa9576040517f08c379a0000000000000000000000000000000000000000000000000000000008152600401611fa09061371c565b60405180910390fd5b6000600460008773ffffffffffffffffffffffffffffffffffffffff1673ffffffffffffffffffffffffffffffffffffffff168152602001908152602001600020600085815260200190815260200160002060000154905082811015612044576040517f08c379a000000000000000000000000000000000000000000000000000000000815260040161203b9061375c565b60405180910390fd5b82816120509190613a71565b905082600460008773ffffffffffffffffffffffffffffffffffffffff1673ffffffffffffffffffffffffffffffffffffffff168152602001908152602001600020600086815260200190815260200160002060000160008282546120b59190613a1b565b9250508190555080600460008873ffffffffffffffffffffffffffffffffffffffff1673ffffffffffffffffffffffffffffffffffffffff1681526020019081526020016000206000868152602001908152602001600020600001819055506121218686868686612570565b505050505050565b600a600760008373ffffffffffffffffffffffffffffffffffffffff1673ffffffffffffffffffffffffffffffffffffffff1681526020019081526020016000205411156121ac576040517f08c379a00000000000000000000000000000000000000000000000000000000081526004016121a39061377c565b60405180910390fd5b6001600760008373ffffffffffffffffffffffffffffffffffffffff1673ffffffffffffffffffffffffffffffffffffffff16815260200190815260200160002060008282546121fc9190613a1b565b9250508190555050565b8173ffffffffffffffffffffffffffffffffffffffff168373ffffffffffffffffffffffffffffffffffffffff161415612275576040517f08c379a000000000000000000000000000000000000000000000000000000000815260040161226c906137bc565b60405180910390fd5b80600160008573ffffffffffffffffffffffffffffffffffffffff1673ffffffffffffffffffffffffffffffffffffffff16815260200190815260200160002060008473ffffffffffffffffffffffffffffffffffffffff1673ffffffffffffffffffffffffffffffffffffffff16815260200190815260200160002060006101000a81548160ff0219169083151502179055508173ffffffffffffffffffffffffffffffffffffffff168373ffffffffffffffffffffffffffffffffffffffff167f17307eab39ab6107e8899845ad3d59bd9653f200f220920489ca2b5937696c318360405161236691906135c4565b60405180910390a3505050565b61238186868686868661192a565b505050505050565b6123a88473ffffffffffffffffffffffffffffffffffffffff16611b3c565b15612568578373ffffffffffffffffffffffffffffffffffffffff1663bc197c8187878686866040518663ffffffff1660e01b81526004016123ee9594939291906134a9565b602060405180830381600087803b15801561240857600080fd5b505af192505050801561243957506040513d601f19601f820116820180604052508101906124369190613095565b60015b6124df57612445613c94565b806308c379a014156124a2575061245a61412f565b8061246557506124a4565b806040517f08c379a000000000000000000000000000000000000000000000000000000000815260040161249991906135fa565b60405180910390fd5b505b6040517f08c379a00000000000000000000000000000000000000000000000000000000081526004016124d69061361c565b60405180910390fd5b63bc197c8160e01b7bffffffffffffffffffffffffffffffffffffffffffffffffffffffff1916817bffffffffffffffffffffffffffffffffffffffffffffffffffffffff191614612566576040517f08c379a000000000000000000000000000000000000000000000000000000000815260040161255d9061363c565b60405180910390fd5b505b505050505050565b600073ffffffffffffffffffffffffffffffffffffffff168473ffffffffffffffffffffffffffffffffffffffff1614156125e0576040517f08c379a00000000000000000000000000000000000000000000000000000000081526004016125d79061371c565b60405180910390fd5b60006125ea611bd1565b905061260a8187876125fb886127f2565b612604886127f2565b87612373565b600080600086815260200190815260200160002060008873ffffffffffffffffffffffffffffffffffffffff1673ffffffffffffffffffffffffffffffffffffffff168152602001908152602001600020549050838110156126a1576040517f08c379a00000000000000000000000000000000000000000000000000000000081526004016126989061375c565b60405180910390fd5b83810360008087815260200190815260200160002060008973ffffffffffffffffffffffffffffffffffffffff1673ffffffffffffffffffffffffffffffffffffffff168152602001908152602001600020819055508360008087815260200190815260200160002060008873ffffffffffffffffffffffffffffffffffffffff1673ffffffffffffffffffffffffffffffffffffffff16815260200190815260200160002060008282546127569190613a1b565b925050819055508573ffffffffffffffffffffffffffffffffffffffff168773ffffffffffffffffffffffffffffffffffffffff168373ffffffffffffffffffffffffffffffffffffffff167fc3d58168c5ae7397731d063d5bbf3d657854427343f4c083240f7aacaa2d0f6288886040516127d3929190613887565b60405180910390a46127e98288888888886128b8565b50505050505050565b60606000600167ffffffffffffffff811115612837577f4e487b7100000000000000000000000000000000000000000000000000000000600052604160045260246000fd5b6040519080825280602002602001820160405280156128655781602001602082028036833780820191505090505b50905082816000815181106128a3577f4e487b7100000000000000000000000000000000000000000000000000000000600052603260045260246000fd5b60200260200101818152505080915050919050565b6128d78473ffffffffffffffffffffffffffffffffffffffff16611b3c565b15612a97578373ffffffffffffffffffffffffffffffffffffffff1663f23a6e6187878686866040518663ffffffff1660e01b815260040161291d959493929190613511565b602060405180830381600087803b15801561293757600080fd5b505af192505050801561296857506040513d601f19601f820116820180604052508101906129659190613095565b60015b612a0e57612974613c94565b806308c379a014156129d1575061298961412f565b8061299457506129d3565b806040517f08c379a00000000000000000000000000000000000000000000000000000000081526004016129c891906135fa565b60405180910390fd5b505b6040517f08c379a0000000000000000000000000000000000000000000000000000000008152600401612a059061361c565b60405180910390fd5b63f23a6e6160e01b7bffffffffffffffffffffffffffffffffffffffffffffffffffffffff1916817bffffffffffffffffffffffffffffffffffffffffffffffffffffffff191614612a95576040517f08c379a0000000000000000000000000000000000000000000000000000000008152600401612a8c9061363c565b60405180910390fd5b505b505050505050565b828054612aab90613b5b565b90600052602060002090601f016020900481019282612acd5760008555612b1b565b82601f10612ade5780548555612b1b565b82800160010185558215612b1b57600052602060002091601f016020900482015b82811115612b1a578254825591600101919060010190612aff565b5b509050612b289190612b6c565b5090565b508054612b3890613b5b565b6000825580601f10612b4a5750612b69565b601f016020900490600052602060002090810190612b689190612b6c565b5b50565b5b80821115612b85576000816000905550600101612b6d565b5090565b6000612b9c612b9784613921565b6138fc565b90508083825260208201905082856020860282011115612bbb57600080fd5b60005b85811015612beb5781612bd18882612c9f565b845260208401935060208301925050600181019050612bbe565b5050509392505050565b6000612c08612c038461394d565b6138fc565b90508083825260208201905082856020860282011115612c2757600080fd5b60005b85811015612c575781612c3d8882612d71565b845260208401935060208301925050600181019050612c2a565b5050509392505050565b6000612c74612c6f84613979565b6138fc565b905082815260208101848484011115612c8c57600080fd5b612c97848285613b19565b509392505050565b600081359050612cae816141c5565b92915050565b600082601f830112612cc557600080fd5b8135612cd5848260208601612b89565b91505092915050565b600082601f830112612cef57600080fd5b8135612cff848260208601612bf5565b91505092915050565b600081359050612d17816141dc565b92915050565b600081359050612d2c816141f3565b92915050565b600081519050612d41816141f3565b92915050565b600082601f830112612d5857600080fd5b8135612d68848260208601612c61565b91505092915050565b600081359050612d808161420a565b92915050565b600060208284031215612d9857600080fd5b6000612da684828501612c9f565b91505092915050565b60008060408385031215612dc257600080fd5b6000612dd085828601612c9f565b9250506020612de185828601612c9f565b9150509250929050565b600080600080600060a08688031215612e0357600080fd5b6000612e1188828901612c9f565b9550506020612e2288828901612c9f565b945050604086013567ffffffffffffffff811115612e3f57600080fd5b612e4b88828901612cde565b935050606086013567ffffffffffffffff811115612e6857600080fd5b612e7488828901612cde565b925050608086013567ffffffffffffffff811115612e9157600080fd5b612e9d88828901612d47565b9150509295509295909350565b600080600080600060a08688031215612ec257600080fd5b6000612ed088828901612c9f565b9550506020612ee188828901612c9f565b9450506040612ef288828901612d71565b9350506060612f0388828901612d71565b925050608086013567ffffffffffffffff811115612f2057600080fd5b612f2c88828901612d47565b9150509295509295909350565b60008060408385031215612f4c57600080fd5b6000612f5a85828601612c9f565b9250506020612f6b85828601612d08565b9150509250929050565b60008060408385031215612f8857600080fd5b6000612f9685828601612c9f565b9250506020612fa785828601612d71565b9150509250929050565b600080600060608486031215612fc657600080fd5b6000612fd486828701612c9f565b9350506020612fe586828701612d71565b9250506040612ff686828701612d71565b9150509250925092565b6000806040838503121561301357600080fd5b600083013567ffffffffffffffff81111561302d57600080fd5b61303985828601612cb4565b925050602083013567ffffffffffffffff81111561305657600080fd5b61306285828601612cde565b9150509250929050565b60006020828403121561307e57600080fd5b600061308c84828501612d1d565b91505092915050565b6000602082840312156130a757600080fd5b60006130b584828501612d32565b91505092915050565b6000602082840312156130d057600080fd5b60006130de84828501612d71565b91505092915050565b600080604083850312156130fa57600080fd5b600061310885828601612d71565b925050602061311985828601612d71565b9150509250929050565b600061312f838361348b565b60208301905092915050565b61314481613aa5565b82525050565b6000613155826139ba565b61315f81856139e8565b935061316a836139aa565b8060005b8381101561319b5781516131828882613123565b975061318d836139db565b92505060018101905061316e565b5085935050505092915050565b6131b181613ab7565b82525050565b6131c081613ac3565b82525050565b60006131d1826139c5565b6131db81856139f9565b93506131eb818560208601613b28565b6131f481613cb6565b840191505092915050565b600061320a826139d0565b6132148185613a0a565b9350613224818560208601613b28565b61322d81613cb6565b840191505092915050565b6000613245603483613a0a565b915061325082613cd4565b604082019050919050565b6000613268602883613a0a565b915061327382613d23565b604082019050919050565b600061328b602b83613a0a565b915061329682613d72565b604082019050919050565b60006132ae601a83613a0a565b91506132b982613dc1565b602082019050919050565b60006132d1602983613a0a565b91506132dc82613dea565b604082019050919050565b60006132f4601a83613a0a565b91506132ff82613e39565b602082019050919050565b6000613317601d83613a0a565b915061332282613e62565b602082019050919050565b600061333a601783613a0a565b915061334582613e8b565b602082019050919050565b600061335d602583613a0a565b915061336882613eb4565b604082019050919050565b6000613380603283613a0a565b915061338b82613f03565b604082019050919050565b60006133a3602a83613a0a565b91506133ae82613f52565b604082019050919050565b60006133c6602083613a0a565b91506133d182613fa1565b602082019050919050565b60006133e9601683613a0a565b91506133f482613fca565b602082019050919050565b600061340c602983613a0a565b915061341782613ff3565b604082019050919050565b600061342f602983613a0a565b915061343a82614042565b604082019050919050565b6000613452602883613a0a565b915061345d82614091565b604082019050919050565b6000613475603483613a0a565b9150613480826140e0565b604082019050919050565b61349481613b0f565b82525050565b6134a381613b0f565b82525050565b600060a0820190506134be600083018861313b565b6134cb602083018761313b565b81810360408301526134dd818661314a565b905081810360608301526134f1818561314a565b9050818103608083015261350581846131c6565b90509695505050505050565b600060a082019050613526600083018861313b565b613533602083018761313b565b613540604083018661349a565b61354d606083018561349a565b818103608083015261355f81846131c6565b90509695505050505050565b60006020820190508181036000830152613585818461314a565b905092915050565b600060408201905081810360008301526135a7818561314a565b905081810360208301526135bb818461314a565b90509392505050565b60006020820190506135d960008301846131a8565b92915050565b60006020820190506135f460008301846131b7565b92915050565b6000602082019050818103600083015261361481846131ff565b905092915050565b6000602082019050818103600083015261363581613238565b9050919050565b600060208201905081810360008301526136558161325b565b9050919050565b600060208201905081810360008301526136758161327e565b9050919050565b60006020820190508181036000830152613695816132a1565b9050919050565b600060208201905081810360008301526136b5816132c4565b9050919050565b600060208201905081810360008301526136d5816132e7565b9050919050565b600060208201905081810360008301526136f58161330a565b9050919050565b600060208201905081810360008301526137158161332d565b9050919050565b6000602082019050818103600083015261373581613350565b9050919050565b6000602082019050818103600083015261375581613373565b9050919050565b6000602082019050818103600083015261377581613396565b9050919050565b60006020820190508181036000830152613795816133b9565b9050919050565b600060208201905081810360008301526137b5816133dc565b9050919050565b600060208201905081810360008301526137d5816133ff565b9050919050565b600060208201905081810360008301526137f581613422565b9050919050565b6000602082019050818103600083015261381581613445565b9050919050565b6000602082019050818103600083015261383581613468565b9050919050565b6000602082019050613851600083018461349a565b92915050565b600060408201905061386c600083018561349a565b818103602083015261387e81846131ff565b90509392505050565b600060408201905061389c600083018561349a565b6138a9602083018461349a565b9392505050565b60006080820190506138c5600083018761349a565b6138d2602083018661349a565b6138df604083018561349a565b81810360608301526138f181846131ff565b905095945050505050565b6000613906613917565b90506139128282613b8d565b919050565b6000604051905090565b600067ffffffffffffffff82111561393c5761393b613c65565b5b602082029050602081019050919050565b600067ffffffffffffffff82111561396857613967613c65565b5b602082029050602081019050919050565b600067ffffffffffffffff82111561399457613993613c65565b5b61399d82613cb6565b9050602081019050919050565b6000819050602082019050919050565b600081519050919050565b600081519050919050565b600081519050919050565b6000602082019050919050565b600082825260208201905092915050565b600082825260208201905092915050565b600082825260208201905092915050565b6000613a2682613b0f565b9150613a3183613b0f565b9250827fffffffffffffffffffffffffffffffffffffffffffffffffffffffffffffffff03821115613a6657613a65613c07565b5b828201905092915050565b6000613a7c82613b0f565b9150613a8783613b0f565b925082821015613a9a57613a99613c07565b5b828203905092915050565b6000613ab082613aef565b9050919050565b60008115159050919050565b60007fffffffff0000000000000000000000000000000000000000000000000000000082169050919050565b600073ffffffffffffffffffffffffffffffffffffffff82169050919050565b6000819050919050565b82818337600083830152505050565b60005b83811015613b46578082015181840152602081019050613b2b565b83811115613b55576000848401525b50505050565b60006002820490506001821680613b7357607f821691505b60208210811415613b8757613b86613c36565b5b50919050565b613b9682613cb6565b810181811067ffffffffffffffff82111715613bb557613bb4613c65565b5b80604052505050565b6000613bc982613b0f565b91507fffffffffffffffffffffffffffffffffffffffffffffffffffffffffffffffff821415613bfc57613bfb613c07565b5b600182019050919050565b7f4e487b7100000000000000000000000000000000000000000000000000000000600052601160045260246000fd5b7f4e487b7100000000000000000000000000000000000000000000000000000000600052602260045260246000fd5b7f4e487b7100000000000000000000000000000000000000000000000000000000600052604160045260246000fd5b600060033d1115613cb35760046000803e613cb0600051613cc7565b90505b90565b6000601f19601f8301169050919050565b60008160e01c9050919050565b7f455243313135353a207472616e7366657220746f206e6f6e204552433131353560008201527f526563656976657220696d706c656d656e746572000000000000000000000000602082015250565b7f455243313135353a204552433131353552656365697665722072656a6563746560008201527f6420746f6b656e73000000000000000000000000000000000000000000000000602082015250565b7f455243313135353a2062616c616e636520717565727920666f7220746865207a60008201527f65726f2061646472657373000000000000000000000000000000000000000000602082015250565b7f596f7520646f6e2774206f776e20656e6f756768206c616e6421000000000000600082015250565b7f455243313135353a2063616c6c6572206973206e6f74206f776e6572206e6f7260008201527f20617070726f7665640000000000000000000000000000000000000000000000602082015250565b7f4e6f7420656e6f7567682063726f707320746f20706c616e7421000000000000600082015250565b7f4e6f7468696e6720706c616e74656420696e207468697320706c6f7421000000600082015250565b7f5468697320706c6f74206973206e6f7420656d70747921000000000000000000600082015250565b7f455243313135353a207472616e7366657220746f20746865207a65726f20616460008201527f6472657373000000000000000000000000000000000000000000000000000000602082015250565b7f455243313135353a207472616e736665722063616c6c6572206973206e6f742060008201527f6f776e6572206e6f7220617070726f7665640000000000000000000000000000602082015250565b7f455243313135353a20696e73756666696369656e742062616c616e636520666f60008201527f72207472616e7366657200000000000000000000000000000000000000000000602082015250565b7f43616e277420696e637265617365206e756d626572206f66205f706c6f74732e600082015250565b7f43726f70206e6f7420646f6e652067726f77696e672e00000000000000000000600082015250565b7f455243313135353a2073657474696e6720617070726f76616c2073746174757360008201527f20666f722073656c660000000000000000000000000000000000000000000000602082015250565b7f455243313135353a206163636f756e747320616e6420696473206c656e67746860008201527f206d69736d617463680000000000000000000000000000000000000000000000602082015250565b7f455243313135353a2069647320616e6420616d6f756e7473206c656e6774682060008201527f6d69736d61746368000000000000000000000000000000000000000000000000602082015250565b7f55736572206d75737420706c616e742063726f7073206f6e6365206265666f7260008201527f652070757263686173696e67205f706c6f747321000000000000000000000000602082015250565b600060443d101561413f576141c2565b614147613917565b60043d036004823e80513d602482011167ffffffffffffffff8211171561416f5750506141c2565b808201805167ffffffffffffffff81111561418d57505050506141c2565b80602083010160043d0385018111156141aa5750505050506141c2565b6141b982602001850186613b8d565b82955050505050505b90565b6141ce81613aa5565b81146141d957600080fd5b50565b6141e581613ab7565b81146141f057600080fd5b50565b6141fc81613ac3565b811461420757600080fd5b50565b61421381613b0f565b811461421e57600080fd5b5056fea26469706673582212207178ee7265b7ea744ed53158d0c58b8d41c2336c4ce714fe102449933b6ad34264736f6c6343000801003368747470733a2f2f67616d652e6578616d706c652f6170692f6974656d2f7b69647d2e6a736f6e",
  "linkReferences": {},
  "deployedLinkReferences": {}
}