{
  "_format": "hh-sol-artifact-1",
  "contractName": "CropFarm",
  "sourceName": "contracts/Token.sol",
  "abi": [
    {
      "inputs": [],
      "stateMutability": "nonpayable",
      "type": "constructor"
    },
    {
      "anonymous": false,
      "inputs": [
        {
          "indexed": true,
          "internalType": "address",
          "name": "account",
          "type": "address"
        },
        {
          "indexed": true,
          "internalType": "address",
          "name": "operator",
          "type": "address"
        },
        {
          "indexed": false,
          "internalType": "bool",
          "name": "approved",
          "type": "bool"
        }
      ],
      "name": "ApprovalForAll",
      "type": "event"
    },
    {
      "anonymous": false,
      "inputs": [
        {
          "indexed": false,
          "internalType": "address",
          "name": "",
          "type": "address"
        },
        {
          "indexed": false,
          "internalType": "uint256",
          "name": "",
          "type": "uint256"
        }
      ],
      "name": "Received",
      "type": "event"
    },
    {
      "anonymous": false,
      "inputs": [
        {
          "indexed": true,
          "internalType": "address",
          "name": "operator",
          "type": "address"
        },
        {
          "indexed": true,
          "internalType": "address",
          "name": "from",
          "type": "address"
        },
        {
          "indexed": true,
          "internalType": "address",
          "name": "to",
          "type": "address"
        },
        {
          "indexed": false,
          "internalType": "uint256[]",
          "name": "ids",
          "type": "uint256[]"
        },
        {
          "indexed": false,
          "internalType": "uint256[]",
          "name": "values",
          "type": "uint256[]"
        }
      ],
      "name": "TransferBatch",
      "type": "event"
    },
    {
      "anonymous": false,
      "inputs": [
        {
          "indexed": true,
          "internalType": "address",
          "name": "operator",
          "type": "address"
        },
        {
          "indexed": true,
          "internalType": "address",
          "name": "from",
          "type": "address"
        },
        {
          "indexed": true,
          "internalType": "address",
          "name": "to",
          "type": "address"
        },
        {
          "indexed": false,
          "internalType": "uint256",
          "name": "id",
          "type": "uint256"
        },
        {
          "indexed": false,
          "internalType": "uint256",
          "name": "value",
          "type": "uint256"
        }
      ],
      "name": "TransferSingle",
      "type": "event"
    },
    {
      "anonymous": false,
      "inputs": [
        {
          "indexed": false,
          "internalType": "string",
          "name": "value",
          "type": "string"
        },
        {
          "indexed": true,
          "internalType": "uint256",
          "name": "id",
          "type": "uint256"
        }
      ],
      "name": "URI",
      "type": "event"
    },
    {
      "stateMutability": "payable",
      "type": "fallback"
    },
    {
      "inputs": [],
      "name": "BLUEBERRY",
      "outputs": [
        {
          "internalType": "uint256",
          "name": "",
          "type": "uint256"
        }
      ],
      "stateMutability": "view",
      "type": "function"
    },
    {
      "inputs": [],
      "name": "CARROT",
      "outputs": [
        {
          "internalType": "uint256",
          "name": "",
          "type": "uint256"
        }
      ],
      "stateMutability": "view",
      "type": "function"
    },
    {
      "inputs": [],
      "name": "CAULIFLOWER",
      "outputs": [
        {
          "internalType": "uint256",
          "name": "",
          "type": "uint256"
        }
      ],
      "stateMutability": "view",
      "type": "function"
    },
    {
      "inputs": [],
      "name": "CORN",
      "outputs": [
        {
          "internalType": "uint256",
          "name": "",
          "type": "uint256"
        }
      ],
      "stateMutability": "view",
      "type": "function"
    },
    {
      "inputs": [],
      "name": "EGGPLANT",
      "outputs": [
        {
          "internalType": "uint256",
          "name": "",
          "type": "uint256"
        }
      ],
      "stateMutability": "view",
      "type": "function"
    },
    {
      "inputs": [],
      "name": "LETTUCE",
      "outputs": [
        {
          "internalType": "uint256",
          "name": "",
          "type": "uint256"
        }
      ],
      "stateMutability": "view",
      "type": "function"
    },
    {
      "inputs": [],
      "name": "NULL",
      "outputs": [
        {
          "internalType": "uint256",
          "name": "",
          "type": "uint256"
        }
      ],
      "stateMutability": "view",
      "type": "function"
    },
    {
      "inputs": [],
      "name": "Owner",
      "outputs": [
        {
          "internalType": "address",
          "name": "",
          "type": "address"
        }
      ],
      "stateMutability": "view",
      "type": "function"
    },
    {
      "inputs": [],
      "name": "POTATO",
      "outputs": [
        {
          "internalType": "uint256",
          "name": "",
          "type": "uint256"
        }
      ],
      "stateMutability": "view",
      "type": "function"
    },
    {
      "inputs": [],
      "name": "PUMPKIN",
      "outputs": [
        {
          "internalType": "uint256",
          "name": "",
          "type": "uint256"
        }
      ],
      "stateMutability": "view",
      "type": "function"
    },
    {
      "inputs": [],
      "name": "STRAWBERRY",
      "outputs": [
        {
          "internalType": "uint256",
          "name": "",
          "type": "uint256"
        }
      ],
      "stateMutability": "view",
      "type": "function"
    },
    {
      "inputs": [],
      "name": "TOMATO",
      "outputs": [
        {
          "internalType": "uint256",
          "name": "",
          "type": "uint256"
        }
      ],
      "stateMutability": "view",
      "type": "function"
    },
    {
      "inputs": [],
      "name": "WATERMELON",
      "outputs": [
        {
          "internalType": "uint256",
          "name": "",
          "type": "uint256"
        }
      ],
      "stateMutability": "view",
      "type": "function"
    },
    {
      "inputs": [],
      "name": "WHEAT",
      "outputs": [
        {
          "internalType": "uint256",
          "name": "",
          "type": "uint256"
        }
      ],
      "stateMutability": "view",
      "type": "function"
    },
    {
      "inputs": [
        {
          "internalType": "address",
          "name": "account",
          "type": "address"
        },
        {
          "internalType": "uint256",
          "name": "id",
          "type": "uint256"
        }
      ],
      "name": "balanceOf",
      "outputs": [
        {
          "internalType": "uint256",
          "name": "",
          "type": "uint256"
        }
      ],
      "stateMutability": "view",
      "type": "function"
    },
    {
      "inputs": [
        {
          "internalType": "address[]",
          "name": "accounts",
          "type": "address[]"
        },
        {
          "internalType": "uint256[]",
          "name": "ids",
          "type": "uint256[]"
        }
      ],
      "name": "balanceOfBatch",
      "outputs": [
        {
          "internalType": "uint256[]",
          "name": "",
          "type": "uint256[]"
        }
      ],
      "stateMutability": "view",
      "type": "function"
    },
    {
      "inputs": [
        {
          "internalType": "address",
          "name": "",
          "type": "address"
        },
        {
          "internalType": "uint256",
          "name": "",
          "type": "uint256"
        }
      ],
      "name": "balances",
      "outputs": [
        {
          "internalType": "uint256",
          "name": "availableBalance",
          "type": "uint256"
        },
        {
          "internalType": "uint256",
          "name": "stakedBalance",
          "type": "uint256"
        }
      ],
      "stateMutability": "view",
      "type": "function"
    },
    {
      "inputs": [],
      "name": "buyPlot",
      "outputs": [],
      "stateMutability": "payable",
      "type": "function"
    },
    {
      "inputs": [
        {
          "internalType": "uint256",
          "name": "",
          "type": "uint256"
        }
      ],
      "name": "crops",
      "outputs": [
        {
          "internalType": "uint256",
          "name": "id",
          "type": "uint256"
        },
        {
          "internalType": "uint256",
          "name": "growTime",
          "type": "uint256"
        },
        {
          "internalType": "uint256",
          "name": "harvest",
          "type": "uint256"
        },
        {
          "internalType": "string",
          "name": "name",
          "type": "string"
        }
      ],
      "stateMutability": "view",
      "type": "function"
    },
    {
      "inputs": [
        {
          "internalType": "uint256",
          "name": "id",
          "type": "uint256"
        }
      ],
      "name": "exists",
      "outputs": [
        {
          "internalType": "bool",
          "name": "",
          "type": "bool"
        }
      ],
      "stateMutability": "view",
      "type": "function"
    },
    {
      "inputs": [
        {
          "internalType": "uint256",
          "name": "_plot",
          "type": "uint256"
        }
      ],
      "name": "harvest",
      "outputs": [],
      "stateMutability": "nonpayable",
      "type": "function"
    },
    {
      "inputs": [
        {
          "internalType": "address",
          "name": "",
          "type": "address"
        }
      ],
      "name": "hasPlanted",
      "outputs": [
        {
          "internalType": "bool",
          "name": "",
          "type": "bool"
        }
      ],
      "stateMutability": "view",
      "type": "function"
    },
    {
      "inputs": [
        {
          "internalType": "address",
          "name": "account",
          "type": "address"
        },
        {
          "internalType": "address",
          "name": "operator",
          "type": "address"
        }
      ],
      "name": "isApprovedForAll",
      "outputs": [
        {
          "internalType": "bool",
          "name": "",
          "type": "bool"
        }
      ],
      "stateMutability": "view",
      "type": "function"
    },
    {
      "inputs": [
        {
          "internalType": "address",
          "name": "",
          "type": "address"
        },
        {
          "internalType": "address",
          "name": "",
          "type": "address"
        },
        {
          "internalType": "uint256",
          "name": "",
          "type": "uint256"
        },
        {
          "internalType": "uint256",
          "name": "",
          "type": "uint256"
        },
        {
          "internalType": "bytes",
          "name": "",
          "type": "bytes"
        }
      ],
      "name": "onERC1155Received",
      "outputs": [
        {
          "internalType": "bytes4",
          "name": "",
          "type": "bytes4"
        }
      ],
      "stateMutability": "nonpayable",
      "type": "function"
    },
    {
      "inputs": [
        {
          "internalType": "uint256",
          "name": "_plot",
          "type": "uint256"
        },
        {
          "internalType": "uint256",
          "name": "_id",
          "type": "uint256"
        }
      ],
      "name": "plant",
      "outputs": [],
      "stateMutability": "nonpayable",
      "type": "function"
    },
    {
      "inputs": [
        {
          "internalType": "address",
          "name": "",
          "type": "address"
        }
      ],
      "name": "plotnum",
      "outputs": [
        {
          "internalType": "uint256",
          "name": "",
          "type": "uint256"
        }
      ],
      "stateMutability": "view",
      "type": "function"
    },
    {
      "inputs": [
        {
          "internalType": "address",
          "name": "",
          "type": "address"
        }
      ],
      "name": "plotsBought",
      "outputs": [
        {
          "internalType": "uint8",
          "name": "",
          "type": "uint8"
        }
      ],
      "stateMutability": "view",
      "type": "function"
    },
    {
      "inputs": [
        {
          "internalType": "address",
          "name": "from",
          "type": "address"
        },
        {
          "internalType": "address",
          "name": "to",
          "type": "address"
        },
        {
          "internalType": "uint256[]",
          "name": "ids",
          "type": "uint256[]"
        },
        {
          "internalType": "uint256[]",
          "name": "amounts",
          "type": "uint256[]"
        },
        {
          "internalType": "bytes",
          "name": "data",
          "type": "bytes"
        }
      ],
      "name": "safeBatchTransferFrom",
      "outputs": [],
      "stateMutability": "nonpayable",
      "type": "function"
    },
    {
      "inputs": [
        {
          "internalType": "address",
          "name": "from",
          "type": "address"
        },
        {
          "internalType": "address",
          "name": "to",
          "type": "address"
        },
        {
          "internalType": "uint256",
          "name": "id",
          "type": "uint256"
        },
        {
          "internalType": "uint256",
          "name": "amount",
          "type": "uint256"
        },
        {
          "internalType": "bytes",
          "name": "data",
          "type": "bytes"
        }
      ],
      "name": "safeTransferFrom",
      "outputs": [],
      "stateMutability": "nonpayable",
      "type": "function"
    },
    {
      "inputs": [
        {
          "internalType": "address",
          "name": "operator",
          "type": "address"
        },
        {
          "internalType": "bool",
          "name": "approved",
          "type": "bool"
        }
      ],
      "name": "setApprovalForAll",
      "outputs": [],
      "stateMutability": "nonpayable",
      "type": "function"
    },
    {
      "inputs": [
        {
          "internalType": "bytes4",
          "name": "interfaceId",
          "type": "bytes4"
        }
      ],
      "name": "supportsInterface",
      "outputs": [
        {
          "internalType": "bool",
          "name": "",
          "type": "bool"
        }
      ],
      "stateMutability": "view",
      "type": "function"
    },
    {
      "inputs": [
        {
          "internalType": "uint256",
          "name": "id",
          "type": "uint256"
        }
      ],
      "name": "totalSupply",
      "outputs": [
        {
          "internalType": "uint256",
          "name": "",
          "type": "uint256"
        }
      ],
      "stateMutability": "view",
      "type": "function"
    },
    {
      "inputs": [
        {
          "internalType": "uint256",
          "name": "",
          "type": "uint256"
        }
      ],
      "name": "uri",
      "outputs": [
        {
          "internalType": "string",
          "name": "",
          "type": "string"
        }
      ],
      "stateMutability": "view",
      "type": "function"
    },
    {
      "inputs": [
        {
          "internalType": "address",
          "name": "_account",
          "type": "address"
        },
        {
          "internalType": "uint256",
          "name": "_id",
          "type": "uint256"
        },
        {
          "internalType": "uint256",
          "name": "_member",
          "type": "uint256"
        }
      ],
      "name": "viewBalance",
      "outputs": [
        {
          "internalType": "uint256",
          "name": "",
          "type": "uint256"
        }
      ],
      "stateMutability": "view",
      "type": "function"
    },
    {
      "inputs": [
        {
          "internalType": "address",
          "name": "_account",
          "type": "address"
        },
        {
          "internalType": "uint256",
          "name": "_plot",
          "type": "uint256"
        }
      ],
      "name": "viewGrowStatus",
      "outputs": [
        {
          "internalType": "uint256",
          "name": "",
          "type": "uint256"
        },
        {
          "internalType": "uint256",
          "name": "",
          "type": "uint256"
        }
      ],
      "stateMutability": "view",
      "type": "function"
    },
    {
      "inputs": [
        {
          "internalType": "address",
          "name": "_account",
          "type": "address"
        },
        {
          "internalType": "uint256",
          "name": "_id",
          "type": "uint256"
        }
      ],
      "name": "viewPlot",
      "outputs": [
        {
          "internalType": "uint256",
          "name": "",
          "type": "uint256"
        },
        {
          "internalType": "string",
          "name": "",
          "type": "string"
        }
      ],
      "stateMutability": "view",
      "type": "function"
    },
    {
      "stateMutability": "payable",
      "type": "receive"
    }
  ],
  "bytecode": "0x608060405273f39fd6e51aad88f6f4ce6ab8827279cfffb92266600460006101000a81548173ffffffffffffffffffffffffffffffffffffffff021916908373ffffffffffffffffffffffffffffffffffffffff1602179055503480156200006657600080fd5b506040518060600160405280603381526020016200685260339139620000928162000cbc60201b60201c565b50620000b93360016103e86040518060200160405280600081525062000cd860201b60201c565b620000df3360026103e86040518060200160405280600081525062000cd860201b60201c565b620001053360036103e86040518060200160405280600081525062000cd860201b60201c565b6200012b3360046103e86040518060200160405280600081525062000cd860201b60201c565b620001513360056103e86040518060200160405280600081525062000cd860201b60201c565b620001773360066103e86040518060200160405280600081525062000cd860201b60201c565b6200019d3360076103e86040518060200160405280600081525062000cd860201b60201c565b620001c33360086103e86040518060200160405280600081525062000cd860201b60201c565b620001e93360096103e86040518060200160405280600081525062000cd860201b60201c565b6200020f33600a6103e86040518060200160405280600081525062000cd860201b60201c565b6200023533600b6103e86040518060200160405280600081525062000cd860201b60201c565b6200025b33600c6103e86040518060200160405280600081525062000cd860201b60201c565b6000604051806104e001604052806000815260200160008152602001600081526020016001815260200160648152602001600381526020016002815260200160c8815260200160038152602001600381526020016064815260200160048152602001600481526020016101f48152602001600681526020016005815260200160648152602001600681526020016006815260200160c8815260200160028152602001600781526020016064815260200160028152602001600881526020016101f4815260200160038152602001600981526020016064815260200160058152602001600a815260200160c8815260200160028152602001600b81526020016064815260200160048152602001600c81526020016101f48152602001600681525090506000604051806101a001604052806040518060200160405280600081525081526020016040518060400160405280600581526020017f576865617400000000000000000000000000000000000000000000000000000081525081526020016040518060400160405280600481526020017f436f726e0000000000000000000000000000000000000000000000000000000081525081526020016040518060400160405280600681526020017f506f7461746f000000000000000000000000000000000000000000000000000081525081526020016040518060400160405280600a81526020017f537472617762657272790000000000000000000000000000000000000000000081525081526020016040518060400160405280600981526020017f426c75656265727279000000000000000000000000000000000000000000000081525081526020016040518060400160405280600a81526020017f57617465726d656c6f6e0000000000000000000000000000000000000000000081525081526020016040518060400160405280600781526020017f50756d706b696e0000000000000000000000000000000000000000000000000081525081526020016040518060400160405280600781526020017f4c6574747563650000000000000000000000000000000000000000000000000081525081526020016040518060400160405280600681526020017f546f6d61746f000000000000000000000000000000000000000000000000000081525081526020016040518060400160405280600b81526020017f4361756c69666c6f77657200000000000000000000000000000000000000000081525081526020016040518060400160405280600881526020017f456767706c616e7400000000000000000000000000000000000000000000000081525081526020016040518060400160405280600c81526020017f4368696c6920506570706572000000000000000000000000000000000000000081525081525090506000600190505b600c8111620007dc57826003826200068491906200188a565b60278110620006bc577f4e487b7100000000000000000000000000000000000000000000000000000000600052603260045260246000fd5b60200201516007600083815260200190815260200160002060000181905550826001600383620006ed91906200188a565b620006f991906200182d565b6027811062000731577f4e487b7100000000000000000000000000000000000000000000000000000000600052603260045260246000fd5b602002015160076000838152602001908152602001600020600101819055508260026003836200076291906200188a565b6200076e91906200182d565b60278110620007a6577f4e487b7100000000000000000000000000000000000000000000000000000000600052603260045260246000fd5b60200201516007600083815260200190815260200160002060020181905550600181620007d491906200182d565b90506200066b565b506000600190505b600c81116200086f578181600d811062000827577f4e487b7100000000000000000000000000000000000000000000000000000000600052603260045260246000fd5b6020020151600760008381526020019081526020016000206003019080519060200190620008579291906200147b565b506001816200086791906200182d565b9050620007e4565b506103e8600560003373ffffffffffffffffffffffffffffffffffffffff1673ffffffffffffffffffffffffffffffffffffffff168152602001908152602001600020600060018152602001908152602001600020600001819055506103e8600560003373ffffffffffffffffffffffffffffffffffffffff1673ffffffffffffffffffffffffffffffffffffffff168152602001908152602001600020600060028152602001908152602001600020600001819055506103e8600560003373ffffffffffffffffffffffffffffffffffffffff1673ffffffffffffffffffffffffffffffffffffffff168152602001908152602001600020600060038152602001908152602001600020600001819055506103e8600560003373ffffffffffffffffffffffffffffffffffffffff1673ffffffffffffffffffffffffffffffffffffffff168152602001908152602001600020600060048152602001908152602001600020600001819055506103e8600560003373ffffffffffffffffffffffffffffffffffffffff1673ffffffffffffffffffffffffffffffffffffffff168152602001908152602001600020600060058152602001908152602001600020600001819055506103e8600560003373ffffffffffffffffffffffffffffffffffffffff1673ffffffffffffffffffffffffffffffffffffffff168152602001908152602001600020600060068152602001908152602001600020600001819055506103e8600560003373ffffffffffffffffffffffffffffffffffffffff1673ffffffffffffffffffffffffffffffffffffffff168152602001908152602001600020600060078152602001908152602001600020600001819055506103e8600560003373ffffffffffffffffffffffffffffffffffffffff1673ffffffffffffffffffffffffffffffffffffffff168152602001908152602001600020600060088152602001908152602001600020600001819055506103e8600560003373ffffffffffffffffffffffffffffffffffffffff1673ffffffffffffffffffffffffffffffffffffffff168152602001908152602001600020600060098152602001908152602001600020600001819055506103e8600560003373ffffffffffffffffffffffffffffffffffffffff1673ffffffffffffffffffffffffffffffffffffffff1681526020019081526020016000206000600a8152602001908152602001600020600001819055506103e8600560003373ffffffffffffffffffffffffffffffffffffffff1673ffffffffffffffffffffffffffffffffffffffff1681526020019081526020016000206000600b8152602001908152602001600020600001819055506103e8600560003373ffffffffffffffffffffffffffffffffffffffff1673ffffffffffffffffffffffffffffffffffffffff1681526020019081526020016000206000600c815260200190815260200160002060000181905550505062001d0d565b806002908051906020019062000cd49291906200147b565b5050565b600073ffffffffffffffffffffffffffffffffffffffff168473ffffffffffffffffffffffffffffffffffffffff16141562000d4b576040517f08c379a000000000000000000000000000000000000000000000000000000000815260040162000d42906200179c565b60405180910390fd5b600062000d5d62000ec060201b60201c565b9050600062000d728562000ec860201b60201c565b9050600062000d878562000ec860201b60201c565b905062000da08360008985858962000f9160201b60201c565b8460008088815260200190815260200160002060008973ffffffffffffffffffffffffffffffffffffffff1673ffffffffffffffffffffffffffffffffffffffff168152602001908152602001600020600082825462000e0191906200182d565b925050819055508673ffffffffffffffffffffffffffffffffffffffff16600073ffffffffffffffffffffffffffffffffffffffff168473ffffffffffffffffffffffffffffffffffffffff167fc3d58168c5ae7397731d063d5bbf3d657854427343f4c083240f7aacaa2d0f62898960405162000e81929190620017be565b60405180910390a462000ea08360008985858962000fb460201b60201c565b62000eb78360008989898962000fbc60201b60201c565b50505050505050565b600033905090565b60606000600167ffffffffffffffff81111562000f0e577f4e487b7100000000000000000000000000000000000000000000000000000000600052604160045260246000fd5b60405190808252806020026020018201604052801562000f3d5781602001602082028036833780820191505090505b509050828160008151811062000f7c577f4e487b7100000000000000000000000000000000000000000000000000000000600052603260045260246000fd5b60200260200101818152505080915050919050565b62000fac868686868686620011c660201b62001e081760201c565b505050505050565b505050505050565b62000fe88473ffffffffffffffffffffffffffffffffffffffff166200145060201b620020721760201c565b15620011be578373ffffffffffffffffffffffffffffffffffffffff1663f23a6e6187878686866040518663ffffffff1660e01b815260040162001031959493929190620016ae565b602060405180830381600087803b1580156200104c57600080fd5b505af19250505080156200108057506040513d601f19601f820116820180604052508101906200107d919062001542565b60015b62001132576200108f62001ad2565b806308c379a01415620010f35750620010a762001c51565b80620010b45750620010f5565b806040517f08c379a0000000000000000000000000000000000000000000000000000000008152600401620010ea919062001712565b60405180910390fd5b505b6040517f08c379a0000000000000000000000000000000000000000000000000000000008152600401620011299062001736565b60405180910390fd5b63f23a6e6160e01b7bffffffffffffffffffffffffffffffffffffffffffffffffffffffff1916817bffffffffffffffffffffffffffffffffffffffffffffffffffffffff191614620011bc576040517f08c379a0000000000000000000000000000000000000000000000000000000008152600401620011b39062001758565b60405180910390fd5b505b505050505050565b620011e18686868686866200147360201b620020951760201c565b600073ffffffffffffffffffffffffffffffffffffffff168573ffffffffffffffffffffffffffffffffffffffff161415620012e85760005b8351811015620012e6578281815181106200125e577f4e487b7100000000000000000000000000000000000000000000000000000000600052603260045260246000fd5b602002602001015160036000868481518110620012a4577f4e487b7100000000000000000000000000000000000000000000000000000000600052603260045260246000fd5b602002602001015181526020019081526020016000206000828254620012cb91906200182d565b9250508190555080620012de90620019f7565b90506200121a565b505b600073ffffffffffffffffffffffffffffffffffffffff168473ffffffffffffffffffffffffffffffffffffffff161415620014485760005b83518110156200144657600084828151811062001367577f4e487b7100000000000000000000000000000000000000000000000000000000600052603260045260246000fd5b602002602001015190506000848381518110620013ad577f4e487b7100000000000000000000000000000000000000000000000000000000600052603260045260246000fd5b602002602001015190506000600360008481526020019081526020016000205490508181101562001415576040517f08c379a00000000000000000000000000000000000000000000000000000000081526004016200140c906200177a565b60405180910390fd5b8181036003600085815260200190815260200160002081905550505050806200143e90620019f7565b905062001321565b505b505050505050565b6000808273ffffffffffffffffffffffffffffffffffffffff163b119050919050565b505050505050565b82805462001489906200198b565b90600052602060002090601f016020900481019282620014ad5760008555620014f9565b82601f10620014c857805160ff1916838001178555620014f9565b82800160010185558215620014f9579182015b82811115620014f8578251825591602001919060010190620014db565b5b5090506200150891906200150c565b5090565b5b80821115620015275760008160009055506001016200150d565b5090565b6000815190506200153c8162001cf3565b92915050565b6000602082840312156200155557600080fd5b600062001565848285016200152b565b91505092915050565b6200157981620018eb565b82525050565b60006200158c82620017f5565b6200159881856200180b565b9350620015aa81856020860162001955565b620015b58162001af7565b840191505092915050565b6000620015cd8262001800565b620015d981856200181c565b9350620015eb81856020860162001955565b620015f68162001af7565b840191505092915050565b6000620016106034836200181c565b91506200161d8262001b15565b604082019050919050565b6000620016376028836200181c565b9150620016448262001b64565b604082019050919050565b60006200165e6028836200181c565b91506200166b8262001bb3565b604082019050919050565b6000620016856021836200181c565b9150620016928262001c02565b604082019050919050565b620016a8816200194b565b82525050565b600060a082019050620016c560008301886200156e565b620016d460208301876200156e565b620016e360408301866200169d565b620016f260608301856200169d565b81810360808301526200170681846200157f565b90509695505050505050565b600060208201905081810360008301526200172e8184620015c0565b905092915050565b60006020820190508181036000830152620017518162001601565b9050919050565b60006020820190508181036000830152620017738162001628565b9050919050565b6000602082019050818103600083015262001795816200164f565b9050919050565b60006020820190508181036000830152620017b78162001676565b9050919050565b6000604082019050620017d560008301856200169d565b620017e460208301846200169d565b9392505050565b6000604051905090565b600081519050919050565b600081519050919050565b600082825260208201905092915050565b600082825260208201905092915050565b60006200183a826200194b565b915062001847836200194b565b9250827fffffffffffffffffffffffffffffffffffffffffffffffffffffffffffffffff038211156200187f576200187e62001a45565b5b828201905092915050565b600062001897826200194b565b9150620018a4836200194b565b9250817fffffffffffffffffffffffffffffffffffffffffffffffffffffffffffffffff0483118215151615620018e057620018df62001a45565b5b828202905092915050565b6000620018f8826200192b565b9050919050565b60007fffffffff0000000000000000000000000000000000000000000000000000000082169050919050565b600073ffffffffffffffffffffffffffffffffffffffff82169050919050565b6000819050919050565b60005b838110156200197557808201518184015260208101905062001958565b8381111562001985576000848401525b50505050565b60006002820490506001821680620019a457607f821691505b60208210811415620019bb57620019ba62001a74565b5b50919050565b620019cc8262001af7565b810181811067ffffffffffffffff82111715620019ee57620019ed62001aa3565b5b80604052505050565b600062001a04826200194b565b91507fffffffffffffffffffffffffffffffffffffffffffffffffffffffffffffffff82141562001a3a5762001a3962001a45565b5b600182019050919050565b7f4e487b7100000000000000000000000000000000000000000000000000000000600052601160045260246000fd5b7f4e487b7100000000000000000000000000000000000000000000000000000000600052602260045260246000fd5b7f4e487b7100000000000000000000000000000000000000000000000000000000600052604160045260246000fd5b600060033d111562001af45760046000803e62001af160005162001b08565b90505b90565b6000601f19601f8301169050919050565b60008160e01c9050919050565b7f455243313135353a207472616e7366657220746f206e6f6e204552433131353560008201527f526563656976657220696d706c656d656e746572000000000000000000000000602082015250565b7f455243313135353a204552433131353552656365697665722072656a6563746560008201527f6420746f6b656e73000000000000000000000000000000000000000000000000602082015250565b7f455243313135353a206275726e20616d6f756e74206578636565647320746f7460008201527f616c537570706c79000000000000000000000000000000000000000000000000602082015250565b7f455243313135353a206d696e7420746f20746865207a65726f2061646472657360008201527f7300000000000000000000000000000000000000000000000000000000000000602082015250565b600060443d101562001c635762001cf0565b62001c6d620017eb565b60043d036004823e80513d602482011167ffffffffffffffff8211171562001c9757505062001cf0565b808201805167ffffffffffffffff81111562001cb7575050505062001cf0565b80602083010160043d03850181111562001cd657505050505062001cf0565b62001ce782602001850186620019c1565b82955050505050505b90565b62001cfe81620018ff565b811462001d0a57600080fd5b50565b614b358062001d1d6000396000f3fe6080604052600436106102125760003560e01c80639f2685f711610118578063ccc3aeec116100a0578063e985e9c51161006f578063e985e9c514610862578063f23a6e611461089f578063f242432a146108dc578063f26be3fc14610905578063ff2dff2d1461093057610252565b8063ccc3aeec146107b8578063ddc63262146107e3578063e3f8f5551461080c578063e52272841461083757610252565b8063bd85b039116100e7578063bd85b039146106aa578063bf701ed4146106e7578063c3d7f0bf14610712578063c81cf8ce1461073d578063cbf1304d1461077a57610252565b80639f2685f714610600578063a22cb4651461062b578063a9993b9f14610654578063b4a99a4e1461067f57610252565b806349e663111161019b57806370c9f1a51161016a57806370c9f1a51461050457806376c96206146105445780637d0c78f2146105815780638d44a9a2146105ac57806392658a28146105d757610252565b806349e66311146104425780634e1273f4146104805780634f558e79146104bd57806359098a55146104fa57610252565b80630e89341c116101e25780630e89341c146103365780632568c63714610373578063297fa6da146103b15780632eb2c2d6146103ee57806339b2727f1461041757610252565b8062fdd58e1461025457806301ffc9a71461029157806303b46fcc146102ce5780630812bd401461030b57610252565b36610252577f88a5966d370b9919b20f3e2c13ff65706f196a4e32cc2c12bf57088f885258743334604051610248929190613d52565b60405180910390a1005b005b34801561026057600080fd5b5061027b6004803603810190610276919061370f565b61095b565b604051610288919061406c565b60405180910390f35b34801561029d57600080fd5b506102b860048036038101906102b39190613806565b610a24565b6040516102c59190613dd4565b60405180910390f35b3480156102da57600080fd5b506102f560048036038101906102f0919061374b565b610b06565b604051610302919061406c565b60405180910390f35b34801561031757600080fd5b50610320610bdb565b60405161032d919061406c565b60405180910390f35b34801561034257600080fd5b5061035d60048036038101906103589190613858565b610be0565b60405161036a9190613e0a565b60405180910390f35b34801561037f57600080fd5b5061039a6004803603810190610395919061370f565b610c74565b6040516103a89291906140b7565b60405180910390f35b3480156103bd57600080fd5b506103d860048036038101906103d39190613520565b610d91565b6040516103e5919061406c565b60405180910390f35b3480156103fa57600080fd5b5061041560048036038101906104109190613585565b610da9565b005b34801561042357600080fd5b5061042c610e4a565b604051610439919061406c565b60405180910390f35b34801561044e57600080fd5b506104696004803603810190610464919061370f565b610e4f565b604051610477929190614087565b60405180910390f35b34801561048c57600080fd5b506104a760048036038101906104a2919061379a565b610fed565b6040516104b49190613d7b565b60405180910390f35b3480156104c957600080fd5b506104e460048036038101906104df9190613858565b61119e565b6040516104f19190613dd4565b60405180910390f35b6105026111b2565b005b34801561051057600080fd5b5061052b60048036038101906105269190613858565b611289565b60405161053b94939291906140e0565b60405180910390f35b34801561055057600080fd5b5061056b60048036038101906105669190613520565b611341565b6040516105789190613dd4565b60405180910390f35b34801561058d57600080fd5b50610596611361565b6040516105a3919061406c565b60405180910390f35b3480156105b857600080fd5b506105c1611366565b6040516105ce919061406c565b60405180910390f35b3480156105e357600080fd5b506105fe60048036038101906105f99190613881565b61136b565b005b34801561060c57600080fd5b5061061561187d565b604051610622919061406c565b60405180910390f35b34801561063757600080fd5b50610652600480360381019061064d91906136d3565b611882565b005b34801561066057600080fd5b50610669611898565b604051610676919061406c565b60405180910390f35b34801561068b57600080fd5b5061069461189d565b6040516106a19190613c75565b60405180910390f35b3480156106b657600080fd5b506106d160048036038101906106cc9190613858565b6118c3565b6040516106de919061406c565b60405180910390f35b3480156106f357600080fd5b506106fc6118e0565b604051610709919061406c565b60405180910390f35b34801561071e57600080fd5b506107276118e5565b604051610734919061406c565b60405180910390f35b34801561074957600080fd5b50610764600480360381019061075f9190613520565b6118ea565b604051610771919061412c565b60405180910390f35b34801561078657600080fd5b506107a1600480360381019061079c919061370f565b61190a565b6040516107af9291906140b7565b60405180910390f35b3480156107c457600080fd5b506107cd61193b565b6040516107da919061406c565b60405180910390f35b3480156107ef57600080fd5b5061080a60048036038101906108059190613858565b611940565b005b34801561081857600080fd5b50610821611caa565b60405161082e919061406c565b60405180910390f35b34801561084357600080fd5b5061084c611caf565b604051610859919061406c565b60405180910390f35b34801561086e57600080fd5b5061088960048036038101906108849190613549565b611cb4565b6040516108969190613dd4565b60405180910390f35b3480156108ab57600080fd5b506108c660048036038101906108c19190613644565b611d48565b6040516108d39190613def565b60405180910390f35b3480156108e857600080fd5b5061090360048036038101906108fe9190613644565b611d5d565b005b34801561091157600080fd5b5061091a611dfe565b604051610927919061406c565b60405180910390f35b34801561093c57600080fd5b50610945611e03565b604051610952919061406c565b60405180910390f35b60008073ffffffffffffffffffffffffffffffffffffffff168373ffffffffffffffffffffffffffffffffffffffff1614156109cc576040517f08c379a00000000000000000000000000000000000000000000000000000000081526004016109c390613ecc565b60405180910390fd5b60008083815260200190815260200160002060008473ffffffffffffffffffffffffffffffffffffffff1673ffffffffffffffffffffffffffffffffffffffff16815260200190815260200160002054905092915050565b60007fd9b67a26000000000000000000000000000000000000000000000000000000007bffffffffffffffffffffffffffffffffffffffffffffffffffffffff1916827bffffffffffffffffffffffffffffffffffffffffffffffffffffffff19161480610aef57507f0e89341c000000000000000000000000000000000000000000000000000000007bffffffffffffffffffffffffffffffffffffffffffffffffffffffff1916827bffffffffffffffffffffffffffffffffffffffffffffffffffffffff1916145b80610aff5750610afe8261209d565b5b9050919050565b600080821415610b6b57600560008573ffffffffffffffffffffffffffffffffffffffff1673ffffffffffffffffffffffffffffffffffffffff1681526020019081526020016000206000848152602001908152602001600020600001549050610bd4565b6001821415610bcf57600560008573ffffffffffffffffffffffffffffffffffffffff1673ffffffffffffffffffffffffffffffffffffffff1681526020019081526020016000206000848152602001908152602001600020600101549050610bd4565b600090505b9392505050565b600581565b606060028054610bef906143ea565b80601f0160208091040260200160405190810160405280929190818152602001828054610c1b906143ea565b8015610c685780601f10610c3d57610100808354040283529160200191610c68565b820191906000526020600020905b815481529060010190602001808311610c4b57829003601f168201915b50505050509050919050565b600080600660008573ffffffffffffffffffffffffffffffffffffffff1673ffffffffffffffffffffffffffffffffffffffff16815260200190815260200160002060000183600a8110610cf1577f4e487b7100000000000000000000000000000000000000000000000000000000600052603260045260246000fd5b600502016004015442610d0491906142f3565b600660008673ffffffffffffffffffffffffffffffffffffffff1673ffffffffffffffffffffffffffffffffffffffff16815260200190815260200160002060000184600a8110610d7e577f4e487b7100000000000000000000000000000000000000000000000000000000600052603260045260246000fd5b6005020160030154915091509250929050565b60086020528060005260406000206000915090505481565b610db1612107565b73ffffffffffffffffffffffffffffffffffffffff168573ffffffffffffffffffffffffffffffffffffffff161480610df75750610df685610df1612107565b611cb4565b5b610e36576040517f08c379a0000000000000000000000000000000000000000000000000000000008152600401610e2d90613e4c565b60405180910390fd5b610e43858585858561210f565b5050505050565b600a81565b60006060600660008573ffffffffffffffffffffffffffffffffffffffff1673ffffffffffffffffffffffffffffffffffffffff16815260200190815260200160002060000183600a8110610ecd577f4e487b7100000000000000000000000000000000000000000000000000000000600052603260045260246000fd5b6005020160010154600660008673ffffffffffffffffffffffffffffffffffffffff1673ffffffffffffffffffffffffffffffffffffffff16815260200190815260200160002060000184600a8110610f4f577f4e487b7100000000000000000000000000000000000000000000000000000000600052603260045260246000fd5b60050201600201808054610f62906143ea565b80601f0160208091040260200160405190810160405280929190818152602001828054610f8e906143ea565b8015610fdb5780601f10610fb057610100808354040283529160200191610fdb565b820191906000526020600020905b815481529060010190602001808311610fbe57829003601f168201915b50505050509050915091509250929050565b60608151835114611033576040517f08c379a000000000000000000000000000000000000000000000000000000000815260040161102a90613fec565b60405180910390fd5b6000835167ffffffffffffffff811115611076577f4e487b7100000000000000000000000000000000000000000000000000000000600052604160045260246000fd5b6040519080825280602002602001820160405280156110a45781602001602082028036833780820191505090505b50905060005b84518110156111935761113d8582815181106110ef577f4e487b7100000000000000000000000000000000000000000000000000000000600052603260045260246000fd5b6020026020010151858381518110611130577f4e487b7100000000000000000000000000000000000000000000000000000000600052603260045260246000fd5b602002602001015161095b565b828281518110611176577f4e487b7100000000000000000000000000000000000000000000000000000000600052603260045260246000fd5b6020026020010181815250508061118c9061444d565b90506110aa565b508091505092915050565b6000806111aa836118c3565b119050919050565b600960003373ffffffffffffffffffffffffffffffffffffffff1673ffffffffffffffffffffffffffffffffffffffff16815260200190815260200160002060009054906101000a900460ff1661123e576040517f08c379a00000000000000000000000000000000000000000000000000000000081526004016112359061404c565b60405180910390fd5b61127e33600460009054906101000a900473ffffffffffffffffffffffffffffffffffffffff166009600a6040518060200160405280600081525061247d565b6112873361266d565b565b60076020528060005260406000206000915090508060000154908060010154908060020154908060030180546112be906143ea565b80601f01602080910402602001604051908101604052809291908181526020018280546112ea906143ea565b80156113375780601f1061130c57610100808354040283529160200191611337565b820191906000526020600020905b81548152906001019060200180831161131a57829003601f168201915b5050505050905084565b60096020528060005260406000206000915054906101000a900460ff1681565b600981565b600681565b6001600560003373ffffffffffffffffffffffffffffffffffffffff1673ffffffffffffffffffffffffffffffffffffffff1681526020019081526020016000206000838152602001908152602001600020600001541015611402576040517f08c379a00000000000000000000000000000000000000000000000000000000081526004016113f990613eec565b60405180910390fd5b600960003373ffffffffffffffffffffffffffffffffffffffff1673ffffffffffffffffffffffffffffffffffffffff16815260200190815260200160002060009054906101000a900460ff166114f1576003600860003373ffffffffffffffffffffffffffffffffffffffff1673ffffffffffffffffffffffffffffffffffffffff168152602001908152602001600020819055506001600960003373ffffffffffffffffffffffffffffffffffffffff1673ffffffffffffffffffffffffffffffffffffffff16815260200190815260200160002060006101000a81548160ff0219169083151502179055505b6000600860003373ffffffffffffffffffffffffffffffffffffffff1673ffffffffffffffffffffffffffffffffffffffff1681526020019081526020016000205411611573576040517f08c379a000000000000000000000000000000000000000000000000000000000815260040161156a90613eac565b60405180910390fd5b60011515600660003373ffffffffffffffffffffffffffffffffffffffff1673ffffffffffffffffffffffffffffffffffffffff16815260200190815260200160002060000183600a81106115f1577f4e487b7100000000000000000000000000000000000000000000000000000000600052603260045260246000fd5b6005020160000160009054906101000a900460ff1615151415611649576040517f08c379a000000000000000000000000000000000000000000000000000000000815260040161164090613f2c565b60405180910390fd5b6001600560003373ffffffffffffffffffffffffffffffffffffffff1673ffffffffffffffffffffffffffffffffffffffff168152602001908152602001600020600083815260200190815260200160002060000160008282546116ad91906142f3565b925050819055506001600560003373ffffffffffffffffffffffffffffffffffffffff1673ffffffffffffffffffffffffffffffffffffffff168152602001908152602001600020600083815260200190815260200160002060010160008282546117189190614266565b925050819055506001600860003373ffffffffffffffffffffffffffffffffffffffff1673ffffffffffffffffffffffffffffffffffffffff168152602001908152602001600020600082825461176f91906142f3565b925050819055506000600660003373ffffffffffffffffffffffffffffffffffffffff1673ffffffffffffffffffffffffffffffffffffffff16815260200190815260200160002060000183600a81106117f2577f4e487b7100000000000000000000000000000000000000000000000000000000600052603260045260246000fd5b6005020190504281600401819055508181600101819055506007600083815260200190815260200160002060030181600201908054611830906143ea565b61183b929190613239565b506007600083815260200190815260200160002060010154816003018190555060018160000160006101000a81548160ff021916908315150217905550505050565b600381565b61189461188d612107565b83836127cd565b5050565b600881565b600460009054906101000a900473ffffffffffffffffffffffffffffffffffffffff1681565b600060036000838152602001908152602001600020549050919050565b600781565b600b81565b600a6020528060005260406000206000915054906101000a900460ff1681565b6005602052816000526040600020602052806000526040600020600091509150508060000154908060010154905082565b600c81565b6000600660003373ffffffffffffffffffffffffffffffffffffffff1673ffffffffffffffffffffffffffffffffffffffff16815260200190815260200160002060000182600a81106119bc577f4e487b7100000000000000000000000000000000000000000000000000000000600052603260045260246000fd5b600502019050600081600101541415611a0a576040517f08c379a0000000000000000000000000000000000000000000000000000000008152600401611a0190613f0c565b60405180910390fd5b8060030154816004015442611a1f91906142f3565b1015611a60576040517f08c379a0000000000000000000000000000000000000000000000000000000008152600401611a5790613fac565b60405180910390fd5b600081600101549050611aa6338260016007600086815260200190815260200160002060020154611a9191906142f3565b6040518060200160405280600081525061293a565b600660003373ffffffffffffffffffffffffffffffffffffffff1673ffffffffffffffffffffffffffffffffffffffff16815260200190815260200160002060000183600a8110611b20577f4e487b7100000000000000000000000000000000000000000000000000000000600052603260045260246000fd5b60050201600080820160006101000a81549060ff02191690556001820160009055600282016000611b5191906132c6565b6003820160009055600482016000905550506001600560003373ffffffffffffffffffffffffffffffffffffffff1673ffffffffffffffffffffffffffffffffffffffff16815260200190815260200160002060008381526020019081526020016000206001016000828254611bc791906142f3565b925050819055506007600082815260200190815260200160002060020154600560003373ffffffffffffffffffffffffffffffffffffffff1673ffffffffffffffffffffffffffffffffffffffff16815260200190815260200160002060008381526020019081526020016000206000016000828254611c479190614266565b925050819055506001600860003373ffffffffffffffffffffffffffffffffffffffff1673ffffffffffffffffffffffffffffffffffffffff1681526020019081526020016000206000828254611c9e9190614266565b92505081905550505050565b600281565b600481565b6000600160008473ffffffffffffffffffffffffffffffffffffffff1673ffffffffffffffffffffffffffffffffffffffff16815260200190815260200160002060008373ffffffffffffffffffffffffffffffffffffffff1673ffffffffffffffffffffffffffffffffffffffff16815260200190815260200160002060009054906101000a900460ff16905092915050565b600063f23a6e6160e01b905095945050505050565b611d65612107565b73ffffffffffffffffffffffffffffffffffffffff168573ffffffffffffffffffffffffffffffffffffffff161480611dab5750611daa85611da5612107565b611cb4565b5b611dea576040517f08c379a0000000000000000000000000000000000000000000000000000000008152600401611de190613e4c565b60405180910390fd5b611df7858585858561247d565b5050505050565b600081565b600181565b611e16868686868686612095565b600073ffffffffffffffffffffffffffffffffffffffff168573ffffffffffffffffffffffffffffffffffffffff161415611f145760005b8351811015611f1257828181518110611e90577f4e487b7100000000000000000000000000000000000000000000000000000000600052603260045260246000fd5b602002602001015160036000868481518110611ed5577f4e487b7100000000000000000000000000000000000000000000000000000000600052603260045260246000fd5b602002602001015181526020019081526020016000206000828254611efa9190614266565b9250508190555080611f0b9061444d565b9050611e4e565b505b600073ffffffffffffffffffffffffffffffffffffffff168473ffffffffffffffffffffffffffffffffffffffff16141561206a5760005b8351811015612068576000848281518110611f90577f4e487b7100000000000000000000000000000000000000000000000000000000600052603260045260246000fd5b602002602001015190506000848381518110611fd5577f4e487b7100000000000000000000000000000000000000000000000000000000600052603260045260246000fd5b602002602001015190506000600360008481526020019081526020016000205490508181101561203a576040517f08c379a000000000000000000000000000000000000000000000000000000000815260040161203190613f8c565b60405180910390fd5b8181036003600085815260200190815260200160002081905550505050806120619061444d565b9050611f4c565b505b505050505050565b6000808273ffffffffffffffffffffffffffffffffffffffff163b119050919050565b505050505050565b60007f01ffc9a7000000000000000000000000000000000000000000000000000000007bffffffffffffffffffffffffffffffffffffffffffffffffffffffff1916827bffffffffffffffffffffffffffffffffffffffffffffffffffffffff1916149050919050565b600033905090565b8151835114612153576040517f08c379a000000000000000000000000000000000000000000000000000000000815260040161214a9061400c565b60405180910390fd5b600073ffffffffffffffffffffffffffffffffffffffff168473ffffffffffffffffffffffffffffffffffffffff1614156121c3576040517f08c379a00000000000000000000000000000000000000000000000000000000081526004016121ba90613f4c565b60405180910390fd5b60006121cd612107565b90506121dd818787878787612aeb565b60005b84518110156123da576000858281518110612224577f4e487b7100000000000000000000000000000000000000000000000000000000600052603260045260246000fd5b602002602001015190506000858381518110612269577f4e487b7100000000000000000000000000000000000000000000000000000000600052603260045260246000fd5b60200260200101519050600080600084815260200190815260200160002060008b73ffffffffffffffffffffffffffffffffffffffff1673ffffffffffffffffffffffffffffffffffffffff1681526020019081526020016000205490508181101561230a576040517f08c379a000000000000000000000000000000000000000000000000000000000815260040161230190613f6c565b60405180910390fd5b81810360008085815260200190815260200160002060008c73ffffffffffffffffffffffffffffffffffffffff1673ffffffffffffffffffffffffffffffffffffffff168152602001908152602001600020819055508160008085815260200190815260200160002060008b73ffffffffffffffffffffffffffffffffffffffff1673ffffffffffffffffffffffffffffffffffffffff16815260200190815260200160002060008282546123bf9190614266565b92505081905550505050806123d39061444d565b90506121e0565b508473ffffffffffffffffffffffffffffffffffffffff168673ffffffffffffffffffffffffffffffffffffffff168273ffffffffffffffffffffffffffffffffffffffff167f4a39dc06d4c0dbc64b70af90fd698a233a518aa5d07e595d983b8c0526c8f7fb8787604051612451929190613d9d565b60405180910390a4612467818787878787612b01565b612475818787878787612b09565b505050505050565b600073ffffffffffffffffffffffffffffffffffffffff168473ffffffffffffffffffffffffffffffffffffffff1614156124ed576040517f08c379a00000000000000000000000000000000000000000000000000000000081526004016124e490613f4c565b60405180910390fd5b6000600560008773ffffffffffffffffffffffffffffffffffffffff1673ffffffffffffffffffffffffffffffffffffffff168152602001908152602001600020600085815260200190815260200160002060000154905082811015612588576040517f08c379a000000000000000000000000000000000000000000000000000000000815260040161257f90613f6c565b60405180910390fd5b828161259491906142f3565b905082600560008773ffffffffffffffffffffffffffffffffffffffff1673ffffffffffffffffffffffffffffffffffffffff168152602001908152602001600020600086815260200190815260200160002060000160008282546125f99190614266565b9250508190555080600560008873ffffffffffffffffffffffffffffffffffffffff1673ffffffffffffffffffffffffffffffffffffffff1681526020019081526020016000206000868152602001908152602001600020600001819055506126658686868686612cf0565b505050505050565b6003600a60003373ffffffffffffffffffffffffffffffffffffffff1673ffffffffffffffffffffffffffffffffffffffff16815260200190815260200160002060009054906101000a900460ff1660ff16106126ff576040517f08c379a00000000000000000000000000000000000000000000000000000000081526004016126f690613e8c565b60405180910390fd5b6001600860008373ffffffffffffffffffffffffffffffffffffffff1673ffffffffffffffffffffffffffffffffffffffff168152602001908152602001600020600082825461274f9190614266565b925050819055506001600a60003373ffffffffffffffffffffffffffffffffffffffff1673ffffffffffffffffffffffffffffffffffffffff16815260200190815260200160002060008282829054906101000a900460ff166127b291906142bc565b92506101000a81548160ff021916908360ff16021790555050565b8173ffffffffffffffffffffffffffffffffffffffff168373ffffffffffffffffffffffffffffffffffffffff16141561283c576040517f08c379a000000000000000000000000000000000000000000000000000000000815260040161283390613fcc565b60405180910390fd5b80600160008573ffffffffffffffffffffffffffffffffffffffff1673ffffffffffffffffffffffffffffffffffffffff16815260200190815260200160002060008473ffffffffffffffffffffffffffffffffffffffff1673ffffffffffffffffffffffffffffffffffffffff16815260200190815260200160002060006101000a81548160ff0219169083151502179055508173ffffffffffffffffffffffffffffffffffffffff168373ffffffffffffffffffffffffffffffffffffffff167f17307eab39ab6107e8899845ad3d59bd9653f200f220920489ca2b5937696c318360405161292d9190613dd4565b60405180910390a3505050565b600073ffffffffffffffffffffffffffffffffffffffff168473ffffffffffffffffffffffffffffffffffffffff1614156129aa576040517f08c379a00000000000000000000000000000000000000000000000000000000081526004016129a19061402c565b60405180910390fd5b60006129b4612107565b905060006129c185612f8c565b905060006129ce85612f8c565b90506129df83600089858589612aeb565b8460008088815260200190815260200160002060008973ffffffffffffffffffffffffffffffffffffffff1673ffffffffffffffffffffffffffffffffffffffff1681526020019081526020016000206000828254612a3e9190614266565b925050819055508673ffffffffffffffffffffffffffffffffffffffff16600073ffffffffffffffffffffffffffffffffffffffff168473ffffffffffffffffffffffffffffffffffffffff167fc3d58168c5ae7397731d063d5bbf3d657854427343f4c083240f7aacaa2d0f628989604051612abc9291906140b7565b60405180910390a4612ad383600089858589612b01565b612ae283600089898989613052565b50505050505050565b612af9868686868686611e08565b505050505050565b505050505050565b612b288473ffffffffffffffffffffffffffffffffffffffff16612072565b15612ce8578373ffffffffffffffffffffffffffffffffffffffff1663bc197c8187878686866040518663ffffffff1660e01b8152600401612b6e959493929190613c90565b602060405180830381600087803b158015612b8857600080fd5b505af1925050508015612bb957506040513d601f19601f82011682018060405250810190612bb6919061382f565b60015b612c5f57612bc5614523565b806308c379a01415612c225750612bda614a0d565b80612be55750612c24565b806040517f08c379a0000000000000000000000000000000000000000000000000000000008152600401612c199190613e0a565b60405180910390fd5b505b6040517f08c379a0000000000000000000000000000000000000000000000000000000008152600401612c5690613e2c565b60405180910390fd5b63bc197c8160e01b7bffffffffffffffffffffffffffffffffffffffffffffffffffffffff1916817bffffffffffffffffffffffffffffffffffffffffffffffffffffffff191614612ce6576040517f08c379a0000000000000000000000000000000000000000000000000000000008152600401612cdd90613e6c565b60405180910390fd5b505b505050505050565b600073ffffffffffffffffffffffffffffffffffffffff168473ffffffffffffffffffffffffffffffffffffffff161415612d60576040517f08c379a0000000000000000000000000000000000000000000000000000000008152600401612d5790613f4c565b60405180910390fd5b6000612d6a612107565b90506000612d7785612f8c565b90506000612d8485612f8c565b9050612d94838989858589612aeb565b600080600088815260200190815260200160002060008a73ffffffffffffffffffffffffffffffffffffffff1673ffffffffffffffffffffffffffffffffffffffff16815260200190815260200160002054905085811015612e2b576040517f08c379a0000000000000000000000000000000000000000000000000000000008152600401612e2290613f6c565b60405180910390fd5b85810360008089815260200190815260200160002060008b73ffffffffffffffffffffffffffffffffffffffff1673ffffffffffffffffffffffffffffffffffffffff168152602001908152602001600020819055508560008089815260200190815260200160002060008a73ffffffffffffffffffffffffffffffffffffffff1673ffffffffffffffffffffffffffffffffffffffff1681526020019081526020016000206000828254612ee09190614266565b925050819055508773ffffffffffffffffffffffffffffffffffffffff168973ffffffffffffffffffffffffffffffffffffffff168573ffffffffffffffffffffffffffffffffffffffff167fc3d58168c5ae7397731d063d5bbf3d657854427343f4c083240f7aacaa2d0f628a8a604051612f5d9291906140b7565b60405180910390a4612f73848a8a86868a612b01565b612f81848a8a8a8a8a613052565b505050505050505050565b60606000600167ffffffffffffffff811115612fd1577f4e487b7100000000000000000000000000000000000000000000000000000000600052604160045260246000fd5b604051908082528060200260200182016040528015612fff5781602001602082028036833780820191505090505b509050828160008151811061303d577f4e487b7100000000000000000000000000000000000000000000000000000000600052603260045260246000fd5b60200260200101818152505080915050919050565b6130718473ffffffffffffffffffffffffffffffffffffffff16612072565b15613231578373ffffffffffffffffffffffffffffffffffffffff1663f23a6e6187878686866040518663ffffffff1660e01b81526004016130b7959493929190613cf8565b602060405180830381600087803b1580156130d157600080fd5b505af192505050801561310257506040513d601f19601f820116820180604052508101906130ff919061382f565b60015b6131a85761310e614523565b806308c379a0141561316b5750613123614a0d565b8061312e575061316d565b806040517f08c379a00000000000000000000000000000000000000000000000000000000081526004016131629190613e0a565b60405180910390fd5b505b6040517f08c379a000000000000000000000000000000000000000000000000000000000815260040161319f90613e2c565b60405180910390fd5b63f23a6e6160e01b7bffffffffffffffffffffffffffffffffffffffffffffffffffffffff1916817bffffffffffffffffffffffffffffffffffffffffffffffffffffffff19161461322f576040517f08c379a000000000000000000000000000000000000000000000000000000000815260040161322690613e6c565b60405180910390fd5b505b505050505050565b828054613245906143ea565b90600052602060002090601f01602090048101928261326757600085556132b5565b82601f1061327857805485556132b5565b828001600101855582156132b557600052602060002091601f016020900482015b828111156132b4578254825591600101919060010190613299565b5b5090506132c29190613306565b5090565b5080546132d2906143ea565b6000825580601f106132e45750613303565b601f0160209004906000526020600020908101906133029190613306565b5b50565b5b8082111561331f576000816000905550600101613307565b5090565b60006133366133318461416c565b614147565b9050808382526020820190508285602086028201111561335557600080fd5b60005b85811015613385578161336b8882613439565b845260208401935060208301925050600181019050613358565b5050509392505050565b60006133a261339d84614198565b614147565b905080838252602082019050828560208602820111156133c157600080fd5b60005b858110156133f157816133d7888261350b565b8452602084019350602083019250506001810190506133c4565b5050509392505050565b600061340e613409846141c4565b614147565b90508281526020810184848401111561342657600080fd5b6134318482856143a8565b509392505050565b60008135905061344881614aa3565b92915050565b600082601f83011261345f57600080fd5b813561346f848260208601613323565b91505092915050565b600082601f83011261348957600080fd5b813561349984826020860161338f565b91505092915050565b6000813590506134b181614aba565b92915050565b6000813590506134c681614ad1565b92915050565b6000815190506134db81614ad1565b92915050565b600082601f8301126134f257600080fd5b81356135028482602086016133fb565b91505092915050565b60008135905061351a81614ae8565b92915050565b60006020828403121561353257600080fd5b600061354084828501613439565b91505092915050565b6000806040838503121561355c57600080fd5b600061356a85828601613439565b925050602061357b85828601613439565b9150509250929050565b600080600080600060a0868803121561359d57600080fd5b60006135ab88828901613439565b95505060206135bc88828901613439565b945050604086013567ffffffffffffffff8111156135d957600080fd5b6135e588828901613478565b935050606086013567ffffffffffffffff81111561360257600080fd5b61360e88828901613478565b925050608086013567ffffffffffffffff81111561362b57600080fd5b613637888289016134e1565b9150509295509295909350565b600080600080600060a0868803121561365c57600080fd5b600061366a88828901613439565b955050602061367b88828901613439565b945050604061368c8882890161350b565b935050606061369d8882890161350b565b925050608086013567ffffffffffffffff8111156136ba57600080fd5b6136c6888289016134e1565b9150509295509295909350565b600080604083850312156136e657600080fd5b60006136f485828601613439565b9250506020613705858286016134a2565b9150509250929050565b6000806040838503121561372257600080fd5b600061373085828601613439565b92505060206137418582860161350b565b9150509250929050565b60008060006060848603121561376057600080fd5b600061376e86828701613439565b935050602061377f8682870161350b565b92505060406137908682870161350b565b9150509250925092565b600080604083850312156137ad57600080fd5b600083013567ffffffffffffffff8111156137c757600080fd5b6137d38582860161344e565b925050602083013567ffffffffffffffff8111156137f057600080fd5b6137fc85828601613478565b9150509250929050565b60006020828403121561381857600080fd5b6000613826848285016134b7565b91505092915050565b60006020828403121561384157600080fd5b600061384f848285016134cc565b91505092915050565b60006020828403121561386a57600080fd5b60006138788482850161350b565b91505092915050565b6000806040838503121561389457600080fd5b60006138a28582860161350b565b92505060206138b38582860161350b565b9150509250929050565b60006138c98383613c48565b60208301905092915050565b6138de81614327565b82525050565b60006138ef82614205565b6138f98185614233565b9350613904836141f5565b8060005b8381101561393557815161391c88826138bd565b975061392783614226565b925050600181019050613908565b5085935050505092915050565b61394b81614339565b82525050565b61395a81614345565b82525050565b600061396b82614210565b6139758185614244565b93506139858185602086016143b7565b61398e81614545565b840191505092915050565b60006139a48261421b565b6139ae8185614255565b93506139be8185602086016143b7565b6139c781614545565b840191505092915050565b60006139df603483614255565b91506139ea82614563565b604082019050919050565b6000613a02602f83614255565b9150613a0d826145b2565b604082019050919050565b6000613a25602883614255565b9150613a3082614601565b604082019050919050565b6000613a48601883614255565b9150613a5382614650565b602082019050919050565b6000613a6b601a83614255565b9150613a7682614679565b602082019050919050565b6000613a8e602a83614255565b9150613a99826146a2565b604082019050919050565b6000613ab1601a83614255565b9150613abc826146f1565b602082019050919050565b6000613ad4601d83614255565b9150613adf8261471a565b602082019050919050565b6000613af7601783614255565b9150613b0282614743565b602082019050919050565b6000613b1a602583614255565b9150613b258261476c565b604082019050919050565b6000613b3d602a83614255565b9150613b48826147bb565b604082019050919050565b6000613b60602883614255565b9150613b6b8261480a565b604082019050919050565b6000613b83601683614255565b9150613b8e82614859565b602082019050919050565b6000613ba6602983614255565b9150613bb182614882565b604082019050919050565b6000613bc9602983614255565b9150613bd4826148d1565b604082019050919050565b6000613bec602883614255565b9150613bf782614920565b604082019050919050565b6000613c0f602183614255565b9150613c1a8261496f565b604082019050919050565b6000613c32603483614255565b9150613c3d826149be565b604082019050919050565b613c5181614391565b82525050565b613c6081614391565b82525050565b613c6f8161439b565b82525050565b6000602082019050613c8a60008301846138d5565b92915050565b600060a082019050613ca560008301886138d5565b613cb260208301876138d5565b8181036040830152613cc481866138e4565b90508181036060830152613cd881856138e4565b90508181036080830152613cec8184613960565b90509695505050505050565b600060a082019050613d0d60008301886138d5565b613d1a60208301876138d5565b613d276040830186613c57565b613d346060830185613c57565b8181036080830152613d468184613960565b90509695505050505050565b6000604082019050613d6760008301856138d5565b613d746020830184613c57565b9392505050565b60006020820190508181036000830152613d9581846138e4565b905092915050565b60006040820190508181036000830152613db781856138e4565b90508181036020830152613dcb81846138e4565b90509392505050565b6000602082019050613de96000830184613942565b92915050565b6000602082019050613e046000830184613951565b92915050565b60006020820190508181036000830152613e248184613999565b905092915050565b60006020820190508181036000830152613e45816139d2565b9050919050565b60006020820190508181036000830152613e65816139f5565b9050919050565b60006020820190508181036000830152613e8581613a18565b9050919050565b60006020820190508181036000830152613ea581613a3b565b9050919050565b60006020820190508181036000830152613ec581613a5e565b9050919050565b60006020820190508181036000830152613ee581613a81565b9050919050565b60006020820190508181036000830152613f0581613aa4565b9050919050565b60006020820190508181036000830152613f2581613ac7565b9050919050565b60006020820190508181036000830152613f4581613aea565b9050919050565b60006020820190508181036000830152613f6581613b0d565b9050919050565b60006020820190508181036000830152613f8581613b30565b9050919050565b60006020820190508181036000830152613fa581613b53565b9050919050565b60006020820190508181036000830152613fc581613b76565b9050919050565b60006020820190508181036000830152613fe581613b99565b9050919050565b6000602082019050818103600083015261400581613bbc565b9050919050565b6000602082019050818103600083015261402581613bdf565b9050919050565b6000602082019050818103600083015261404581613c02565b9050919050565b6000602082019050818103600083015261406581613c25565b9050919050565b60006020820190506140816000830184613c57565b92915050565b600060408201905061409c6000830185613c57565b81810360208301526140ae8184613999565b90509392505050565b60006040820190506140cc6000830185613c57565b6140d96020830184613c57565b9392505050565b60006080820190506140f56000830187613c57565b6141026020830186613c57565b61410f6040830185613c57565b81810360608301526141218184613999565b905095945050505050565b60006020820190506141416000830184613c66565b92915050565b6000614151614162565b905061415d828261441c565b919050565b6000604051905090565b600067ffffffffffffffff821115614187576141866144f4565b5b602082029050602081019050919050565b600067ffffffffffffffff8211156141b3576141b26144f4565b5b602082029050602081019050919050565b600067ffffffffffffffff8211156141df576141de6144f4565b5b6141e882614545565b9050602081019050919050565b6000819050602082019050919050565b600081519050919050565b600081519050919050565b600081519050919050565b6000602082019050919050565b600082825260208201905092915050565b600082825260208201905092915050565b600082825260208201905092915050565b600061427182614391565b915061427c83614391565b9250827fffffffffffffffffffffffffffffffffffffffffffffffffffffffffffffffff038211156142b1576142b0614496565b5b828201905092915050565b60006142c78261439b565b91506142d28361439b565b92508260ff038211156142e8576142e7614496565b5b828201905092915050565b60006142fe82614391565b915061430983614391565b92508282101561431c5761431b614496565b5b828203905092915050565b600061433282614371565b9050919050565b60008115159050919050565b60007fffffffff0000000000000000000000000000000000000000000000000000000082169050919050565b600073ffffffffffffffffffffffffffffffffffffffff82169050919050565b6000819050919050565b600060ff82169050919050565b82818337600083830152505050565b60005b838110156143d55780820151818401526020810190506143ba565b838111156143e4576000848401525b50505050565b6000600282049050600182168061440257607f821691505b60208210811415614416576144156144c5565b5b50919050565b61442582614545565b810181811067ffffffffffffffff82111715614444576144436144f4565b5b80604052505050565b600061445882614391565b91507fffffffffffffffffffffffffffffffffffffffffffffffffffffffffffffffff82141561448b5761448a614496565b5b600182019050919050565b7f4e487b7100000000000000000000000000000000000000000000000000000000600052601160045260246000fd5b7f4e487b7100000000000000000000000000000000000000000000000000000000600052602260045260246000fd5b7f4e487b7100000000000000000000000000000000000000000000000000000000600052604160045260246000fd5b600060033d11156145425760046000803e61453f600051614556565b90505b90565b6000601f19601f8301169050919050565b60008160e01c9050919050565b7f455243313135353a207472616e7366657220746f206e6f6e204552433131353560008201527f526563656976657220696d706c656d656e746572000000000000000000000000602082015250565b7f455243313135353a2063616c6c6572206973206e6f7420746f6b656e206f776e60008201527f6572206e6f7220617070726f7665640000000000000000000000000000000000602082015250565b7f455243313135353a204552433131353552656365697665722072656a6563746560008201527f6420746f6b656e73000000000000000000000000000000000000000000000000602082015250565b7f4d6178696d756d203620706c6f747320616c6c6f7765642e0000000000000000600082015250565b7f596f7520646f6e2774206f776e20656e6f756768206c616e6421000000000000600082015250565b7f455243313135353a2061646472657373207a65726f206973206e6f742061207660008201527f616c6964206f776e657200000000000000000000000000000000000000000000602082015250565b7f4e6f7420656e6f7567682063726f707320746f20706c616e7421000000000000600082015250565b7f4e6f7468696e6720706c616e74656420696e207468697320706c6f7421000000600082015250565b7f5468697320706c6f74206973206e6f7420656d70747921000000000000000000600082015250565b7f455243313135353a207472616e7366657220746f20746865207a65726f20616460008201527f6472657373000000000000000000000000000000000000000000000000000000602082015250565b7f455243313135353a20696e73756666696369656e742062616c616e636520666f60008201527f72207472616e7366657200000000000000000000000000000000000000000000602082015250565b7f455243313135353a206275726e20616d6f756e74206578636565647320746f7460008201527f616c537570706c79000000000000000000000000000000000000000000000000602082015250565b7f43726f70206e6f7420646f6e652067726f77696e672e00000000000000000000600082015250565b7f455243313135353a2073657474696e6720617070726f76616c2073746174757360008201527f20666f722073656c660000000000000000000000000000000000000000000000602082015250565b7f455243313135353a206163636f756e747320616e6420696473206c656e67746860008201527f206d69736d617463680000000000000000000000000000000000000000000000602082015250565b7f455243313135353a2069647320616e6420616d6f756e7473206c656e6774682060008201527f6d69736d61746368000000000000000000000000000000000000000000000000602082015250565b7f455243313135353a206d696e7420746f20746865207a65726f2061646472657360008201527f7300000000000000000000000000000000000000000000000000000000000000602082015250565b7f55736572206d75737420706c616e742063726f7073206f6e6365206265666f7260008201527f652070757263686173696e67205f706c6f747321000000000000000000000000602082015250565b600060443d1015614a1d57614aa0565b614a25614162565b60043d036004823e80513d602482011167ffffffffffffffff82111715614a4d575050614aa0565b808201805167ffffffffffffffff811115614a6b5750505050614aa0565b80602083010160043d038501811115614a88575050505050614aa0565b614a978260200185018661441c565b82955050505050505b90565b614aac81614327565b8114614ab757600080fd5b50565b614ac381614339565b8114614ace57600080fd5b50565b614ada81614345565b8114614ae557600080fd5b50565b614af181614391565b8114614afc57600080fd5b5056fea264697066735822122041eeab28dc7397a19c22ab38693b325d40981fe0b64c0bcae2dbcfb6807b768764736f6c6343000801003368747470733a2f2f626c6f636b63726f70732e73332e616d617a6f6e6177732e636f6d2f746f6b656e732f7b69647d2e706e67",
  "linkReferences": {},
  "deployedLinkReferences": {}
}