{
  "_format": "hh-sol-artifact-1",
  "contractName": "CropFarm",
  "sourceName": "contracts/Token.sol",
  "abi": [
    {
      "inputs": [],
      "stateMutability": "nonpayable",
      "type": "constructor"
    },
    {
      "anonymous": false,
      "inputs": [
        {
          "indexed": true,
          "internalType": "address",
          "name": "account",
          "type": "address"
        },
        {
          "indexed": true,
          "internalType": "address",
          "name": "operator",
          "type": "address"
        },
        {
          "indexed": false,
          "internalType": "bool",
          "name": "approved",
          "type": "bool"
        }
      ],
      "name": "ApprovalForAll",
      "type": "event"
    },
    {
      "anonymous": false,
      "inputs": [
        {
          "indexed": true,
          "internalType": "address",
          "name": "operator",
          "type": "address"
        },
        {
          "indexed": true,
          "internalType": "address",
          "name": "from",
          "type": "address"
        },
        {
          "indexed": true,
          "internalType": "address",
          "name": "to",
          "type": "address"
        },
        {
          "indexed": false,
          "internalType": "uint256[]",
          "name": "ids",
          "type": "uint256[]"
        },
        {
          "indexed": false,
          "internalType": "uint256[]",
          "name": "values",
          "type": "uint256[]"
        }
      ],
      "name": "TransferBatch",
      "type": "event"
    },
    {
      "anonymous": false,
      "inputs": [
        {
          "indexed": true,
          "internalType": "address",
          "name": "operator",
          "type": "address"
        },
        {
          "indexed": true,
          "internalType": "address",
          "name": "from",
          "type": "address"
        },
        {
          "indexed": true,
          "internalType": "address",
          "name": "to",
          "type": "address"
        },
        {
          "indexed": false,
          "internalType": "uint256",
          "name": "id",
          "type": "uint256"
        },
        {
          "indexed": false,
          "internalType": "uint256",
          "name": "value",
          "type": "uint256"
        }
      ],
      "name": "TransferSingle",
      "type": "event"
    },
    {
      "anonymous": false,
      "inputs": [
        {
          "indexed": false,
          "internalType": "string",
          "name": "value",
          "type": "string"
        },
        {
          "indexed": true,
          "internalType": "uint256",
          "name": "id",
          "type": "uint256"
        }
      ],
      "name": "URI",
      "type": "event"
    },
    {
      "inputs": [],
      "name": "CARROT",
      "outputs": [
        {
          "internalType": "uint256",
          "name": "",
          "type": "uint256"
        }
      ],
      "stateMutability": "view",
      "type": "function"
    },
    {
      "inputs": [],
      "name": "MELON",
      "outputs": [
        {
          "internalType": "uint256",
          "name": "",
          "type": "uint256"
        }
      ],
      "stateMutability": "view",
      "type": "function"
    },
    {
      "inputs": [],
      "name": "NULL",
      "outputs": [
        {
          "internalType": "uint256",
          "name": "",
          "type": "uint256"
        }
      ],
      "stateMutability": "view",
      "type": "function"
    },
    {
      "inputs": [],
      "name": "PUMPKIN",
      "outputs": [
        {
          "internalType": "uint256",
          "name": "",
          "type": "uint256"
        }
      ],
      "stateMutability": "view",
      "type": "function"
    },
    {
      "inputs": [],
      "name": "WHEAT",
      "outputs": [
        {
          "internalType": "uint256",
          "name": "",
          "type": "uint256"
        }
      ],
      "stateMutability": "view",
      "type": "function"
    },
    {
      "inputs": [
        {
          "internalType": "address",
          "name": "",
          "type": "address"
        }
      ],
      "name": "_plotNum",
      "outputs": [
        {
          "internalType": "uint256",
          "name": "",
          "type": "uint256"
        }
      ],
      "stateMutability": "view",
      "type": "function"
    },
    {
      "inputs": [
        {
          "internalType": "address",
          "name": "account",
          "type": "address"
        },
        {
          "internalType": "uint256",
          "name": "id",
          "type": "uint256"
        }
      ],
      "name": "balanceOf",
      "outputs": [
        {
          "internalType": "uint256",
          "name": "",
          "type": "uint256"
        }
      ],
      "stateMutability": "view",
      "type": "function"
    },
    {
      "inputs": [
        {
          "internalType": "address[]",
          "name": "accounts",
          "type": "address[]"
        },
        {
          "internalType": "uint256[]",
          "name": "ids",
          "type": "uint256[]"
        }
      ],
      "name": "balanceOfBatch",
      "outputs": [
        {
          "internalType": "uint256[]",
          "name": "",
          "type": "uint256[]"
        }
      ],
      "stateMutability": "view",
      "type": "function"
    },
    {
      "inputs": [],
      "name": "buyPlot",
      "outputs": [],
      "stateMutability": "nonpayable",
      "type": "function"
    },
    {
      "inputs": [
        {
          "internalType": "uint256",
          "name": "id",
          "type": "uint256"
        }
      ],
      "name": "exists",
      "outputs": [
        {
          "internalType": "bool",
          "name": "",
          "type": "bool"
        }
      ],
      "stateMutability": "view",
      "type": "function"
    },
    {
      "inputs": [
        {
          "internalType": "uint256",
          "name": "_plot",
          "type": "uint256"
        }
      ],
      "name": "harvest",
      "outputs": [],
      "stateMutability": "nonpayable",
      "type": "function"
    },
    {
      "inputs": [
        {
          "internalType": "address",
          "name": "account",
          "type": "address"
        },
        {
          "internalType": "address",
          "name": "operator",
          "type": "address"
        }
      ],
      "name": "isApprovedForAll",
      "outputs": [
        {
          "internalType": "bool",
          "name": "",
          "type": "bool"
        }
      ],
      "stateMutability": "view",
      "type": "function"
    },
    {
      "inputs": [
        {
          "internalType": "address",
          "name": "",
          "type": "address"
        },
        {
          "internalType": "address",
          "name": "",
          "type": "address"
        },
        {
          "internalType": "uint256",
          "name": "",
          "type": "uint256"
        },
        {
          "internalType": "uint256",
          "name": "",
          "type": "uint256"
        },
        {
          "internalType": "bytes",
          "name": "",
          "type": "bytes"
        }
      ],
      "name": "onERC1155Received",
      "outputs": [
        {
          "internalType": "bytes4",
          "name": "",
          "type": "bytes4"
        }
      ],
      "stateMutability": "nonpayable",
      "type": "function"
    },
    {
      "inputs": [
        {
          "internalType": "uint256",
          "name": "_plot",
          "type": "uint256"
        },
        {
          "internalType": "uint256",
          "name": "_id",
          "type": "uint256"
        }
      ],
      "name": "plant",
      "outputs": [],
      "stateMutability": "nonpayable",
      "type": "function"
    },
    {
      "inputs": [
        {
          "internalType": "address",
          "name": "from",
          "type": "address"
        },
        {
          "internalType": "address",
          "name": "to",
          "type": "address"
        },
        {
          "internalType": "uint256[]",
          "name": "ids",
          "type": "uint256[]"
        },
        {
          "internalType": "uint256[]",
          "name": "amounts",
          "type": "uint256[]"
        },
        {
          "internalType": "bytes",
          "name": "data",
          "type": "bytes"
        }
      ],
      "name": "safeBatchTransferFrom",
      "outputs": [],
      "stateMutability": "nonpayable",
      "type": "function"
    },
    {
      "inputs": [
        {
          "internalType": "address",
          "name": "from",
          "type": "address"
        },
        {
          "internalType": "address",
          "name": "to",
          "type": "address"
        },
        {
          "internalType": "uint256",
          "name": "id",
          "type": "uint256"
        },
        {
          "internalType": "uint256",
          "name": "amount",
          "type": "uint256"
        },
        {
          "internalType": "bytes",
          "name": "data",
          "type": "bytes"
        }
      ],
      "name": "safeTransferFrom",
      "outputs": [],
      "stateMutability": "nonpayable",
      "type": "function"
    },
    {
      "inputs": [
        {
          "internalType": "address",
          "name": "operator",
          "type": "address"
        },
        {
          "internalType": "bool",
          "name": "approved",
          "type": "bool"
        }
      ],
      "name": "setApprovalForAll",
      "outputs": [],
      "stateMutability": "nonpayable",
      "type": "function"
    },
    {
      "inputs": [
        {
          "internalType": "bytes4",
          "name": "interfaceId",
          "type": "bytes4"
        }
      ],
      "name": "supportsInterface",
      "outputs": [
        {
          "internalType": "bool",
          "name": "",
          "type": "bool"
        }
      ],
      "stateMutability": "view",
      "type": "function"
    },
    {
      "inputs": [
        {
          "internalType": "uint256",
          "name": "id",
          "type": "uint256"
        }
      ],
      "name": "totalSupply",
      "outputs": [
        {
          "internalType": "uint256",
          "name": "",
          "type": "uint256"
        }
      ],
      "stateMutability": "view",
      "type": "function"
    },
    {
      "inputs": [
        {
          "internalType": "uint256",
          "name": "",
          "type": "uint256"
        }
      ],
      "name": "uri",
      "outputs": [
        {
          "internalType": "string",
          "name": "",
          "type": "string"
        }
      ],
      "stateMutability": "view",
      "type": "function"
    },
    {
      "inputs": [
        {
          "internalType": "address",
          "name": "_account",
          "type": "address"
        },
        {
          "internalType": "uint256",
          "name": "_id",
          "type": "uint256"
        },
        {
          "internalType": "uint256",
          "name": "_member",
          "type": "uint256"
        }
      ],
      "name": "viewBalance",
      "outputs": [
        {
          "internalType": "uint256",
          "name": "",
          "type": "uint256"
        }
      ],
      "stateMutability": "view",
      "type": "function"
    },
    {
      "inputs": [
        {
          "internalType": "address",
          "name": "_account",
          "type": "address"
        },
        {
          "internalType": "uint256",
          "name": "_id",
          "type": "uint256"
        }
      ],
      "name": "viewPlot",
      "outputs": [
        {
          "internalType": "uint256",
          "name": "",
          "type": "uint256"
        }
      ],
      "stateMutability": "view",
      "type": "function"
    }
  ],
  "bytecode": "0x60806040523480156200001157600080fd5b5060405180606001604052806027815260200162004e14602791396200003d816200024860201b60201c565b50620000643360016103e8604051806020016040528060008152506200026460201b60201c565b6200008a3360026103e8604051806020016040528060008152506200026460201b60201c565b620000b03360036103e8604051806020016040528060008152506200026460201b60201c565b620000d63360046103e8604051806020016040528060008152506200026460201b60201c565b6103e8600460003373ffffffffffffffffffffffffffffffffffffffff1673ffffffffffffffffffffffffffffffffffffffff168152602001908152602001600020600060018152602001908152602001600020600001819055506103e8600460003373ffffffffffffffffffffffffffffffffffffffff1673ffffffffffffffffffffffffffffffffffffffff168152602001908152602001600020600060028152602001908152602001600020600001819055506103e8600460003373ffffffffffffffffffffffffffffffffffffffff1673ffffffffffffffffffffffffffffffffffffffff168152602001908152602001600020600060038152602001908152602001600020600001819055506103e8600460003373ffffffffffffffffffffffffffffffffffffffff1673ffffffffffffffffffffffffffffffffffffffff1681526020019081526020016000206000600481526020019081526020016000206000018190555062001157565b80600290805190602001906200026092919062000983565b5050565b600073ffffffffffffffffffffffffffffffffffffffff168473ffffffffffffffffffffffffffffffffffffffff161415620002d7576040517f08c379a0000000000000000000000000000000000000000000000000000000008152600401620002ce9062000c5b565b60405180910390fd5b6000620002e96200042960201b60201c565b9050620003228160008762000304886200043160201b60201c565b62000315886200043160201b60201c565b87620004fa60201b60201c565b8260008086815260200190815260200160002060008773ffffffffffffffffffffffffffffffffffffffff1673ffffffffffffffffffffffffffffffffffffffff168152602001908152602001600020600082825462000383919062000cec565b925050819055508473ffffffffffffffffffffffffffffffffffffffff16600073ffffffffffffffffffffffffffffffffffffffff168273ffffffffffffffffffffffffffffffffffffffff167fc3d58168c5ae7397731d063d5bbf3d657854427343f4c083240f7aacaa2d0f6287876040516200040392919062000c7d565b60405180910390a462000422816000878787876200051d60201b60201c565b5050505050565b600033905090565b60606000600167ffffffffffffffff81111562000477577f4e487b7100000000000000000000000000000000000000000000000000000000600052604160045260246000fd5b604051908082528060200260200182016040528015620004a65781602001602082028036833780820191505090505b5090508281600081518110620004e5577f4e487b7100000000000000000000000000000000000000000000000000000000600052603260045260246000fd5b60200260200101818152505080915050919050565b620005158686868686866200072760201b620014031760201c565b505050505050565b620005498473ffffffffffffffffffffffffffffffffffffffff166200095860201b620016151760201c565b156200071f578373ffffffffffffffffffffffffffffffffffffffff1663f23a6e6187878686866040518663ffffffff1660e01b81526004016200059295949392919062000b8f565b602060405180830381600087803b158015620005ad57600080fd5b505af1925050508015620005e157506040513d601f19601f82011682018060405250810190620005de919062000a4a565b60015b6200069357620005f062000f6b565b806308c379a01415620006545750620006086200109b565b8062000615575062000656565b806040517f08c379a00000000000000000000000000000000000000000000000000000000081526004016200064b919062000bf3565b60405180910390fd5b505b6040517f08c379a00000000000000000000000000000000000000000000000000000000081526004016200068a9062000c17565b60405180910390fd5b63f23a6e6160e01b7bffffffffffffffffffffffffffffffffffffffffffffffffffffffff1916817bffffffffffffffffffffffffffffffffffffffffffffffffffffffff1916146200071d576040517f08c379a0000000000000000000000000000000000000000000000000000000008152600401620007149062000c39565b60405180910390fd5b505b505050505050565b620007428686868686866200097b60201b620016381760201c565b600073ffffffffffffffffffffffffffffffffffffffff168573ffffffffffffffffffffffffffffffffffffffff161415620008495760005b83518110156200084757828181518110620007bf577f4e487b7100000000000000000000000000000000000000000000000000000000600052603260045260246000fd5b60200260200101516003600086848151811062000805577f4e487b7100000000000000000000000000000000000000000000000000000000600052603260045260246000fd5b6020026020010151815260200190815260200160002060008282546200082c919062000cec565b92505081905550806200083f9062000e90565b90506200077b565b505b600073ffffffffffffffffffffffffffffffffffffffff168473ffffffffffffffffffffffffffffffffffffffff161415620009505760005b83518110156200094e57828181518110620008c6577f4e487b7100000000000000000000000000000000000000000000000000000000600052603260045260246000fd5b6020026020010151600360008684815181106200090c577f4e487b7100000000000000000000000000000000000000000000000000000000600052603260045260246000fd5b60200260200101518152602001908152602001600020600082825462000933919062000d49565b9250508190555080620009469062000e90565b905062000882565b505b505050505050565b6000808273ffffffffffffffffffffffffffffffffffffffff163b119050919050565b505050505050565b828054620009919062000e24565b90600052602060002090601f016020900481019282620009b5576000855562000a01565b82601f10620009d057805160ff191683800117855562000a01565b8280016001018555821562000a01579182015b8281111562000a00578251825591602001919060010190620009e3565b5b50905062000a10919062000a14565b5090565b5b8082111562000a2f57600081600090555060010162000a15565b5090565b60008151905062000a44816200113d565b92915050565b60006020828403121562000a5d57600080fd5b600062000a6d8482850162000a33565b91505092915050565b62000a818162000d84565b82525050565b600062000a948262000cb4565b62000aa0818562000cca565b935062000ab281856020860162000dee565b62000abd8162000f90565b840191505092915050565b600062000ad58262000cbf565b62000ae1818562000cdb565b935062000af381856020860162000dee565b62000afe8162000f90565b840191505092915050565b600062000b1860348362000cdb565b915062000b258262000fae565b604082019050919050565b600062000b3f60288362000cdb565b915062000b4c8262000ffd565b604082019050919050565b600062000b6660218362000cdb565b915062000b73826200104c565b604082019050919050565b62000b898162000de4565b82525050565b600060a08201905062000ba6600083018862000a76565b62000bb5602083018762000a76565b62000bc4604083018662000b7e565b62000bd3606083018562000b7e565b818103608083015262000be7818462000a87565b90509695505050505050565b6000602082019050818103600083015262000c0f818462000ac8565b905092915050565b6000602082019050818103600083015262000c328162000b09565b9050919050565b6000602082019050818103600083015262000c548162000b30565b9050919050565b6000602082019050818103600083015262000c768162000b57565b9050919050565b600060408201905062000c94600083018562000b7e565b62000ca3602083018462000b7e565b9392505050565b6000604051905090565b600081519050919050565b600081519050919050565b600082825260208201905092915050565b600082825260208201905092915050565b600062000cf98262000de4565b915062000d068362000de4565b9250827fffffffffffffffffffffffffffffffffffffffffffffffffffffffffffffffff0382111562000d3e5762000d3d62000ede565b5b828201905092915050565b600062000d568262000de4565b915062000d638362000de4565b92508282101562000d795762000d7862000ede565b5b828203905092915050565b600062000d918262000dc4565b9050919050565b60007fffffffff0000000000000000000000000000000000000000000000000000000082169050919050565b600073ffffffffffffffffffffffffffffffffffffffff82169050919050565b6000819050919050565b60005b8381101562000e0e57808201518184015260208101905062000df1565b8381111562000e1e576000848401525b50505050565b6000600282049050600182168062000e3d57607f821691505b6020821081141562000e545762000e5362000f0d565b5b50919050565b62000e658262000f90565b810181811067ffffffffffffffff8211171562000e875762000e8662000f3c565b5b80604052505050565b600062000e9d8262000de4565b91507fffffffffffffffffffffffffffffffffffffffffffffffffffffffffffffffff82141562000ed35762000ed262000ede565b5b600182019050919050565b7f4e487b7100000000000000000000000000000000000000000000000000000000600052601160045260246000fd5b7f4e487b7100000000000000000000000000000000000000000000000000000000600052602260045260246000fd5b7f4e487b7100000000000000000000000000000000000000000000000000000000600052604160045260246000fd5b600060033d111562000f8d5760046000803e62000f8a60005162000fa1565b90505b90565b6000601f19601f8301169050919050565b60008160e01c9050919050565b7f455243313135353a207472616e7366657220746f206e6f6e204552433131353560008201527f526563656976657220696d706c656d656e746572000000000000000000000000602082015250565b7f455243313135353a204552433131353552656365697665722072656a6563746560008201527f6420746f6b656e73000000000000000000000000000000000000000000000000602082015250565b7f455243313135353a206d696e7420746f20746865207a65726f2061646472657360008201527f7300000000000000000000000000000000000000000000000000000000000000602082015250565b600060443d1015620010ad576200113a565b620010b762000caa565b60043d036004823e80513d602482011167ffffffffffffffff82111715620010e15750506200113a565b808201805167ffffffffffffffff8111156200110157505050506200113a565b80602083010160043d038501811115620011205750505050506200113a565b620011318260200185018662000e5a565b82955050505050505b90565b620011488162000d98565b81146200115457600080fd5b50565b613cad80620011676000396000f3fe608060405234801561001057600080fd5b50600436106101415760003560e01c8063bd85b039116100b8578063e985e9c51161007c578063e985e9c5146103ac578063f23a6e61146103dc578063f242432a1461040c578063f26be3fc14610428578063f43e391814610446578063ff2dff2d1461046457610141565b8063bd85b039146102f4578063bf4fbf4914610324578063bf701ed414610354578063ccc3aeec14610372578063ddc632621461039057610141565b806349e663111161010a57806349e66311146102225780634e1273f4146102525780634f558e791461028257806359098a55146102b257806392658a28146102bc578063a22cb465146102d857610141565b8062fdd58e1461014657806301ffc9a71461017657806303b46fcc146101a65780630e89341c146101d65780632eb2c2d614610206575b600080fd5b610160600480360381019061015b9190612a47565b610482565b60405161016d919061330e565b60405180910390f35b610190600480360381019061018b9190612b3e565b61054b565b60405161019d9190613096565b60405180910390f35b6101c060048036038101906101bb9190612a83565b61062d565b6040516101cd919061330e565b60405180910390f35b6101f060048036038101906101eb9190612b90565b610702565b6040516101fd91906130cc565b60405180910390f35b610220600480360381019061021b91906128bd565b610796565b005b61023c60048036038101906102379190612a47565b610837565b604051610249919061330e565b60405180910390f35b61026c60048036038101906102679190612ad2565b6108c3565b604051610279919061303d565b60405180910390f35b61029c60048036038101906102979190612b90565b610a74565b6040516102a99190613096565b60405180910390f35b6102ba610a88565b005b6102d660048036038101906102d19190612bb9565b610b34565b005b6102f260048036038101906102ed9190612a0b565b610f94565b005b61030e60048036038101906103099190612b90565b610faa565b60405161031b919061330e565b60405180910390f35b61033e60048036038101906103399190612858565b610fc7565b60405161034b919061330e565b60405180910390f35b61035c610fdf565b604051610369919061330e565b60405180910390f35b61037a610fe4565b604051610387919061330e565b60405180910390f35b6103aa60048036038101906103a59190612b90565b610fe9565b005b6103c660048036038101906103c19190612881565b6112aa565b6040516103d39190613096565b60405180910390f35b6103f660048036038101906103f1919061297c565b61133e565b60405161040391906130b1565b60405180910390f35b6104266004803603810190610421919061297c565b611353565b005b6104306113f4565b60405161043d919061330e565b60405180910390f35b61044e6113f9565b60405161045b919061330e565b60405180910390f35b61046c6113fe565b604051610479919061330e565b60405180910390f35b60008073ffffffffffffffffffffffffffffffffffffffff168373ffffffffffffffffffffffffffffffffffffffff1614156104f3576040517f08c379a00000000000000000000000000000000000000000000000000000000081526004016104ea9061312e565b60405180910390fd5b60008083815260200190815260200160002060008473ffffffffffffffffffffffffffffffffffffffff1673ffffffffffffffffffffffffffffffffffffffff16815260200190815260200160002054905092915050565b60007fd9b67a26000000000000000000000000000000000000000000000000000000007bffffffffffffffffffffffffffffffffffffffffffffffffffffffff1916827bffffffffffffffffffffffffffffffffffffffffffffffffffffffff1916148061061657507f0e89341c000000000000000000000000000000000000000000000000000000007bffffffffffffffffffffffffffffffffffffffffffffffffffffffff1916827bffffffffffffffffffffffffffffffffffffffffffffffffffffffff1916145b80610626575061062582611640565b5b9050919050565b60008082141561069257600460008573ffffffffffffffffffffffffffffffffffffffff1673ffffffffffffffffffffffffffffffffffffffff16815260200190815260200160002060008481526020019081526020016000206000015490506106fb565b60018214156106f657600460008573ffffffffffffffffffffffffffffffffffffffff1673ffffffffffffffffffffffffffffffffffffffff16815260200190815260200160002060008481526020019081526020016000206001015490506106fb565b600090505b9392505050565b606060028054610711906135b1565b80601f016020809104026020016040519081016040528092919081815260200182805461073d906135b1565b801561078a5780601f1061075f5761010080835404028352916020019161078a565b820191906000526020600020905b81548152906001019060200180831161076d57829003601f168201915b50505050509050919050565b61079e6116aa565b73ffffffffffffffffffffffffffffffffffffffff168573ffffffffffffffffffffffffffffffffffffffff1614806107e457506107e3856107de6116aa565b6112aa565b5b610823576040517f08c379a000000000000000000000000000000000000000000000000000000000815260040161081a9061322e565b60405180910390fd5b61083085858585856116b2565b5050505050565b6000600560008473ffffffffffffffffffffffffffffffffffffffff1673ffffffffffffffffffffffffffffffffffffffff16815260200190815260200160002060000182600a81106108b3577f4e487b7100000000000000000000000000000000000000000000000000000000600052603260045260246000fd5b6005020160010154905092915050565b60608151835114610909576040517f08c379a0000000000000000000000000000000000000000000000000000000008152600401610900906132ce565b60405180910390fd5b6000835167ffffffffffffffff81111561094c577f4e487b7100000000000000000000000000000000000000000000000000000000600052604160045260246000fd5b60405190808252806020026020018201604052801561097a5781602001602082028036833780820191505090505b50905060005b8451811015610a6957610a138582815181106109c5577f4e487b7100000000000000000000000000000000000000000000000000000000600052603260045260246000fd5b6020026020010151858381518110610a06577f4e487b7100000000000000000000000000000000000000000000000000000000600052603260045260246000fd5b6020026020010151610482565b828281518110610a4c577f4e487b7100000000000000000000000000000000000000000000000000000000600052603260045260246000fd5b60200260200101818152505080610a6290613614565b9050610980565b508091505092915050565b600080610a8083610faa565b119050919050565b6003600660003373ffffffffffffffffffffffffffffffffffffffff1673ffffffffffffffffffffffffffffffffffffffff168152602001908152602001600020541015610b0b576040517f08c379a0000000000000000000000000000000000000000000000000000000008152600401610b029061324e565b60405180910390fd5b610b2933306001600a60405180602001604052806000815250611a12565b610b3233611c02565b565b6001600460003373ffffffffffffffffffffffffffffffffffffffff1673ffffffffffffffffffffffffffffffffffffffff1681526020019081526020016000206000838152602001908152602001600020600001541015610bcb576040517f08c379a0000000000000000000000000000000000000000000000000000000008152600401610bc29061318e565b60405180910390fd5b6000600660003373ffffffffffffffffffffffffffffffffffffffff1673ffffffffffffffffffffffffffffffffffffffff168152602001908152602001600020541415610c59576003600660003373ffffffffffffffffffffffffffffffffffffffff1673ffffffffffffffffffffffffffffffffffffffff168152602001908152602001600020819055505b600660003373ffffffffffffffffffffffffffffffffffffffff1673ffffffffffffffffffffffffffffffffffffffff168152602001908152602001600020548210610cda576040517f08c379a0000000000000000000000000000000000000000000000000000000008152600401610cd19061314e565b60405180910390fd5b60011515600560003373ffffffffffffffffffffffffffffffffffffffff1673ffffffffffffffffffffffffffffffffffffffff16815260200190815260200160002060000183600a8110610d58577f4e487b7100000000000000000000000000000000000000000000000000000000600052603260045260246000fd5b6005020160000160009054906101000a900460ff1615151415610db0576040517f08c379a0000000000000000000000000000000000000000000000000000000008152600401610da7906131ce565b60405180910390fd5b6000600560003373ffffffffffffffffffffffffffffffffffffffff1673ffffffffffffffffffffffffffffffffffffffff16815260200190815260200160002060000183600a8110610e2c577f4e487b7100000000000000000000000000000000000000000000000000000000600052603260045260246000fd5b6005020190504281600401819055508181600101819055506040518060400160405280600581526020017f5748454154000000000000000000000000000000000000000000000000000000815250816002019080519060200190610e91929190612578565b506014816003018190555060018160000160006101000a81548160ff0219169083151502179055506001600460003373ffffffffffffffffffffffffffffffffffffffff1673ffffffffffffffffffffffffffffffffffffffff16815260200190815260200160002060008481526020019081526020016000206000016000828254610f1d91906134c7565b925050819055506001600460003373ffffffffffffffffffffffffffffffffffffffff1673ffffffffffffffffffffffffffffffffffffffff16815260200190815260200160002060008481526020019081526020016000206001016000828254610f889190613471565b92505081905550505050565b610fa6610f9f6116aa565b8383611cdf565b5050565b600060036000838152602001908152602001600020549050919050565b60066020528060005260406000206000915090505481565b600481565b600281565b6000600560003373ffffffffffffffffffffffffffffffffffffffff1673ffffffffffffffffffffffffffffffffffffffff16815260200190815260200160002060000182600a8110611065577f4e487b7100000000000000000000000000000000000000000000000000000000600052603260045260246000fd5b6005020190506000816001015414156110b3576040517f08c379a00000000000000000000000000000000000000000000000000000000081526004016110aa906131ae565b60405180910390fd5b80600301548160040154426110c891906134c7565b1015611109576040517f08c379a00000000000000000000000000000000000000000000000000000000081526004016111009061328e565b60405180910390fd5b6000816001015490506002600460003373ffffffffffffffffffffffffffffffffffffffff1673ffffffffffffffffffffffffffffffffffffffff168152602001908152602001600020600083815260200190815260200160002060000160008282546111769190613471565b925050819055506001600460003373ffffffffffffffffffffffffffffffffffffffff1673ffffffffffffffffffffffffffffffffffffffff168152602001908152602001600020600083815260200190815260200160002060010160008282546111e191906134c7565b92505081905550600560003373ffffffffffffffffffffffffffffffffffffffff1673ffffffffffffffffffffffffffffffffffffffff16815260200190815260200160002060000183600a8110611262577f4e487b7100000000000000000000000000000000000000000000000000000000600052603260045260246000fd5b60050201600080820160006101000a81549060ff0219169055600182016000905560028201600061129391906125fe565b600382016000905560048201600090555050505050565b6000600160008473ffffffffffffffffffffffffffffffffffffffff1673ffffffffffffffffffffffffffffffffffffffff16815260200190815260200160002060008373ffffffffffffffffffffffffffffffffffffffff1673ffffffffffffffffffffffffffffffffffffffff16815260200190815260200160002060009054906101000a900460ff16905092915050565b600063f23a6e6160e01b905095945050505050565b61135b6116aa565b73ffffffffffffffffffffffffffffffffffffffff168573ffffffffffffffffffffffffffffffffffffffff1614806113a157506113a08561139b6116aa565b6112aa565b5b6113e0576040517f08c379a00000000000000000000000000000000000000000000000000000000081526004016113d79061316e565b60405180910390fd5b6113ed8585858585611a12565b5050505050565b600081565b600381565b600181565b611411868686868686611638565b600073ffffffffffffffffffffffffffffffffffffffff168573ffffffffffffffffffffffffffffffffffffffff16141561150f5760005b835181101561150d5782818151811061148b577f4e487b7100000000000000000000000000000000000000000000000000000000600052603260045260246000fd5b6020026020010151600360008684815181106114d0577f4e487b7100000000000000000000000000000000000000000000000000000000600052603260045260246000fd5b6020026020010151815260200190815260200160002060008282546114f59190613471565b925050819055508061150690613614565b9050611449565b505b600073ffffffffffffffffffffffffffffffffffffffff168473ffffffffffffffffffffffffffffffffffffffff16141561160d5760005b835181101561160b57828181518110611589577f4e487b7100000000000000000000000000000000000000000000000000000000600052603260045260246000fd5b6020026020010151600360008684815181106115ce577f4e487b7100000000000000000000000000000000000000000000000000000000600052603260045260246000fd5b6020026020010151815260200190815260200160002060008282546115f391906134c7565b925050819055508061160490613614565b9050611547565b505b505050505050565b6000808273ffffffffffffffffffffffffffffffffffffffff163b119050919050565b505050505050565b60007f01ffc9a7000000000000000000000000000000000000000000000000000000007bffffffffffffffffffffffffffffffffffffffffffffffffffffffff1916827bffffffffffffffffffffffffffffffffffffffffffffffffffffffff1916149050919050565b600033905090565b81518351146116f6576040517f08c379a00000000000000000000000000000000000000000000000000000000081526004016116ed906132ee565b60405180910390fd5b600073ffffffffffffffffffffffffffffffffffffffff168473ffffffffffffffffffffffffffffffffffffffff161415611766576040517f08c379a000000000000000000000000000000000000000000000000000000000815260040161175d9061320e565b60405180910390fd5b60006117706116aa565b9050611780818787878787611e4c565b60005b845181101561197d5760008582815181106117c7577f4e487b7100000000000000000000000000000000000000000000000000000000600052603260045260246000fd5b60200260200101519050600085838151811061180c577f4e487b7100000000000000000000000000000000000000000000000000000000600052603260045260246000fd5b60200260200101519050600080600084815260200190815260200160002060008b73ffffffffffffffffffffffffffffffffffffffff1673ffffffffffffffffffffffffffffffffffffffff168152602001908152602001600020549050818110156118ad576040517f08c379a00000000000000000000000000000000000000000000000000000000081526004016118a49061326e565b60405180910390fd5b81810360008085815260200190815260200160002060008c73ffffffffffffffffffffffffffffffffffffffff1673ffffffffffffffffffffffffffffffffffffffff168152602001908152602001600020819055508160008085815260200190815260200160002060008b73ffffffffffffffffffffffffffffffffffffffff1673ffffffffffffffffffffffffffffffffffffffff16815260200190815260200160002060008282546119629190613471565b925050819055505050508061197690613614565b9050611783565b508473ffffffffffffffffffffffffffffffffffffffff168673ffffffffffffffffffffffffffffffffffffffff168273ffffffffffffffffffffffffffffffffffffffff167f4a39dc06d4c0dbc64b70af90fd698a233a518aa5d07e595d983b8c0526c8f7fb87876040516119f492919061305f565b60405180910390a4611a0a818787878787611e62565b505050505050565b600073ffffffffffffffffffffffffffffffffffffffff168473ffffffffffffffffffffffffffffffffffffffff161415611a82576040517f08c379a0000000000000000000000000000000000000000000000000000000008152600401611a799061320e565b60405180910390fd5b6000600460008773ffffffffffffffffffffffffffffffffffffffff1673ffffffffffffffffffffffffffffffffffffffff168152602001908152602001600020600085815260200190815260200160002060000154905082811015611b1d576040517f08c379a0000000000000000000000000000000000000000000000000000000008152600401611b149061326e565b60405180910390fd5b8281611b2991906134c7565b905082600460008773ffffffffffffffffffffffffffffffffffffffff1673ffffffffffffffffffffffffffffffffffffffff16815260200190815260200160002060008681526020019081526020016000206000016000828254611b8e9190613471565b9250508190555080600460008873ffffffffffffffffffffffffffffffffffffffff1673ffffffffffffffffffffffffffffffffffffffff168152602001908152602001600020600086815260200190815260200160002060000181905550611bfa8686868686612049565b505050505050565b600a600660008373ffffffffffffffffffffffffffffffffffffffff1673ffffffffffffffffffffffffffffffffffffffff168152602001908152602001600020541115611c85576040517f08c379a0000000000000000000000000000000000000000000000000000000008152600401611c7c906131ee565b60405180910390fd5b6001600660008373ffffffffffffffffffffffffffffffffffffffff1673ffffffffffffffffffffffffffffffffffffffff1681526020019081526020016000206000828254611cd59190613471565b9250508190555050565b8173ffffffffffffffffffffffffffffffffffffffff168373ffffffffffffffffffffffffffffffffffffffff161415611d4e576040517f08c379a0000000000000000000000000000000000000000000000000000000008152600401611d45906132ae565b60405180910390fd5b80600160008573ffffffffffffffffffffffffffffffffffffffff1673ffffffffffffffffffffffffffffffffffffffff16815260200190815260200160002060008473ffffffffffffffffffffffffffffffffffffffff1673ffffffffffffffffffffffffffffffffffffffff16815260200190815260200160002060006101000a81548160ff0219169083151502179055508173ffffffffffffffffffffffffffffffffffffffff168373ffffffffffffffffffffffffffffffffffffffff167f17307eab39ab6107e8899845ad3d59bd9653f200f220920489ca2b5937696c3183604051611e3f9190613096565b60405180910390a3505050565b611e5a868686868686611403565b505050505050565b611e818473ffffffffffffffffffffffffffffffffffffffff16611615565b15612041578373ffffffffffffffffffffffffffffffffffffffff1663bc197c8187878686866040518663ffffffff1660e01b8152600401611ec7959493929190612f7b565b602060405180830381600087803b158015611ee157600080fd5b505af1925050508015611f1257506040513d601f19601f82011682018060405250810190611f0f9190612b67565b60015b611fb857611f1e6136ea565b806308c379a01415611f7b5750611f33613b85565b80611f3e5750611f7d565b806040517f08c379a0000000000000000000000000000000000000000000000000000000008152600401611f7291906130cc565b60405180910390fd5b505b6040517f08c379a0000000000000000000000000000000000000000000000000000000008152600401611faf906130ee565b60405180910390fd5b63bc197c8160e01b7bffffffffffffffffffffffffffffffffffffffffffffffffffffffff1916817bffffffffffffffffffffffffffffffffffffffffffffffffffffffff19161461203f576040517f08c379a00000000000000000000000000000000000000000000000000000000081526004016120369061310e565b60405180910390fd5b505b505050505050565b600073ffffffffffffffffffffffffffffffffffffffff168473ffffffffffffffffffffffffffffffffffffffff1614156120b9576040517f08c379a00000000000000000000000000000000000000000000000000000000081526004016120b09061320e565b60405180910390fd5b60006120c36116aa565b90506120e38187876120d4886122cb565b6120dd886122cb565b87611e4c565b600080600086815260200190815260200160002060008873ffffffffffffffffffffffffffffffffffffffff1673ffffffffffffffffffffffffffffffffffffffff1681526020019081526020016000205490508381101561217a576040517f08c379a00000000000000000000000000000000000000000000000000000000081526004016121719061326e565b60405180910390fd5b83810360008087815260200190815260200160002060008973ffffffffffffffffffffffffffffffffffffffff1673ffffffffffffffffffffffffffffffffffffffff168152602001908152602001600020819055508360008087815260200190815260200160002060008873ffffffffffffffffffffffffffffffffffffffff1673ffffffffffffffffffffffffffffffffffffffff168152602001908152602001600020600082825461222f9190613471565b925050819055508573ffffffffffffffffffffffffffffffffffffffff168773ffffffffffffffffffffffffffffffffffffffff168373ffffffffffffffffffffffffffffffffffffffff167fc3d58168c5ae7397731d063d5bbf3d657854427343f4c083240f7aacaa2d0f6288886040516122ac929190613329565b60405180910390a46122c2828888888888612391565b50505050505050565b60606000600167ffffffffffffffff811115612310577f4e487b7100000000000000000000000000000000000000000000000000000000600052604160045260246000fd5b60405190808252806020026020018201604052801561233e5781602001602082028036833780820191505090505b509050828160008151811061237c577f4e487b7100000000000000000000000000000000000000000000000000000000600052603260045260246000fd5b60200260200101818152505080915050919050565b6123b08473ffffffffffffffffffffffffffffffffffffffff16611615565b15612570578373ffffffffffffffffffffffffffffffffffffffff1663f23a6e6187878686866040518663ffffffff1660e01b81526004016123f6959493929190612fe3565b602060405180830381600087803b15801561241057600080fd5b505af192505050801561244157506040513d601f19601f8201168201806040525081019061243e9190612b67565b60015b6124e75761244d6136ea565b806308c379a014156124aa5750612462613b85565b8061246d57506124ac565b806040517f08c379a00000000000000000000000000000000000000000000000000000000081526004016124a191906130cc565b60405180910390fd5b505b6040517f08c379a00000000000000000000000000000000000000000000000000000000081526004016124de906130ee565b60405180910390fd5b63f23a6e6160e01b7bffffffffffffffffffffffffffffffffffffffffffffffffffffffff1916817bffffffffffffffffffffffffffffffffffffffffffffffffffffffff19161461256e576040517f08c379a00000000000000000000000000000000000000000000000000000000081526004016125659061310e565b60405180910390fd5b505b505050505050565b828054612584906135b1565b90600052602060002090601f0160209004810192826125a657600085556125ed565b82601f106125bf57805160ff19168380011785556125ed565b828001600101855582156125ed579182015b828111156125ec5782518255916020019190600101906125d1565b5b5090506125fa919061263e565b5090565b50805461260a906135b1565b6000825580601f1061261c575061263b565b601f01602090049060005260206000209081019061263a919061263e565b5b50565b5b8082111561265757600081600090555060010161263f565b5090565b600061266e61266984613377565b613352565b9050808382526020820190508285602086028201111561268d57600080fd5b60005b858110156126bd57816126a38882612771565b845260208401935060208301925050600181019050612690565b5050509392505050565b60006126da6126d5846133a3565b613352565b905080838252602082019050828560208602820111156126f957600080fd5b60005b85811015612729578161270f8882612843565b8452602084019350602083019250506001810190506126fc565b5050509392505050565b6000612746612741846133cf565b613352565b90508281526020810184848401111561275e57600080fd5b61276984828561356f565b509392505050565b60008135905061278081613c1b565b92915050565b600082601f83011261279757600080fd5b81356127a784826020860161265b565b91505092915050565b600082601f8301126127c157600080fd5b81356127d18482602086016126c7565b91505092915050565b6000813590506127e981613c32565b92915050565b6000813590506127fe81613c49565b92915050565b60008151905061281381613c49565b92915050565b600082601f83011261282a57600080fd5b813561283a848260208601612733565b91505092915050565b60008135905061285281613c60565b92915050565b60006020828403121561286a57600080fd5b600061287884828501612771565b91505092915050565b6000806040838503121561289457600080fd5b60006128a285828601612771565b92505060206128b385828601612771565b9150509250929050565b600080600080600060a086880312156128d557600080fd5b60006128e388828901612771565b95505060206128f488828901612771565b945050604086013567ffffffffffffffff81111561291157600080fd5b61291d888289016127b0565b935050606086013567ffffffffffffffff81111561293a57600080fd5b612946888289016127b0565b925050608086013567ffffffffffffffff81111561296357600080fd5b61296f88828901612819565b9150509295509295909350565b600080600080600060a0868803121561299457600080fd5b60006129a288828901612771565b95505060206129b388828901612771565b94505060406129c488828901612843565b93505060606129d588828901612843565b925050608086013567ffffffffffffffff8111156129f257600080fd5b6129fe88828901612819565b9150509295509295909350565b60008060408385031215612a1e57600080fd5b6000612a2c85828601612771565b9250506020612a3d858286016127da565b9150509250929050565b60008060408385031215612a5a57600080fd5b6000612a6885828601612771565b9250506020612a7985828601612843565b9150509250929050565b600080600060608486031215612a9857600080fd5b6000612aa686828701612771565b9350506020612ab786828701612843565b9250506040612ac886828701612843565b9150509250925092565b60008060408385031215612ae557600080fd5b600083013567ffffffffffffffff811115612aff57600080fd5b612b0b85828601612786565b925050602083013567ffffffffffffffff811115612b2857600080fd5b612b34858286016127b0565b9150509250929050565b600060208284031215612b5057600080fd5b6000612b5e848285016127ef565b91505092915050565b600060208284031215612b7957600080fd5b6000612b8784828501612804565b91505092915050565b600060208284031215612ba257600080fd5b6000612bb084828501612843565b91505092915050565b60008060408385031215612bcc57600080fd5b6000612bda85828601612843565b9250506020612beb85828601612843565b9150509250929050565b6000612c018383612f5d565b60208301905092915050565b612c16816134fb565b82525050565b6000612c2782613410565b612c31818561343e565b9350612c3c83613400565b8060005b83811015612c6d578151612c548882612bf5565b9750612c5f83613431565b925050600181019050612c40565b5085935050505092915050565b612c838161350d565b82525050565b612c9281613519565b82525050565b6000612ca38261341b565b612cad818561344f565b9350612cbd81856020860161357e565b612cc68161370c565b840191505092915050565b6000612cdc82613426565b612ce68185613460565b9350612cf681856020860161357e565b612cff8161370c565b840191505092915050565b6000612d17603483613460565b9150612d228261372a565b604082019050919050565b6000612d3a602883613460565b9150612d4582613779565b604082019050919050565b6000612d5d602b83613460565b9150612d68826137c8565b604082019050919050565b6000612d80601a83613460565b9150612d8b82613817565b602082019050919050565b6000612da3602983613460565b9150612dae82613840565b604082019050919050565b6000612dc6601a83613460565b9150612dd18261388f565b602082019050919050565b6000612de9601d83613460565b9150612df4826138b8565b602082019050919050565b6000612e0c601783613460565b9150612e17826138e1565b602082019050919050565b6000612e2f601f83613460565b9150612e3a8261390a565b602082019050919050565b6000612e52602583613460565b9150612e5d82613933565b604082019050919050565b6000612e75603283613460565b9150612e8082613982565b604082019050919050565b6000612e98603383613460565b9150612ea3826139d1565b604082019050919050565b6000612ebb602a83613460565b9150612ec682613a20565b604082019050919050565b6000612ede601683613460565b9150612ee982613a6f565b602082019050919050565b6000612f01602983613460565b9150612f0c82613a98565b604082019050919050565b6000612f24602983613460565b9150612f2f82613ae7565b604082019050919050565b6000612f47602883613460565b9150612f5282613b36565b604082019050919050565b612f6681613565565b82525050565b612f7581613565565b82525050565b600060a082019050612f906000830188612c0d565b612f9d6020830187612c0d565b8181036040830152612faf8186612c1c565b90508181036060830152612fc38185612c1c565b90508181036080830152612fd78184612c98565b90509695505050505050565b600060a082019050612ff86000830188612c0d565b6130056020830187612c0d565b6130126040830186612f6c565b61301f6060830185612f6c565b81810360808301526130318184612c98565b90509695505050505050565b600060208201905081810360008301526130578184612c1c565b905092915050565b600060408201905081810360008301526130798185612c1c565b9050818103602083015261308d8184612c1c565b90509392505050565b60006020820190506130ab6000830184612c7a565b92915050565b60006020820190506130c66000830184612c89565b92915050565b600060208201905081810360008301526130e68184612cd1565b905092915050565b6000602082019050818103600083015261310781612d0a565b9050919050565b6000602082019050818103600083015261312781612d2d565b9050919050565b6000602082019050818103600083015261314781612d50565b9050919050565b6000602082019050818103600083015261316781612d73565b9050919050565b6000602082019050818103600083015261318781612d96565b9050919050565b600060208201905081810360008301526131a781612db9565b9050919050565b600060208201905081810360008301526131c781612ddc565b9050919050565b600060208201905081810360008301526131e781612dff565b9050919050565b6000602082019050818103600083015261320781612e22565b9050919050565b6000602082019050818103600083015261322781612e45565b9050919050565b6000602082019050818103600083015261324781612e68565b9050919050565b6000602082019050818103600083015261326781612e8b565b9050919050565b6000602082019050818103600083015261328781612eae565b9050919050565b600060208201905081810360008301526132a781612ed1565b9050919050565b600060208201905081810360008301526132c781612ef4565b9050919050565b600060208201905081810360008301526132e781612f17565b9050919050565b6000602082019050818103600083015261330781612f3a565b9050919050565b60006020820190506133236000830184612f6c565b92915050565b600060408201905061333e6000830185612f6c565b61334b6020830184612f6c565b9392505050565b600061335c61336d565b905061336882826135e3565b919050565b6000604051905090565b600067ffffffffffffffff821115613392576133916136bb565b5b602082029050602081019050919050565b600067ffffffffffffffff8211156133be576133bd6136bb565b5b602082029050602081019050919050565b600067ffffffffffffffff8211156133ea576133e96136bb565b5b6133f38261370c565b9050602081019050919050565b6000819050602082019050919050565b600081519050919050565b600081519050919050565b600081519050919050565b6000602082019050919050565b600082825260208201905092915050565b600082825260208201905092915050565b600082825260208201905092915050565b600061347c82613565565b915061348783613565565b9250827fffffffffffffffffffffffffffffffffffffffffffffffffffffffffffffffff038211156134bc576134bb61365d565b5b828201905092915050565b60006134d282613565565b91506134dd83613565565b9250828210156134f0576134ef61365d565b5b828203905092915050565b600061350682613545565b9050919050565b60008115159050919050565b60007fffffffff0000000000000000000000000000000000000000000000000000000082169050919050565b600073ffffffffffffffffffffffffffffffffffffffff82169050919050565b6000819050919050565b82818337600083830152505050565b60005b8381101561359c578082015181840152602081019050613581565b838111156135ab576000848401525b50505050565b600060028204905060018216806135c957607f821691505b602082108114156135dd576135dc61368c565b5b50919050565b6135ec8261370c565b810181811067ffffffffffffffff8211171561360b5761360a6136bb565b5b80604052505050565b600061361f82613565565b91507fffffffffffffffffffffffffffffffffffffffffffffffffffffffffffffffff8214156136525761365161365d565b5b600182019050919050565b7f4e487b7100000000000000000000000000000000000000000000000000000000600052601160045260246000fd5b7f4e487b7100000000000000000000000000000000000000000000000000000000600052602260045260246000fd5b7f4e487b7100000000000000000000000000000000000000000000000000000000600052604160045260246000fd5b600060033d11156137095760046000803e61370660005161371d565b90505b90565b6000601f19601f8301169050919050565b60008160e01c9050919050565b7f455243313135353a207472616e7366657220746f206e6f6e204552433131353560008201527f526563656976657220696d706c656d656e746572000000000000000000000000602082015250565b7f455243313135353a204552433131353552656365697665722072656a6563746560008201527f6420746f6b656e73000000000000000000000000000000000000000000000000602082015250565b7f455243313135353a2062616c616e636520717565727920666f7220746865207a60008201527f65726f2061646472657373000000000000000000000000000000000000000000602082015250565b7f596f7520646f6e2774206f776e20656e6f756768206c616e6421000000000000600082015250565b7f455243313135353a2063616c6c6572206973206e6f74206f776e6572206e6f7260008201527f20617070726f7665640000000000000000000000000000000000000000000000602082015250565b7f4e6f7420656e6f7567682063726f707320746f20706c616e7421000000000000600082015250565b7f4e6f7468696e6720706c616e74656420696e207468697320706c6f7421000000600082015250565b7f5468697320706c6f74206973206e6f7420656d70747921000000000000000000600082015250565b7f43616e277420696e637265617365206e756d626572206f6620706c6f74732e00600082015250565b7f455243313135353a207472616e7366657220746f20746865207a65726f20616460008201527f6472657373000000000000000000000000000000000000000000000000000000602082015250565b7f455243313135353a207472616e736665722063616c6c6572206973206e6f742060008201527f6f776e6572206e6f7220617070726f7665640000000000000000000000000000602082015250565b7f55736572206d75737420706c616e742063726f7073206f6e6365206265666f7260008201527f652070757263686173696e6720706c6f74732100000000000000000000000000602082015250565b7f455243313135353a20696e73756666696369656e742062616c616e636520666f60008201527f72207472616e7366657200000000000000000000000000000000000000000000602082015250565b7f43726f70206e6f7420646f6e652067726f77696e672e00000000000000000000600082015250565b7f455243313135353a2073657474696e6720617070726f76616c2073746174757360008201527f20666f722073656c660000000000000000000000000000000000000000000000602082015250565b7f455243313135353a206163636f756e747320616e6420696473206c656e67746860008201527f206d69736d617463680000000000000000000000000000000000000000000000602082015250565b7f455243313135353a2069647320616e6420616d6f756e7473206c656e6774682060008201527f6d69736d61746368000000000000000000000000000000000000000000000000602082015250565b600060443d1015613b9557613c18565b613b9d61336d565b60043d036004823e80513d602482011167ffffffffffffffff82111715613bc5575050613c18565b808201805167ffffffffffffffff811115613be35750505050613c18565b80602083010160043d038501811115613c00575050505050613c18565b613c0f826020018501866135e3565b82955050505050505b90565b613c24816134fb565b8114613c2f57600080fd5b50565b613c3b8161350d565b8114613c4657600080fd5b50565b613c5281613519565b8114613c5d57600080fd5b50565b613c6981613565565b8114613c7457600080fd5b5056fea2646970667358221220069c16bbcfefae790d54658ac1280572ededd0434be4bd178182d999bd5e2d9164736f6c6343000801003368747470733a2f2f67616d652e6578616d706c652f6170692f6974656d2f7b69647d2e6a736f6e",
  "linkReferences": {},
  "deployedLinkReferences": {}
}