{
  "_format": "hh-sol-artifact-1",
  "contractName": "CropFarm",
  "sourceName": "contracts/Token.sol",
  "abi": [
    {
      "inputs": [],
      "stateMutability": "nonpayable",
      "type": "constructor"
    },
    {
      "anonymous": false,
      "inputs": [
        {
          "indexed": true,
          "internalType": "address",
          "name": "account",
          "type": "address"
        },
        {
          "indexed": true,
          "internalType": "address",
          "name": "operator",
          "type": "address"
        },
        {
          "indexed": false,
          "internalType": "bool",
          "name": "approved",
          "type": "bool"
        }
      ],
      "name": "ApprovalForAll",
      "type": "event"
    },
    {
      "anonymous": false,
      "inputs": [
        {
          "indexed": true,
          "internalType": "address",
          "name": "operator",
          "type": "address"
        },
        {
          "indexed": true,
          "internalType": "address",
          "name": "from",
          "type": "address"
        },
        {
          "indexed": true,
          "internalType": "address",
          "name": "to",
          "type": "address"
        },
        {
          "indexed": false,
          "internalType": "uint256[]",
          "name": "ids",
          "type": "uint256[]"
        },
        {
          "indexed": false,
          "internalType": "uint256[]",
          "name": "values",
          "type": "uint256[]"
        }
      ],
      "name": "TransferBatch",
      "type": "event"
    },
    {
      "anonymous": false,
      "inputs": [
        {
          "indexed": true,
          "internalType": "address",
          "name": "operator",
          "type": "address"
        },
        {
          "indexed": true,
          "internalType": "address",
          "name": "from",
          "type": "address"
        },
        {
          "indexed": true,
          "internalType": "address",
          "name": "to",
          "type": "address"
        },
        {
          "indexed": false,
          "internalType": "uint256",
          "name": "id",
          "type": "uint256"
        },
        {
          "indexed": false,
          "internalType": "uint256",
          "name": "value",
          "type": "uint256"
        }
      ],
      "name": "TransferSingle",
      "type": "event"
    },
    {
      "anonymous": false,
      "inputs": [
        {
          "indexed": false,
          "internalType": "string",
          "name": "value",
          "type": "string"
        },
        {
          "indexed": true,
          "internalType": "uint256",
          "name": "id",
          "type": "uint256"
        }
      ],
      "name": "URI",
      "type": "event"
    },
    {
      "stateMutability": "payable",
      "type": "fallback"
    },
    {
      "inputs": [],
      "name": "CORN",
      "outputs": [
        {
          "internalType": "uint256",
          "name": "",
          "type": "uint256"
        }
      ],
      "stateMutability": "view",
      "type": "function"
    },
    {
      "inputs": [],
      "name": "MELON",
      "outputs": [
        {
          "internalType": "uint256",
          "name": "",
          "type": "uint256"
        }
      ],
      "stateMutability": "view",
      "type": "function"
    },
    {
      "inputs": [],
      "name": "NULL",
      "outputs": [
        {
          "internalType": "uint256",
          "name": "",
          "type": "uint256"
        }
      ],
      "stateMutability": "view",
      "type": "function"
    },
    {
      "inputs": [],
      "name": "TOMATO",
      "outputs": [
        {
          "internalType": "uint256",
          "name": "",
          "type": "uint256"
        }
      ],
      "stateMutability": "view",
      "type": "function"
    },
    {
      "inputs": [],
      "name": "WHEAT",
      "outputs": [
        {
          "internalType": "uint256",
          "name": "",
          "type": "uint256"
        }
      ],
      "stateMutability": "view",
      "type": "function"
    },
    {
      "inputs": [
        {
          "internalType": "address",
          "name": "account",
          "type": "address"
        },
        {
          "internalType": "uint256",
          "name": "id",
          "type": "uint256"
        }
      ],
      "name": "balanceOf",
      "outputs": [
        {
          "internalType": "uint256",
          "name": "",
          "type": "uint256"
        }
      ],
      "stateMutability": "view",
      "type": "function"
    },
    {
      "inputs": [
        {
          "internalType": "address[]",
          "name": "accounts",
          "type": "address[]"
        },
        {
          "internalType": "uint256[]",
          "name": "ids",
          "type": "uint256[]"
        }
      ],
      "name": "balanceOfBatch",
      "outputs": [
        {
          "internalType": "uint256[]",
          "name": "",
          "type": "uint256[]"
        }
      ],
      "stateMutability": "view",
      "type": "function"
    },
    {
      "inputs": [
        {
          "internalType": "address",
          "name": "",
          "type": "address"
        },
        {
          "internalType": "uint256",
          "name": "",
          "type": "uint256"
        }
      ],
      "name": "balances",
      "outputs": [
        {
          "internalType": "uint256",
          "name": "availableBalance",
          "type": "uint256"
        },
        {
          "internalType": "uint256",
          "name": "stakedBalance",
          "type": "uint256"
        }
      ],
      "stateMutability": "view",
      "type": "function"
    },
    {
      "inputs": [],
      "name": "buyPlot",
      "outputs": [],
      "stateMutability": "nonpayable",
      "type": "function"
    },
    {
      "inputs": [
        {
          "internalType": "uint256",
          "name": "",
          "type": "uint256"
        }
      ],
      "name": "crops",
      "outputs": [
        {
          "internalType": "uint256",
          "name": "id",
          "type": "uint256"
        },
        {
          "internalType": "uint256",
          "name": "growTime",
          "type": "uint256"
        },
        {
          "internalType": "uint256",
          "name": "harvest",
          "type": "uint256"
        },
        {
          "internalType": "string",
          "name": "name",
          "type": "string"
        }
      ],
      "stateMutability": "view",
      "type": "function"
    },
    {
      "inputs": [
        {
          "internalType": "uint256",
          "name": "id",
          "type": "uint256"
        }
      ],
      "name": "exists",
      "outputs": [
        {
          "internalType": "bool",
          "name": "",
          "type": "bool"
        }
      ],
      "stateMutability": "view",
      "type": "function"
    },
    {
      "inputs": [
        {
          "internalType": "uint256",
          "name": "_plot",
          "type": "uint256"
        }
      ],
      "name": "harvest",
      "outputs": [],
      "stateMutability": "nonpayable",
      "type": "function"
    },
    {
      "inputs": [
        {
          "internalType": "address",
          "name": "account",
          "type": "address"
        },
        {
          "internalType": "address",
          "name": "operator",
          "type": "address"
        }
      ],
      "name": "isApprovedForAll",
      "outputs": [
        {
          "internalType": "bool",
          "name": "",
          "type": "bool"
        }
      ],
      "stateMutability": "view",
      "type": "function"
    },
    {
      "inputs": [
        {
          "internalType": "address",
          "name": "",
          "type": "address"
        },
        {
          "internalType": "address",
          "name": "",
          "type": "address"
        },
        {
          "internalType": "uint256",
          "name": "",
          "type": "uint256"
        },
        {
          "internalType": "uint256",
          "name": "",
          "type": "uint256"
        },
        {
          "internalType": "bytes",
          "name": "",
          "type": "bytes"
        }
      ],
      "name": "onERC1155Received",
      "outputs": [
        {
          "internalType": "bytes4",
          "name": "",
          "type": "bytes4"
        }
      ],
      "stateMutability": "nonpayable",
      "type": "function"
    },
    {
      "inputs": [
        {
          "internalType": "uint256",
          "name": "_plot",
          "type": "uint256"
        },
        {
          "internalType": "uint256",
          "name": "_id",
          "type": "uint256"
        }
      ],
      "name": "plant",
      "outputs": [],
      "stateMutability": "nonpayable",
      "type": "function"
    },
    {
      "inputs": [
        {
          "internalType": "address",
          "name": "",
          "type": "address"
        }
      ],
      "name": "plotnum",
      "outputs": [
        {
          "internalType": "uint256",
          "name": "",
          "type": "uint256"
        }
      ],
      "stateMutability": "view",
      "type": "function"
    },
    {
      "inputs": [
        {
          "internalType": "address",
          "name": "from",
          "type": "address"
        },
        {
          "internalType": "address",
          "name": "to",
          "type": "address"
        },
        {
          "internalType": "uint256[]",
          "name": "ids",
          "type": "uint256[]"
        },
        {
          "internalType": "uint256[]",
          "name": "amounts",
          "type": "uint256[]"
        },
        {
          "internalType": "bytes",
          "name": "data",
          "type": "bytes"
        }
      ],
      "name": "safeBatchTransferFrom",
      "outputs": [],
      "stateMutability": "nonpayable",
      "type": "function"
    },
    {
      "inputs": [
        {
          "internalType": "address",
          "name": "from",
          "type": "address"
        },
        {
          "internalType": "address",
          "name": "to",
          "type": "address"
        },
        {
          "internalType": "uint256",
          "name": "id",
          "type": "uint256"
        },
        {
          "internalType": "uint256",
          "name": "amount",
          "type": "uint256"
        },
        {
          "internalType": "bytes",
          "name": "data",
          "type": "bytes"
        }
      ],
      "name": "safeTransferFrom",
      "outputs": [],
      "stateMutability": "nonpayable",
      "type": "function"
    },
    {
      "inputs": [
        {
          "internalType": "address",
          "name": "operator",
          "type": "address"
        },
        {
          "internalType": "bool",
          "name": "approved",
          "type": "bool"
        }
      ],
      "name": "setApprovalForAll",
      "outputs": [],
      "stateMutability": "nonpayable",
      "type": "function"
    },
    {
      "inputs": [
        {
          "internalType": "bytes4",
          "name": "interfaceId",
          "type": "bytes4"
        }
      ],
      "name": "supportsInterface",
      "outputs": [
        {
          "internalType": "bool",
          "name": "",
          "type": "bool"
        }
      ],
      "stateMutability": "view",
      "type": "function"
    },
    {
      "inputs": [
        {
          "internalType": "uint256",
          "name": "id",
          "type": "uint256"
        }
      ],
      "name": "totalSupply",
      "outputs": [
        {
          "internalType": "uint256",
          "name": "",
          "type": "uint256"
        }
      ],
      "stateMutability": "view",
      "type": "function"
    },
    {
      "inputs": [
        {
          "internalType": "uint256",
          "name": "",
          "type": "uint256"
        }
      ],
      "name": "uri",
      "outputs": [
        {
          "internalType": "string",
          "name": "",
          "type": "string"
        }
      ],
      "stateMutability": "view",
      "type": "function"
    },
    {
      "inputs": [
        {
          "internalType": "address",
          "name": "_account",
          "type": "address"
        },
        {
          "internalType": "uint256",
          "name": "_id",
          "type": "uint256"
        },
        {
          "internalType": "uint256",
          "name": "_member",
          "type": "uint256"
        }
      ],
      "name": "viewBalance",
      "outputs": [
        {
          "internalType": "uint256",
          "name": "",
          "type": "uint256"
        }
      ],
      "stateMutability": "view",
      "type": "function"
    },
    {
      "inputs": [
        {
          "internalType": "address",
          "name": "_account",
          "type": "address"
        },
        {
          "internalType": "uint256",
          "name": "_plot",
          "type": "uint256"
        }
      ],
      "name": "viewGrowStatus",
      "outputs": [
        {
          "internalType": "uint256",
          "name": "",
          "type": "uint256"
        },
        {
          "internalType": "uint256",
          "name": "",
          "type": "uint256"
        }
      ],
      "stateMutability": "view",
      "type": "function"
    },
    {
      "inputs": [
        {
          "internalType": "address",
          "name": "_account",
          "type": "address"
        },
        {
          "internalType": "uint256",
          "name": "_id",
          "type": "uint256"
        }
      ],
      "name": "viewPlot",
      "outputs": [
        {
          "internalType": "uint256",
          "name": "",
          "type": "uint256"
        },
        {
          "internalType": "string",
          "name": "",
          "type": "string"
        }
      ],
      "stateMutability": "view",
      "type": "function"
    }
  ],
  "bytecode": "0x60806040523480156200001157600080fd5b5060405180606001604052806027815260200162005964602791396200003d816200062460201b60201c565b50620000643360016103e8604051806020016040528060008152506200064060201b60201c565b6200008a3360026103e8604051806020016040528060008152506200064060201b60201c565b620000b03360036103e8604051806020016040528060008152506200064060201b60201c565b620000d63360046103e8604051806020016040528060008152506200064060201b60201c565b6000604051806101e00160405280600061ffff168152602001600061ffff168152602001600061ffff168152602001600161ffff168152602001606461ffff168152602001600361ffff168152602001600261ffff16815260200160c861ffff168152602001600561ffff168152602001600361ffff168152602001606461ffff168152602001600561ffff168152602001600461ffff1681526020016101f461ffff168152602001600261ffff16815250905060006040518060a001604052806040518060200160405280600081525081526020016040518060400160405280600681526020017f546f6d61746f000000000000000000000000000000000000000000000000000081525081526020016040518060400160405280600481526020017f436f726e0000000000000000000000000000000000000000000000000000000081525081526020016040518060400160405280600581526020017f576865617400000000000000000000000000000000000000000000000000000081525081526020016040518060400160405280600581526020017f4d656c6f6e00000000000000000000000000000000000000000000000000000081525081525090506000600190505b600481116200041c5782600382620002b89190620011f2565b600f8110620002f0577f4e487b7100000000000000000000000000000000000000000000000000000000600052603260045260246000fd5b602002015161ffff166006600083815260200190815260200160002060000181905550826001600383620003259190620011f2565b62000331919062001195565b600f811062000369577f4e487b7100000000000000000000000000000000000000000000000000000000600052603260045260246000fd5b602002015161ffff1660066000838152602001908152602001600020600101819055508260026003836200039e9190620011f2565b620003aa919062001195565b600f8110620003e2577f4e487b7100000000000000000000000000000000000000000000000000000000600052603260045260246000fd5b602002015161ffff16600660008381526020019081526020016000206002018190555060018162000414919062001195565b90506200029f565b506000600190505b60048111620004af5781816005811062000467577f4e487b7100000000000000000000000000000000000000000000000000000000600052603260045260246000fd5b60200201516006600083815260200190815260200160002060030190805190602001906200049792919062000de3565b50600181620004a7919062001195565b905062000424565b506103e8600460003373ffffffffffffffffffffffffffffffffffffffff1673ffffffffffffffffffffffffffffffffffffffff168152602001908152602001600020600060018152602001908152602001600020600001819055506103e8600460003373ffffffffffffffffffffffffffffffffffffffff1673ffffffffffffffffffffffffffffffffffffffff168152602001908152602001600020600060028152602001908152602001600020600001819055506103e8600460003373ffffffffffffffffffffffffffffffffffffffff1673ffffffffffffffffffffffffffffffffffffffff168152602001908152602001600020600060038152602001908152602001600020600001819055506103e8600460003373ffffffffffffffffffffffffffffffffffffffff1673ffffffffffffffffffffffffffffffffffffffff16815260200190815260200160002060006004815260200190815260200160002060000181905550505062001675565b80600290805190602001906200063c92919062000de3565b5050565b600073ffffffffffffffffffffffffffffffffffffffff168473ffffffffffffffffffffffffffffffffffffffff161415620006b3576040517f08c379a0000000000000000000000000000000000000000000000000000000008152600401620006aa9062001104565b60405180910390fd5b6000620006c56200082860201b60201c565b90506000620006da856200083060201b60201c565b90506000620006ef856200083060201b60201c565b90506200070883600089858589620008f960201b60201c565b8460008088815260200190815260200160002060008973ffffffffffffffffffffffffffffffffffffffff1673ffffffffffffffffffffffffffffffffffffffff168152602001908152602001600020600082825462000769919062001195565b925050819055508673ffffffffffffffffffffffffffffffffffffffff16600073ffffffffffffffffffffffffffffffffffffffff168473ffffffffffffffffffffffffffffffffffffffff167fc3d58168c5ae7397731d063d5bbf3d657854427343f4c083240f7aacaa2d0f628989604051620007e992919062001126565b60405180910390a462000808836000898585896200091c60201b60201c565b6200081f836000898989896200092460201b60201c565b50505050505050565b600033905090565b60606000600167ffffffffffffffff81111562000876577f4e487b7100000000000000000000000000000000000000000000000000000000600052604160045260246000fd5b604051908082528060200260200182016040528015620008a55781602001602082028036833780820191505090505b5090508281600081518110620008e4577f4e487b7100000000000000000000000000000000000000000000000000000000600052603260045260246000fd5b60200260200101818152505080915050919050565b6200091486868686868662000b2e60201b6200192a1760201c565b505050505050565b505050505050565b620009508473ffffffffffffffffffffffffffffffffffffffff1662000db860201b62001b941760201c565b1562000b26578373ffffffffffffffffffffffffffffffffffffffff1663f23a6e6187878686866040518663ffffffff1660e01b81526004016200099995949392919062001016565b602060405180830381600087803b158015620009b457600080fd5b505af1925050508015620009e857506040513d601f19601f82011682018060405250810190620009e5919062000eaa565b60015b62000a9a57620009f76200143a565b806308c379a0141562000a5b575062000a0f620015b9565b8062000a1c575062000a5d565b806040517f08c379a000000000000000000000000000000000000000000000000000000000815260040162000a5291906200107a565b60405180910390fd5b505b6040517f08c379a000000000000000000000000000000000000000000000000000000000815260040162000a91906200109e565b60405180910390fd5b63f23a6e6160e01b7bffffffffffffffffffffffffffffffffffffffffffffffffffffffff1916817bffffffffffffffffffffffffffffffffffffffffffffffffffffffff19161462000b24576040517f08c379a000000000000000000000000000000000000000000000000000000000815260040162000b1b90620010c0565b60405180910390fd5b505b505050505050565b62000b4986868686868662000ddb60201b62001bb71760201c565b600073ffffffffffffffffffffffffffffffffffffffff168573ffffffffffffffffffffffffffffffffffffffff16141562000c505760005b835181101562000c4e5782818151811062000bc6577f4e487b7100000000000000000000000000000000000000000000000000000000600052603260045260246000fd5b60200260200101516003600086848151811062000c0c577f4e487b7100000000000000000000000000000000000000000000000000000000600052603260045260246000fd5b60200260200101518152602001908152602001600020600082825462000c33919062001195565b925050819055508062000c46906200135f565b905062000b82565b505b600073ffffffffffffffffffffffffffffffffffffffff168473ffffffffffffffffffffffffffffffffffffffff16141562000db05760005b835181101562000dae57600084828151811062000ccf577f4e487b7100000000000000000000000000000000000000000000000000000000600052603260045260246000fd5b60200260200101519050600084838151811062000d15577f4e487b7100000000000000000000000000000000000000000000000000000000600052603260045260246000fd5b602002602001015190506000600360008481526020019081526020016000205490508181101562000d7d576040517f08c379a000000000000000000000000000000000000000000000000000000000815260040162000d7490620010e2565b60405180910390fd5b81810360036000858152602001908152602001600020819055505050508062000da6906200135f565b905062000c89565b505b505050505050565b6000808273ffffffffffffffffffffffffffffffffffffffff163b119050919050565b505050505050565b82805462000df190620012f3565b90600052602060002090601f01602090048101928262000e15576000855562000e61565b82601f1062000e3057805160ff191683800117855562000e61565b8280016001018555821562000e61579182015b8281111562000e6057825182559160200191906001019062000e43565b5b50905062000e70919062000e74565b5090565b5b8082111562000e8f57600081600090555060010162000e75565b5090565b60008151905062000ea4816200165b565b92915050565b60006020828403121562000ebd57600080fd5b600062000ecd8482850162000e93565b91505092915050565b62000ee18162001253565b82525050565b600062000ef4826200115d565b62000f00818562001173565b935062000f12818560208601620012bd565b62000f1d816200145f565b840191505092915050565b600062000f358262001168565b62000f41818562001184565b935062000f53818560208601620012bd565b62000f5e816200145f565b840191505092915050565b600062000f7860348362001184565b915062000f85826200147d565b604082019050919050565b600062000f9f60288362001184565b915062000fac82620014cc565b604082019050919050565b600062000fc660288362001184565b915062000fd3826200151b565b604082019050919050565b600062000fed60218362001184565b915062000ffa826200156a565b604082019050919050565b6200101081620012b3565b82525050565b600060a0820190506200102d600083018862000ed6565b6200103c602083018762000ed6565b6200104b604083018662001005565b6200105a606083018562001005565b81810360808301526200106e818462000ee7565b90509695505050505050565b6000602082019050818103600083015262001096818462000f28565b905092915050565b60006020820190508181036000830152620010b98162000f69565b9050919050565b60006020820190508181036000830152620010db8162000f90565b9050919050565b60006020820190508181036000830152620010fd8162000fb7565b9050919050565b600060208201905081810360008301526200111f8162000fde565b9050919050565b60006040820190506200113d600083018562001005565b6200114c602083018462001005565b9392505050565b6000604051905090565b600081519050919050565b600081519050919050565b600082825260208201905092915050565b600082825260208201905092915050565b6000620011a282620012b3565b9150620011af83620012b3565b9250827fffffffffffffffffffffffffffffffffffffffffffffffffffffffffffffffff03821115620011e757620011e6620013ad565b5b828201905092915050565b6000620011ff82620012b3565b91506200120c83620012b3565b9250817fffffffffffffffffffffffffffffffffffffffffffffffffffffffffffffffff0483118215151615620012485762001247620013ad565b5b828202905092915050565b6000620012608262001293565b9050919050565b60007fffffffff0000000000000000000000000000000000000000000000000000000082169050919050565b600073ffffffffffffffffffffffffffffffffffffffff82169050919050565b6000819050919050565b60005b83811015620012dd578082015181840152602081019050620012c0565b83811115620012ed576000848401525b50505050565b600060028204905060018216806200130c57607f821691505b60208210811415620013235762001322620013dc565b5b50919050565b62001334826200145f565b810181811067ffffffffffffffff821117156200135657620013556200140b565b5b80604052505050565b60006200136c82620012b3565b91507fffffffffffffffffffffffffffffffffffffffffffffffffffffffffffffffff821415620013a257620013a1620013ad565b5b600182019050919050565b7f4e487b7100000000000000000000000000000000000000000000000000000000600052601160045260246000fd5b7f4e487b7100000000000000000000000000000000000000000000000000000000600052602260045260246000fd5b7f4e487b7100000000000000000000000000000000000000000000000000000000600052604160045260246000fd5b600060033d11156200145c5760046000803e6200145960005162001470565b90505b90565b6000601f19601f8301169050919050565b60008160e01c9050919050565b7f455243313135353a207472616e7366657220746f206e6f6e204552433131353560008201527f526563656976657220696d706c656d656e746572000000000000000000000000602082015250565b7f455243313135353a204552433131353552656365697665722072656a6563746560008201527f6420746f6b656e73000000000000000000000000000000000000000000000000602082015250565b7f455243313135353a206275726e20616d6f756e74206578636565647320746f7460008201527f616c537570706c79000000000000000000000000000000000000000000000000602082015250565b7f455243313135353a206d696e7420746f20746865207a65726f2061646472657360008201527f7300000000000000000000000000000000000000000000000000000000000000602082015250565b600060443d1015620015cb5762001658565b620015d562001153565b60043d036004823e80513d602482011167ffffffffffffffff82111715620015ff57505062001658565b808201805167ffffffffffffffff8111156200161f575050505062001658565b80602083010160043d0385018111156200163e57505050505062001658565b6200164f8260200185018662001329565b82955050505050505b90565b620016668162001267565b81146200167257600080fd5b50565b6142df80620016856000396000f3fe6080604052600436106101695760003560e01c80637d0c78f2116100d1578063e3f8f5551161008a578063f242432a11610064578063f242432a146105d9578063f26be3fc14610602578063f43e39181461062d578063ff2dff2d146106585761016a565b8063e3f8f55514610534578063e985e9c51461055f578063f23a6e611461059c5761016a565b80637d0c78f21461041357806392658a281461043e578063a22cb46514610467578063bd85b03914610490578063cbf1304d146104cd578063ddc632621461050b5761016a565b80632eb2c2d6116101235780632eb2c2d6146102db57806349e66311146103045780634e1273f4146103425780634f558e791461037f57806359098a55146103bc57806370c9f1a5146103d35761016a565b8062fdd58e1461016c57806301ffc9a7146101a957806303b46fcc146101e65780630e89341c146102235780632568c63714610260578063297fa6da1461029e5761016a565b5b005b34801561017857600080fd5b50610193600480360381019061018e9190612ffd565b610683565b6040516101a091906138c4565b60405180910390f35b3480156101b557600080fd5b506101d060048036038101906101cb91906130f4565b61074c565b6040516101dd919061364c565b60405180910390f35b3480156101f257600080fd5b5061020d60048036038101906102089190613039565b61082e565b60405161021a91906138c4565b60405180910390f35b34801561022f57600080fd5b5061024a60048036038101906102459190613146565b610903565b6040516102579190613682565b60405180910390f35b34801561026c57600080fd5b5061028760048036038101906102829190612ffd565b610997565b60405161029592919061390f565b60405180910390f35b3480156102aa57600080fd5b506102c560048036038101906102c09190612e0e565b610ab4565b6040516102d291906138c4565b60405180910390f35b3480156102e757600080fd5b5061030260048036038101906102fd9190612e73565b610acc565b005b34801561031057600080fd5b5061032b60048036038101906103269190612ffd565b610b6d565b6040516103399291906138df565b60405180910390f35b34801561034e57600080fd5b5061036960048036038101906103649190613088565b610d0b565b60405161037691906135f3565b60405180910390f35b34801561038b57600080fd5b506103a660048036038101906103a19190613146565b610ebc565b6040516103b3919061364c565b60405180910390f35b3480156103c857600080fd5b506103d1610ed0565b005b3480156103df57600080fd5b506103fa60048036038101906103f59190613146565b610f7c565b60405161040a9493929190613938565b60405180910390f35b34801561041f57600080fd5b50610428611034565b60405161043591906138c4565b60405180910390f35b34801561044a57600080fd5b506104656004803603810190610460919061316f565b611039565b005b34801561047357600080fd5b5061048e60048036038101906104899190612fc1565b611492565b005b34801561049c57600080fd5b506104b760048036038101906104b29190613146565b6114a8565b6040516104c491906138c4565b60405180910390f35b3480156104d957600080fd5b506104f460048036038101906104ef9190612ffd565b6114c5565b60405161050292919061390f565b60405180910390f35b34801561051757600080fd5b50610532600480360381019061052d9190613146565b6114f6565b005b34801561054057600080fd5b506105496117cc565b60405161055691906138c4565b60405180910390f35b34801561056b57600080fd5b5061058660048036038101906105819190612e37565b6117d1565b604051610593919061364c565b60405180910390f35b3480156105a857600080fd5b506105c360048036038101906105be9190612f32565b611865565b6040516105d09190613667565b60405180910390f35b3480156105e557600080fd5b5061060060048036038101906105fb9190612f32565b61187a565b005b34801561060e57600080fd5b5061061761191b565b60405161062491906138c4565b60405180910390f35b34801561063957600080fd5b50610642611920565b60405161064f91906138c4565b60405180910390f35b34801561066457600080fd5b5061066d611925565b60405161067a91906138c4565b60405180910390f35b60008073ffffffffffffffffffffffffffffffffffffffff168373ffffffffffffffffffffffffffffffffffffffff1614156106f4576040517f08c379a00000000000000000000000000000000000000000000000000000000081526004016106eb90613724565b60405180910390fd5b60008083815260200190815260200160002060008473ffffffffffffffffffffffffffffffffffffffff1673ffffffffffffffffffffffffffffffffffffffff16815260200190815260200160002054905092915050565b60007fd9b67a26000000000000000000000000000000000000000000000000000000007bffffffffffffffffffffffffffffffffffffffffffffffffffffffff1916827bffffffffffffffffffffffffffffffffffffffffffffffffffffffff1916148061081757507f0e89341c000000000000000000000000000000000000000000000000000000007bffffffffffffffffffffffffffffffffffffffffffffffffffffffff1916827bffffffffffffffffffffffffffffffffffffffffffffffffffffffff1916145b80610827575061082682611bbf565b5b9050919050565b60008082141561089357600460008573ffffffffffffffffffffffffffffffffffffffff1673ffffffffffffffffffffffffffffffffffffffff16815260200190815260200160002060008481526020019081526020016000206000015490506108fc565b60018214156108f757600460008573ffffffffffffffffffffffffffffffffffffffff1673ffffffffffffffffffffffffffffffffffffffff16815260200190815260200160002060008481526020019081526020016000206001015490506108fc565b600090505b9392505050565b60606002805461091290613be3565b80601f016020809104026020016040519081016040528092919081815260200182805461093e90613be3565b801561098b5780601f106109605761010080835404028352916020019161098b565b820191906000526020600020905b81548152906001019060200180831161096e57829003601f168201915b50505050509050919050565b600080600560008573ffffffffffffffffffffffffffffffffffffffff1673ffffffffffffffffffffffffffffffffffffffff16815260200190815260200160002060000183600a8110610a14577f4e487b7100000000000000000000000000000000000000000000000000000000600052603260045260246000fd5b600502016004015442610a279190613af9565b600560008673ffffffffffffffffffffffffffffffffffffffff1673ffffffffffffffffffffffffffffffffffffffff16815260200190815260200160002060000184600a8110610aa1577f4e487b7100000000000000000000000000000000000000000000000000000000600052603260045260246000fd5b6005020160030154915091509250929050565b60076020528060005260406000206000915090505481565b610ad4611c29565b73ffffffffffffffffffffffffffffffffffffffff168573ffffffffffffffffffffffffffffffffffffffff161480610b1a5750610b1985610b14611c29565b6117d1565b5b610b59576040517f08c379a0000000000000000000000000000000000000000000000000000000008152600401610b50906136c4565b60405180910390fd5b610b668585858585611c31565b5050505050565b60006060600560008573ffffffffffffffffffffffffffffffffffffffff1673ffffffffffffffffffffffffffffffffffffffff16815260200190815260200160002060000183600a8110610beb577f4e487b7100000000000000000000000000000000000000000000000000000000600052603260045260246000fd5b6005020160010154600560008673ffffffffffffffffffffffffffffffffffffffff1673ffffffffffffffffffffffffffffffffffffffff16815260200190815260200160002060000184600a8110610c6d577f4e487b7100000000000000000000000000000000000000000000000000000000600052603260045260246000fd5b60050201600201808054610c8090613be3565b80601f0160208091040260200160405190810160405280929190818152602001828054610cac90613be3565b8015610cf95780601f10610cce57610100808354040283529160200191610cf9565b820191906000526020600020905b815481529060010190602001808311610cdc57829003601f168201915b50505050509050915091509250929050565b60608151835114610d51576040517f08c379a0000000000000000000000000000000000000000000000000000000008152600401610d4890613864565b60405180910390fd5b6000835167ffffffffffffffff811115610d94577f4e487b7100000000000000000000000000000000000000000000000000000000600052604160045260246000fd5b604051908082528060200260200182016040528015610dc25781602001602082028036833780820191505090505b50905060005b8451811015610eb157610e5b858281518110610e0d577f4e487b7100000000000000000000000000000000000000000000000000000000600052603260045260246000fd5b6020026020010151858381518110610e4e577f4e487b7100000000000000000000000000000000000000000000000000000000600052603260045260246000fd5b6020026020010151610683565b828281518110610e94577f4e487b7100000000000000000000000000000000000000000000000000000000600052603260045260246000fd5b60200260200101818152505080610eaa90613c46565b9050610dc8565b508091505092915050565b600080610ec8836114a8565b119050919050565b6003600760003373ffffffffffffffffffffffffffffffffffffffff1673ffffffffffffffffffffffffffffffffffffffff168152602001908152602001600020541015610f53576040517f08c379a0000000000000000000000000000000000000000000000000000000008152600401610f4a906138a4565b60405180910390fd5b610f7133306001600a60405180602001604052806000815250611f9f565b610f7a3361218f565b565b6006602052806000526040600020600091509050806000015490806001015490806002015490806003018054610fb190613be3565b80601f0160208091040260200160405190810160405280929190818152602001828054610fdd90613be3565b801561102a5780601f10610fff5761010080835404028352916020019161102a565b820191906000526020600020905b81548152906001019060200180831161100d57829003601f168201915b5050505050905084565b600181565b6001600460003373ffffffffffffffffffffffffffffffffffffffff1673ffffffffffffffffffffffffffffffffffffffff16815260200190815260200160002060008381526020019081526020016000206000015410156110d0576040517f08c379a00000000000000000000000000000000000000000000000000000000081526004016110c790613744565b60405180910390fd5b6000600760003373ffffffffffffffffffffffffffffffffffffffff1673ffffffffffffffffffffffffffffffffffffffff16815260200190815260200160002054141561115e576003600760003373ffffffffffffffffffffffffffffffffffffffff1673ffffffffffffffffffffffffffffffffffffffff168152602001908152602001600020819055505b600760003373ffffffffffffffffffffffffffffffffffffffff1673ffffffffffffffffffffffffffffffffffffffff1681526020019081526020016000205482106111df576040517f08c379a00000000000000000000000000000000000000000000000000000000081526004016111d690613704565b60405180910390fd5b60011515600560003373ffffffffffffffffffffffffffffffffffffffff1673ffffffffffffffffffffffffffffffffffffffff16815260200190815260200160002060000183600a811061125d577f4e487b7100000000000000000000000000000000000000000000000000000000600052603260045260246000fd5b6005020160000160009054906101000a900460ff16151514156112b5576040517f08c379a00000000000000000000000000000000000000000000000000000000081526004016112ac90613784565b60405180910390fd5b6000600560003373ffffffffffffffffffffffffffffffffffffffff1673ffffffffffffffffffffffffffffffffffffffff16815260200190815260200160002060000183600a8110611331577f4e487b7100000000000000000000000000000000000000000000000000000000600052603260045260246000fd5b600502019050428160040181905550818160010181905550600660008381526020019081526020016000206003018160020190805461136f90613be3565b61137a929190612b27565b506006600083815260200190815260200160002060010154816003018190555060018160000160006101000a81548160ff0219169083151502179055506001600460003373ffffffffffffffffffffffffffffffffffffffff1673ffffffffffffffffffffffffffffffffffffffff1681526020019081526020016000206000848152602001908152602001600020600001600082825461141b9190613af9565b925050819055506001600460003373ffffffffffffffffffffffffffffffffffffffff1673ffffffffffffffffffffffffffffffffffffffff168152602001908152602001600020600084815260200190815260200160002060010160008282546114869190613aa3565b92505081905550505050565b6114a461149d611c29565b838361226c565b5050565b600060036000838152602001908152602001600020549050919050565b6004602052816000526040600020602052806000526040600020600091509150508060000154908060010154905082565b6000600560003373ffffffffffffffffffffffffffffffffffffffff1673ffffffffffffffffffffffffffffffffffffffff16815260200190815260200160002060000182600a8110611572577f4e487b7100000000000000000000000000000000000000000000000000000000600052603260045260246000fd5b6005020190506000816001015414156115c0576040517f08c379a00000000000000000000000000000000000000000000000000000000081526004016115b790613764565b60405180910390fd5b80600301548160040154426115d59190613af9565b1015611616576040517f08c379a000000000000000000000000000000000000000000000000000000000815260040161160d90613824565b60405180910390fd5b6000816001015490506006600082815260200190815260200160002060020154600460003373ffffffffffffffffffffffffffffffffffffffff1673ffffffffffffffffffffffffffffffffffffffff168152602001908152602001600020600083815260200190815260200160002060000160008282546116989190613aa3565b925050819055506001600460003373ffffffffffffffffffffffffffffffffffffffff1673ffffffffffffffffffffffffffffffffffffffff168152602001908152602001600020600083815260200190815260200160002060010160008282546117039190613af9565b92505081905550600560003373ffffffffffffffffffffffffffffffffffffffff1673ffffffffffffffffffffffffffffffffffffffff16815260200190815260200160002060000183600a8110611784577f4e487b7100000000000000000000000000000000000000000000000000000000600052603260045260246000fd5b60050201600080820160006101000a81549060ff021916905560018201600090556002820160006117b59190612bb4565b600382016000905560048201600090555050505050565b600281565b6000600160008473ffffffffffffffffffffffffffffffffffffffff1673ffffffffffffffffffffffffffffffffffffffff16815260200190815260200160002060008373ffffffffffffffffffffffffffffffffffffffff1673ffffffffffffffffffffffffffffffffffffffff16815260200190815260200160002060009054906101000a900460ff16905092915050565b600063f23a6e6160e01b905095945050505050565b611882611c29565b73ffffffffffffffffffffffffffffffffffffffff168573ffffffffffffffffffffffffffffffffffffffff1614806118c857506118c7856118c2611c29565b6117d1565b5b611907576040517f08c379a00000000000000000000000000000000000000000000000000000000081526004016118fe906136c4565b60405180910390fd5b6119148585858585611f9f565b5050505050565b600081565b600481565b600381565b611938868686868686611bb7565b600073ffffffffffffffffffffffffffffffffffffffff168573ffffffffffffffffffffffffffffffffffffffff161415611a365760005b8351811015611a34578281815181106119b2577f4e487b7100000000000000000000000000000000000000000000000000000000600052603260045260246000fd5b6020026020010151600360008684815181106119f7577f4e487b7100000000000000000000000000000000000000000000000000000000600052603260045260246000fd5b602002602001015181526020019081526020016000206000828254611a1c9190613aa3565b9250508190555080611a2d90613c46565b9050611970565b505b600073ffffffffffffffffffffffffffffffffffffffff168473ffffffffffffffffffffffffffffffffffffffff161415611b8c5760005b8351811015611b8a576000848281518110611ab2577f4e487b7100000000000000000000000000000000000000000000000000000000600052603260045260246000fd5b602002602001015190506000848381518110611af7577f4e487b7100000000000000000000000000000000000000000000000000000000600052603260045260246000fd5b6020026020010151905060006003600084815260200190815260200160002054905081811015611b5c576040517f08c379a0000000000000000000000000000000000000000000000000000000008152600401611b53906137e4565b60405180910390fd5b818103600360008581526020019081526020016000208190555050505080611b8390613c46565b9050611a6e565b505b505050505050565b6000808273ffffffffffffffffffffffffffffffffffffffff163b119050919050565b505050505050565b60007f01ffc9a7000000000000000000000000000000000000000000000000000000007bffffffffffffffffffffffffffffffffffffffffffffffffffffffff1916827bffffffffffffffffffffffffffffffffffffffffffffffffffffffff1916149050919050565b600033905090565b8151835114611c75576040517f08c379a0000000000000000000000000000000000000000000000000000000008152600401611c6c90613884565b60405180910390fd5b600073ffffffffffffffffffffffffffffffffffffffff168473ffffffffffffffffffffffffffffffffffffffff161415611ce5576040517f08c379a0000000000000000000000000000000000000000000000000000000008152600401611cdc906137a4565b60405180910390fd5b6000611cef611c29565b9050611cff8187878787876123d9565b60005b8451811015611efc576000858281518110611d46577f4e487b7100000000000000000000000000000000000000000000000000000000600052603260045260246000fd5b602002602001015190506000858381518110611d8b577f4e487b7100000000000000000000000000000000000000000000000000000000600052603260045260246000fd5b60200260200101519050600080600084815260200190815260200160002060008b73ffffffffffffffffffffffffffffffffffffffff1673ffffffffffffffffffffffffffffffffffffffff16815260200190815260200160002054905081811015611e2c576040517f08c379a0000000000000000000000000000000000000000000000000000000008152600401611e23906137c4565b60405180910390fd5b81810360008085815260200190815260200160002060008c73ffffffffffffffffffffffffffffffffffffffff1673ffffffffffffffffffffffffffffffffffffffff168152602001908152602001600020819055508160008085815260200190815260200160002060008b73ffffffffffffffffffffffffffffffffffffffff1673ffffffffffffffffffffffffffffffffffffffff1681526020019081526020016000206000828254611ee19190613aa3565b9250508190555050505080611ef590613c46565b9050611d02565b508473ffffffffffffffffffffffffffffffffffffffff168673ffffffffffffffffffffffffffffffffffffffff168273ffffffffffffffffffffffffffffffffffffffff167f4a39dc06d4c0dbc64b70af90fd698a233a518aa5d07e595d983b8c0526c8f7fb8787604051611f73929190613615565b60405180910390a4611f898187878787876123ef565b611f978187878787876123f7565b505050505050565b600073ffffffffffffffffffffffffffffffffffffffff168473ffffffffffffffffffffffffffffffffffffffff16141561200f576040517f08c379a0000000000000000000000000000000000000000000000000000000008152600401612006906137a4565b60405180910390fd5b6000600460008773ffffffffffffffffffffffffffffffffffffffff1673ffffffffffffffffffffffffffffffffffffffff1681526020019081526020016000206000858152602001908152602001600020600001549050828110156120aa576040517f08c379a00000000000000000000000000000000000000000000000000000000081526004016120a1906137c4565b60405180910390fd5b82816120b69190613af9565b905082600460008773ffffffffffffffffffffffffffffffffffffffff1673ffffffffffffffffffffffffffffffffffffffff1681526020019081526020016000206000868152602001908152602001600020600001600082825461211b9190613aa3565b9250508190555080600460008873ffffffffffffffffffffffffffffffffffffffff1673ffffffffffffffffffffffffffffffffffffffff16815260200190815260200160002060008681526020019081526020016000206000018190555061218786868686866125de565b505050505050565b600a600760008373ffffffffffffffffffffffffffffffffffffffff1673ffffffffffffffffffffffffffffffffffffffff168152602001908152602001600020541115612212576040517f08c379a000000000000000000000000000000000000000000000000000000000815260040161220990613804565b60405180910390fd5b6001600760008373ffffffffffffffffffffffffffffffffffffffff1673ffffffffffffffffffffffffffffffffffffffff16815260200190815260200160002060008282546122629190613aa3565b9250508190555050565b8173ffffffffffffffffffffffffffffffffffffffff168373ffffffffffffffffffffffffffffffffffffffff1614156122db576040517f08c379a00000000000000000000000000000000000000000000000000000000081526004016122d290613844565b60405180910390fd5b80600160008573ffffffffffffffffffffffffffffffffffffffff1673ffffffffffffffffffffffffffffffffffffffff16815260200190815260200160002060008473ffffffffffffffffffffffffffffffffffffffff1673ffffffffffffffffffffffffffffffffffffffff16815260200190815260200160002060006101000a81548160ff0219169083151502179055508173ffffffffffffffffffffffffffffffffffffffff168373ffffffffffffffffffffffffffffffffffffffff167f17307eab39ab6107e8899845ad3d59bd9653f200f220920489ca2b5937696c31836040516123cc919061364c565b60405180910390a3505050565b6123e786868686868661192a565b505050505050565b505050505050565b6124168473ffffffffffffffffffffffffffffffffffffffff16611b94565b156125d6578373ffffffffffffffffffffffffffffffffffffffff1663bc197c8187878686866040518663ffffffff1660e01b815260040161245c959493929190613531565b602060405180830381600087803b15801561247657600080fd5b505af19250505080156124a757506040513d601f19601f820116820180604052508101906124a4919061311d565b60015b61254d576124b3613d1c565b806308c379a0141561251057506124c86141b7565b806124d35750612512565b806040517f08c379a00000000000000000000000000000000000000000000000000000000081526004016125079190613682565b60405180910390fd5b505b6040517f08c379a0000000000000000000000000000000000000000000000000000000008152600401612544906136a4565b60405180910390fd5b63bc197c8160e01b7bffffffffffffffffffffffffffffffffffffffffffffffffffffffff1916817bffffffffffffffffffffffffffffffffffffffffffffffffffffffff1916146125d4576040517f08c379a00000000000000000000000000000000000000000000000000000000081526004016125cb906136e4565b60405180910390fd5b505b505050505050565b600073ffffffffffffffffffffffffffffffffffffffff168473ffffffffffffffffffffffffffffffffffffffff16141561264e576040517f08c379a0000000000000000000000000000000000000000000000000000000008152600401612645906137a4565b60405180910390fd5b6000612658611c29565b905060006126658561287a565b905060006126728561287a565b90506126828389898585896123d9565b600080600088815260200190815260200160002060008a73ffffffffffffffffffffffffffffffffffffffff1673ffffffffffffffffffffffffffffffffffffffff16815260200190815260200160002054905085811015612719576040517f08c379a0000000000000000000000000000000000000000000000000000000008152600401612710906137c4565b60405180910390fd5b85810360008089815260200190815260200160002060008b73ffffffffffffffffffffffffffffffffffffffff1673ffffffffffffffffffffffffffffffffffffffff168152602001908152602001600020819055508560008089815260200190815260200160002060008a73ffffffffffffffffffffffffffffffffffffffff1673ffffffffffffffffffffffffffffffffffffffff16815260200190815260200160002060008282546127ce9190613aa3565b925050819055508773ffffffffffffffffffffffffffffffffffffffff168973ffffffffffffffffffffffffffffffffffffffff168573ffffffffffffffffffffffffffffffffffffffff167fc3d58168c5ae7397731d063d5bbf3d657854427343f4c083240f7aacaa2d0f628a8a60405161284b92919061390f565b60405180910390a4612861848a8a86868a6123ef565b61286f848a8a8a8a8a612940565b505050505050505050565b60606000600167ffffffffffffffff8111156128bf577f4e487b7100000000000000000000000000000000000000000000000000000000600052604160045260246000fd5b6040519080825280602002602001820160405280156128ed5781602001602082028036833780820191505090505b509050828160008151811061292b577f4e487b7100000000000000000000000000000000000000000000000000000000600052603260045260246000fd5b60200260200101818152505080915050919050565b61295f8473ffffffffffffffffffffffffffffffffffffffff16611b94565b15612b1f578373ffffffffffffffffffffffffffffffffffffffff1663f23a6e6187878686866040518663ffffffff1660e01b81526004016129a5959493929190613599565b602060405180830381600087803b1580156129bf57600080fd5b505af19250505080156129f057506040513d601f19601f820116820180604052508101906129ed919061311d565b60015b612a96576129fc613d1c565b806308c379a01415612a595750612a116141b7565b80612a1c5750612a5b565b806040517f08c379a0000000000000000000000000000000000000000000000000000000008152600401612a509190613682565b60405180910390fd5b505b6040517f08c379a0000000000000000000000000000000000000000000000000000000008152600401612a8d906136a4565b60405180910390fd5b63f23a6e6160e01b7bffffffffffffffffffffffffffffffffffffffffffffffffffffffff1916817bffffffffffffffffffffffffffffffffffffffffffffffffffffffff191614612b1d576040517f08c379a0000000000000000000000000000000000000000000000000000000008152600401612b14906136e4565b60405180910390fd5b505b505050505050565b828054612b3390613be3565b90600052602060002090601f016020900481019282612b555760008555612ba3565b82601f10612b665780548555612ba3565b82800160010185558215612ba357600052602060002091601f016020900482015b82811115612ba2578254825591600101919060010190612b87565b5b509050612bb09190612bf4565b5090565b508054612bc090613be3565b6000825580601f10612bd25750612bf1565b601f016020900490600052602060002090810190612bf09190612bf4565b5b50565b5b80821115612c0d576000816000905550600101612bf5565b5090565b6000612c24612c1f846139a9565b613984565b90508083825260208201905082856020860282011115612c4357600080fd5b60005b85811015612c735781612c598882612d27565b845260208401935060208301925050600181019050612c46565b5050509392505050565b6000612c90612c8b846139d5565b613984565b90508083825260208201905082856020860282011115612caf57600080fd5b60005b85811015612cdf5781612cc58882612df9565b845260208401935060208301925050600181019050612cb2565b5050509392505050565b6000612cfc612cf784613a01565b613984565b905082815260208101848484011115612d1457600080fd5b612d1f848285613ba1565b509392505050565b600081359050612d368161424d565b92915050565b600082601f830112612d4d57600080fd5b8135612d5d848260208601612c11565b91505092915050565b600082601f830112612d7757600080fd5b8135612d87848260208601612c7d565b91505092915050565b600081359050612d9f81614264565b92915050565b600081359050612db48161427b565b92915050565b600081519050612dc98161427b565b92915050565b600082601f830112612de057600080fd5b8135612df0848260208601612ce9565b91505092915050565b600081359050612e0881614292565b92915050565b600060208284031215612e2057600080fd5b6000612e2e84828501612d27565b91505092915050565b60008060408385031215612e4a57600080fd5b6000612e5885828601612d27565b9250506020612e6985828601612d27565b9150509250929050565b600080600080600060a08688031215612e8b57600080fd5b6000612e9988828901612d27565b9550506020612eaa88828901612d27565b945050604086013567ffffffffffffffff811115612ec757600080fd5b612ed388828901612d66565b935050606086013567ffffffffffffffff811115612ef057600080fd5b612efc88828901612d66565b925050608086013567ffffffffffffffff811115612f1957600080fd5b612f2588828901612dcf565b9150509295509295909350565b600080600080600060a08688031215612f4a57600080fd5b6000612f5888828901612d27565b9550506020612f6988828901612d27565b9450506040612f7a88828901612df9565b9350506060612f8b88828901612df9565b925050608086013567ffffffffffffffff811115612fa857600080fd5b612fb488828901612dcf565b9150509295509295909350565b60008060408385031215612fd457600080fd5b6000612fe285828601612d27565b9250506020612ff385828601612d90565b9150509250929050565b6000806040838503121561301057600080fd5b600061301e85828601612d27565b925050602061302f85828601612df9565b9150509250929050565b60008060006060848603121561304e57600080fd5b600061305c86828701612d27565b935050602061306d86828701612df9565b925050604061307e86828701612df9565b9150509250925092565b6000806040838503121561309b57600080fd5b600083013567ffffffffffffffff8111156130b557600080fd5b6130c185828601612d3c565b925050602083013567ffffffffffffffff8111156130de57600080fd5b6130ea85828601612d66565b9150509250929050565b60006020828403121561310657600080fd5b600061311484828501612da5565b91505092915050565b60006020828403121561312f57600080fd5b600061313d84828501612dba565b91505092915050565b60006020828403121561315857600080fd5b600061316684828501612df9565b91505092915050565b6000806040838503121561318257600080fd5b600061319085828601612df9565b92505060206131a185828601612df9565b9150509250929050565b60006131b78383613513565b60208301905092915050565b6131cc81613b2d565b82525050565b60006131dd82613a42565b6131e78185613a70565b93506131f283613a32565b8060005b8381101561322357815161320a88826131ab565b975061321583613a63565b9250506001810190506131f6565b5085935050505092915050565b61323981613b3f565b82525050565b61324881613b4b565b82525050565b600061325982613a4d565b6132638185613a81565b9350613273818560208601613bb0565b61327c81613d3e565b840191505092915050565b600061329282613a58565b61329c8185613a92565b93506132ac818560208601613bb0565b6132b581613d3e565b840191505092915050565b60006132cd603483613a92565b91506132d882613d5c565b604082019050919050565b60006132f0602f83613a92565b91506132fb82613dab565b604082019050919050565b6000613313602883613a92565b915061331e82613dfa565b604082019050919050565b6000613336601a83613a92565b915061334182613e49565b602082019050919050565b6000613359602a83613a92565b915061336482613e72565b604082019050919050565b600061337c601a83613a92565b915061338782613ec1565b602082019050919050565b600061339f601d83613a92565b91506133aa82613eea565b602082019050919050565b60006133c2601783613a92565b91506133cd82613f13565b602082019050919050565b60006133e5602583613a92565b91506133f082613f3c565b604082019050919050565b6000613408602a83613a92565b915061341382613f8b565b604082019050919050565b600061342b602883613a92565b915061343682613fda565b604082019050919050565b600061344e602083613a92565b915061345982614029565b602082019050919050565b6000613471601683613a92565b915061347c82614052565b602082019050919050565b6000613494602983613a92565b915061349f8261407b565b604082019050919050565b60006134b7602983613a92565b91506134c2826140ca565b604082019050919050565b60006134da602883613a92565b91506134e582614119565b604082019050919050565b60006134fd603483613a92565b915061350882614168565b604082019050919050565b61351c81613b97565b82525050565b61352b81613b97565b82525050565b600060a08201905061354660008301886131c3565b61355360208301876131c3565b818103604083015261356581866131d2565b9050818103606083015261357981856131d2565b9050818103608083015261358d818461324e565b90509695505050505050565b600060a0820190506135ae60008301886131c3565b6135bb60208301876131c3565b6135c86040830186613522565b6135d56060830185613522565b81810360808301526135e7818461324e565b90509695505050505050565b6000602082019050818103600083015261360d81846131d2565b905092915050565b6000604082019050818103600083015261362f81856131d2565b9050818103602083015261364381846131d2565b90509392505050565b60006020820190506136616000830184613230565b92915050565b600060208201905061367c600083018461323f565b92915050565b6000602082019050818103600083015261369c8184613287565b905092915050565b600060208201905081810360008301526136bd816132c0565b9050919050565b600060208201905081810360008301526136dd816132e3565b9050919050565b600060208201905081810360008301526136fd81613306565b9050919050565b6000602082019050818103600083015261371d81613329565b9050919050565b6000602082019050818103600083015261373d8161334c565b9050919050565b6000602082019050818103600083015261375d8161336f565b9050919050565b6000602082019050818103600083015261377d81613392565b9050919050565b6000602082019050818103600083015261379d816133b5565b9050919050565b600060208201905081810360008301526137bd816133d8565b9050919050565b600060208201905081810360008301526137dd816133fb565b9050919050565b600060208201905081810360008301526137fd8161341e565b9050919050565b6000602082019050818103600083015261381d81613441565b9050919050565b6000602082019050818103600083015261383d81613464565b9050919050565b6000602082019050818103600083015261385d81613487565b9050919050565b6000602082019050818103600083015261387d816134aa565b9050919050565b6000602082019050818103600083015261389d816134cd565b9050919050565b600060208201905081810360008301526138bd816134f0565b9050919050565b60006020820190506138d96000830184613522565b92915050565b60006040820190506138f46000830185613522565b81810360208301526139068184613287565b90509392505050565b60006040820190506139246000830185613522565b6139316020830184613522565b9392505050565b600060808201905061394d6000830187613522565b61395a6020830186613522565b6139676040830185613522565b81810360608301526139798184613287565b905095945050505050565b600061398e61399f565b905061399a8282613c15565b919050565b6000604051905090565b600067ffffffffffffffff8211156139c4576139c3613ced565b5b602082029050602081019050919050565b600067ffffffffffffffff8211156139f0576139ef613ced565b5b602082029050602081019050919050565b600067ffffffffffffffff821115613a1c57613a1b613ced565b5b613a2582613d3e565b9050602081019050919050565b6000819050602082019050919050565b600081519050919050565b600081519050919050565b600081519050919050565b6000602082019050919050565b600082825260208201905092915050565b600082825260208201905092915050565b600082825260208201905092915050565b6000613aae82613b97565b9150613ab983613b97565b9250827fffffffffffffffffffffffffffffffffffffffffffffffffffffffffffffffff03821115613aee57613aed613c8f565b5b828201905092915050565b6000613b0482613b97565b9150613b0f83613b97565b925082821015613b2257613b21613c8f565b5b828203905092915050565b6000613b3882613b77565b9050919050565b60008115159050919050565b60007fffffffff0000000000000000000000000000000000000000000000000000000082169050919050565b600073ffffffffffffffffffffffffffffffffffffffff82169050919050565b6000819050919050565b82818337600083830152505050565b60005b83811015613bce578082015181840152602081019050613bb3565b83811115613bdd576000848401525b50505050565b60006002820490506001821680613bfb57607f821691505b60208210811415613c0f57613c0e613cbe565b5b50919050565b613c1e82613d3e565b810181811067ffffffffffffffff82111715613c3d57613c3c613ced565b5b80604052505050565b6000613c5182613b97565b91507fffffffffffffffffffffffffffffffffffffffffffffffffffffffffffffffff821415613c8457613c83613c8f565b5b600182019050919050565b7f4e487b7100000000000000000000000000000000000000000000000000000000600052601160045260246000fd5b7f4e487b7100000000000000000000000000000000000000000000000000000000600052602260045260246000fd5b7f4e487b7100000000000000000000000000000000000000000000000000000000600052604160045260246000fd5b600060033d1115613d3b5760046000803e613d38600051613d4f565b90505b90565b6000601f19601f8301169050919050565b60008160e01c9050919050565b7f455243313135353a207472616e7366657220746f206e6f6e204552433131353560008201527f526563656976657220696d706c656d656e746572000000000000000000000000602082015250565b7f455243313135353a2063616c6c6572206973206e6f7420746f6b656e206f776e60008201527f6572206e6f7220617070726f7665640000000000000000000000000000000000602082015250565b7f455243313135353a204552433131353552656365697665722072656a6563746560008201527f6420746f6b656e73000000000000000000000000000000000000000000000000602082015250565b7f596f7520646f6e2774206f776e20656e6f756768206c616e6421000000000000600082015250565b7f455243313135353a2061646472657373207a65726f206973206e6f742061207660008201527f616c6964206f776e657200000000000000000000000000000000000000000000602082015250565b7f4e6f7420656e6f7567682063726f707320746f20706c616e7421000000000000600082015250565b7f4e6f7468696e6720706c616e74656420696e207468697320706c6f7421000000600082015250565b7f5468697320706c6f74206973206e6f7420656d70747921000000000000000000600082015250565b7f455243313135353a207472616e7366657220746f20746865207a65726f20616460008201527f6472657373000000000000000000000000000000000000000000000000000000602082015250565b7f455243313135353a20696e73756666696369656e742062616c616e636520666f60008201527f72207472616e7366657200000000000000000000000000000000000000000000602082015250565b7f455243313135353a206275726e20616d6f756e74206578636565647320746f7460008201527f616c537570706c79000000000000000000000000000000000000000000000000602082015250565b7f43616e277420696e637265617365206e756d626572206f66205f706c6f74732e600082015250565b7f43726f70206e6f7420646f6e652067726f77696e672e00000000000000000000600082015250565b7f455243313135353a2073657474696e6720617070726f76616c2073746174757360008201527f20666f722073656c660000000000000000000000000000000000000000000000602082015250565b7f455243313135353a206163636f756e747320616e6420696473206c656e67746860008201527f206d69736d617463680000000000000000000000000000000000000000000000602082015250565b7f455243313135353a2069647320616e6420616d6f756e7473206c656e6774682060008201527f6d69736d61746368000000000000000000000000000000000000000000000000602082015250565b7f55736572206d75737420706c616e742063726f7073206f6e6365206265666f7260008201527f652070757263686173696e67205f706c6f747321000000000000000000000000602082015250565b600060443d10156141c75761424a565b6141cf61399f565b60043d036004823e80513d602482011167ffffffffffffffff821117156141f757505061424a565b808201805167ffffffffffffffff811115614215575050505061424a565b80602083010160043d03850181111561423257505050505061424a565b61424182602001850186613c15565b82955050505050505b90565b61425681613b2d565b811461426157600080fd5b50565b61426d81613b3f565b811461427857600080fd5b50565b61428481613b4b565b811461428f57600080fd5b50565b61429b81613b97565b81146142a657600080fd5b5056fea2646970667358221220ee834f280210066ea979f90005ec7c2f653a15aeda31a961ee2df80c73389aa064736f6c6343000801003368747470733a2f2f67616d652e6578616d706c652f6170692f6974656d2f7b69647d2e6a736f6e",
  "linkReferences": {},
  "deployedLinkReferences": {}
}