{
  "_format": "hh-sol-artifact-1",
  "contractName": "CropFarm",
  "sourceName": "contracts/Token.sol",
  "abi": [
    {
      "inputs": [],
      "stateMutability": "nonpayable",
      "type": "constructor"
    },
    {
      "anonymous": false,
      "inputs": [
        {
          "indexed": true,
          "internalType": "address",
          "name": "account",
          "type": "address"
        },
        {
          "indexed": true,
          "internalType": "address",
          "name": "operator",
          "type": "address"
        },
        {
          "indexed": false,
          "internalType": "bool",
          "name": "approved",
          "type": "bool"
        }
      ],
      "name": "ApprovalForAll",
      "type": "event"
    },
    {
      "anonymous": false,
      "inputs": [
        {
          "indexed": true,
          "internalType": "address",
          "name": "operator",
          "type": "address"
        },
        {
          "indexed": true,
          "internalType": "address",
          "name": "from",
          "type": "address"
        },
        {
          "indexed": true,
          "internalType": "address",
          "name": "to",
          "type": "address"
        },
        {
          "indexed": false,
          "internalType": "uint256[]",
          "name": "ids",
          "type": "uint256[]"
        },
        {
          "indexed": false,
          "internalType": "uint256[]",
          "name": "values",
          "type": "uint256[]"
        }
      ],
      "name": "TransferBatch",
      "type": "event"
    },
    {
      "anonymous": false,
      "inputs": [
        {
          "indexed": true,
          "internalType": "address",
          "name": "operator",
          "type": "address"
        },
        {
          "indexed": true,
          "internalType": "address",
          "name": "from",
          "type": "address"
        },
        {
          "indexed": true,
          "internalType": "address",
          "name": "to",
          "type": "address"
        },
        {
          "indexed": false,
          "internalType": "uint256",
          "name": "id",
          "type": "uint256"
        },
        {
          "indexed": false,
          "internalType": "uint256",
          "name": "value",
          "type": "uint256"
        }
      ],
      "name": "TransferSingle",
      "type": "event"
    },
    {
      "anonymous": false,
      "inputs": [
        {
          "indexed": false,
          "internalType": "string",
          "name": "value",
          "type": "string"
        },
        {
          "indexed": true,
          "internalType": "uint256",
          "name": "id",
          "type": "uint256"
        }
      ],
      "name": "URI",
      "type": "event"
    },
    {
      "inputs": [],
      "name": "CARROT",
      "outputs": [
        {
          "internalType": "uint256",
          "name": "",
          "type": "uint256"
        }
      ],
      "stateMutability": "view",
      "type": "function"
    },
    {
      "inputs": [],
      "name": "MELON",
      "outputs": [
        {
          "internalType": "uint256",
          "name": "",
          "type": "uint256"
        }
      ],
      "stateMutability": "view",
      "type": "function"
    },
    {
      "inputs": [],
      "name": "PUMPKIN",
      "outputs": [
        {
          "internalType": "uint256",
          "name": "",
          "type": "uint256"
        }
      ],
      "stateMutability": "view",
      "type": "function"
    },
    {
      "inputs": [],
      "name": "WHEAT",
      "outputs": [
        {
          "internalType": "uint256",
          "name": "",
          "type": "uint256"
        }
      ],
      "stateMutability": "view",
      "type": "function"
    },
    {
      "inputs": [
        {
          "internalType": "address",
          "name": "account",
          "type": "address"
        },
        {
          "internalType": "uint256",
          "name": "id",
          "type": "uint256"
        }
      ],
      "name": "balanceOf",
      "outputs": [
        {
          "internalType": "uint256",
          "name": "",
          "type": "uint256"
        }
      ],
      "stateMutability": "view",
      "type": "function"
    },
    {
      "inputs": [
        {
          "internalType": "address[]",
          "name": "accounts",
          "type": "address[]"
        },
        {
          "internalType": "uint256[]",
          "name": "ids",
          "type": "uint256[]"
        }
      ],
      "name": "balanceOfBatch",
      "outputs": [
        {
          "internalType": "uint256[]",
          "name": "",
          "type": "uint256[]"
        }
      ],
      "stateMutability": "view",
      "type": "function"
    },
    {
      "inputs": [
        {
          "internalType": "uint256",
          "name": "id",
          "type": "uint256"
        }
      ],
      "name": "exists",
      "outputs": [
        {
          "internalType": "bool",
          "name": "",
          "type": "bool"
        }
      ],
      "stateMutability": "view",
      "type": "function"
    },
    {
      "inputs": [
        {
          "internalType": "address",
          "name": "account",
          "type": "address"
        },
        {
          "internalType": "address",
          "name": "operator",
          "type": "address"
        }
      ],
      "name": "isApprovedForAll",
      "outputs": [
        {
          "internalType": "bool",
          "name": "",
          "type": "bool"
        }
      ],
      "stateMutability": "view",
      "type": "function"
    },
    {
      "inputs": [
        {
          "internalType": "address",
          "name": "from",
          "type": "address"
        },
        {
          "internalType": "address",
          "name": "to",
          "type": "address"
        },
        {
          "internalType": "uint256[]",
          "name": "ids",
          "type": "uint256[]"
        },
        {
          "internalType": "uint256[]",
          "name": "amounts",
          "type": "uint256[]"
        },
        {
          "internalType": "bytes",
          "name": "data",
          "type": "bytes"
        }
      ],
      "name": "safeBatchTransferFrom",
      "outputs": [],
      "stateMutability": "nonpayable",
      "type": "function"
    },
    {
      "inputs": [
        {
          "internalType": "address",
          "name": "from",
          "type": "address"
        },
        {
          "internalType": "address",
          "name": "to",
          "type": "address"
        },
        {
          "internalType": "uint256",
          "name": "id",
          "type": "uint256"
        },
        {
          "internalType": "uint256",
          "name": "amount",
          "type": "uint256"
        },
        {
          "internalType": "bytes",
          "name": "data",
          "type": "bytes"
        }
      ],
      "name": "safeTransferFrom",
      "outputs": [],
      "stateMutability": "nonpayable",
      "type": "function"
    },
    {
      "inputs": [
        {
          "internalType": "address",
          "name": "operator",
          "type": "address"
        },
        {
          "internalType": "bool",
          "name": "approved",
          "type": "bool"
        }
      ],
      "name": "setApprovalForAll",
      "outputs": [],
      "stateMutability": "nonpayable",
      "type": "function"
    },
    {
      "inputs": [
        {
          "internalType": "bytes4",
          "name": "interfaceId",
          "type": "bytes4"
        }
      ],
      "name": "supportsInterface",
      "outputs": [
        {
          "internalType": "bool",
          "name": "",
          "type": "bool"
        }
      ],
      "stateMutability": "view",
      "type": "function"
    },
    {
      "inputs": [
        {
          "internalType": "uint256",
          "name": "id",
          "type": "uint256"
        }
      ],
      "name": "totalSupply",
      "outputs": [
        {
          "internalType": "uint256",
          "name": "",
          "type": "uint256"
        }
      ],
      "stateMutability": "view",
      "type": "function"
    },
    {
      "inputs": [
        {
          "internalType": "uint256",
          "name": "",
          "type": "uint256"
        }
      ],
      "name": "uri",
      "outputs": [
        {
          "internalType": "string",
          "name": "",
          "type": "string"
        }
      ],
      "stateMutability": "view",
      "type": "function"
    }
  ],
  "bytecode": "0x60806040523480156200001157600080fd5b506040518060600160405280602781526020016200365e602791396200003d81620000ed60201b60201c565b506200006a336000670de0b6b3a7640000604051806020016040528060008152506200010960201b60201c565b6200009a3360016b033b2e3c9fd0803ce8000000604051806020016040528060008152506200010960201b60201c565b620000bf3360026001604051806020016040528060008152506200010960201b60201c565b620000e7336003633b9aca00604051806020016040528060008152506200010960201b60201c565b62000ffc565b80600290805190602001906200010592919062000828565b5050565b600073ffffffffffffffffffffffffffffffffffffffff168473ffffffffffffffffffffffffffffffffffffffff1614156200017c576040517f08c379a0000000000000000000000000000000000000000000000000000000008152600401620001739062000b00565b60405180910390fd5b60006200018e620002ce60201b60201c565b9050620001c781600087620001a988620002d660201b60201c565b620001ba88620002d660201b60201c565b876200039f60201b60201c565b8260008086815260200190815260200160002060008773ffffffffffffffffffffffffffffffffffffffff1673ffffffffffffffffffffffffffffffffffffffff168152602001908152602001600020600082825462000228919062000b91565b925050819055508473ffffffffffffffffffffffffffffffffffffffff16600073ffffffffffffffffffffffffffffffffffffffff168273ffffffffffffffffffffffffffffffffffffffff167fc3d58168c5ae7397731d063d5bbf3d657854427343f4c083240f7aacaa2d0f628787604051620002a892919062000b22565b60405180910390a4620002c781600087878787620003c260201b60201c565b5050505050565b600033905090565b60606000600167ffffffffffffffff8111156200031c577f4e487b7100000000000000000000000000000000000000000000000000000000600052604160045260246000fd5b6040519080825280602002602001820160405280156200034b5781602001602082028036833780820191505090505b50905082816000815181106200038a577f4e487b7100000000000000000000000000000000000000000000000000000000600052603260045260246000fd5b60200260200101818152505080915050919050565b620003ba868686868686620005cc60201b6200092b1760201c565b505050505050565b620003ee8473ffffffffffffffffffffffffffffffffffffffff16620007fd60201b62000b3d1760201c565b15620005c4578373ffffffffffffffffffffffffffffffffffffffff1663f23a6e6187878686866040518663ffffffff1660e01b81526004016200043795949392919062000a34565b602060405180830381600087803b1580156200045257600080fd5b505af19250505080156200048657506040513d601f19601f82011682018060405250810190620004839190620008ef565b60015b62000538576200049562000e10565b806308c379a01415620004f95750620004ad62000f40565b80620004ba5750620004fb565b806040517f08c379a0000000000000000000000000000000000000000000000000000000008152600401620004f0919062000a98565b60405180910390fd5b505b6040517f08c379a00000000000000000000000000000000000000000000000000000000081526004016200052f9062000abc565b60405180910390fd5b63f23a6e6160e01b7bffffffffffffffffffffffffffffffffffffffffffffffffffffffff1916817bffffffffffffffffffffffffffffffffffffffffffffffffffffffff191614620005c2576040517f08c379a0000000000000000000000000000000000000000000000000000000008152600401620005b99062000ade565b60405180910390fd5b505b505050505050565b620005e78686868686866200082060201b62000b601760201c565b600073ffffffffffffffffffffffffffffffffffffffff168573ffffffffffffffffffffffffffffffffffffffff161415620006ee5760005b8351811015620006ec5782818151811062000664577f4e487b7100000000000000000000000000000000000000000000000000000000600052603260045260246000fd5b602002602001015160036000868481518110620006aa577f4e487b7100000000000000000000000000000000000000000000000000000000600052603260045260246000fd5b602002602001015181526020019081526020016000206000828254620006d1919062000b91565b9250508190555080620006e49062000d35565b905062000620565b505b600073ffffffffffffffffffffffffffffffffffffffff168473ffffffffffffffffffffffffffffffffffffffff161415620007f55760005b8351811015620007f3578281815181106200076b577f4e487b7100000000000000000000000000000000000000000000000000000000600052603260045260246000fd5b602002602001015160036000868481518110620007b1577f4e487b7100000000000000000000000000000000000000000000000000000000600052603260045260246000fd5b602002602001015181526020019081526020016000206000828254620007d8919062000bee565b9250508190555080620007eb9062000d35565b905062000727565b505b505050505050565b6000808273ffffffffffffffffffffffffffffffffffffffff163b119050919050565b505050505050565b828054620008369062000cc9565b90600052602060002090601f0160209004810192826200085a5760008555620008a6565b82601f106200087557805160ff1916838001178555620008a6565b82800160010185558215620008a6579182015b82811115620008a557825182559160200191906001019062000888565b5b509050620008b59190620008b9565b5090565b5b80821115620008d4576000816000905550600101620008ba565b5090565b600081519050620008e98162000fe2565b92915050565b6000602082840312156200090257600080fd5b60006200091284828501620008d8565b91505092915050565b620009268162000c29565b82525050565b6000620009398262000b59565b62000945818562000b6f565b93506200095781856020860162000c93565b620009628162000e35565b840191505092915050565b60006200097a8262000b64565b62000986818562000b80565b93506200099881856020860162000c93565b620009a38162000e35565b840191505092915050565b6000620009bd60348362000b80565b9150620009ca8262000e53565b604082019050919050565b6000620009e460288362000b80565b9150620009f18262000ea2565b604082019050919050565b600062000a0b60218362000b80565b915062000a188262000ef1565b604082019050919050565b62000a2e8162000c89565b82525050565b600060a08201905062000a4b60008301886200091b565b62000a5a60208301876200091b565b62000a69604083018662000a23565b62000a78606083018562000a23565b818103608083015262000a8c81846200092c565b90509695505050505050565b6000602082019050818103600083015262000ab481846200096d565b905092915050565b6000602082019050818103600083015262000ad781620009ae565b9050919050565b6000602082019050818103600083015262000af981620009d5565b9050919050565b6000602082019050818103600083015262000b1b81620009fc565b9050919050565b600060408201905062000b39600083018562000a23565b62000b48602083018462000a23565b9392505050565b6000604051905090565b600081519050919050565b600081519050919050565b600082825260208201905092915050565b600082825260208201905092915050565b600062000b9e8262000c89565b915062000bab8362000c89565b9250827fffffffffffffffffffffffffffffffffffffffffffffffffffffffffffffffff0382111562000be35762000be262000d83565b5b828201905092915050565b600062000bfb8262000c89565b915062000c088362000c89565b92508282101562000c1e5762000c1d62000d83565b5b828203905092915050565b600062000c368262000c69565b9050919050565b60007fffffffff0000000000000000000000000000000000000000000000000000000082169050919050565b600073ffffffffffffffffffffffffffffffffffffffff82169050919050565b6000819050919050565b60005b8381101562000cb357808201518184015260208101905062000c96565b8381111562000cc3576000848401525b50505050565b6000600282049050600182168062000ce257607f821691505b6020821081141562000cf95762000cf862000db2565b5b50919050565b62000d0a8262000e35565b810181811067ffffffffffffffff8211171562000d2c5762000d2b62000de1565b5b80604052505050565b600062000d428262000c89565b91507fffffffffffffffffffffffffffffffffffffffffffffffffffffffffffffffff82141562000d785762000d7762000d83565b5b600182019050919050565b7f4e487b7100000000000000000000000000000000000000000000000000000000600052601160045260246000fd5b7f4e487b7100000000000000000000000000000000000000000000000000000000600052602260045260246000fd5b7f4e487b7100000000000000000000000000000000000000000000000000000000600052604160045260246000fd5b600060033d111562000e325760046000803e62000e2f60005162000e46565b90505b90565b6000601f19601f8301169050919050565b60008160e01c9050919050565b7f455243313135353a207472616e7366657220746f206e6f6e204552433131353560008201527f526563656976657220696d706c656d656e746572000000000000000000000000602082015250565b7f455243313135353a204552433131353552656365697665722072656a6563746560008201527f6420746f6b656e73000000000000000000000000000000000000000000000000602082015250565b7f455243313135353a206d696e7420746f20746865207a65726f2061646472657360008201527f7300000000000000000000000000000000000000000000000000000000000000602082015250565b600060443d101562000f525762000fdf565b62000f5c62000b4f565b60043d036004823e80513d602482011167ffffffffffffffff8211171562000f8657505062000fdf565b808201805167ffffffffffffffff81111562000fa6575050505062000fdf565b80602083010160043d03850181111562000fc557505050505062000fdf565b62000fd68260200185018662000cff565b82955050505050505b90565b62000fed8162000c3d565b811462000ff957600080fd5b50565b612652806200100c6000396000f3fe608060405234801561001057600080fd5b50600436106100e95760003560e01c8063bd85b0391161008c578063e985e9c511610066578063e985e9c514610282578063f242432a146102b2578063f43e3918146102ce578063ff2dff2d146102ec576100e9565b8063bd85b03914610216578063bf701ed414610246578063ccc3aeec14610264576100e9565b80632eb2c2d6116100c85780632eb2c2d61461017e5780634e1273f41461019a5780634f558e79146101ca578063a22cb465146101fa576100e9565b8062fdd58e146100ee57806301ffc9a71461011e5780630e89341c1461014e575b600080fd5b6101086004803603810190610103919061183e565b61030a565b6040516101159190611e21565b60405180910390f35b610138600480360381019061013391906118e6565b6103d3565b6040516101459190611ca4565b60405180910390f35b61016860048036038101906101639190611938565b6104b5565b6040516101759190611cbf565b60405180910390f35b610198600480360381019061019391906116b4565b610549565b005b6101b460048036038101906101af919061187a565b6105ea565b6040516101c19190611c4b565b60405180910390f35b6101e460048036038101906101df9190611938565b61079b565b6040516101f19190611ca4565b60405180910390f35b610214600480360381019061020f9190611802565b6107af565b005b610230600480360381019061022b9190611938565b6107c5565b60405161023d9190611e21565b60405180910390f35b61024e6107e2565b60405161025b9190611e21565b60405180910390f35b61026c6107e7565b6040516102799190611e21565b60405180910390f35b61029c60048036038101906102979190611678565b6107ec565b6040516102a99190611ca4565b60405180910390f35b6102cc60048036038101906102c79190611773565b610880565b005b6102d6610921565b6040516102e39190611e21565b60405180910390f35b6102f4610926565b6040516103019190611e21565b60405180910390f35b60008073ffffffffffffffffffffffffffffffffffffffff168373ffffffffffffffffffffffffffffffffffffffff16141561037b576040517f08c379a000000000000000000000000000000000000000000000000000000000815260040161037290611d21565b60405180910390fd5b60008083815260200190815260200160002060008473ffffffffffffffffffffffffffffffffffffffff1673ffffffffffffffffffffffffffffffffffffffff16815260200190815260200160002054905092915050565b60007fd9b67a26000000000000000000000000000000000000000000000000000000007bffffffffffffffffffffffffffffffffffffffffffffffffffffffff1916827bffffffffffffffffffffffffffffffffffffffffffffffffffffffff1916148061049e57507f0e89341c000000000000000000000000000000000000000000000000000000007bffffffffffffffffffffffffffffffffffffffffffffffffffffffff1916827bffffffffffffffffffffffffffffffffffffffffffffffffffffffff1916145b806104ae57506104ad82610b68565b5b9050919050565b6060600280546104c49061209b565b80601f01602080910402602001604051908101604052809291908181526020018280546104f09061209b565b801561053d5780601f106105125761010080835404028352916020019161053d565b820191906000526020600020905b81548152906001019060200180831161052057829003601f168201915b50505050509050919050565b610551610bd2565b73ffffffffffffffffffffffffffffffffffffffff168573ffffffffffffffffffffffffffffffffffffffff161480610597575061059685610591610bd2565b6107ec565b5b6105d6576040517f08c379a00000000000000000000000000000000000000000000000000000000081526004016105cd90611d81565b60405180910390fd5b6105e38585858585610bda565b5050505050565b60608151835114610630576040517f08c379a000000000000000000000000000000000000000000000000000000000815260040161062790611de1565b60405180910390fd5b6000835167ffffffffffffffff811115610673577f4e487b7100000000000000000000000000000000000000000000000000000000600052604160045260246000fd5b6040519080825280602002602001820160405280156106a15781602001602082028036833780820191505090505b50905060005b84518110156107905761073a8582815181106106ec577f4e487b7100000000000000000000000000000000000000000000000000000000600052603260045260246000fd5b602002602001015185838151811061072d577f4e487b7100000000000000000000000000000000000000000000000000000000600052603260045260246000fd5b602002602001015161030a565b828281518110610773577f4e487b7100000000000000000000000000000000000000000000000000000000600052603260045260246000fd5b60200260200101818152505080610789906120fe565b90506106a7565b508091505092915050565b6000806107a7836107c5565b119050919050565b6107c16107ba610bd2565b8383610f3a565b5050565b600060036000838152602001908152602001600020549050919050565b600381565b600181565b6000600160008473ffffffffffffffffffffffffffffffffffffffff1673ffffffffffffffffffffffffffffffffffffffff16815260200190815260200160002060008373ffffffffffffffffffffffffffffffffffffffff1673ffffffffffffffffffffffffffffffffffffffff16815260200190815260200160002060009054906101000a900460ff16905092915050565b610888610bd2565b73ffffffffffffffffffffffffffffffffffffffff168573ffffffffffffffffffffffffffffffffffffffff1614806108ce57506108cd856108c8610bd2565b6107ec565b5b61090d576040517f08c379a000000000000000000000000000000000000000000000000000000000815260040161090490611d41565b60405180910390fd5b61091a85858585856110a7565b5050505050565b600281565b600081565b610939868686868686610b60565b600073ffffffffffffffffffffffffffffffffffffffff168573ffffffffffffffffffffffffffffffffffffffff161415610a375760005b8351811015610a35578281815181106109b3577f4e487b7100000000000000000000000000000000000000000000000000000000600052603260045260246000fd5b6020026020010151600360008684815181106109f8577f4e487b7100000000000000000000000000000000000000000000000000000000600052603260045260246000fd5b602002602001015181526020019081526020016000206000828254610a1d9190611f5b565b9250508190555080610a2e906120fe565b9050610971565b505b600073ffffffffffffffffffffffffffffffffffffffff168473ffffffffffffffffffffffffffffffffffffffff161415610b355760005b8351811015610b3357828181518110610ab1577f4e487b7100000000000000000000000000000000000000000000000000000000600052603260045260246000fd5b602002602001015160036000868481518110610af6577f4e487b7100000000000000000000000000000000000000000000000000000000600052603260045260246000fd5b602002602001015181526020019081526020016000206000828254610b1b9190611fb1565b9250508190555080610b2c906120fe565b9050610a6f565b505b505050505050565b6000808273ffffffffffffffffffffffffffffffffffffffff163b119050919050565b505050505050565b60007f01ffc9a7000000000000000000000000000000000000000000000000000000007bffffffffffffffffffffffffffffffffffffffffffffffffffffffff1916827bffffffffffffffffffffffffffffffffffffffffffffffffffffffff1916149050919050565b600033905090565b8151835114610c1e576040517f08c379a0000000000000000000000000000000000000000000000000000000008152600401610c1590611e01565b60405180910390fd5b600073ffffffffffffffffffffffffffffffffffffffff168473ffffffffffffffffffffffffffffffffffffffff161415610c8e576040517f08c379a0000000000000000000000000000000000000000000000000000000008152600401610c8590611d61565b60405180910390fd5b6000610c98610bd2565b9050610ca881878787878761127e565b60005b8451811015610ea5576000858281518110610cef577f4e487b7100000000000000000000000000000000000000000000000000000000600052603260045260246000fd5b602002602001015190506000858381518110610d34577f4e487b7100000000000000000000000000000000000000000000000000000000600052603260045260246000fd5b60200260200101519050600080600084815260200190815260200160002060008b73ffffffffffffffffffffffffffffffffffffffff1673ffffffffffffffffffffffffffffffffffffffff16815260200190815260200160002054905081811015610dd5576040517f08c379a0000000000000000000000000000000000000000000000000000000008152600401610dcc90611da1565b60405180910390fd5b81810360008085815260200190815260200160002060008c73ffffffffffffffffffffffffffffffffffffffff1673ffffffffffffffffffffffffffffffffffffffff168152602001908152602001600020819055508160008085815260200190815260200160002060008b73ffffffffffffffffffffffffffffffffffffffff1673ffffffffffffffffffffffffffffffffffffffff1681526020019081526020016000206000828254610e8a9190611f5b565b9250508190555050505080610e9e906120fe565b9050610cab565b508473ffffffffffffffffffffffffffffffffffffffff168673ffffffffffffffffffffffffffffffffffffffff168273ffffffffffffffffffffffffffffffffffffffff167f4a39dc06d4c0dbc64b70af90fd698a233a518aa5d07e595d983b8c0526c8f7fb8787604051610f1c929190611c6d565b60405180910390a4610f32818787878787611294565b505050505050565b8173ffffffffffffffffffffffffffffffffffffffff168373ffffffffffffffffffffffffffffffffffffffff161415610fa9576040517f08c379a0000000000000000000000000000000000000000000000000000000008152600401610fa090611dc1565b60405180910390fd5b80600160008573ffffffffffffffffffffffffffffffffffffffff1673ffffffffffffffffffffffffffffffffffffffff16815260200190815260200160002060008473ffffffffffffffffffffffffffffffffffffffff1673ffffffffffffffffffffffffffffffffffffffff16815260200190815260200160002060006101000a81548160ff0219169083151502179055508173ffffffffffffffffffffffffffffffffffffffff168373ffffffffffffffffffffffffffffffffffffffff167f17307eab39ab6107e8899845ad3d59bd9653f200f220920489ca2b5937696c318360405161109a9190611ca4565b60405180910390a3505050565b600073ffffffffffffffffffffffffffffffffffffffff168473ffffffffffffffffffffffffffffffffffffffff161415611117576040517f08c379a000000000000000000000000000000000000000000000000000000000815260040161110e90611d61565b60405180910390fd5b60006004600085815260200190815260200160002060008773ffffffffffffffffffffffffffffffffffffffff1673ffffffffffffffffffffffffffffffffffffffff168152602001908152602001600020600001549050828110156111b2576040517f08c379a00000000000000000000000000000000000000000000000000000000081526004016111a990611da1565b60405180910390fd5b8281036004600086815260200190815260200160002060008873ffffffffffffffffffffffffffffffffffffffff1673ffffffffffffffffffffffffffffffffffffffff16815260200190815260200160002060000181905550826004600086815260200190815260200160002060008773ffffffffffffffffffffffffffffffffffffffff1673ffffffffffffffffffffffffffffffffffffffff168152602001908152602001600020600001600082825461126f9190611f5b565b92505081905550505050505050565b61128c86868686868661092b565b505050505050565b6112b38473ffffffffffffffffffffffffffffffffffffffff16610b3d565b15611473578373ffffffffffffffffffffffffffffffffffffffff1663bc197c8187878686866040518663ffffffff1660e01b81526004016112f9959493929190611be3565b602060405180830381600087803b15801561131357600080fd5b505af192505050801561134457506040513d601f19601f82011682018060405250810190611341919061190f565b60015b6113ea576113506121d4565b806308c379a014156113ad575061136561252a565b8061137057506113af565b806040517f08c379a00000000000000000000000000000000000000000000000000000000081526004016113a49190611cbf565b60405180910390fd5b505b6040517f08c379a00000000000000000000000000000000000000000000000000000000081526004016113e190611ce1565b60405180910390fd5b63bc197c8160e01b7bffffffffffffffffffffffffffffffffffffffffffffffffffffffff1916817bffffffffffffffffffffffffffffffffffffffffffffffffffffffff191614611471576040517f08c379a000000000000000000000000000000000000000000000000000000000815260040161146890611d01565b60405180910390fd5b505b505050505050565b600061148e61148984611e61565b611e3c565b905080838252602082019050828560208602820111156114ad57600080fd5b60005b858110156114dd57816114c38882611591565b8452602084019350602083019250506001810190506114b0565b5050509392505050565b60006114fa6114f584611e8d565b611e3c565b9050808382526020820190508285602086028201111561151957600080fd5b60005b85811015611549578161152f8882611663565b84526020840193506020830192505060018101905061151c565b5050509392505050565b600061156661156184611eb9565b611e3c565b90508281526020810184848401111561157e57600080fd5b611589848285612059565b509392505050565b6000813590506115a0816125c0565b92915050565b600082601f8301126115b757600080fd5b81356115c784826020860161147b565b91505092915050565b600082601f8301126115e157600080fd5b81356115f18482602086016114e7565b91505092915050565b600081359050611609816125d7565b92915050565b60008135905061161e816125ee565b92915050565b600081519050611633816125ee565b92915050565b600082601f83011261164a57600080fd5b813561165a848260208601611553565b91505092915050565b60008135905061167281612605565b92915050565b6000806040838503121561168b57600080fd5b600061169985828601611591565b92505060206116aa85828601611591565b9150509250929050565b600080600080600060a086880312156116cc57600080fd5b60006116da88828901611591565b95505060206116eb88828901611591565b945050604086013567ffffffffffffffff81111561170857600080fd5b611714888289016115d0565b935050606086013567ffffffffffffffff81111561173157600080fd5b61173d888289016115d0565b925050608086013567ffffffffffffffff81111561175a57600080fd5b61176688828901611639565b9150509295509295909350565b600080600080600060a0868803121561178b57600080fd5b600061179988828901611591565b95505060206117aa88828901611591565b94505060406117bb88828901611663565b93505060606117cc88828901611663565b925050608086013567ffffffffffffffff8111156117e957600080fd5b6117f588828901611639565b9150509295509295909350565b6000806040838503121561181557600080fd5b600061182385828601611591565b9250506020611834858286016115fa565b9150509250929050565b6000806040838503121561185157600080fd5b600061185f85828601611591565b925050602061187085828601611663565b9150509250929050565b6000806040838503121561188d57600080fd5b600083013567ffffffffffffffff8111156118a757600080fd5b6118b3858286016115a6565b925050602083013567ffffffffffffffff8111156118d057600080fd5b6118dc858286016115d0565b9150509250929050565b6000602082840312156118f857600080fd5b60006119068482850161160f565b91505092915050565b60006020828403121561192157600080fd5b600061192f84828501611624565b91505092915050565b60006020828403121561194a57600080fd5b600061195884828501611663565b91505092915050565b600061196d8383611bc5565b60208301905092915050565b61198281611fe5565b82525050565b600061199382611efa565b61199d8185611f28565b93506119a883611eea565b8060005b838110156119d95781516119c08882611961565b97506119cb83611f1b565b9250506001810190506119ac565b5085935050505092915050565b6119ef81611ff7565b82525050565b6000611a0082611f05565b611a0a8185611f39565b9350611a1a818560208601612068565b611a23816121f6565b840191505092915050565b6000611a3982611f10565b611a438185611f4a565b9350611a53818560208601612068565b611a5c816121f6565b840191505092915050565b6000611a74603483611f4a565b9150611a7f82612214565b604082019050919050565b6000611a97602883611f4a565b9150611aa282612263565b604082019050919050565b6000611aba602b83611f4a565b9150611ac5826122b2565b604082019050919050565b6000611add602983611f4a565b9150611ae882612301565b604082019050919050565b6000611b00602583611f4a565b9150611b0b82612350565b604082019050919050565b6000611b23603283611f4a565b9150611b2e8261239f565b604082019050919050565b6000611b46602a83611f4a565b9150611b51826123ee565b604082019050919050565b6000611b69602983611f4a565b9150611b748261243d565b604082019050919050565b6000611b8c602983611f4a565b9150611b978261248c565b604082019050919050565b6000611baf602883611f4a565b9150611bba826124db565b604082019050919050565b611bce8161204f565b82525050565b611bdd8161204f565b82525050565b600060a082019050611bf86000830188611979565b611c056020830187611979565b8181036040830152611c178186611988565b90508181036060830152611c2b8185611988565b90508181036080830152611c3f81846119f5565b90509695505050505050565b60006020820190508181036000830152611c658184611988565b905092915050565b60006040820190508181036000830152611c878185611988565b90508181036020830152611c9b8184611988565b90509392505050565b6000602082019050611cb960008301846119e6565b92915050565b60006020820190508181036000830152611cd98184611a2e565b905092915050565b60006020820190508181036000830152611cfa81611a67565b9050919050565b60006020820190508181036000830152611d1a81611a8a565b9050919050565b60006020820190508181036000830152611d3a81611aad565b9050919050565b60006020820190508181036000830152611d5a81611ad0565b9050919050565b60006020820190508181036000830152611d7a81611af3565b9050919050565b60006020820190508181036000830152611d9a81611b16565b9050919050565b60006020820190508181036000830152611dba81611b39565b9050919050565b60006020820190508181036000830152611dda81611b5c565b9050919050565b60006020820190508181036000830152611dfa81611b7f565b9050919050565b60006020820190508181036000830152611e1a81611ba2565b9050919050565b6000602082019050611e366000830184611bd4565b92915050565b6000611e46611e57565b9050611e5282826120cd565b919050565b6000604051905090565b600067ffffffffffffffff821115611e7c57611e7b6121a5565b5b602082029050602081019050919050565b600067ffffffffffffffff821115611ea857611ea76121a5565b5b602082029050602081019050919050565b600067ffffffffffffffff821115611ed457611ed36121a5565b5b611edd826121f6565b9050602081019050919050565b6000819050602082019050919050565b600081519050919050565b600081519050919050565b600081519050919050565b6000602082019050919050565b600082825260208201905092915050565b600082825260208201905092915050565b600082825260208201905092915050565b6000611f668261204f565b9150611f718361204f565b9250827fffffffffffffffffffffffffffffffffffffffffffffffffffffffffffffffff03821115611fa657611fa5612147565b5b828201905092915050565b6000611fbc8261204f565b9150611fc78361204f565b925082821015611fda57611fd9612147565b5b828203905092915050565b6000611ff08261202f565b9050919050565b60008115159050919050565b60007fffffffff0000000000000000000000000000000000000000000000000000000082169050919050565b600073ffffffffffffffffffffffffffffffffffffffff82169050919050565b6000819050919050565b82818337600083830152505050565b60005b8381101561208657808201518184015260208101905061206b565b83811115612095576000848401525b50505050565b600060028204905060018216806120b357607f821691505b602082108114156120c7576120c6612176565b5b50919050565b6120d6826121f6565b810181811067ffffffffffffffff821117156120f5576120f46121a5565b5b80604052505050565b60006121098261204f565b91507fffffffffffffffffffffffffffffffffffffffffffffffffffffffffffffffff82141561213c5761213b612147565b5b600182019050919050565b7f4e487b7100000000000000000000000000000000000000000000000000000000600052601160045260246000fd5b7f4e487b7100000000000000000000000000000000000000000000000000000000600052602260045260246000fd5b7f4e487b7100000000000000000000000000000000000000000000000000000000600052604160045260246000fd5b600060033d11156121f35760046000803e6121f0600051612207565b90505b90565b6000601f19601f8301169050919050565b60008160e01c9050919050565b7f455243313135353a207472616e7366657220746f206e6f6e204552433131353560008201527f526563656976657220696d706c656d656e746572000000000000000000000000602082015250565b7f455243313135353a204552433131353552656365697665722072656a6563746560008201527f6420746f6b656e73000000000000000000000000000000000000000000000000602082015250565b7f455243313135353a2062616c616e636520717565727920666f7220746865207a60008201527f65726f2061646472657373000000000000000000000000000000000000000000602082015250565b7f455243313135353a2063616c6c6572206973206e6f74206f776e6572206e6f7260008201527f20617070726f7665640000000000000000000000000000000000000000000000602082015250565b7f455243313135353a207472616e7366657220746f20746865207a65726f20616460008201527f6472657373000000000000000000000000000000000000000000000000000000602082015250565b7f455243313135353a207472616e736665722063616c6c6572206973206e6f742060008201527f6f776e6572206e6f7220617070726f7665640000000000000000000000000000602082015250565b7f455243313135353a20696e73756666696369656e742062616c616e636520666f60008201527f72207472616e7366657200000000000000000000000000000000000000000000602082015250565b7f455243313135353a2073657474696e6720617070726f76616c2073746174757360008201527f20666f722073656c660000000000000000000000000000000000000000000000602082015250565b7f455243313135353a206163636f756e747320616e6420696473206c656e67746860008201527f206d69736d617463680000000000000000000000000000000000000000000000602082015250565b7f455243313135353a2069647320616e6420616d6f756e7473206c656e6774682060008201527f6d69736d61746368000000000000000000000000000000000000000000000000602082015250565b600060443d101561253a576125bd565b612542611e57565b60043d036004823e80513d602482011167ffffffffffffffff8211171561256a5750506125bd565b808201805167ffffffffffffffff81111561258857505050506125bd565b80602083010160043d0385018111156125a55750505050506125bd565b6125b4826020018501866120cd565b82955050505050505b90565b6125c981611fe5565b81146125d457600080fd5b50565b6125e081611ff7565b81146125eb57600080fd5b50565b6125f781612003565b811461260257600080fd5b50565b61260e8161204f565b811461261957600080fd5b5056fea2646970667358221220b95eed26efc83e38f57714b70459459486bd716d1420ac336c8504277869545a64736f6c6343000801003368747470733a2f2f67616d652e6578616d706c652f6170692f6974656d2f7b69647d2e6a736f6e",
  "linkReferences": {},
  "deployedLinkReferences": {}
}