{
  "_format": "hh-sol-artifact-1",
  "contractName": "CropFarm",
  "sourceName": "contracts/Token.sol",
  "abi": [
    {
      "inputs": [],
      "stateMutability": "nonpayable",
      "type": "constructor"
    },
    {
      "anonymous": false,
      "inputs": [
        {
          "indexed": true,
          "internalType": "address",
          "name": "account",
          "type": "address"
        },
        {
          "indexed": true,
          "internalType": "address",
          "name": "operator",
          "type": "address"
        },
        {
          "indexed": false,
          "internalType": "bool",
          "name": "approved",
          "type": "bool"
        }
      ],
      "name": "ApprovalForAll",
      "type": "event"
    },
    {
      "anonymous": false,
      "inputs": [
        {
          "indexed": true,
          "internalType": "address",
          "name": "operator",
          "type": "address"
        },
        {
          "indexed": true,
          "internalType": "address",
          "name": "from",
          "type": "address"
        },
        {
          "indexed": true,
          "internalType": "address",
          "name": "to",
          "type": "address"
        },
        {
          "indexed": false,
          "internalType": "uint256[]",
          "name": "ids",
          "type": "uint256[]"
        },
        {
          "indexed": false,
          "internalType": "uint256[]",
          "name": "values",
          "type": "uint256[]"
        }
      ],
      "name": "TransferBatch",
      "type": "event"
    },
    {
      "anonymous": false,
      "inputs": [
        {
          "indexed": true,
          "internalType": "address",
          "name": "operator",
          "type": "address"
        },
        {
          "indexed": true,
          "internalType": "address",
          "name": "from",
          "type": "address"
        },
        {
          "indexed": true,
          "internalType": "address",
          "name": "to",
          "type": "address"
        },
        {
          "indexed": false,
          "internalType": "uint256",
          "name": "id",
          "type": "uint256"
        },
        {
          "indexed": false,
          "internalType": "uint256",
          "name": "value",
          "type": "uint256"
        }
      ],
      "name": "TransferSingle",
      "type": "event"
    },
    {
      "anonymous": false,
      "inputs": [
        {
          "indexed": false,
          "internalType": "string",
          "name": "value",
          "type": "string"
        },
        {
          "indexed": true,
          "internalType": "uint256",
          "name": "id",
          "type": "uint256"
        }
      ],
      "name": "URI",
      "type": "event"
    },
    {
      "inputs": [],
      "name": "CARROT",
      "outputs": [
        {
          "internalType": "uint256",
          "name": "",
          "type": "uint256"
        }
      ],
      "stateMutability": "view",
      "type": "function"
    },
    {
      "inputs": [],
      "name": "MELON",
      "outputs": [
        {
          "internalType": "uint256",
          "name": "",
          "type": "uint256"
        }
      ],
      "stateMutability": "view",
      "type": "function"
    },
    {
      "inputs": [],
      "name": "PUMPKIN",
      "outputs": [
        {
          "internalType": "uint256",
          "name": "",
          "type": "uint256"
        }
      ],
      "stateMutability": "view",
      "type": "function"
    },
    {
      "inputs": [],
      "name": "WHEAT",
      "outputs": [
        {
          "internalType": "uint256",
          "name": "",
          "type": "uint256"
        }
      ],
      "stateMutability": "view",
      "type": "function"
    },
    {
      "inputs": [
        {
          "internalType": "address",
          "name": "account",
          "type": "address"
        },
        {
          "internalType": "uint256",
          "name": "id",
          "type": "uint256"
        }
      ],
      "name": "balanceOf",
      "outputs": [
        {
          "internalType": "uint256",
          "name": "",
          "type": "uint256"
        }
      ],
      "stateMutability": "view",
      "type": "function"
    },
    {
      "inputs": [
        {
          "internalType": "address[]",
          "name": "accounts",
          "type": "address[]"
        },
        {
          "internalType": "uint256[]",
          "name": "ids",
          "type": "uint256[]"
        }
      ],
      "name": "balanceOfBatch",
      "outputs": [
        {
          "internalType": "uint256[]",
          "name": "",
          "type": "uint256[]"
        }
      ],
      "stateMutability": "view",
      "type": "function"
    },
    {
      "inputs": [
        {
          "internalType": "uint256",
          "name": "id",
          "type": "uint256"
        }
      ],
      "name": "exists",
      "outputs": [
        {
          "internalType": "bool",
          "name": "",
          "type": "bool"
        }
      ],
      "stateMutability": "view",
      "type": "function"
    },
    {
      "inputs": [
        {
          "internalType": "address",
          "name": "account",
          "type": "address"
        },
        {
          "internalType": "address",
          "name": "operator",
          "type": "address"
        }
      ],
      "name": "isApprovedForAll",
      "outputs": [
        {
          "internalType": "bool",
          "name": "",
          "type": "bool"
        }
      ],
      "stateMutability": "view",
      "type": "function"
    },
    {
      "inputs": [
        {
          "internalType": "address",
          "name": "from",
          "type": "address"
        },
        {
          "internalType": "address",
          "name": "to",
          "type": "address"
        },
        {
          "internalType": "uint256[]",
          "name": "ids",
          "type": "uint256[]"
        },
        {
          "internalType": "uint256[]",
          "name": "amounts",
          "type": "uint256[]"
        },
        {
          "internalType": "bytes",
          "name": "data",
          "type": "bytes"
        }
      ],
      "name": "safeBatchTransferFrom",
      "outputs": [],
      "stateMutability": "nonpayable",
      "type": "function"
    },
    {
      "inputs": [
        {
          "internalType": "address",
          "name": "from",
          "type": "address"
        },
        {
          "internalType": "address",
          "name": "to",
          "type": "address"
        },
        {
          "internalType": "uint256",
          "name": "id",
          "type": "uint256"
        },
        {
          "internalType": "uint256",
          "name": "amount",
          "type": "uint256"
        },
        {
          "internalType": "bytes",
          "name": "data",
          "type": "bytes"
        }
      ],
      "name": "safeTransferFrom",
      "outputs": [],
      "stateMutability": "nonpayable",
      "type": "function"
    },
    {
      "inputs": [
        {
          "internalType": "address",
          "name": "operator",
          "type": "address"
        },
        {
          "internalType": "bool",
          "name": "approved",
          "type": "bool"
        }
      ],
      "name": "setApprovalForAll",
      "outputs": [],
      "stateMutability": "nonpayable",
      "type": "function"
    },
    {
      "inputs": [
        {
          "internalType": "bytes4",
          "name": "interfaceId",
          "type": "bytes4"
        }
      ],
      "name": "supportsInterface",
      "outputs": [
        {
          "internalType": "bool",
          "name": "",
          "type": "bool"
        }
      ],
      "stateMutability": "view",
      "type": "function"
    },
    {
      "inputs": [
        {
          "internalType": "uint256",
          "name": "id",
          "type": "uint256"
        }
      ],
      "name": "totalSupply",
      "outputs": [
        {
          "internalType": "uint256",
          "name": "",
          "type": "uint256"
        }
      ],
      "stateMutability": "view",
      "type": "function"
    },
    {
      "inputs": [
        {
          "internalType": "uint256",
          "name": "",
          "type": "uint256"
        }
      ],
      "name": "uri",
      "outputs": [
        {
          "internalType": "string",
          "name": "",
          "type": "string"
        }
      ],
      "stateMutability": "view",
      "type": "function"
    },
    {
      "inputs": [
        {
          "internalType": "address",
          "name": "_account",
          "type": "address"
        },
        {
          "internalType": "uint256",
          "name": "_id",
          "type": "uint256"
        },
        {
          "internalType": "uint256",
          "name": "_member",
          "type": "uint256"
        }
      ],
      "name": "viewValues",
      "outputs": [
        {
          "internalType": "uint256",
          "name": "",
          "type": "uint256"
        }
      ],
      "stateMutability": "view",
      "type": "function"
    }
  ],
  "bytecode": "0x60806040523480156200001157600080fd5b5060405180606001604052806027815260200162003e4c602791396200003d816200014d60201b60201c565b506200006a336000670de0b6b3a7640000604051806020016040528060008152506200016960201b60201c565b6200009a3360016b033b2e3c9fd0803ce8000000604051806020016040528060008152506200016960201b60201c565b620000bf3360026001604051806020016040528060008152506200016960201b60201c565b620000e7336003633b9aca00604051806020016040528060008152506200016960201b60201c565b670de0b6b3a76400006004600080815260200190815260200160002060003373ffffffffffffffffffffffffffffffffffffffff1673ffffffffffffffffffffffffffffffffffffffff168152602001908152602001600020600001819055506200105c565b80600290805190602001906200016592919062000888565b5050565b600073ffffffffffffffffffffffffffffffffffffffff168473ffffffffffffffffffffffffffffffffffffffff161415620001dc576040517f08c379a0000000000000000000000000000000000000000000000000000000008152600401620001d39062000b60565b60405180910390fd5b6000620001ee6200032e60201b60201c565b9050620002278160008762000209886200033660201b60201c565b6200021a886200033660201b60201c565b87620003ff60201b60201c565b8260008086815260200190815260200160002060008773ffffffffffffffffffffffffffffffffffffffff1673ffffffffffffffffffffffffffffffffffffffff168152602001908152602001600020600082825462000288919062000bf1565b925050819055508473ffffffffffffffffffffffffffffffffffffffff16600073ffffffffffffffffffffffffffffffffffffffff168273ffffffffffffffffffffffffffffffffffffffff167fc3d58168c5ae7397731d063d5bbf3d657854427343f4c083240f7aacaa2d0f6287876040516200030892919062000b82565b60405180910390a462000327816000878787876200042260201b60201c565b5050505050565b600033905090565b60606000600167ffffffffffffffff8111156200037c577f4e487b7100000000000000000000000000000000000000000000000000000000600052604160045260246000fd5b604051908082528060200260200182016040528015620003ab5781602001602082028036833780820191505090505b5090508281600081518110620003ea577f4e487b7100000000000000000000000000000000000000000000000000000000600052603260045260246000fd5b60200260200101818152505080915050919050565b6200041a8686868686866200062c60201b62000a9f1760201c565b505050505050565b6200044e8473ffffffffffffffffffffffffffffffffffffffff166200085d60201b62000cb11760201c565b1562000624578373ffffffffffffffffffffffffffffffffffffffff1663f23a6e6187878686866040518663ffffffff1660e01b81526004016200049795949392919062000a94565b602060405180830381600087803b158015620004b257600080fd5b505af1925050508015620004e657506040513d601f19601f82011682018060405250810190620004e391906200094f565b60015b6200059857620004f562000e70565b806308c379a014156200055957506200050d62000fa0565b806200051a57506200055b565b806040517f08c379a000000000000000000000000000000000000000000000000000000000815260040162000550919062000af8565b60405180910390fd5b505b6040517f08c379a00000000000000000000000000000000000000000000000000000000081526004016200058f9062000b1c565b60405180910390fd5b63f23a6e6160e01b7bffffffffffffffffffffffffffffffffffffffffffffffffffffffff1916817bffffffffffffffffffffffffffffffffffffffffffffffffffffffff19161462000622576040517f08c379a0000000000000000000000000000000000000000000000000000000008152600401620006199062000b3e565b60405180910390fd5b505b505050505050565b620006478686868686866200088060201b62000cd41760201c565b600073ffffffffffffffffffffffffffffffffffffffff168573ffffffffffffffffffffffffffffffffffffffff1614156200074e5760005b83518110156200074c57828181518110620006c4577f4e487b7100000000000000000000000000000000000000000000000000000000600052603260045260246000fd5b6020026020010151600360008684815181106200070a577f4e487b7100000000000000000000000000000000000000000000000000000000600052603260045260246000fd5b60200260200101518152602001908152602001600020600082825462000731919062000bf1565b9250508190555080620007449062000d95565b905062000680565b505b600073ffffffffffffffffffffffffffffffffffffffff168473ffffffffffffffffffffffffffffffffffffffff161415620008555760005b83518110156200085357828181518110620007cb577f4e487b7100000000000000000000000000000000000000000000000000000000600052603260045260246000fd5b60200260200101516003600086848151811062000811577f4e487b7100000000000000000000000000000000000000000000000000000000600052603260045260246000fd5b60200260200101518152602001908152602001600020600082825462000838919062000c4e565b92505081905550806200084b9062000d95565b905062000787565b505b505050505050565b6000808273ffffffffffffffffffffffffffffffffffffffff163b119050919050565b505050505050565b828054620008969062000d29565b90600052602060002090601f016020900481019282620008ba576000855562000906565b82601f10620008d557805160ff191683800117855562000906565b8280016001018555821562000906579182015b8281111562000905578251825591602001919060010190620008e8565b5b50905062000915919062000919565b5090565b5b80821115620009345760008160009055506001016200091a565b5090565b600081519050620009498162001042565b92915050565b6000602082840312156200096257600080fd5b6000620009728482850162000938565b91505092915050565b620009868162000c89565b82525050565b6000620009998262000bb9565b620009a5818562000bcf565b9350620009b781856020860162000cf3565b620009c28162000e95565b840191505092915050565b6000620009da8262000bc4565b620009e6818562000be0565b9350620009f881856020860162000cf3565b62000a038162000e95565b840191505092915050565b600062000a1d60348362000be0565b915062000a2a8262000eb3565b604082019050919050565b600062000a4460288362000be0565b915062000a518262000f02565b604082019050919050565b600062000a6b60218362000be0565b915062000a788262000f51565b604082019050919050565b62000a8e8162000ce9565b82525050565b600060a08201905062000aab60008301886200097b565b62000aba60208301876200097b565b62000ac9604083018662000a83565b62000ad8606083018562000a83565b818103608083015262000aec81846200098c565b90509695505050505050565b6000602082019050818103600083015262000b148184620009cd565b905092915050565b6000602082019050818103600083015262000b378162000a0e565b9050919050565b6000602082019050818103600083015262000b598162000a35565b9050919050565b6000602082019050818103600083015262000b7b8162000a5c565b9050919050565b600060408201905062000b99600083018562000a83565b62000ba8602083018462000a83565b9392505050565b6000604051905090565b600081519050919050565b600081519050919050565b600082825260208201905092915050565b600082825260208201905092915050565b600062000bfe8262000ce9565b915062000c0b8362000ce9565b9250827fffffffffffffffffffffffffffffffffffffffffffffffffffffffffffffffff0382111562000c435762000c4262000de3565b5b828201905092915050565b600062000c5b8262000ce9565b915062000c688362000ce9565b92508282101562000c7e5762000c7d62000de3565b5b828203905092915050565b600062000c968262000cc9565b9050919050565b60007fffffffff0000000000000000000000000000000000000000000000000000000082169050919050565b600073ffffffffffffffffffffffffffffffffffffffff82169050919050565b6000819050919050565b60005b8381101562000d1357808201518184015260208101905062000cf6565b8381111562000d23576000848401525b50505050565b6000600282049050600182168062000d4257607f821691505b6020821081141562000d595762000d5862000e12565b5b50919050565b62000d6a8262000e95565b810181811067ffffffffffffffff8211171562000d8c5762000d8b62000e41565b5b80604052505050565b600062000da28262000ce9565b91507fffffffffffffffffffffffffffffffffffffffffffffffffffffffffffffffff82141562000dd85762000dd762000de3565b5b600182019050919050565b7f4e487b7100000000000000000000000000000000000000000000000000000000600052601160045260246000fd5b7f4e487b7100000000000000000000000000000000000000000000000000000000600052602260045260246000fd5b7f4e487b7100000000000000000000000000000000000000000000000000000000600052604160045260246000fd5b600060033d111562000e925760046000803e62000e8f60005162000ea6565b90505b90565b6000601f19601f8301169050919050565b60008160e01c9050919050565b7f455243313135353a207472616e7366657220746f206e6f6e204552433131353560008201527f526563656976657220696d706c656d656e746572000000000000000000000000602082015250565b7f455243313135353a204552433131353552656365697665722072656a6563746560008201527f6420746f6b656e73000000000000000000000000000000000000000000000000602082015250565b7f455243313135353a206d696e7420746f20746865207a65726f2061646472657360008201527f7300000000000000000000000000000000000000000000000000000000000000602082015250565b600060443d101562000fb2576200103f565b62000fbc62000baf565b60043d036004823e80513d602482011167ffffffffffffffff8211171562000fe65750506200103f565b808201805167ffffffffffffffff8111156200100657505050506200103f565b80602083010160043d038501811115620010255750505050506200103f565b620010368260200185018662000d5f565b82955050505050505b90565b6200104d8162000c9d565b81146200105957600080fd5b50565b612de0806200106c6000396000f3fe608060405234801561001057600080fd5b50600436106100f45760003560e01c8063a22cb46511610097578063e985e9c511610066578063e985e9c5146102bd578063f242432a146102ed578063f43e391814610309578063ff2dff2d14610327576100f4565b8063a22cb46514610235578063bd85b03914610251578063bf701ed414610281578063ccc3aeec1461029f576100f4565b80632eb2c2d6116100d35780632eb2c2d6146101895780634b21b434146101a55780634e1273f4146101d55780634f558e7914610205576100f4565b8062fdd58e146100f957806301ffc9a7146101295780630e89341c14610159575b600080fd5b610113600480360381019061010e9190611efa565b610345565b6040516101209190612586565b60405180910390f35b610143600480360381019061013e9190611ff1565b61040e565b6040516101509190612409565b60405180910390f35b610173600480360381019061016e9190612043565b6104f0565b6040516101809190612424565b60405180910390f35b6101a3600480360381019061019e9190611d70565b610584565b005b6101bf60048036038101906101ba9190611f36565b610625565b6040516101cc9190612586565b60405180910390f35b6101ef60048036038101906101ea9190611f85565b61075e565b6040516101fc91906123b0565b60405180910390f35b61021f600480360381019061021a9190612043565b61090f565b60405161022c9190612409565b60405180910390f35b61024f600480360381019061024a9190611ebe565b610923565b005b61026b60048036038101906102669190612043565b610939565b6040516102789190612586565b60405180910390f35b610289610956565b6040516102969190612586565b60405180910390f35b6102a761095b565b6040516102b49190612586565b60405180910390f35b6102d760048036038101906102d29190611d34565b610960565b6040516102e49190612409565b60405180910390f35b61030760048036038101906103029190611e2f565b6109f4565b005b610311610a95565b60405161031e9190612586565b60405180910390f35b61032f610a9a565b60405161033c9190612586565b60405180910390f35b60008073ffffffffffffffffffffffffffffffffffffffff168373ffffffffffffffffffffffffffffffffffffffff1614156103b6576040517f08c379a00000000000000000000000000000000000000000000000000000000081526004016103ad90612486565b60405180910390fd5b60008083815260200190815260200160002060008473ffffffffffffffffffffffffffffffffffffffff1673ffffffffffffffffffffffffffffffffffffffff16815260200190815260200160002054905092915050565b60007fd9b67a26000000000000000000000000000000000000000000000000000000007bffffffffffffffffffffffffffffffffffffffffffffffffffffffff1916827bffffffffffffffffffffffffffffffffffffffffffffffffffffffff191614806104d957507f0e89341c000000000000000000000000000000000000000000000000000000007bffffffffffffffffffffffffffffffffffffffffffffffffffffffff1916827bffffffffffffffffffffffffffffffffffffffffffffffffffffffff1916145b806104e957506104e882610cdc565b5b9050919050565b6060600280546104ff90612829565b80601f016020809104026020016040519081016040528092919081815260200182805461052b90612829565b80156105785780601f1061054d57610100808354040283529160200191610578565b820191906000526020600020905b81548152906001019060200180831161055b57829003601f168201915b50505050509050919050565b61058c610d46565b73ffffffffffffffffffffffffffffffffffffffff168573ffffffffffffffffffffffffffffffffffffffff1614806105d257506105d1856105cc610d46565b610960565b5b610611576040517f08c379a0000000000000000000000000000000000000000000000000000000008152600401610608906124e6565b60405180910390fd5b61061e8585858585610d4e565b5050505050565b60008082141561068a576004600084815260200190815260200160002060008573ffffffffffffffffffffffffffffffffffffffff1673ffffffffffffffffffffffffffffffffffffffff168152602001908152602001600020600001549050610757565b60018214156106ee576004600084815260200190815260200160002060008573ffffffffffffffffffffffffffffffffffffffff1673ffffffffffffffffffffffffffffffffffffffff168152602001908152602001600020600101549050610757565b6002821415610752576004600084815260200190815260200160002060008573ffffffffffffffffffffffffffffffffffffffff1673ffffffffffffffffffffffffffffffffffffffff168152602001908152602001600020600201549050610757565b600090505b9392505050565b606081518351146107a4576040517f08c379a000000000000000000000000000000000000000000000000000000000815260040161079b90612546565b60405180910390fd5b6000835167ffffffffffffffff8111156107e7577f4e487b7100000000000000000000000000000000000000000000000000000000600052604160045260246000fd5b6040519080825280602002602001820160405280156108155781602001602082028036833780820191505090505b50905060005b8451811015610904576108ae858281518110610860577f4e487b7100000000000000000000000000000000000000000000000000000000600052603260045260246000fd5b60200260200101518583815181106108a1577f4e487b7100000000000000000000000000000000000000000000000000000000600052603260045260246000fd5b6020026020010151610345565b8282815181106108e7577f4e487b7100000000000000000000000000000000000000000000000000000000600052603260045260246000fd5b602002602001018181525050806108fd9061288c565b905061081b565b508091505092915050565b60008061091b83610939565b119050919050565b61093561092e610d46565b83836110ae565b5050565b600060036000838152602001908152602001600020549050919050565b600381565b600181565b6000600160008473ffffffffffffffffffffffffffffffffffffffff1673ffffffffffffffffffffffffffffffffffffffff16815260200190815260200160002060008373ffffffffffffffffffffffffffffffffffffffff1673ffffffffffffffffffffffffffffffffffffffff16815260200190815260200160002060009054906101000a900460ff16905092915050565b6109fc610d46565b73ffffffffffffffffffffffffffffffffffffffff168573ffffffffffffffffffffffffffffffffffffffff161480610a425750610a4185610a3c610d46565b610960565b5b610a81576040517f08c379a0000000000000000000000000000000000000000000000000000000008152600401610a78906124a6565b60405180910390fd5b610a8e858585858561121b565b5050505050565b600281565b600081565b610aad868686868686610cd4565b600073ffffffffffffffffffffffffffffffffffffffff168573ffffffffffffffffffffffffffffffffffffffff161415610bab5760005b8351811015610ba957828181518110610b27577f4e487b7100000000000000000000000000000000000000000000000000000000600052603260045260246000fd5b602002602001015160036000868481518110610b6c577f4e487b7100000000000000000000000000000000000000000000000000000000600052603260045260246000fd5b602002602001015181526020019081526020016000206000828254610b9191906126e9565b9250508190555080610ba29061288c565b9050610ae5565b505b600073ffffffffffffffffffffffffffffffffffffffff168473ffffffffffffffffffffffffffffffffffffffff161415610ca95760005b8351811015610ca757828181518110610c25577f4e487b7100000000000000000000000000000000000000000000000000000000600052603260045260246000fd5b602002602001015160036000868481518110610c6a577f4e487b7100000000000000000000000000000000000000000000000000000000600052603260045260246000fd5b602002602001015181526020019081526020016000206000828254610c8f919061273f565b9250508190555080610ca09061288c565b9050610be3565b505b505050505050565b6000808273ffffffffffffffffffffffffffffffffffffffff163b119050919050565b505050505050565b60007f01ffc9a7000000000000000000000000000000000000000000000000000000007bffffffffffffffffffffffffffffffffffffffffffffffffffffffff1916827bffffffffffffffffffffffffffffffffffffffffffffffffffffffff1916149050919050565b600033905090565b8151835114610d92576040517f08c379a0000000000000000000000000000000000000000000000000000000008152600401610d8990612566565b60405180910390fd5b600073ffffffffffffffffffffffffffffffffffffffff168473ffffffffffffffffffffffffffffffffffffffff161415610e02576040517f08c379a0000000000000000000000000000000000000000000000000000000008152600401610df9906124c6565b60405180910390fd5b6000610e0c610d46565b9050610e1c81878787878761140b565b60005b8451811015611019576000858281518110610e63577f4e487b7100000000000000000000000000000000000000000000000000000000600052603260045260246000fd5b602002602001015190506000858381518110610ea8577f4e487b7100000000000000000000000000000000000000000000000000000000600052603260045260246000fd5b60200260200101519050600080600084815260200190815260200160002060008b73ffffffffffffffffffffffffffffffffffffffff1673ffffffffffffffffffffffffffffffffffffffff16815260200190815260200160002054905081811015610f49576040517f08c379a0000000000000000000000000000000000000000000000000000000008152600401610f4090612506565b60405180910390fd5b81810360008085815260200190815260200160002060008c73ffffffffffffffffffffffffffffffffffffffff1673ffffffffffffffffffffffffffffffffffffffff168152602001908152602001600020819055508160008085815260200190815260200160002060008b73ffffffffffffffffffffffffffffffffffffffff1673ffffffffffffffffffffffffffffffffffffffff1681526020019081526020016000206000828254610ffe91906126e9565b92505081905550505050806110129061288c565b9050610e1f565b508473ffffffffffffffffffffffffffffffffffffffff168673ffffffffffffffffffffffffffffffffffffffff168273ffffffffffffffffffffffffffffffffffffffff167f4a39dc06d4c0dbc64b70af90fd698a233a518aa5d07e595d983b8c0526c8f7fb87876040516110909291906123d2565b60405180910390a46110a6818787878787611421565b505050505050565b8173ffffffffffffffffffffffffffffffffffffffff168373ffffffffffffffffffffffffffffffffffffffff16141561111d576040517f08c379a000000000000000000000000000000000000000000000000000000000815260040161111490612526565b60405180910390fd5b80600160008573ffffffffffffffffffffffffffffffffffffffff1673ffffffffffffffffffffffffffffffffffffffff16815260200190815260200160002060008473ffffffffffffffffffffffffffffffffffffffff1673ffffffffffffffffffffffffffffffffffffffff16815260200190815260200160002060006101000a81548160ff0219169083151502179055508173ffffffffffffffffffffffffffffffffffffffff168373ffffffffffffffffffffffffffffffffffffffff167f17307eab39ab6107e8899845ad3d59bd9653f200f220920489ca2b5937696c318360405161120e9190612409565b60405180910390a3505050565b600073ffffffffffffffffffffffffffffffffffffffff168473ffffffffffffffffffffffffffffffffffffffff16141561128b576040517f08c379a0000000000000000000000000000000000000000000000000000000008152600401611282906124c6565b60405180910390fd5b60006004600085815260200190815260200160002060008773ffffffffffffffffffffffffffffffffffffffff1673ffffffffffffffffffffffffffffffffffffffff16815260200190815260200160002060000154905082811015611326576040517f08c379a000000000000000000000000000000000000000000000000000000000815260040161131d90612506565b60405180910390fd5b8281611332919061273f565b9050826004600086815260200190815260200160002060008773ffffffffffffffffffffffffffffffffffffffff1673ffffffffffffffffffffffffffffffffffffffff168152602001908152602001600020600001600082825461139791906126e9565b92505081905550806004600086815260200190815260200160002060008873ffffffffffffffffffffffffffffffffffffffff1673ffffffffffffffffffffffffffffffffffffffff168152602001908152602001600020600001819055506114038686868686611608565b505050505050565b611419868686868686610a9f565b505050505050565b6114408473ffffffffffffffffffffffffffffffffffffffff16610cb1565b15611600578373ffffffffffffffffffffffffffffffffffffffff1663bc197c8187878686866040518663ffffffff1660e01b81526004016114869594939291906122ee565b602060405180830381600087803b1580156114a057600080fd5b505af19250505080156114d157506040513d601f19601f820116820180604052508101906114ce919061201a565b60015b611577576114dd612962565b806308c379a0141561153a57506114f2612cb8565b806114fd575061153c565b806040517f08c379a00000000000000000000000000000000000000000000000000000000081526004016115319190612424565b60405180910390fd5b505b6040517f08c379a000000000000000000000000000000000000000000000000000000000815260040161156e90612446565b60405180910390fd5b63bc197c8160e01b7bffffffffffffffffffffffffffffffffffffffffffffffffffffffff1916817bffffffffffffffffffffffffffffffffffffffffffffffffffffffff1916146115fe576040517f08c379a00000000000000000000000000000000000000000000000000000000081526004016115f590612466565b60405180910390fd5b505b505050505050565b600073ffffffffffffffffffffffffffffffffffffffff168473ffffffffffffffffffffffffffffffffffffffff161415611678576040517f08c379a000000000000000000000000000000000000000000000000000000000815260040161166f906124c6565b60405180910390fd5b6000611682610d46565b90506116a28187876116938861188a565b61169c8861188a565b8761140b565b600080600086815260200190815260200160002060008873ffffffffffffffffffffffffffffffffffffffff1673ffffffffffffffffffffffffffffffffffffffff16815260200190815260200160002054905083811015611739576040517f08c379a000000000000000000000000000000000000000000000000000000000815260040161173090612506565b60405180910390fd5b83810360008087815260200190815260200160002060008973ffffffffffffffffffffffffffffffffffffffff1673ffffffffffffffffffffffffffffffffffffffff168152602001908152602001600020819055508360008087815260200190815260200160002060008873ffffffffffffffffffffffffffffffffffffffff1673ffffffffffffffffffffffffffffffffffffffff16815260200190815260200160002060008282546117ee91906126e9565b925050819055508573ffffffffffffffffffffffffffffffffffffffff168773ffffffffffffffffffffffffffffffffffffffff168373ffffffffffffffffffffffffffffffffffffffff167fc3d58168c5ae7397731d063d5bbf3d657854427343f4c083240f7aacaa2d0f62888860405161186b9291906125a1565b60405180910390a4611881828888888888611950565b50505050505050565b60606000600167ffffffffffffffff8111156118cf577f4e487b7100000000000000000000000000000000000000000000000000000000600052604160045260246000fd5b6040519080825280602002602001820160405280156118fd5781602001602082028036833780820191505090505b509050828160008151811061193b577f4e487b7100000000000000000000000000000000000000000000000000000000600052603260045260246000fd5b60200260200101818152505080915050919050565b61196f8473ffffffffffffffffffffffffffffffffffffffff16610cb1565b15611b2f578373ffffffffffffffffffffffffffffffffffffffff1663f23a6e6187878686866040518663ffffffff1660e01b81526004016119b5959493929190612356565b602060405180830381600087803b1580156119cf57600080fd5b505af1925050508015611a0057506040513d601f19601f820116820180604052508101906119fd919061201a565b60015b611aa657611a0c612962565b806308c379a01415611a695750611a21612cb8565b80611a2c5750611a6b565b806040517f08c379a0000000000000000000000000000000000000000000000000000000008152600401611a609190612424565b60405180910390fd5b505b6040517f08c379a0000000000000000000000000000000000000000000000000000000008152600401611a9d90612446565b60405180910390fd5b63f23a6e6160e01b7bffffffffffffffffffffffffffffffffffffffffffffffffffffffff1916817bffffffffffffffffffffffffffffffffffffffffffffffffffffffff191614611b2d576040517f08c379a0000000000000000000000000000000000000000000000000000000008152600401611b2490612466565b60405180910390fd5b505b505050505050565b6000611b4a611b45846125ef565b6125ca565b90508083825260208201905082856020860282011115611b6957600080fd5b60005b85811015611b995781611b7f8882611c4d565b845260208401935060208301925050600181019050611b6c565b5050509392505050565b6000611bb6611bb18461261b565b6125ca565b90508083825260208201905082856020860282011115611bd557600080fd5b60005b85811015611c055781611beb8882611d1f565b845260208401935060208301925050600181019050611bd8565b5050509392505050565b6000611c22611c1d84612647565b6125ca565b905082815260208101848484011115611c3a57600080fd5b611c458482856127e7565b509392505050565b600081359050611c5c81612d4e565b92915050565b600082601f830112611c7357600080fd5b8135611c83848260208601611b37565b91505092915050565b600082601f830112611c9d57600080fd5b8135611cad848260208601611ba3565b91505092915050565b600081359050611cc581612d65565b92915050565b600081359050611cda81612d7c565b92915050565b600081519050611cef81612d7c565b92915050565b600082601f830112611d0657600080fd5b8135611d16848260208601611c0f565b91505092915050565b600081359050611d2e81612d93565b92915050565b60008060408385031215611d4757600080fd5b6000611d5585828601611c4d565b9250506020611d6685828601611c4d565b9150509250929050565b600080600080600060a08688031215611d8857600080fd5b6000611d9688828901611c4d565b9550506020611da788828901611c4d565b945050604086013567ffffffffffffffff811115611dc457600080fd5b611dd088828901611c8c565b935050606086013567ffffffffffffffff811115611ded57600080fd5b611df988828901611c8c565b925050608086013567ffffffffffffffff811115611e1657600080fd5b611e2288828901611cf5565b9150509295509295909350565b600080600080600060a08688031215611e4757600080fd5b6000611e5588828901611c4d565b9550506020611e6688828901611c4d565b9450506040611e7788828901611d1f565b9350506060611e8888828901611d1f565b925050608086013567ffffffffffffffff811115611ea557600080fd5b611eb188828901611cf5565b9150509295509295909350565b60008060408385031215611ed157600080fd5b6000611edf85828601611c4d565b9250506020611ef085828601611cb6565b9150509250929050565b60008060408385031215611f0d57600080fd5b6000611f1b85828601611c4d565b9250506020611f2c85828601611d1f565b9150509250929050565b600080600060608486031215611f4b57600080fd5b6000611f5986828701611c4d565b9350506020611f6a86828701611d1f565b9250506040611f7b86828701611d1f565b9150509250925092565b60008060408385031215611f9857600080fd5b600083013567ffffffffffffffff811115611fb257600080fd5b611fbe85828601611c62565b925050602083013567ffffffffffffffff811115611fdb57600080fd5b611fe785828601611c8c565b9150509250929050565b60006020828403121561200357600080fd5b600061201184828501611ccb565b91505092915050565b60006020828403121561202c57600080fd5b600061203a84828501611ce0565b91505092915050565b60006020828403121561205557600080fd5b600061206384828501611d1f565b91505092915050565b600061207883836122d0565b60208301905092915050565b61208d81612773565b82525050565b600061209e82612688565b6120a881856126b6565b93506120b383612678565b8060005b838110156120e45781516120cb888261206c565b97506120d6836126a9565b9250506001810190506120b7565b5085935050505092915050565b6120fa81612785565b82525050565b600061210b82612693565b61211581856126c7565b93506121258185602086016127f6565b61212e81612984565b840191505092915050565b60006121448261269e565b61214e81856126d8565b935061215e8185602086016127f6565b61216781612984565b840191505092915050565b600061217f6034836126d8565b915061218a826129a2565b604082019050919050565b60006121a26028836126d8565b91506121ad826129f1565b604082019050919050565b60006121c5602b836126d8565b91506121d082612a40565b604082019050919050565b60006121e86029836126d8565b91506121f382612a8f565b604082019050919050565b600061220b6025836126d8565b915061221682612ade565b604082019050919050565b600061222e6032836126d8565b915061223982612b2d565b604082019050919050565b6000612251602a836126d8565b915061225c82612b7c565b604082019050919050565b60006122746029836126d8565b915061227f82612bcb565b604082019050919050565b60006122976029836126d8565b91506122a282612c1a565b604082019050919050565b60006122ba6028836126d8565b91506122c582612c69565b604082019050919050565b6122d9816127dd565b82525050565b6122e8816127dd565b82525050565b600060a0820190506123036000830188612084565b6123106020830187612084565b81810360408301526123228186612093565b905081810360608301526123368185612093565b9050818103608083015261234a8184612100565b90509695505050505050565b600060a08201905061236b6000830188612084565b6123786020830187612084565b61238560408301866122df565b61239260608301856122df565b81810360808301526123a48184612100565b90509695505050505050565b600060208201905081810360008301526123ca8184612093565b905092915050565b600060408201905081810360008301526123ec8185612093565b905081810360208301526124008184612093565b90509392505050565b600060208201905061241e60008301846120f1565b92915050565b6000602082019050818103600083015261243e8184612139565b905092915050565b6000602082019050818103600083015261245f81612172565b9050919050565b6000602082019050818103600083015261247f81612195565b9050919050565b6000602082019050818103600083015261249f816121b8565b9050919050565b600060208201905081810360008301526124bf816121db565b9050919050565b600060208201905081810360008301526124df816121fe565b9050919050565b600060208201905081810360008301526124ff81612221565b9050919050565b6000602082019050818103600083015261251f81612244565b9050919050565b6000602082019050818103600083015261253f81612267565b9050919050565b6000602082019050818103600083015261255f8161228a565b9050919050565b6000602082019050818103600083015261257f816122ad565b9050919050565b600060208201905061259b60008301846122df565b92915050565b60006040820190506125b660008301856122df565b6125c360208301846122df565b9392505050565b60006125d46125e5565b90506125e0828261285b565b919050565b6000604051905090565b600067ffffffffffffffff82111561260a57612609612933565b5b602082029050602081019050919050565b600067ffffffffffffffff82111561263657612635612933565b5b602082029050602081019050919050565b600067ffffffffffffffff82111561266257612661612933565b5b61266b82612984565b9050602081019050919050565b6000819050602082019050919050565b600081519050919050565b600081519050919050565b600081519050919050565b6000602082019050919050565b600082825260208201905092915050565b600082825260208201905092915050565b600082825260208201905092915050565b60006126f4826127dd565b91506126ff836127dd565b9250827fffffffffffffffffffffffffffffffffffffffffffffffffffffffffffffffff03821115612734576127336128d5565b5b828201905092915050565b600061274a826127dd565b9150612755836127dd565b925082821015612768576127676128d5565b5b828203905092915050565b600061277e826127bd565b9050919050565b60008115159050919050565b60007fffffffff0000000000000000000000000000000000000000000000000000000082169050919050565b600073ffffffffffffffffffffffffffffffffffffffff82169050919050565b6000819050919050565b82818337600083830152505050565b60005b838110156128145780820151818401526020810190506127f9565b83811115612823576000848401525b50505050565b6000600282049050600182168061284157607f821691505b6020821081141561285557612854612904565b5b50919050565b61286482612984565b810181811067ffffffffffffffff8211171561288357612882612933565b5b80604052505050565b6000612897826127dd565b91507fffffffffffffffffffffffffffffffffffffffffffffffffffffffffffffffff8214156128ca576128c96128d5565b5b600182019050919050565b7f4e487b7100000000000000000000000000000000000000000000000000000000600052601160045260246000fd5b7f4e487b7100000000000000000000000000000000000000000000000000000000600052602260045260246000fd5b7f4e487b7100000000000000000000000000000000000000000000000000000000600052604160045260246000fd5b600060033d11156129815760046000803e61297e600051612995565b90505b90565b6000601f19601f8301169050919050565b60008160e01c9050919050565b7f455243313135353a207472616e7366657220746f206e6f6e204552433131353560008201527f526563656976657220696d706c656d656e746572000000000000000000000000602082015250565b7f455243313135353a204552433131353552656365697665722072656a6563746560008201527f6420746f6b656e73000000000000000000000000000000000000000000000000602082015250565b7f455243313135353a2062616c616e636520717565727920666f7220746865207a60008201527f65726f2061646472657373000000000000000000000000000000000000000000602082015250565b7f455243313135353a2063616c6c6572206973206e6f74206f776e6572206e6f7260008201527f20617070726f7665640000000000000000000000000000000000000000000000602082015250565b7f455243313135353a207472616e7366657220746f20746865207a65726f20616460008201527f6472657373000000000000000000000000000000000000000000000000000000602082015250565b7f455243313135353a207472616e736665722063616c6c6572206973206e6f742060008201527f6f776e6572206e6f7220617070726f7665640000000000000000000000000000602082015250565b7f455243313135353a20696e73756666696369656e742062616c616e636520666f60008201527f72207472616e7366657200000000000000000000000000000000000000000000602082015250565b7f455243313135353a2073657474696e6720617070726f76616c2073746174757360008201527f20666f722073656c660000000000000000000000000000000000000000000000602082015250565b7f455243313135353a206163636f756e747320616e6420696473206c656e67746860008201527f206d69736d617463680000000000000000000000000000000000000000000000602082015250565b7f455243313135353a2069647320616e6420616d6f756e7473206c656e6774682060008201527f6d69736d61746368000000000000000000000000000000000000000000000000602082015250565b600060443d1015612cc857612d4b565b612cd06125e5565b60043d036004823e80513d602482011167ffffffffffffffff82111715612cf8575050612d4b565b808201805167ffffffffffffffff811115612d165750505050612d4b565b80602083010160043d038501811115612d33575050505050612d4b565b612d428260200185018661285b565b82955050505050505b90565b612d5781612773565b8114612d6257600080fd5b50565b612d6e81612785565b8114612d7957600080fd5b50565b612d8581612791565b8114612d9057600080fd5b50565b612d9c816127dd565b8114612da757600080fd5b5056fea26469706673582212208f85616667db2fccdb3f2bff8337eeb97f30fbe802ca367b7b893586743bcc2a64736f6c6343000801003368747470733a2f2f67616d652e6578616d706c652f6170692f6974656d2f7b69647d2e6a736f6e",
  "linkReferences": {},
  "deployedLinkReferences": {}
}