{
  "_format": "hh-sol-artifact-1",
  "contractName": "CropFarm",
  "sourceName": "contracts/Token.sol",
  "abi": [
    {
      "inputs": [],
      "stateMutability": "nonpayable",
      "type": "constructor"
    },
    {
      "anonymous": false,
      "inputs": [
        {
          "indexed": true,
          "internalType": "address",
          "name": "account",
          "type": "address"
        },
        {
          "indexed": true,
          "internalType": "address",
          "name": "operator",
          "type": "address"
        },
        {
          "indexed": false,
          "internalType": "bool",
          "name": "approved",
          "type": "bool"
        }
      ],
      "name": "ApprovalForAll",
      "type": "event"
    },
    {
      "anonymous": false,
      "inputs": [
        {
          "indexed": true,
          "internalType": "address",
          "name": "operator",
          "type": "address"
        },
        {
          "indexed": true,
          "internalType": "address",
          "name": "from",
          "type": "address"
        },
        {
          "indexed": true,
          "internalType": "address",
          "name": "to",
          "type": "address"
        },
        {
          "indexed": false,
          "internalType": "uint256[]",
          "name": "ids",
          "type": "uint256[]"
        },
        {
          "indexed": false,
          "internalType": "uint256[]",
          "name": "values",
          "type": "uint256[]"
        }
      ],
      "name": "TransferBatch",
      "type": "event"
    },
    {
      "anonymous": false,
      "inputs": [
        {
          "indexed": true,
          "internalType": "address",
          "name": "operator",
          "type": "address"
        },
        {
          "indexed": true,
          "internalType": "address",
          "name": "from",
          "type": "address"
        },
        {
          "indexed": true,
          "internalType": "address",
          "name": "to",
          "type": "address"
        },
        {
          "indexed": false,
          "internalType": "uint256",
          "name": "id",
          "type": "uint256"
        },
        {
          "indexed": false,
          "internalType": "uint256",
          "name": "value",
          "type": "uint256"
        }
      ],
      "name": "TransferSingle",
      "type": "event"
    },
    {
      "anonymous": false,
      "inputs": [
        {
          "indexed": false,
          "internalType": "string",
          "name": "value",
          "type": "string"
        },
        {
          "indexed": true,
          "internalType": "uint256",
          "name": "id",
          "type": "uint256"
        }
      ],
      "name": "URI",
      "type": "event"
    },
    {
      "inputs": [],
      "name": "CARROT",
      "outputs": [
        {
          "internalType": "uint256",
          "name": "",
          "type": "uint256"
        }
      ],
      "stateMutability": "view",
      "type": "function"
    },
    {
      "inputs": [],
      "name": "MELON",
      "outputs": [
        {
          "internalType": "uint256",
          "name": "",
          "type": "uint256"
        }
      ],
      "stateMutability": "view",
      "type": "function"
    },
    {
      "inputs": [],
      "name": "NULL",
      "outputs": [
        {
          "internalType": "uint256",
          "name": "",
          "type": "uint256"
        }
      ],
      "stateMutability": "view",
      "type": "function"
    },
    {
      "inputs": [],
      "name": "PUMPKIN",
      "outputs": [
        {
          "internalType": "uint256",
          "name": "",
          "type": "uint256"
        }
      ],
      "stateMutability": "view",
      "type": "function"
    },
    {
      "inputs": [],
      "name": "WHEAT",
      "outputs": [
        {
          "internalType": "uint256",
          "name": "",
          "type": "uint256"
        }
      ],
      "stateMutability": "view",
      "type": "function"
    },
    {
      "inputs": [
        {
          "internalType": "address",
          "name": "account",
          "type": "address"
        },
        {
          "internalType": "uint256",
          "name": "id",
          "type": "uint256"
        }
      ],
      "name": "balanceOf",
      "outputs": [
        {
          "internalType": "uint256",
          "name": "",
          "type": "uint256"
        }
      ],
      "stateMutability": "view",
      "type": "function"
    },
    {
      "inputs": [
        {
          "internalType": "address[]",
          "name": "accounts",
          "type": "address[]"
        },
        {
          "internalType": "uint256[]",
          "name": "ids",
          "type": "uint256[]"
        }
      ],
      "name": "balanceOfBatch",
      "outputs": [
        {
          "internalType": "uint256[]",
          "name": "",
          "type": "uint256[]"
        }
      ],
      "stateMutability": "view",
      "type": "function"
    },
    {
      "inputs": [
        {
          "internalType": "uint256",
          "name": "id",
          "type": "uint256"
        }
      ],
      "name": "exists",
      "outputs": [
        {
          "internalType": "bool",
          "name": "",
          "type": "bool"
        }
      ],
      "stateMutability": "view",
      "type": "function"
    },
    {
      "inputs": [
        {
          "internalType": "address",
          "name": "account",
          "type": "address"
        },
        {
          "internalType": "address",
          "name": "operator",
          "type": "address"
        }
      ],
      "name": "isApprovedForAll",
      "outputs": [
        {
          "internalType": "bool",
          "name": "",
          "type": "bool"
        }
      ],
      "stateMutability": "view",
      "type": "function"
    },
    {
      "inputs": [
        {
          "internalType": "uint256",
          "name": "_id",
          "type": "uint256"
        },
        {
          "internalType": "uint256",
          "name": "_plot",
          "type": "uint256"
        }
      ],
      "name": "plant",
      "outputs": [],
      "stateMutability": "nonpayable",
      "type": "function"
    },
    {
      "inputs": [
        {
          "internalType": "address",
          "name": "from",
          "type": "address"
        },
        {
          "internalType": "address",
          "name": "to",
          "type": "address"
        },
        {
          "internalType": "uint256[]",
          "name": "ids",
          "type": "uint256[]"
        },
        {
          "internalType": "uint256[]",
          "name": "amounts",
          "type": "uint256[]"
        },
        {
          "internalType": "bytes",
          "name": "data",
          "type": "bytes"
        }
      ],
      "name": "safeBatchTransferFrom",
      "outputs": [],
      "stateMutability": "nonpayable",
      "type": "function"
    },
    {
      "inputs": [
        {
          "internalType": "address",
          "name": "from",
          "type": "address"
        },
        {
          "internalType": "address",
          "name": "to",
          "type": "address"
        },
        {
          "internalType": "uint256",
          "name": "id",
          "type": "uint256"
        },
        {
          "internalType": "uint256",
          "name": "amount",
          "type": "uint256"
        },
        {
          "internalType": "bytes",
          "name": "data",
          "type": "bytes"
        }
      ],
      "name": "safeTransferFrom",
      "outputs": [],
      "stateMutability": "nonpayable",
      "type": "function"
    },
    {
      "inputs": [
        {
          "internalType": "address",
          "name": "operator",
          "type": "address"
        },
        {
          "internalType": "bool",
          "name": "approved",
          "type": "bool"
        }
      ],
      "name": "setApprovalForAll",
      "outputs": [],
      "stateMutability": "nonpayable",
      "type": "function"
    },
    {
      "inputs": [
        {
          "internalType": "bytes4",
          "name": "interfaceId",
          "type": "bytes4"
        }
      ],
      "name": "supportsInterface",
      "outputs": [
        {
          "internalType": "bool",
          "name": "",
          "type": "bool"
        }
      ],
      "stateMutability": "view",
      "type": "function"
    },
    {
      "inputs": [
        {
          "internalType": "uint256",
          "name": "id",
          "type": "uint256"
        }
      ],
      "name": "totalSupply",
      "outputs": [
        {
          "internalType": "uint256",
          "name": "",
          "type": "uint256"
        }
      ],
      "stateMutability": "view",
      "type": "function"
    },
    {
      "inputs": [
        {
          "internalType": "uint256",
          "name": "",
          "type": "uint256"
        }
      ],
      "name": "uri",
      "outputs": [
        {
          "internalType": "string",
          "name": "",
          "type": "string"
        }
      ],
      "stateMutability": "view",
      "type": "function"
    },
    {
      "inputs": [
        {
          "internalType": "address",
          "name": "_account",
          "type": "address"
        },
        {
          "internalType": "uint256",
          "name": "_id",
          "type": "uint256"
        },
        {
          "internalType": "uint256",
          "name": "_member",
          "type": "uint256"
        }
      ],
      "name": "viewValues",
      "outputs": [
        {
          "internalType": "uint256",
          "name": "",
          "type": "uint256"
        }
      ],
      "stateMutability": "view",
      "type": "function"
    }
  ],
  "bytecode": "0x60806040523480156200001157600080fd5b5060405180606001604052806027815260200162004512602791396200003d816200024860201b60201c565b50620000643360016103e8604051806020016040528060008152506200026460201b60201c565b6200008a3360026103e8604051806020016040528060008152506200026460201b60201c565b620000b03360036103e8604051806020016040528060008152506200026460201b60201c565b620000d63360046103e8604051806020016040528060008152506200026460201b60201c565b6103e8600460006001815260200190815260200160002060003373ffffffffffffffffffffffffffffffffffffffff1673ffffffffffffffffffffffffffffffffffffffff168152602001908152602001600020600001819055506103e8600460006002815260200190815260200160002060003373ffffffffffffffffffffffffffffffffffffffff1673ffffffffffffffffffffffffffffffffffffffff168152602001908152602001600020600001819055506103e8600460006003815260200190815260200160002060003373ffffffffffffffffffffffffffffffffffffffff1673ffffffffffffffffffffffffffffffffffffffff168152602001908152602001600020600001819055506103e8600460006004815260200190815260200160002060003373ffffffffffffffffffffffffffffffffffffffff1673ffffffffffffffffffffffffffffffffffffffff1681526020019081526020016000206000018190555062001157565b80600290805190602001906200026092919062000983565b5050565b600073ffffffffffffffffffffffffffffffffffffffff168473ffffffffffffffffffffffffffffffffffffffff161415620002d7576040517f08c379a0000000000000000000000000000000000000000000000000000000008152600401620002ce9062000c5b565b60405180910390fd5b6000620002e96200042960201b60201c565b9050620003228160008762000304886200043160201b60201c565b62000315886200043160201b60201c565b87620004fa60201b60201c565b8260008086815260200190815260200160002060008773ffffffffffffffffffffffffffffffffffffffff1673ffffffffffffffffffffffffffffffffffffffff168152602001908152602001600020600082825462000383919062000cec565b925050819055508473ffffffffffffffffffffffffffffffffffffffff16600073ffffffffffffffffffffffffffffffffffffffff168273ffffffffffffffffffffffffffffffffffffffff167fc3d58168c5ae7397731d063d5bbf3d657854427343f4c083240f7aacaa2d0f6287876040516200040392919062000c7d565b60405180910390a462000422816000878787876200051d60201b60201c565b5050505050565b600033905090565b60606000600167ffffffffffffffff81111562000477577f4e487b7100000000000000000000000000000000000000000000000000000000600052604160045260246000fd5b604051908082528060200260200182016040528015620004a65781602001602082028036833780820191505090505b5090508281600081518110620004e5577f4e487b7100000000000000000000000000000000000000000000000000000000600052603260045260246000fd5b60200260200101818152505080915050919050565b620005158686868686866200072760201b62000e471760201c565b505050505050565b620005498473ffffffffffffffffffffffffffffffffffffffff166200095860201b620010591760201c565b156200071f578373ffffffffffffffffffffffffffffffffffffffff1663f23a6e6187878686866040518663ffffffff1660e01b81526004016200059295949392919062000b8f565b602060405180830381600087803b158015620005ad57600080fd5b505af1925050508015620005e157506040513d601f19601f82011682018060405250810190620005de919062000a4a565b60015b6200069357620005f062000f6b565b806308c379a01415620006545750620006086200109b565b8062000615575062000656565b806040517f08c379a00000000000000000000000000000000000000000000000000000000081526004016200064b919062000bf3565b60405180910390fd5b505b6040517f08c379a00000000000000000000000000000000000000000000000000000000081526004016200068a9062000c17565b60405180910390fd5b63f23a6e6160e01b7bffffffffffffffffffffffffffffffffffffffffffffffffffffffff1916817bffffffffffffffffffffffffffffffffffffffffffffffffffffffff1916146200071d576040517f08c379a0000000000000000000000000000000000000000000000000000000008152600401620007149062000c39565b60405180910390fd5b505b505050505050565b620007428686868686866200097b60201b6200107c1760201c565b600073ffffffffffffffffffffffffffffffffffffffff168573ffffffffffffffffffffffffffffffffffffffff161415620008495760005b83518110156200084757828181518110620007bf577f4e487b7100000000000000000000000000000000000000000000000000000000600052603260045260246000fd5b60200260200101516003600086848151811062000805577f4e487b7100000000000000000000000000000000000000000000000000000000600052603260045260246000fd5b6020026020010151815260200190815260200160002060008282546200082c919062000cec565b92505081905550806200083f9062000e90565b90506200077b565b505b600073ffffffffffffffffffffffffffffffffffffffff168473ffffffffffffffffffffffffffffffffffffffff161415620009505760005b83518110156200094e57828181518110620008c6577f4e487b7100000000000000000000000000000000000000000000000000000000600052603260045260246000fd5b6020026020010151600360008684815181106200090c577f4e487b7100000000000000000000000000000000000000000000000000000000600052603260045260246000fd5b60200260200101518152602001908152602001600020600082825462000933919062000d49565b9250508190555080620009469062000e90565b905062000882565b505b505050505050565b6000808273ffffffffffffffffffffffffffffffffffffffff163b119050919050565b505050505050565b828054620009919062000e24565b90600052602060002090601f016020900481019282620009b5576000855562000a01565b82601f10620009d057805160ff191683800117855562000a01565b8280016001018555821562000a01579182015b8281111562000a00578251825591602001919060010190620009e3565b5b50905062000a10919062000a14565b5090565b5b8082111562000a2f57600081600090555060010162000a15565b5090565b60008151905062000a44816200113d565b92915050565b60006020828403121562000a5d57600080fd5b600062000a6d8482850162000a33565b91505092915050565b62000a818162000d84565b82525050565b600062000a948262000cb4565b62000aa0818562000cca565b935062000ab281856020860162000dee565b62000abd8162000f90565b840191505092915050565b600062000ad58262000cbf565b62000ae1818562000cdb565b935062000af381856020860162000dee565b62000afe8162000f90565b840191505092915050565b600062000b1860348362000cdb565b915062000b258262000fae565b604082019050919050565b600062000b3f60288362000cdb565b915062000b4c8262000ffd565b604082019050919050565b600062000b6660218362000cdb565b915062000b73826200104c565b604082019050919050565b62000b898162000de4565b82525050565b600060a08201905062000ba6600083018862000a76565b62000bb5602083018762000a76565b62000bc4604083018662000b7e565b62000bd3606083018562000b7e565b818103608083015262000be7818462000a87565b90509695505050505050565b6000602082019050818103600083015262000c0f818462000ac8565b905092915050565b6000602082019050818103600083015262000c328162000b09565b9050919050565b6000602082019050818103600083015262000c548162000b30565b9050919050565b6000602082019050818103600083015262000c768162000b57565b9050919050565b600060408201905062000c94600083018562000b7e565b62000ca3602083018462000b7e565b9392505050565b6000604051905090565b600081519050919050565b600081519050919050565b600082825260208201905092915050565b600082825260208201905092915050565b600062000cf98262000de4565b915062000d068362000de4565b9250827fffffffffffffffffffffffffffffffffffffffffffffffffffffffffffffffff0382111562000d3e5762000d3d62000ede565b5b828201905092915050565b600062000d568262000de4565b915062000d638362000de4565b92508282101562000d795762000d7862000ede565b5b828203905092915050565b600062000d918262000dc4565b9050919050565b60007fffffffff0000000000000000000000000000000000000000000000000000000082169050919050565b600073ffffffffffffffffffffffffffffffffffffffff82169050919050565b6000819050919050565b60005b8381101562000e0e57808201518184015260208101905062000df1565b8381111562000e1e576000848401525b50505050565b6000600282049050600182168062000e3d57607f821691505b6020821081141562000e545762000e5362000f0d565b5b50919050565b62000e658262000f90565b810181811067ffffffffffffffff8211171562000e875762000e8662000f3c565b5b80604052505050565b600062000e9d8262000de4565b91507fffffffffffffffffffffffffffffffffffffffffffffffffffffffffffffffff82141562000ed35762000ed262000ede565b5b600182019050919050565b7f4e487b7100000000000000000000000000000000000000000000000000000000600052601160045260246000fd5b7f4e487b7100000000000000000000000000000000000000000000000000000000600052602260045260246000fd5b7f4e487b7100000000000000000000000000000000000000000000000000000000600052604160045260246000fd5b600060033d111562000f8d5760046000803e62000f8a60005162000fa1565b90505b90565b6000601f19601f8301169050919050565b60008160e01c9050919050565b7f455243313135353a207472616e7366657220746f206e6f6e204552433131353560008201527f526563656976657220696d706c656d656e746572000000000000000000000000602082015250565b7f455243313135353a204552433131353552656365697665722072656a6563746560008201527f6420746f6b656e73000000000000000000000000000000000000000000000000602082015250565b7f455243313135353a206d696e7420746f20746865207a65726f2061646472657360008201527f7300000000000000000000000000000000000000000000000000000000000000602082015250565b600060443d1015620010ad576200113a565b620010b762000caa565b60043d036004823e80513d602482011167ffffffffffffffff82111715620010e15750506200113a565b808201805167ffffffffffffffff8111156200110157505050506200113a565b80602083010160043d038501811115620011205750505050506200113a565b620011318260200185018662000e5a565b82955050505050505b90565b620011488162000d98565b81146200115457600080fd5b50565b6133ab80620011676000396000f3fe608060405234801561001057600080fd5b506004361061010a5760003560e01c8063a22cb465116100a2578063e985e9c511610071578063e985e9c5146102ef578063f242432a1461031f578063f26be3fc1461033b578063f43e391814610359578063ff2dff2d146103775761010a565b8063a22cb46514610267578063bd85b03914610283578063bf701ed4146102b3578063ccc3aeec146102d15761010a565b80634b21b434116100de5780634b21b434146101bb5780634e1273f4146101eb5780634f558e791461021b57806392658a281461024b5761010a565b8062fdd58e1461010f57806301ffc9a71461013f5780630e89341c1461016f5780632eb2c2d61461019f575b600080fd5b61012960048036038101906101249190612345565b610395565b6040516101369190612ad6565b60405180910390f35b6101596004803603810190610154919061243c565b61045e565b60405161016691906128f9565b60405180910390f35b6101896004803603810190610184919061248e565b610540565b6040516101969190612914565b60405180910390f35b6101b960048036038101906101b491906121bb565b6105d4565b005b6101d560048036038101906101d09190612381565b610675565b6040516101e29190612ad6565b60405180910390f35b610205600480360381019061020091906123d0565b61074a565b60405161021291906128a0565b60405180910390f35b6102356004803603810190610230919061248e565b6108fb565b60405161024291906128f9565b60405180910390f35b610265600480360381019061026091906124b7565b61090f565b005b610281600480360381019061027c9190612309565b610cc6565b005b61029d6004803603810190610298919061248e565b610cdc565b6040516102aa9190612ad6565b60405180910390f35b6102bb610cf9565b6040516102c89190612ad6565b60405180910390f35b6102d9610cfe565b6040516102e69190612ad6565b60405180910390f35b6103096004803603810190610304919061217f565b610d03565b60405161031691906128f9565b60405180910390f35b6103396004803603810190610334919061227a565b610d97565b005b610343610e38565b6040516103509190612ad6565b60405180910390f35b610361610e3d565b60405161036e9190612ad6565b60405180910390f35b61037f610e42565b60405161038c9190612ad6565b60405180910390f35b60008073ffffffffffffffffffffffffffffffffffffffff168373ffffffffffffffffffffffffffffffffffffffff161415610406576040517f08c379a00000000000000000000000000000000000000000000000000000000081526004016103fd90612976565b60405180910390fd5b60008083815260200190815260200160002060008473ffffffffffffffffffffffffffffffffffffffff1673ffffffffffffffffffffffffffffffffffffffff16815260200190815260200160002054905092915050565b60007fd9b67a26000000000000000000000000000000000000000000000000000000007bffffffffffffffffffffffffffffffffffffffffffffffffffffffff1916827bffffffffffffffffffffffffffffffffffffffffffffffffffffffff1916148061052957507f0e89341c000000000000000000000000000000000000000000000000000000007bffffffffffffffffffffffffffffffffffffffffffffffffffffffff1916827bffffffffffffffffffffffffffffffffffffffffffffffffffffffff1916145b80610539575061053882611084565b5b9050919050565b60606002805461054f90612d79565b80601f016020809104026020016040519081016040528092919081815260200182805461057b90612d79565b80156105c85780601f1061059d576101008083540402835291602001916105c8565b820191906000526020600020905b8154815290600101906020018083116105ab57829003601f168201915b50505050509050919050565b6105dc6110ee565b73ffffffffffffffffffffffffffffffffffffffff168573ffffffffffffffffffffffffffffffffffffffff16148061062257506106218561061c6110ee565b610d03565b5b610661576040517f08c379a000000000000000000000000000000000000000000000000000000000815260040161065890612a36565b60405180910390fd5b61066e85858585856110f6565b5050505050565b6000808214156106da576004600084815260200190815260200160002060008573ffffffffffffffffffffffffffffffffffffffff1673ffffffffffffffffffffffffffffffffffffffff168152602001908152602001600020600001549050610743565b600182141561073e576004600084815260200190815260200160002060008573ffffffffffffffffffffffffffffffffffffffff1673ffffffffffffffffffffffffffffffffffffffff168152602001908152602001600020600101549050610743565b600090505b9392505050565b60608151835114610790576040517f08c379a000000000000000000000000000000000000000000000000000000000815260040161078790612a96565b60405180910390fd5b6000835167ffffffffffffffff8111156107d3577f4e487b7100000000000000000000000000000000000000000000000000000000600052604160045260246000fd5b6040519080825280602002602001820160405280156108015781602001602082028036833780820191505090505b50905060005b84518110156108f05761089a85828151811061084c577f4e487b7100000000000000000000000000000000000000000000000000000000600052603260045260246000fd5b602002602001015185838151811061088d577f4e487b7100000000000000000000000000000000000000000000000000000000600052603260045260246000fd5b6020026020010151610395565b8282815181106108d3577f4e487b7100000000000000000000000000000000000000000000000000000000600052603260045260246000fd5b602002602001018181525050806108e990612ddc565b9050610807565b508091505092915050565b60008061090783610cdc565b119050919050565b60016004600084815260200190815260200160002060003373ffffffffffffffffffffffffffffffffffffffff1673ffffffffffffffffffffffffffffffffffffffff1681526020019081526020016000206000015410156109a6576040517f08c379a000000000000000000000000000000000000000000000000000000000815260040161099d906129d6565b60405180910390fd5b60058111156109ea576040517f08c379a00000000000000000000000000000000000000000000000000000000081526004016109e190612996565b60405180910390fd5b600115156005600084815260200190815260200160002060003373ffffffffffffffffffffffffffffffffffffffff1673ffffffffffffffffffffffffffffffffffffffff16815260200190815260200160002060000182600a8110610a79577f4e487b7100000000000000000000000000000000000000000000000000000000600052603260045260246000fd5b6005020160000160009054906101000a900460ff1615151415610ad1576040517f08c379a0000000000000000000000000000000000000000000000000000000008152600401610ac8906129f6565b60405180910390fd5b60006005600084815260200190815260200160002060003373ffffffffffffffffffffffffffffffffffffffff1673ffffffffffffffffffffffffffffffffffffffff16815260200190815260200160002060000182600a8110610b5e577f4e487b7100000000000000000000000000000000000000000000000000000000600052603260045260246000fd5b6005020190504281600401819055508281600101819055506040518060400160405280600581526020017f5748454154000000000000000000000000000000000000000000000000000000815250816002019080519060200190610bc3929190611edf565b506005816003018190555060018160000160006101000a81548160ff02191690831515021790555060016004600085815260200190815260200160002060003373ffffffffffffffffffffffffffffffffffffffff1673ffffffffffffffffffffffffffffffffffffffff1681526020019081526020016000206000016000828254610c4f9190612c8f565b9250508190555060016004600085815260200190815260200160002060003373ffffffffffffffffffffffffffffffffffffffff1673ffffffffffffffffffffffffffffffffffffffff1681526020019081526020016000206001016000828254610cba9190612c39565b92505081905550505050565b610cd8610cd16110ee565b8383611456565b5050565b600060036000838152602001908152602001600020549050919050565b600481565b600281565b6000600160008473ffffffffffffffffffffffffffffffffffffffff1673ffffffffffffffffffffffffffffffffffffffff16815260200190815260200160002060008373ffffffffffffffffffffffffffffffffffffffff1673ffffffffffffffffffffffffffffffffffffffff16815260200190815260200160002060009054906101000a900460ff16905092915050565b610d9f6110ee565b73ffffffffffffffffffffffffffffffffffffffff168573ffffffffffffffffffffffffffffffffffffffff161480610de55750610de485610ddf6110ee565b610d03565b5b610e24576040517f08c379a0000000000000000000000000000000000000000000000000000000008152600401610e1b906129b6565b60405180910390fd5b610e3185858585856115c3565b5050505050565b600081565b600381565b600181565b610e5586868686868661107c565b600073ffffffffffffffffffffffffffffffffffffffff168573ffffffffffffffffffffffffffffffffffffffff161415610f535760005b8351811015610f5157828181518110610ecf577f4e487b7100000000000000000000000000000000000000000000000000000000600052603260045260246000fd5b602002602001015160036000868481518110610f14577f4e487b7100000000000000000000000000000000000000000000000000000000600052603260045260246000fd5b602002602001015181526020019081526020016000206000828254610f399190612c39565b9250508190555080610f4a90612ddc565b9050610e8d565b505b600073ffffffffffffffffffffffffffffffffffffffff168473ffffffffffffffffffffffffffffffffffffffff1614156110515760005b835181101561104f57828181518110610fcd577f4e487b7100000000000000000000000000000000000000000000000000000000600052603260045260246000fd5b602002602001015160036000868481518110611012577f4e487b7100000000000000000000000000000000000000000000000000000000600052603260045260246000fd5b6020026020010151815260200190815260200160002060008282546110379190612c8f565b925050819055508061104890612ddc565b9050610f8b565b505b505050505050565b6000808273ffffffffffffffffffffffffffffffffffffffff163b119050919050565b505050505050565b60007f01ffc9a7000000000000000000000000000000000000000000000000000000007bffffffffffffffffffffffffffffffffffffffffffffffffffffffff1916827bffffffffffffffffffffffffffffffffffffffffffffffffffffffff1916149050919050565b600033905090565b815183511461113a576040517f08c379a000000000000000000000000000000000000000000000000000000000815260040161113190612ab6565b60405180910390fd5b600073ffffffffffffffffffffffffffffffffffffffff168473ffffffffffffffffffffffffffffffffffffffff1614156111aa576040517f08c379a00000000000000000000000000000000000000000000000000000000081526004016111a190612a16565b60405180910390fd5b60006111b46110ee565b90506111c48187878787876117b3565b60005b84518110156113c157600085828151811061120b577f4e487b7100000000000000000000000000000000000000000000000000000000600052603260045260246000fd5b602002602001015190506000858381518110611250577f4e487b7100000000000000000000000000000000000000000000000000000000600052603260045260246000fd5b60200260200101519050600080600084815260200190815260200160002060008b73ffffffffffffffffffffffffffffffffffffffff1673ffffffffffffffffffffffffffffffffffffffff168152602001908152602001600020549050818110156112f1576040517f08c379a00000000000000000000000000000000000000000000000000000000081526004016112e890612a56565b60405180910390fd5b81810360008085815260200190815260200160002060008c73ffffffffffffffffffffffffffffffffffffffff1673ffffffffffffffffffffffffffffffffffffffff168152602001908152602001600020819055508160008085815260200190815260200160002060008b73ffffffffffffffffffffffffffffffffffffffff1673ffffffffffffffffffffffffffffffffffffffff16815260200190815260200160002060008282546113a69190612c39565b92505081905550505050806113ba90612ddc565b90506111c7565b508473ffffffffffffffffffffffffffffffffffffffff168673ffffffffffffffffffffffffffffffffffffffff168273ffffffffffffffffffffffffffffffffffffffff167f4a39dc06d4c0dbc64b70af90fd698a233a518aa5d07e595d983b8c0526c8f7fb87876040516114389291906128c2565b60405180910390a461144e8187878787876117c9565b505050505050565b8173ffffffffffffffffffffffffffffffffffffffff168373ffffffffffffffffffffffffffffffffffffffff1614156114c5576040517f08c379a00000000000000000000000000000000000000000000000000000000081526004016114bc90612a76565b60405180910390fd5b80600160008573ffffffffffffffffffffffffffffffffffffffff1673ffffffffffffffffffffffffffffffffffffffff16815260200190815260200160002060008473ffffffffffffffffffffffffffffffffffffffff1673ffffffffffffffffffffffffffffffffffffffff16815260200190815260200160002060006101000a81548160ff0219169083151502179055508173ffffffffffffffffffffffffffffffffffffffff168373ffffffffffffffffffffffffffffffffffffffff167f17307eab39ab6107e8899845ad3d59bd9653f200f220920489ca2b5937696c31836040516115b691906128f9565b60405180910390a3505050565b600073ffffffffffffffffffffffffffffffffffffffff168473ffffffffffffffffffffffffffffffffffffffff161415611633576040517f08c379a000000000000000000000000000000000000000000000000000000000815260040161162a90612a16565b60405180910390fd5b60006004600085815260200190815260200160002060008773ffffffffffffffffffffffffffffffffffffffff1673ffffffffffffffffffffffffffffffffffffffff168152602001908152602001600020600001549050828110156116ce576040517f08c379a00000000000000000000000000000000000000000000000000000000081526004016116c590612a56565b60405180910390fd5b82816116da9190612c8f565b9050826004600086815260200190815260200160002060008773ffffffffffffffffffffffffffffffffffffffff1673ffffffffffffffffffffffffffffffffffffffff168152602001908152602001600020600001600082825461173f9190612c39565b92505081905550806004600086815260200190815260200160002060008873ffffffffffffffffffffffffffffffffffffffff1673ffffffffffffffffffffffffffffffffffffffff168152602001908152602001600020600001819055506117ab86868686866119b0565b505050505050565b6117c1868686868686610e47565b505050505050565b6117e88473ffffffffffffffffffffffffffffffffffffffff16611059565b156119a8578373ffffffffffffffffffffffffffffffffffffffff1663bc197c8187878686866040518663ffffffff1660e01b815260040161182e9594939291906127de565b602060405180830381600087803b15801561184857600080fd5b505af192505050801561187957506040513d601f19601f820116820180604052508101906118769190612465565b60015b61191f57611885612eb2565b806308c379a014156118e2575061189a613283565b806118a557506118e4565b806040517f08c379a00000000000000000000000000000000000000000000000000000000081526004016118d99190612914565b60405180910390fd5b505b6040517f08c379a000000000000000000000000000000000000000000000000000000000815260040161191690612936565b60405180910390fd5b63bc197c8160e01b7bffffffffffffffffffffffffffffffffffffffffffffffffffffffff1916817bffffffffffffffffffffffffffffffffffffffffffffffffffffffff1916146119a6576040517f08c379a000000000000000000000000000000000000000000000000000000000815260040161199d90612956565b60405180910390fd5b505b505050505050565b600073ffffffffffffffffffffffffffffffffffffffff168473ffffffffffffffffffffffffffffffffffffffff161415611a20576040517f08c379a0000000000000000000000000000000000000000000000000000000008152600401611a1790612a16565b60405180910390fd5b6000611a2a6110ee565b9050611a4a818787611a3b88611c32565b611a4488611c32565b876117b3565b600080600086815260200190815260200160002060008873ffffffffffffffffffffffffffffffffffffffff1673ffffffffffffffffffffffffffffffffffffffff16815260200190815260200160002054905083811015611ae1576040517f08c379a0000000000000000000000000000000000000000000000000000000008152600401611ad890612a56565b60405180910390fd5b83810360008087815260200190815260200160002060008973ffffffffffffffffffffffffffffffffffffffff1673ffffffffffffffffffffffffffffffffffffffff168152602001908152602001600020819055508360008087815260200190815260200160002060008873ffffffffffffffffffffffffffffffffffffffff1673ffffffffffffffffffffffffffffffffffffffff1681526020019081526020016000206000828254611b969190612c39565b925050819055508573ffffffffffffffffffffffffffffffffffffffff168773ffffffffffffffffffffffffffffffffffffffff168373ffffffffffffffffffffffffffffffffffffffff167fc3d58168c5ae7397731d063d5bbf3d657854427343f4c083240f7aacaa2d0f628888604051611c13929190612af1565b60405180910390a4611c29828888888888611cf8565b50505050505050565b60606000600167ffffffffffffffff811115611c77577f4e487b7100000000000000000000000000000000000000000000000000000000600052604160045260246000fd5b604051908082528060200260200182016040528015611ca55781602001602082028036833780820191505090505b5090508281600081518110611ce3577f4e487b7100000000000000000000000000000000000000000000000000000000600052603260045260246000fd5b60200260200101818152505080915050919050565b611d178473ffffffffffffffffffffffffffffffffffffffff16611059565b15611ed7578373ffffffffffffffffffffffffffffffffffffffff1663f23a6e6187878686866040518663ffffffff1660e01b8152600401611d5d959493929190612846565b602060405180830381600087803b158015611d7757600080fd5b505af1925050508015611da857506040513d601f19601f82011682018060405250810190611da59190612465565b60015b611e4e57611db4612eb2565b806308c379a01415611e115750611dc9613283565b80611dd45750611e13565b806040517f08c379a0000000000000000000000000000000000000000000000000000000008152600401611e089190612914565b60405180910390fd5b505b6040517f08c379a0000000000000000000000000000000000000000000000000000000008152600401611e4590612936565b60405180910390fd5b63f23a6e6160e01b7bffffffffffffffffffffffffffffffffffffffffffffffffffffffff1916817bffffffffffffffffffffffffffffffffffffffffffffffffffffffff191614611ed5576040517f08c379a0000000000000000000000000000000000000000000000000000000008152600401611ecc90612956565b60405180910390fd5b505b505050505050565b828054611eeb90612d79565b90600052602060002090601f016020900481019282611f0d5760008555611f54565b82601f10611f2657805160ff1916838001178555611f54565b82800160010185558215611f54579182015b82811115611f53578251825591602001919060010190611f38565b5b509050611f619190611f65565b5090565b5b80821115611f7e576000816000905550600101611f66565b5090565b6000611f95611f9084612b3f565b612b1a565b90508083825260208201905082856020860282011115611fb457600080fd5b60005b85811015611fe45781611fca8882612098565b845260208401935060208301925050600181019050611fb7565b5050509392505050565b6000612001611ffc84612b6b565b612b1a565b9050808382526020820190508285602086028201111561202057600080fd5b60005b858110156120505781612036888261216a565b845260208401935060208301925050600181019050612023565b5050509392505050565b600061206d61206884612b97565b612b1a565b90508281526020810184848401111561208557600080fd5b612090848285612d37565b509392505050565b6000813590506120a781613319565b92915050565b600082601f8301126120be57600080fd5b81356120ce848260208601611f82565b91505092915050565b600082601f8301126120e857600080fd5b81356120f8848260208601611fee565b91505092915050565b60008135905061211081613330565b92915050565b60008135905061212581613347565b92915050565b60008151905061213a81613347565b92915050565b600082601f83011261215157600080fd5b813561216184826020860161205a565b91505092915050565b6000813590506121798161335e565b92915050565b6000806040838503121561219257600080fd5b60006121a085828601612098565b92505060206121b185828601612098565b9150509250929050565b600080600080600060a086880312156121d357600080fd5b60006121e188828901612098565b95505060206121f288828901612098565b945050604086013567ffffffffffffffff81111561220f57600080fd5b61221b888289016120d7565b935050606086013567ffffffffffffffff81111561223857600080fd5b612244888289016120d7565b925050608086013567ffffffffffffffff81111561226157600080fd5b61226d88828901612140565b9150509295509295909350565b600080600080600060a0868803121561229257600080fd5b60006122a088828901612098565b95505060206122b188828901612098565b94505060406122c28882890161216a565b93505060606122d38882890161216a565b925050608086013567ffffffffffffffff8111156122f057600080fd5b6122fc88828901612140565b9150509295509295909350565b6000806040838503121561231c57600080fd5b600061232a85828601612098565b925050602061233b85828601612101565b9150509250929050565b6000806040838503121561235857600080fd5b600061236685828601612098565b92505060206123778582860161216a565b9150509250929050565b60008060006060848603121561239657600080fd5b60006123a486828701612098565b93505060206123b58682870161216a565b92505060406123c68682870161216a565b9150509250925092565b600080604083850312156123e357600080fd5b600083013567ffffffffffffffff8111156123fd57600080fd5b612409858286016120ad565b925050602083013567ffffffffffffffff81111561242657600080fd5b612432858286016120d7565b9150509250929050565b60006020828403121561244e57600080fd5b600061245c84828501612116565b91505092915050565b60006020828403121561247757600080fd5b60006124858482850161212b565b91505092915050565b6000602082840312156124a057600080fd5b60006124ae8482850161216a565b91505092915050565b600080604083850312156124ca57600080fd5b60006124d88582860161216a565b92505060206124e98582860161216a565b9150509250929050565b60006124ff83836127c0565b60208301905092915050565b61251481612cc3565b82525050565b600061252582612bd8565b61252f8185612c06565b935061253a83612bc8565b8060005b8381101561256b57815161255288826124f3565b975061255d83612bf9565b92505060018101905061253e565b5085935050505092915050565b61258181612cd5565b82525050565b600061259282612be3565b61259c8185612c17565b93506125ac818560208601612d46565b6125b581612ed4565b840191505092915050565b60006125cb82612bee565b6125d58185612c28565b93506125e5818560208601612d46565b6125ee81612ed4565b840191505092915050565b6000612606603483612c28565b915061261182612ef2565b604082019050919050565b6000612629602883612c28565b915061263482612f41565b604082019050919050565b600061264c602b83612c28565b915061265782612f90565b604082019050919050565b600061266f601a83612c28565b915061267a82612fdf565b602082019050919050565b6000612692602983612c28565b915061269d82613008565b604082019050919050565b60006126b5601a83612c28565b91506126c082613057565b602082019050919050565b60006126d8601783612c28565b91506126e382613080565b602082019050919050565b60006126fb602583612c28565b9150612706826130a9565b604082019050919050565b600061271e603283612c28565b9150612729826130f8565b604082019050919050565b6000612741602a83612c28565b915061274c82613147565b604082019050919050565b6000612764602983612c28565b915061276f82613196565b604082019050919050565b6000612787602983612c28565b9150612792826131e5565b604082019050919050565b60006127aa602883612c28565b91506127b582613234565b604082019050919050565b6127c981612d2d565b82525050565b6127d881612d2d565b82525050565b600060a0820190506127f3600083018861250b565b612800602083018761250b565b8181036040830152612812818661251a565b90508181036060830152612826818561251a565b9050818103608083015261283a8184612587565b90509695505050505050565b600060a08201905061285b600083018861250b565b612868602083018761250b565b61287560408301866127cf565b61288260608301856127cf565b81810360808301526128948184612587565b90509695505050505050565b600060208201905081810360008301526128ba818461251a565b905092915050565b600060408201905081810360008301526128dc818561251a565b905081810360208301526128f0818461251a565b90509392505050565b600060208201905061290e6000830184612578565b92915050565b6000602082019050818103600083015261292e81846125c0565b905092915050565b6000602082019050818103600083015261294f816125f9565b9050919050565b6000602082019050818103600083015261296f8161261c565b9050919050565b6000602082019050818103600083015261298f8161263f565b9050919050565b600060208201905081810360008301526129af81612662565b9050919050565b600060208201905081810360008301526129cf81612685565b9050919050565b600060208201905081810360008301526129ef816126a8565b9050919050565b60006020820190508181036000830152612a0f816126cb565b9050919050565b60006020820190508181036000830152612a2f816126ee565b9050919050565b60006020820190508181036000830152612a4f81612711565b9050919050565b60006020820190508181036000830152612a6f81612734565b9050919050565b60006020820190508181036000830152612a8f81612757565b9050919050565b60006020820190508181036000830152612aaf8161277a565b9050919050565b60006020820190508181036000830152612acf8161279d565b9050919050565b6000602082019050612aeb60008301846127cf565b92915050565b6000604082019050612b0660008301856127cf565b612b1360208301846127cf565b9392505050565b6000612b24612b35565b9050612b308282612dab565b919050565b6000604051905090565b600067ffffffffffffffff821115612b5a57612b59612e83565b5b602082029050602081019050919050565b600067ffffffffffffffff821115612b8657612b85612e83565b5b602082029050602081019050919050565b600067ffffffffffffffff821115612bb257612bb1612e83565b5b612bbb82612ed4565b9050602081019050919050565b6000819050602082019050919050565b600081519050919050565b600081519050919050565b600081519050919050565b6000602082019050919050565b600082825260208201905092915050565b600082825260208201905092915050565b600082825260208201905092915050565b6000612c4482612d2d565b9150612c4f83612d2d565b9250827fffffffffffffffffffffffffffffffffffffffffffffffffffffffffffffffff03821115612c8457612c83612e25565b5b828201905092915050565b6000612c9a82612d2d565b9150612ca583612d2d565b925082821015612cb857612cb7612e25565b5b828203905092915050565b6000612cce82612d0d565b9050919050565b60008115159050919050565b60007fffffffff0000000000000000000000000000000000000000000000000000000082169050919050565b600073ffffffffffffffffffffffffffffffffffffffff82169050919050565b6000819050919050565b82818337600083830152505050565b60005b83811015612d64578082015181840152602081019050612d49565b83811115612d73576000848401525b50505050565b60006002820490506001821680612d9157607f821691505b60208210811415612da557612da4612e54565b5b50919050565b612db482612ed4565b810181811067ffffffffffffffff82111715612dd357612dd2612e83565b5b80604052505050565b6000612de782612d2d565b91507fffffffffffffffffffffffffffffffffffffffffffffffffffffffffffffffff821415612e1a57612e19612e25565b5b600182019050919050565b7f4e487b7100000000000000000000000000000000000000000000000000000000600052601160045260246000fd5b7f4e487b7100000000000000000000000000000000000000000000000000000000600052602260045260246000fd5b7f4e487b7100000000000000000000000000000000000000000000000000000000600052604160045260246000fd5b600060033d1115612ed15760046000803e612ece600051612ee5565b90505b90565b6000601f19601f8301169050919050565b60008160e01c9050919050565b7f455243313135353a207472616e7366657220746f206e6f6e204552433131353560008201527f526563656976657220696d706c656d656e746572000000000000000000000000602082015250565b7f455243313135353a204552433131353552656365697665722072656a6563746560008201527f6420746f6b656e73000000000000000000000000000000000000000000000000602082015250565b7f455243313135353a2062616c616e636520717565727920666f7220746865207a60008201527f65726f2061646472657373000000000000000000000000000000000000000000602082015250565b7f596f7520646f6e2774206f776e20656e6f756768206c616e6421000000000000600082015250565b7f455243313135353a2063616c6c6572206973206e6f74206f776e6572206e6f7260008201527f20617070726f7665640000000000000000000000000000000000000000000000602082015250565b7f4e6f7420656e6f7567682063726f707320746f20706c616e7421000000000000600082015250565b7f5468697320706c6f74206973206e6f7420656d70747921000000000000000000600082015250565b7f455243313135353a207472616e7366657220746f20746865207a65726f20616460008201527f6472657373000000000000000000000000000000000000000000000000000000602082015250565b7f455243313135353a207472616e736665722063616c6c6572206973206e6f742060008201527f6f776e6572206e6f7220617070726f7665640000000000000000000000000000602082015250565b7f455243313135353a20696e73756666696369656e742062616c616e636520666f60008201527f72207472616e7366657200000000000000000000000000000000000000000000602082015250565b7f455243313135353a2073657474696e6720617070726f76616c2073746174757360008201527f20666f722073656c660000000000000000000000000000000000000000000000602082015250565b7f455243313135353a206163636f756e747320616e6420696473206c656e67746860008201527f206d69736d617463680000000000000000000000000000000000000000000000602082015250565b7f455243313135353a2069647320616e6420616d6f756e7473206c656e6774682060008201527f6d69736d61746368000000000000000000000000000000000000000000000000602082015250565b600060443d101561329357613316565b61329b612b35565b60043d036004823e80513d602482011167ffffffffffffffff821117156132c3575050613316565b808201805167ffffffffffffffff8111156132e15750505050613316565b80602083010160043d0385018111156132fe575050505050613316565b61330d82602001850186612dab565b82955050505050505b90565b61332281612cc3565b811461332d57600080fd5b50565b61333981612cd5565b811461334457600080fd5b50565b61335081612ce1565b811461335b57600080fd5b50565b61336781612d2d565b811461337257600080fd5b5056fea2646970667358221220bbba5a84f56bea55be5f067256e0e3cec3204d696f68b080d8b57306eb627e5364736f6c6343000801003368747470733a2f2f67616d652e6578616d706c652f6170692f6974656d2f7b69647d2e6a736f6e",
  "linkReferences": {},
  "deployedLinkReferences": {}
}