{
  "_format": "hh-sol-artifact-1",
  "contractName": "CropFarm",
  "sourceName": "contracts/Token.sol",
  "abi": [
    {
      "inputs": [],
      "stateMutability": "nonpayable",
      "type": "constructor"
    },
    {
      "anonymous": false,
      "inputs": [
        {
          "indexed": true,
          "internalType": "address",
          "name": "account",
          "type": "address"
        },
        {
          "indexed": true,
          "internalType": "address",
          "name": "operator",
          "type": "address"
        },
        {
          "indexed": false,
          "internalType": "bool",
          "name": "approved",
          "type": "bool"
        }
      ],
      "name": "ApprovalForAll",
      "type": "event"
    },
    {
      "anonymous": false,
      "inputs": [
        {
          "indexed": true,
          "internalType": "address",
          "name": "operator",
          "type": "address"
        },
        {
          "indexed": true,
          "internalType": "address",
          "name": "from",
          "type": "address"
        },
        {
          "indexed": true,
          "internalType": "address",
          "name": "to",
          "type": "address"
        },
        {
          "indexed": false,
          "internalType": "uint256[]",
          "name": "ids",
          "type": "uint256[]"
        },
        {
          "indexed": false,
          "internalType": "uint256[]",
          "name": "values",
          "type": "uint256[]"
        }
      ],
      "name": "TransferBatch",
      "type": "event"
    },
    {
      "anonymous": false,
      "inputs": [
        {
          "indexed": true,
          "internalType": "address",
          "name": "operator",
          "type": "address"
        },
        {
          "indexed": true,
          "internalType": "address",
          "name": "from",
          "type": "address"
        },
        {
          "indexed": true,
          "internalType": "address",
          "name": "to",
          "type": "address"
        },
        {
          "indexed": false,
          "internalType": "uint256",
          "name": "id",
          "type": "uint256"
        },
        {
          "indexed": false,
          "internalType": "uint256",
          "name": "value",
          "type": "uint256"
        }
      ],
      "name": "TransferSingle",
      "type": "event"
    },
    {
      "anonymous": false,
      "inputs": [
        {
          "indexed": false,
          "internalType": "string",
          "name": "value",
          "type": "string"
        },
        {
          "indexed": true,
          "internalType": "uint256",
          "name": "id",
          "type": "uint256"
        }
      ],
      "name": "URI",
      "type": "event"
    },
    {
      "inputs": [],
      "name": "CARROT",
      "outputs": [
        {
          "internalType": "uint256",
          "name": "",
          "type": "uint256"
        }
      ],
      "stateMutability": "view",
      "type": "function"
    },
    {
      "inputs": [],
      "name": "MELON",
      "outputs": [
        {
          "internalType": "uint256",
          "name": "",
          "type": "uint256"
        }
      ],
      "stateMutability": "view",
      "type": "function"
    },
    {
      "inputs": [],
      "name": "PUMPKIN",
      "outputs": [
        {
          "internalType": "uint256",
          "name": "",
          "type": "uint256"
        }
      ],
      "stateMutability": "view",
      "type": "function"
    },
    {
      "inputs": [],
      "name": "WHEAT",
      "outputs": [
        {
          "internalType": "uint256",
          "name": "",
          "type": "uint256"
        }
      ],
      "stateMutability": "view",
      "type": "function"
    },
    {
      "inputs": [
        {
          "internalType": "address",
          "name": "account",
          "type": "address"
        },
        {
          "internalType": "uint256",
          "name": "id",
          "type": "uint256"
        }
      ],
      "name": "balanceOf",
      "outputs": [
        {
          "internalType": "uint256",
          "name": "",
          "type": "uint256"
        }
      ],
      "stateMutability": "view",
      "type": "function"
    },
    {
      "inputs": [
        {
          "internalType": "address[]",
          "name": "accounts",
          "type": "address[]"
        },
        {
          "internalType": "uint256[]",
          "name": "ids",
          "type": "uint256[]"
        }
      ],
      "name": "balanceOfBatch",
      "outputs": [
        {
          "internalType": "uint256[]",
          "name": "",
          "type": "uint256[]"
        }
      ],
      "stateMutability": "view",
      "type": "function"
    },
    {
      "inputs": [
        {
          "internalType": "uint256",
          "name": "id",
          "type": "uint256"
        }
      ],
      "name": "exists",
      "outputs": [
        {
          "internalType": "bool",
          "name": "",
          "type": "bool"
        }
      ],
      "stateMutability": "view",
      "type": "function"
    },
    {
      "inputs": [
        {
          "internalType": "address",
          "name": "account",
          "type": "address"
        },
        {
          "internalType": "address",
          "name": "operator",
          "type": "address"
        }
      ],
      "name": "isApprovedForAll",
      "outputs": [
        {
          "internalType": "bool",
          "name": "",
          "type": "bool"
        }
      ],
      "stateMutability": "view",
      "type": "function"
    },
    {
      "inputs": [
        {
          "internalType": "uint256",
          "name": "_id",
          "type": "uint256"
        },
        {
          "internalType": "uint256",
          "name": "_amount",
          "type": "uint256"
        },
        {
          "internalType": "uint256",
          "name": "_plot",
          "type": "uint256"
        }
      ],
      "name": "plant",
      "outputs": [],
      "stateMutability": "nonpayable",
      "type": "function"
    },
    {
      "inputs": [
        {
          "internalType": "address",
          "name": "from",
          "type": "address"
        },
        {
          "internalType": "address",
          "name": "to",
          "type": "address"
        },
        {
          "internalType": "uint256[]",
          "name": "ids",
          "type": "uint256[]"
        },
        {
          "internalType": "uint256[]",
          "name": "amounts",
          "type": "uint256[]"
        },
        {
          "internalType": "bytes",
          "name": "data",
          "type": "bytes"
        }
      ],
      "name": "safeBatchTransferFrom",
      "outputs": [],
      "stateMutability": "nonpayable",
      "type": "function"
    },
    {
      "inputs": [
        {
          "internalType": "address",
          "name": "from",
          "type": "address"
        },
        {
          "internalType": "address",
          "name": "to",
          "type": "address"
        },
        {
          "internalType": "uint256",
          "name": "id",
          "type": "uint256"
        },
        {
          "internalType": "uint256",
          "name": "amount",
          "type": "uint256"
        },
        {
          "internalType": "bytes",
          "name": "data",
          "type": "bytes"
        }
      ],
      "name": "safeTransferFrom",
      "outputs": [],
      "stateMutability": "nonpayable",
      "type": "function"
    },
    {
      "inputs": [
        {
          "internalType": "address",
          "name": "operator",
          "type": "address"
        },
        {
          "internalType": "bool",
          "name": "approved",
          "type": "bool"
        }
      ],
      "name": "setApprovalForAll",
      "outputs": [],
      "stateMutability": "nonpayable",
      "type": "function"
    },
    {
      "inputs": [
        {
          "internalType": "bytes4",
          "name": "interfaceId",
          "type": "bytes4"
        }
      ],
      "name": "supportsInterface",
      "outputs": [
        {
          "internalType": "bool",
          "name": "",
          "type": "bool"
        }
      ],
      "stateMutability": "view",
      "type": "function"
    },
    {
      "inputs": [
        {
          "internalType": "uint256",
          "name": "id",
          "type": "uint256"
        }
      ],
      "name": "totalSupply",
      "outputs": [
        {
          "internalType": "uint256",
          "name": "",
          "type": "uint256"
        }
      ],
      "stateMutability": "view",
      "type": "function"
    },
    {
      "inputs": [
        {
          "internalType": "uint256",
          "name": "",
          "type": "uint256"
        }
      ],
      "name": "uri",
      "outputs": [
        {
          "internalType": "string",
          "name": "",
          "type": "string"
        }
      ],
      "stateMutability": "view",
      "type": "function"
    },
    {
      "inputs": [
        {
          "internalType": "address",
          "name": "_account",
          "type": "address"
        },
        {
          "internalType": "uint256",
          "name": "_id",
          "type": "uint256"
        },
        {
          "internalType": "uint256",
          "name": "_member",
          "type": "uint256"
        }
      ],
      "name": "viewValues",
      "outputs": [
        {
          "internalType": "uint256",
          "name": "",
          "type": "uint256"
        }
      ],
      "stateMutability": "view",
      "type": "function"
    }
  ],
  "bytecode": "0x60806040523480156200001157600080fd5b50604051806060016040528060278152602001620040de602791396200003d816200013660201b60201c565b50620000643360006103e8604051806020016040528060008152506200015260201b60201c565b6200008a3360016103e8604051806020016040528060008152506200015260201b60201c565b620000b03360026103e8604051806020016040528060008152506200015260201b60201c565b620000d63360036103e8604051806020016040528060008152506200015260201b60201c565b6103e86004600080815260200190815260200160002060003373ffffffffffffffffffffffffffffffffffffffff1673ffffffffffffffffffffffffffffffffffffffff1681526020019081526020016000206000018190555062001045565b80600290805190602001906200014e92919062000871565b5050565b600073ffffffffffffffffffffffffffffffffffffffff168473ffffffffffffffffffffffffffffffffffffffff161415620001c5576040517f08c379a0000000000000000000000000000000000000000000000000000000008152600401620001bc9062000b49565b60405180910390fd5b6000620001d76200031760201b60201c565b90506200021081600087620001f2886200031f60201b60201c565b62000203886200031f60201b60201c565b87620003e860201b60201c565b8260008086815260200190815260200160002060008773ffffffffffffffffffffffffffffffffffffffff1673ffffffffffffffffffffffffffffffffffffffff168152602001908152602001600020600082825462000271919062000bda565b925050819055508473ffffffffffffffffffffffffffffffffffffffff16600073ffffffffffffffffffffffffffffffffffffffff168273ffffffffffffffffffffffffffffffffffffffff167fc3d58168c5ae7397731d063d5bbf3d657854427343f4c083240f7aacaa2d0f628787604051620002f192919062000b6b565b60405180910390a462000310816000878787876200040b60201b60201c565b5050505050565b600033905090565b60606000600167ffffffffffffffff81111562000365577f4e487b7100000000000000000000000000000000000000000000000000000000600052604160045260246000fd5b604051908082528060200260200182016040528015620003945781602001602082028036833780820191505090505b5090508281600081518110620003d3577f4e487b7100000000000000000000000000000000000000000000000000000000600052603260045260246000fd5b60200260200101818152505080915050919050565b620004038686868686866200061560201b62000c8d1760201c565b505050505050565b620004378473ffffffffffffffffffffffffffffffffffffffff166200084660201b62000e9f1760201c565b156200060d578373ffffffffffffffffffffffffffffffffffffffff1663f23a6e6187878686866040518663ffffffff1660e01b81526004016200048095949392919062000a7d565b602060405180830381600087803b1580156200049b57600080fd5b505af1925050508015620004cf57506040513d601f19601f82011682018060405250810190620004cc919062000938565b60015b6200058157620004de62000e59565b806308c379a01415620005425750620004f662000f89565b8062000503575062000544565b806040517f08c379a000000000000000000000000000000000000000000000000000000000815260040162000539919062000ae1565b60405180910390fd5b505b6040517f08c379a0000000000000000000000000000000000000000000000000000000008152600401620005789062000b05565b60405180910390fd5b63f23a6e6160e01b7bffffffffffffffffffffffffffffffffffffffffffffffffffffffff1916817bffffffffffffffffffffffffffffffffffffffffffffffffffffffff1916146200060b576040517f08c379a0000000000000000000000000000000000000000000000000000000008152600401620006029062000b27565b60405180910390fd5b505b505050505050565b620006308686868686866200086960201b62000ec21760201c565b600073ffffffffffffffffffffffffffffffffffffffff168573ffffffffffffffffffffffffffffffffffffffff161415620007375760005b83518110156200073557828181518110620006ad577f4e487b7100000000000000000000000000000000000000000000000000000000600052603260045260246000fd5b602002602001015160036000868481518110620006f3577f4e487b7100000000000000000000000000000000000000000000000000000000600052603260045260246000fd5b6020026020010151815260200190815260200160002060008282546200071a919062000bda565b92505081905550806200072d9062000d7e565b905062000669565b505b600073ffffffffffffffffffffffffffffffffffffffff168473ffffffffffffffffffffffffffffffffffffffff1614156200083e5760005b83518110156200083c57828181518110620007b4577f4e487b7100000000000000000000000000000000000000000000000000000000600052603260045260246000fd5b602002602001015160036000868481518110620007fa577f4e487b7100000000000000000000000000000000000000000000000000000000600052603260045260246000fd5b60200260200101518152602001908152602001600020600082825462000821919062000c37565b9250508190555080620008349062000d7e565b905062000770565b505b505050505050565b6000808273ffffffffffffffffffffffffffffffffffffffff163b119050919050565b505050505050565b8280546200087f9062000d12565b90600052602060002090601f016020900481019282620008a35760008555620008ef565b82601f10620008be57805160ff1916838001178555620008ef565b82800160010185558215620008ef579182015b82811115620008ee578251825591602001919060010190620008d1565b5b509050620008fe919062000902565b5090565b5b808211156200091d57600081600090555060010162000903565b5090565b60008151905062000932816200102b565b92915050565b6000602082840312156200094b57600080fd5b60006200095b8482850162000921565b91505092915050565b6200096f8162000c72565b82525050565b6000620009828262000ba2565b6200098e818562000bb8565b9350620009a081856020860162000cdc565b620009ab8162000e7e565b840191505092915050565b6000620009c38262000bad565b620009cf818562000bc9565b9350620009e181856020860162000cdc565b620009ec8162000e7e565b840191505092915050565b600062000a0660348362000bc9565b915062000a138262000e9c565b604082019050919050565b600062000a2d60288362000bc9565b915062000a3a8262000eeb565b604082019050919050565b600062000a5460218362000bc9565b915062000a618262000f3a565b604082019050919050565b62000a778162000cd2565b82525050565b600060a08201905062000a94600083018862000964565b62000aa3602083018762000964565b62000ab2604083018662000a6c565b62000ac1606083018562000a6c565b818103608083015262000ad5818462000975565b90509695505050505050565b6000602082019050818103600083015262000afd8184620009b6565b905092915050565b6000602082019050818103600083015262000b2081620009f7565b9050919050565b6000602082019050818103600083015262000b428162000a1e565b9050919050565b6000602082019050818103600083015262000b648162000a45565b9050919050565b600060408201905062000b82600083018562000a6c565b62000b91602083018462000a6c565b9392505050565b6000604051905090565b600081519050919050565b600081519050919050565b600082825260208201905092915050565b600082825260208201905092915050565b600062000be78262000cd2565b915062000bf48362000cd2565b9250827fffffffffffffffffffffffffffffffffffffffffffffffffffffffffffffffff0382111562000c2c5762000c2b62000dcc565b5b828201905092915050565b600062000c448262000cd2565b915062000c518362000cd2565b92508282101562000c675762000c6662000dcc565b5b828203905092915050565b600062000c7f8262000cb2565b9050919050565b60007fffffffff0000000000000000000000000000000000000000000000000000000082169050919050565b600073ffffffffffffffffffffffffffffffffffffffff82169050919050565b6000819050919050565b60005b8381101562000cfc57808201518184015260208101905062000cdf565b8381111562000d0c576000848401525b50505050565b6000600282049050600182168062000d2b57607f821691505b6020821081141562000d425762000d4162000dfb565b5b50919050565b62000d538262000e7e565b810181811067ffffffffffffffff8211171562000d755762000d7462000e2a565b5b80604052505050565b600062000d8b8262000cd2565b91507fffffffffffffffffffffffffffffffffffffffffffffffffffffffffffffffff82141562000dc15762000dc062000dcc565b5b600182019050919050565b7f4e487b7100000000000000000000000000000000000000000000000000000000600052601160045260246000fd5b7f4e487b7100000000000000000000000000000000000000000000000000000000600052602260045260246000fd5b7f4e487b7100000000000000000000000000000000000000000000000000000000600052604160045260246000fd5b600060033d111562000e7b5760046000803e62000e7860005162000e8f565b90505b90565b6000601f19601f8301169050919050565b60008160e01c9050919050565b7f455243313135353a207472616e7366657220746f206e6f6e204552433131353560008201527f526563656976657220696d706c656d656e746572000000000000000000000000602082015250565b7f455243313135353a204552433131353552656365697665722072656a6563746560008201527f6420746f6b656e73000000000000000000000000000000000000000000000000602082015250565b7f455243313135353a206d696e7420746f20746865207a65726f2061646472657360008201527f7300000000000000000000000000000000000000000000000000000000000000602082015250565b600060443d101562000f9b5762001028565b62000fa562000b98565b60043d036004823e80513d602482011167ffffffffffffffff8211171562000fcf57505062001028565b808201805167ffffffffffffffff81111562000fef575050505062001028565b80602083010160043d0385018111156200100e57505050505062001028565b6200101f8260200185018662000d48565b82955050505050505b90565b620010368162000c86565b81146200104257600080fd5b50565b61308980620010556000396000f3fe608060405234801561001057600080fd5b50600436106100ff5760003560e01c8063a22cb46511610097578063e985e9c511610066578063e985e9c5146102e4578063f242432a14610314578063f43e391814610330578063ff2dff2d1461034e576100ff565b8063a22cb4651461025c578063bd85b03914610278578063bf701ed4146102a8578063ccc3aeec146102c6576100ff565b80634b21b434116100d35780634b21b434146101b05780634e1273f4146101e05780634f558e791461021057806371e2beab14610240576100ff565b8062fdd58e1461010457806301ffc9a7146101345780630e89341c146101645780632eb2c2d614610194575b600080fd5b61011e600480360381019061011991906120e8565b61036c565b60405161012b9190612806565b60405180910390f35b61014e600480360381019061014991906121df565b610435565b60405161015b9190612669565b60405180910390f35b61017e60048036038101906101799190612231565b610517565b60405161018b9190612684565b60405180910390f35b6101ae60048036038101906101a99190611f5e565b6105ab565b005b6101ca60048036038101906101c59190612124565b61064c565b6040516101d79190612806565b60405180910390f35b6101fa60048036038101906101f59190612173565b610785565b6040516102079190612610565b60405180910390f35b61022a60048036038101906102259190612231565b610936565b6040516102379190612669565b60405180910390f35b61025a6004803603810190610255919061225a565b61094a565b005b610276600480360381019061027191906120ac565b610b11565b005b610292600480360381019061028d9190612231565b610b27565b60405161029f9190612806565b60405180910390f35b6102b0610b44565b6040516102bd9190612806565b60405180910390f35b6102ce610b49565b6040516102db9190612806565b60405180910390f35b6102fe60048036038101906102f99190611f22565b610b4e565b60405161030b9190612669565b60405180910390f35b61032e6004803603810190610329919061201d565b610be2565b005b610338610c83565b6040516103459190612806565b60405180910390f35b610356610c88565b6040516103639190612806565b60405180910390f35b60008073ffffffffffffffffffffffffffffffffffffffff168373ffffffffffffffffffffffffffffffffffffffff1614156103dd576040517f08c379a00000000000000000000000000000000000000000000000000000000081526004016103d4906126e6565b60405180910390fd5b60008083815260200190815260200160002060008473ffffffffffffffffffffffffffffffffffffffff1673ffffffffffffffffffffffffffffffffffffffff16815260200190815260200160002054905092915050565b60007fd9b67a26000000000000000000000000000000000000000000000000000000007bffffffffffffffffffffffffffffffffffffffffffffffffffffffff1916827bffffffffffffffffffffffffffffffffffffffffffffffffffffffff1916148061050057507f0e89341c000000000000000000000000000000000000000000000000000000007bffffffffffffffffffffffffffffffffffffffffffffffffffffffff1916827bffffffffffffffffffffffffffffffffffffffffffffffffffffffff1916145b80610510575061050f82610eca565b5b9050919050565b60606002805461052690612aa9565b80601f016020809104026020016040519081016040528092919081815260200182805461055290612aa9565b801561059f5780601f106105745761010080835404028352916020019161059f565b820191906000526020600020905b81548152906001019060200180831161058257829003601f168201915b50505050509050919050565b6105b3610f34565b73ffffffffffffffffffffffffffffffffffffffff168573ffffffffffffffffffffffffffffffffffffffff1614806105f957506105f8856105f3610f34565b610b4e565b5b610638576040517f08c379a000000000000000000000000000000000000000000000000000000000815260040161062f90612766565b60405180910390fd5b6106458585858585610f3c565b5050505050565b6000808214156106b1576004600084815260200190815260200160002060008573ffffffffffffffffffffffffffffffffffffffff1673ffffffffffffffffffffffffffffffffffffffff16815260200190815260200160002060000154905061077e565b6001821415610715576004600084815260200190815260200160002060008573ffffffffffffffffffffffffffffffffffffffff1673ffffffffffffffffffffffffffffffffffffffff16815260200190815260200160002060010154905061077e565b6002821415610779576004600084815260200190815260200160002060008573ffffffffffffffffffffffffffffffffffffffff1673ffffffffffffffffffffffffffffffffffffffff16815260200190815260200160002060020154905061077e565b600090505b9392505050565b606081518351146107cb576040517f08c379a00000000000000000000000000000000000000000000000000000000081526004016107c2906127c6565b60405180910390fd5b6000835167ffffffffffffffff81111561080e577f4e487b7100000000000000000000000000000000000000000000000000000000600052604160045260246000fd5b60405190808252806020026020018201604052801561083c5781602001602082028036833780820191505090505b50905060005b845181101561092b576108d5858281518110610887577f4e487b7100000000000000000000000000000000000000000000000000000000600052603260045260246000fd5b60200260200101518583815181106108c8577f4e487b7100000000000000000000000000000000000000000000000000000000600052603260045260246000fd5b602002602001015161036c565b82828151811061090e577f4e487b7100000000000000000000000000000000000000000000000000000000600052603260045260246000fd5b6020026020010181815250508061092490612b0c565b9050610842565b508091505092915050565b60008061094283610b27565b119050919050565b816004600085815260200190815260200160002060003373ffffffffffffffffffffffffffffffffffffffff1673ffffffffffffffffffffffffffffffffffffffff1681526020019081526020016000206000015410156109e0576040517f08c379a00000000000000000000000000000000000000000000000000000000081526004016109d790612726565b60405180910390fd5b426004600085815260200190815260200160002060003373ffffffffffffffffffffffffffffffffffffffff1673ffffffffffffffffffffffffffffffffffffffff16815260200190815260200160002060020181905550816004600085815260200190815260200160002060003373ffffffffffffffffffffffffffffffffffffffff1673ffffffffffffffffffffffffffffffffffffffff1681526020019081526020016000206000016000828254610a9b91906129bf565b92505081905550816004600085815260200190815260200160002060003373ffffffffffffffffffffffffffffffffffffffff1673ffffffffffffffffffffffffffffffffffffffff1681526020019081526020016000206001016000828254610b059190612969565b92505081905550505050565b610b23610b1c610f34565b838361129c565b5050565b600060036000838152602001908152602001600020549050919050565b600381565b600181565b6000600160008473ffffffffffffffffffffffffffffffffffffffff1673ffffffffffffffffffffffffffffffffffffffff16815260200190815260200160002060008373ffffffffffffffffffffffffffffffffffffffff1673ffffffffffffffffffffffffffffffffffffffff16815260200190815260200160002060009054906101000a900460ff16905092915050565b610bea610f34565b73ffffffffffffffffffffffffffffffffffffffff168573ffffffffffffffffffffffffffffffffffffffff161480610c305750610c2f85610c2a610f34565b610b4e565b5b610c6f576040517f08c379a0000000000000000000000000000000000000000000000000000000008152600401610c6690612706565b60405180910390fd5b610c7c8585858585611409565b5050505050565b600281565b600081565b610c9b868686868686610ec2565b600073ffffffffffffffffffffffffffffffffffffffff168573ffffffffffffffffffffffffffffffffffffffff161415610d995760005b8351811015610d9757828181518110610d15577f4e487b7100000000000000000000000000000000000000000000000000000000600052603260045260246000fd5b602002602001015160036000868481518110610d5a577f4e487b7100000000000000000000000000000000000000000000000000000000600052603260045260246000fd5b602002602001015181526020019081526020016000206000828254610d7f9190612969565b9250508190555080610d9090612b0c565b9050610cd3565b505b600073ffffffffffffffffffffffffffffffffffffffff168473ffffffffffffffffffffffffffffffffffffffff161415610e975760005b8351811015610e9557828181518110610e13577f4e487b7100000000000000000000000000000000000000000000000000000000600052603260045260246000fd5b602002602001015160036000868481518110610e58577f4e487b7100000000000000000000000000000000000000000000000000000000600052603260045260246000fd5b602002602001015181526020019081526020016000206000828254610e7d91906129bf565b9250508190555080610e8e90612b0c565b9050610dd1565b505b505050505050565b6000808273ffffffffffffffffffffffffffffffffffffffff163b119050919050565b505050505050565b60007f01ffc9a7000000000000000000000000000000000000000000000000000000007bffffffffffffffffffffffffffffffffffffffffffffffffffffffff1916827bffffffffffffffffffffffffffffffffffffffffffffffffffffffff1916149050919050565b600033905090565b8151835114610f80576040517f08c379a0000000000000000000000000000000000000000000000000000000008152600401610f77906127e6565b60405180910390fd5b600073ffffffffffffffffffffffffffffffffffffffff168473ffffffffffffffffffffffffffffffffffffffff161415610ff0576040517f08c379a0000000000000000000000000000000000000000000000000000000008152600401610fe790612746565b60405180910390fd5b6000610ffa610f34565b905061100a8187878787876115f9565b60005b8451811015611207576000858281518110611051577f4e487b7100000000000000000000000000000000000000000000000000000000600052603260045260246000fd5b602002602001015190506000858381518110611096577f4e487b7100000000000000000000000000000000000000000000000000000000600052603260045260246000fd5b60200260200101519050600080600084815260200190815260200160002060008b73ffffffffffffffffffffffffffffffffffffffff1673ffffffffffffffffffffffffffffffffffffffff16815260200190815260200160002054905081811015611137576040517f08c379a000000000000000000000000000000000000000000000000000000000815260040161112e90612786565b60405180910390fd5b81810360008085815260200190815260200160002060008c73ffffffffffffffffffffffffffffffffffffffff1673ffffffffffffffffffffffffffffffffffffffff168152602001908152602001600020819055508160008085815260200190815260200160002060008b73ffffffffffffffffffffffffffffffffffffffff1673ffffffffffffffffffffffffffffffffffffffff16815260200190815260200160002060008282546111ec9190612969565b925050819055505050508061120090612b0c565b905061100d565b508473ffffffffffffffffffffffffffffffffffffffff168673ffffffffffffffffffffffffffffffffffffffff168273ffffffffffffffffffffffffffffffffffffffff167f4a39dc06d4c0dbc64b70af90fd698a233a518aa5d07e595d983b8c0526c8f7fb878760405161127e929190612632565b60405180910390a461129481878787878761160f565b505050505050565b8173ffffffffffffffffffffffffffffffffffffffff168373ffffffffffffffffffffffffffffffffffffffff16141561130b576040517f08c379a0000000000000000000000000000000000000000000000000000000008152600401611302906127a6565b60405180910390fd5b80600160008573ffffffffffffffffffffffffffffffffffffffff1673ffffffffffffffffffffffffffffffffffffffff16815260200190815260200160002060008473ffffffffffffffffffffffffffffffffffffffff1673ffffffffffffffffffffffffffffffffffffffff16815260200190815260200160002060006101000a81548160ff0219169083151502179055508173ffffffffffffffffffffffffffffffffffffffff168373ffffffffffffffffffffffffffffffffffffffff167f17307eab39ab6107e8899845ad3d59bd9653f200f220920489ca2b5937696c31836040516113fc9190612669565b60405180910390a3505050565b600073ffffffffffffffffffffffffffffffffffffffff168473ffffffffffffffffffffffffffffffffffffffff161415611479576040517f08c379a000000000000000000000000000000000000000000000000000000000815260040161147090612746565b60405180910390fd5b60006004600085815260200190815260200160002060008773ffffffffffffffffffffffffffffffffffffffff1673ffffffffffffffffffffffffffffffffffffffff16815260200190815260200160002060000154905082811015611514576040517f08c379a000000000000000000000000000000000000000000000000000000000815260040161150b90612786565b60405180910390fd5b828161152091906129bf565b9050826004600086815260200190815260200160002060008773ffffffffffffffffffffffffffffffffffffffff1673ffffffffffffffffffffffffffffffffffffffff16815260200190815260200160002060000160008282546115859190612969565b92505081905550806004600086815260200190815260200160002060008873ffffffffffffffffffffffffffffffffffffffff1673ffffffffffffffffffffffffffffffffffffffff168152602001908152602001600020600001819055506115f186868686866117f6565b505050505050565b611607868686868686610c8d565b505050505050565b61162e8473ffffffffffffffffffffffffffffffffffffffff16610e9f565b156117ee578373ffffffffffffffffffffffffffffffffffffffff1663bc197c8187878686866040518663ffffffff1660e01b815260040161167495949392919061254e565b602060405180830381600087803b15801561168e57600080fd5b505af19250505080156116bf57506040513d601f19601f820116820180604052508101906116bc9190612208565b60015b611765576116cb612be2565b806308c379a0141561172857506116e0612f61565b806116eb575061172a565b806040517f08c379a000000000000000000000000000000000000000000000000000000000815260040161171f9190612684565b60405180910390fd5b505b6040517f08c379a000000000000000000000000000000000000000000000000000000000815260040161175c906126a6565b60405180910390fd5b63bc197c8160e01b7bffffffffffffffffffffffffffffffffffffffffffffffffffffffff1916817bffffffffffffffffffffffffffffffffffffffffffffffffffffffff1916146117ec576040517f08c379a00000000000000000000000000000000000000000000000000000000081526004016117e3906126c6565b60405180910390fd5b505b505050505050565b600073ffffffffffffffffffffffffffffffffffffffff168473ffffffffffffffffffffffffffffffffffffffff161415611866576040517f08c379a000000000000000000000000000000000000000000000000000000000815260040161185d90612746565b60405180910390fd5b6000611870610f34565b905061189081878761188188611a78565b61188a88611a78565b876115f9565b600080600086815260200190815260200160002060008873ffffffffffffffffffffffffffffffffffffffff1673ffffffffffffffffffffffffffffffffffffffff16815260200190815260200160002054905083811015611927576040517f08c379a000000000000000000000000000000000000000000000000000000000815260040161191e90612786565b60405180910390fd5b83810360008087815260200190815260200160002060008973ffffffffffffffffffffffffffffffffffffffff1673ffffffffffffffffffffffffffffffffffffffff168152602001908152602001600020819055508360008087815260200190815260200160002060008873ffffffffffffffffffffffffffffffffffffffff1673ffffffffffffffffffffffffffffffffffffffff16815260200190815260200160002060008282546119dc9190612969565b925050819055508573ffffffffffffffffffffffffffffffffffffffff168773ffffffffffffffffffffffffffffffffffffffff168373ffffffffffffffffffffffffffffffffffffffff167fc3d58168c5ae7397731d063d5bbf3d657854427343f4c083240f7aacaa2d0f628888604051611a59929190612821565b60405180910390a4611a6f828888888888611b3e565b50505050505050565b60606000600167ffffffffffffffff811115611abd577f4e487b7100000000000000000000000000000000000000000000000000000000600052604160045260246000fd5b604051908082528060200260200182016040528015611aeb5781602001602082028036833780820191505090505b5090508281600081518110611b29577f4e487b7100000000000000000000000000000000000000000000000000000000600052603260045260246000fd5b60200260200101818152505080915050919050565b611b5d8473ffffffffffffffffffffffffffffffffffffffff16610e9f565b15611d1d578373ffffffffffffffffffffffffffffffffffffffff1663f23a6e6187878686866040518663ffffffff1660e01b8152600401611ba39594939291906125b6565b602060405180830381600087803b158015611bbd57600080fd5b505af1925050508015611bee57506040513d601f19601f82011682018060405250810190611beb9190612208565b60015b611c9457611bfa612be2565b806308c379a01415611c575750611c0f612f61565b80611c1a5750611c59565b806040517f08c379a0000000000000000000000000000000000000000000000000000000008152600401611c4e9190612684565b60405180910390fd5b505b6040517f08c379a0000000000000000000000000000000000000000000000000000000008152600401611c8b906126a6565b60405180910390fd5b63f23a6e6160e01b7bffffffffffffffffffffffffffffffffffffffffffffffffffffffff1916817bffffffffffffffffffffffffffffffffffffffffffffffffffffffff191614611d1b576040517f08c379a0000000000000000000000000000000000000000000000000000000008152600401611d12906126c6565b60405180910390fd5b505b505050505050565b6000611d38611d338461286f565b61284a565b90508083825260208201905082856020860282011115611d5757600080fd5b60005b85811015611d875781611d6d8882611e3b565b845260208401935060208301925050600181019050611d5a565b5050509392505050565b6000611da4611d9f8461289b565b61284a565b90508083825260208201905082856020860282011115611dc357600080fd5b60005b85811015611df35781611dd98882611f0d565b845260208401935060208301925050600181019050611dc6565b5050509392505050565b6000611e10611e0b846128c7565b61284a565b905082815260208101848484011115611e2857600080fd5b611e33848285612a67565b509392505050565b600081359050611e4a81612ff7565b92915050565b600082601f830112611e6157600080fd5b8135611e71848260208601611d25565b91505092915050565b600082601f830112611e8b57600080fd5b8135611e9b848260208601611d91565b91505092915050565b600081359050611eb38161300e565b92915050565b600081359050611ec881613025565b92915050565b600081519050611edd81613025565b92915050565b600082601f830112611ef457600080fd5b8135611f04848260208601611dfd565b91505092915050565b600081359050611f1c8161303c565b92915050565b60008060408385031215611f3557600080fd5b6000611f4385828601611e3b565b9250506020611f5485828601611e3b565b9150509250929050565b600080600080600060a08688031215611f7657600080fd5b6000611f8488828901611e3b565b9550506020611f9588828901611e3b565b945050604086013567ffffffffffffffff811115611fb257600080fd5b611fbe88828901611e7a565b935050606086013567ffffffffffffffff811115611fdb57600080fd5b611fe788828901611e7a565b925050608086013567ffffffffffffffff81111561200457600080fd5b61201088828901611ee3565b9150509295509295909350565b600080600080600060a0868803121561203557600080fd5b600061204388828901611e3b565b955050602061205488828901611e3b565b945050604061206588828901611f0d565b935050606061207688828901611f0d565b925050608086013567ffffffffffffffff81111561209357600080fd5b61209f88828901611ee3565b9150509295509295909350565b600080604083850312156120bf57600080fd5b60006120cd85828601611e3b565b92505060206120de85828601611ea4565b9150509250929050565b600080604083850312156120fb57600080fd5b600061210985828601611e3b565b925050602061211a85828601611f0d565b9150509250929050565b60008060006060848603121561213957600080fd5b600061214786828701611e3b565b935050602061215886828701611f0d565b925050604061216986828701611f0d565b9150509250925092565b6000806040838503121561218657600080fd5b600083013567ffffffffffffffff8111156121a057600080fd5b6121ac85828601611e50565b925050602083013567ffffffffffffffff8111156121c957600080fd5b6121d585828601611e7a565b9150509250929050565b6000602082840312156121f157600080fd5b60006121ff84828501611eb9565b91505092915050565b60006020828403121561221a57600080fd5b600061222884828501611ece565b91505092915050565b60006020828403121561224357600080fd5b600061225184828501611f0d565b91505092915050565b60008060006060848603121561226f57600080fd5b600061227d86828701611f0d565b935050602061228e86828701611f0d565b925050604061229f86828701611f0d565b9150509250925092565b60006122b58383612530565b60208301905092915050565b6122ca816129f3565b82525050565b60006122db82612908565b6122e58185612936565b93506122f0836128f8565b8060005b8381101561232157815161230888826122a9565b975061231383612929565b9250506001810190506122f4565b5085935050505092915050565b61233781612a05565b82525050565b600061234882612913565b6123528185612947565b9350612362818560208601612a76565b61236b81612c04565b840191505092915050565b60006123818261291e565b61238b8185612958565b935061239b818560208601612a76565b6123a481612c04565b840191505092915050565b60006123bc603483612958565b91506123c782612c22565b604082019050919050565b60006123df602883612958565b91506123ea82612c71565b604082019050919050565b6000612402602b83612958565b915061240d82612cc0565b604082019050919050565b6000612425602983612958565b915061243082612d0f565b604082019050919050565b6000612448601a83612958565b915061245382612d5e565b602082019050919050565b600061246b602583612958565b915061247682612d87565b604082019050919050565b600061248e603283612958565b915061249982612dd6565b604082019050919050565b60006124b1602a83612958565b91506124bc82612e25565b604082019050919050565b60006124d4602983612958565b91506124df82612e74565b604082019050919050565b60006124f7602983612958565b915061250282612ec3565b604082019050919050565b600061251a602883612958565b915061252582612f12565b604082019050919050565b61253981612a5d565b82525050565b61254881612a5d565b82525050565b600060a08201905061256360008301886122c1565b61257060208301876122c1565b818103604083015261258281866122d0565b9050818103606083015261259681856122d0565b905081810360808301526125aa818461233d565b90509695505050505050565b600060a0820190506125cb60008301886122c1565b6125d860208301876122c1565b6125e5604083018661253f565b6125f2606083018561253f565b8181036080830152612604818461233d565b90509695505050505050565b6000602082019050818103600083015261262a81846122d0565b905092915050565b6000604082019050818103600083015261264c81856122d0565b9050818103602083015261266081846122d0565b90509392505050565b600060208201905061267e600083018461232e565b92915050565b6000602082019050818103600083015261269e8184612376565b905092915050565b600060208201905081810360008301526126bf816123af565b9050919050565b600060208201905081810360008301526126df816123d2565b9050919050565b600060208201905081810360008301526126ff816123f5565b9050919050565b6000602082019050818103600083015261271f81612418565b9050919050565b6000602082019050818103600083015261273f8161243b565b9050919050565b6000602082019050818103600083015261275f8161245e565b9050919050565b6000602082019050818103600083015261277f81612481565b9050919050565b6000602082019050818103600083015261279f816124a4565b9050919050565b600060208201905081810360008301526127bf816124c7565b9050919050565b600060208201905081810360008301526127df816124ea565b9050919050565b600060208201905081810360008301526127ff8161250d565b9050919050565b600060208201905061281b600083018461253f565b92915050565b6000604082019050612836600083018561253f565b612843602083018461253f565b9392505050565b6000612854612865565b90506128608282612adb565b919050565b6000604051905090565b600067ffffffffffffffff82111561288a57612889612bb3565b5b602082029050602081019050919050565b600067ffffffffffffffff8211156128b6576128b5612bb3565b5b602082029050602081019050919050565b600067ffffffffffffffff8211156128e2576128e1612bb3565b5b6128eb82612c04565b9050602081019050919050565b6000819050602082019050919050565b600081519050919050565b600081519050919050565b600081519050919050565b6000602082019050919050565b600082825260208201905092915050565b600082825260208201905092915050565b600082825260208201905092915050565b600061297482612a5d565b915061297f83612a5d565b9250827fffffffffffffffffffffffffffffffffffffffffffffffffffffffffffffffff038211156129b4576129b3612b55565b5b828201905092915050565b60006129ca82612a5d565b91506129d583612a5d565b9250828210156129e8576129e7612b55565b5b828203905092915050565b60006129fe82612a3d565b9050919050565b60008115159050919050565b60007fffffffff0000000000000000000000000000000000000000000000000000000082169050919050565b600073ffffffffffffffffffffffffffffffffffffffff82169050919050565b6000819050919050565b82818337600083830152505050565b60005b83811015612a94578082015181840152602081019050612a79565b83811115612aa3576000848401525b50505050565b60006002820490506001821680612ac157607f821691505b60208210811415612ad557612ad4612b84565b5b50919050565b612ae482612c04565b810181811067ffffffffffffffff82111715612b0357612b02612bb3565b5b80604052505050565b6000612b1782612a5d565b91507fffffffffffffffffffffffffffffffffffffffffffffffffffffffffffffffff821415612b4a57612b49612b55565b5b600182019050919050565b7f4e487b7100000000000000000000000000000000000000000000000000000000600052601160045260246000fd5b7f4e487b7100000000000000000000000000000000000000000000000000000000600052602260045260246000fd5b7f4e487b7100000000000000000000000000000000000000000000000000000000600052604160045260246000fd5b600060033d1115612c015760046000803e612bfe600051612c15565b90505b90565b6000601f19601f8301169050919050565b60008160e01c9050919050565b7f455243313135353a207472616e7366657220746f206e6f6e204552433131353560008201527f526563656976657220696d706c656d656e746572000000000000000000000000602082015250565b7f455243313135353a204552433131353552656365697665722072656a6563746560008201527f6420746f6b656e73000000000000000000000000000000000000000000000000602082015250565b7f455243313135353a2062616c616e636520717565727920666f7220746865207a60008201527f65726f2061646472657373000000000000000000000000000000000000000000602082015250565b7f455243313135353a2063616c6c6572206973206e6f74206f776e6572206e6f7260008201527f20617070726f7665640000000000000000000000000000000000000000000000602082015250565b7f4e6f7420656e6f7567682063726f707320746f20706c616e7421000000000000600082015250565b7f455243313135353a207472616e7366657220746f20746865207a65726f20616460008201527f6472657373000000000000000000000000000000000000000000000000000000602082015250565b7f455243313135353a207472616e736665722063616c6c6572206973206e6f742060008201527f6f776e6572206e6f7220617070726f7665640000000000000000000000000000602082015250565b7f455243313135353a20696e73756666696369656e742062616c616e636520666f60008201527f72207472616e7366657200000000000000000000000000000000000000000000602082015250565b7f455243313135353a2073657474696e6720617070726f76616c2073746174757360008201527f20666f722073656c660000000000000000000000000000000000000000000000602082015250565b7f455243313135353a206163636f756e747320616e6420696473206c656e67746860008201527f206d69736d617463680000000000000000000000000000000000000000000000602082015250565b7f455243313135353a2069647320616e6420616d6f756e7473206c656e6774682060008201527f6d69736d61746368000000000000000000000000000000000000000000000000602082015250565b600060443d1015612f7157612ff4565b612f79612865565b60043d036004823e80513d602482011167ffffffffffffffff82111715612fa1575050612ff4565b808201805167ffffffffffffffff811115612fbf5750505050612ff4565b80602083010160043d038501811115612fdc575050505050612ff4565b612feb82602001850186612adb565b82955050505050505b90565b613000816129f3565b811461300b57600080fd5b50565b61301781612a05565b811461302257600080fd5b50565b61302e81612a11565b811461303957600080fd5b50565b61304581612a5d565b811461305057600080fd5b5056fea2646970667358221220a247f4aa60083e078b603d705d42d29a578f8745dc14cd6401331473731e454664736f6c6343000801003368747470733a2f2f67616d652e6578616d706c652f6170692f6974656d2f7b69647d2e6a736f6e",
  "linkReferences": {},
  "deployedLinkReferences": {}
}