{
  "_format": "hh-sol-artifact-1",
  "contractName": "CropFarm",
  "sourceName": "contracts/Token.sol",
  "abi": [
    {
      "inputs": [],
      "stateMutability": "nonpayable",
      "type": "constructor"
    },
    {
      "anonymous": false,
      "inputs": [
        {
          "indexed": true,
          "internalType": "address",
          "name": "account",
          "type": "address"
        },
        {
          "indexed": true,
          "internalType": "address",
          "name": "operator",
          "type": "address"
        },
        {
          "indexed": false,
          "internalType": "bool",
          "name": "approved",
          "type": "bool"
        }
      ],
      "name": "ApprovalForAll",
      "type": "event"
    },
    {
      "anonymous": false,
      "inputs": [
        {
          "indexed": true,
          "internalType": "address",
          "name": "operator",
          "type": "address"
        },
        {
          "indexed": true,
          "internalType": "address",
          "name": "from",
          "type": "address"
        },
        {
          "indexed": true,
          "internalType": "address",
          "name": "to",
          "type": "address"
        },
        {
          "indexed": false,
          "internalType": "uint256[]",
          "name": "ids",
          "type": "uint256[]"
        },
        {
          "indexed": false,
          "internalType": "uint256[]",
          "name": "values",
          "type": "uint256[]"
        }
      ],
      "name": "TransferBatch",
      "type": "event"
    },
    {
      "anonymous": false,
      "inputs": [
        {
          "indexed": true,
          "internalType": "address",
          "name": "operator",
          "type": "address"
        },
        {
          "indexed": true,
          "internalType": "address",
          "name": "from",
          "type": "address"
        },
        {
          "indexed": true,
          "internalType": "address",
          "name": "to",
          "type": "address"
        },
        {
          "indexed": false,
          "internalType": "uint256",
          "name": "id",
          "type": "uint256"
        },
        {
          "indexed": false,
          "internalType": "uint256",
          "name": "value",
          "type": "uint256"
        }
      ],
      "name": "TransferSingle",
      "type": "event"
    },
    {
      "anonymous": false,
      "inputs": [
        {
          "indexed": false,
          "internalType": "string",
          "name": "value",
          "type": "string"
        },
        {
          "indexed": true,
          "internalType": "uint256",
          "name": "id",
          "type": "uint256"
        }
      ],
      "name": "URI",
      "type": "event"
    },
    {
      "inputs": [],
      "name": "CARROT",
      "outputs": [
        {
          "internalType": "uint256",
          "name": "",
          "type": "uint256"
        }
      ],
      "stateMutability": "view",
      "type": "function"
    },
    {
      "inputs": [],
      "name": "MELON",
      "outputs": [
        {
          "internalType": "uint256",
          "name": "",
          "type": "uint256"
        }
      ],
      "stateMutability": "view",
      "type": "function"
    },
    {
      "inputs": [],
      "name": "NULL",
      "outputs": [
        {
          "internalType": "uint256",
          "name": "",
          "type": "uint256"
        }
      ],
      "stateMutability": "view",
      "type": "function"
    },
    {
      "inputs": [],
      "name": "PUMPKIN",
      "outputs": [
        {
          "internalType": "uint256",
          "name": "",
          "type": "uint256"
        }
      ],
      "stateMutability": "view",
      "type": "function"
    },
    {
      "inputs": [],
      "name": "WHEAT",
      "outputs": [
        {
          "internalType": "uint256",
          "name": "",
          "type": "uint256"
        }
      ],
      "stateMutability": "view",
      "type": "function"
    },
    {
      "inputs": [
        {
          "internalType": "address",
          "name": "_account",
          "type": "address"
        }
      ],
      "name": "_newPlot",
      "outputs": [],
      "stateMutability": "nonpayable",
      "type": "function"
    },
    {
      "inputs": [
        {
          "internalType": "address",
          "name": "",
          "type": "address"
        }
      ],
      "name": "_plotNum",
      "outputs": [
        {
          "internalType": "uint256",
          "name": "",
          "type": "uint256"
        }
      ],
      "stateMutability": "view",
      "type": "function"
    },
    {
      "inputs": [
        {
          "internalType": "address",
          "name": "account",
          "type": "address"
        },
        {
          "internalType": "uint256",
          "name": "id",
          "type": "uint256"
        }
      ],
      "name": "balanceOf",
      "outputs": [
        {
          "internalType": "uint256",
          "name": "",
          "type": "uint256"
        }
      ],
      "stateMutability": "view",
      "type": "function"
    },
    {
      "inputs": [
        {
          "internalType": "address[]",
          "name": "accounts",
          "type": "address[]"
        },
        {
          "internalType": "uint256[]",
          "name": "ids",
          "type": "uint256[]"
        }
      ],
      "name": "balanceOfBatch",
      "outputs": [
        {
          "internalType": "uint256[]",
          "name": "",
          "type": "uint256[]"
        }
      ],
      "stateMutability": "view",
      "type": "function"
    },
    {
      "inputs": [
        {
          "internalType": "uint256",
          "name": "id",
          "type": "uint256"
        }
      ],
      "name": "exists",
      "outputs": [
        {
          "internalType": "bool",
          "name": "",
          "type": "bool"
        }
      ],
      "stateMutability": "view",
      "type": "function"
    },
    {
      "inputs": [
        {
          "internalType": "uint256",
          "name": "_plot",
          "type": "uint256"
        }
      ],
      "name": "harvest",
      "outputs": [],
      "stateMutability": "nonpayable",
      "type": "function"
    },
    {
      "inputs": [
        {
          "internalType": "address",
          "name": "account",
          "type": "address"
        },
        {
          "internalType": "address",
          "name": "operator",
          "type": "address"
        }
      ],
      "name": "isApprovedForAll",
      "outputs": [
        {
          "internalType": "bool",
          "name": "",
          "type": "bool"
        }
      ],
      "stateMutability": "view",
      "type": "function"
    },
    {
      "inputs": [
        {
          "internalType": "uint256",
          "name": "_plot",
          "type": "uint256"
        },
        {
          "internalType": "uint256",
          "name": "_id",
          "type": "uint256"
        }
      ],
      "name": "plant",
      "outputs": [],
      "stateMutability": "nonpayable",
      "type": "function"
    },
    {
      "inputs": [
        {
          "internalType": "address",
          "name": "from",
          "type": "address"
        },
        {
          "internalType": "address",
          "name": "to",
          "type": "address"
        },
        {
          "internalType": "uint256[]",
          "name": "ids",
          "type": "uint256[]"
        },
        {
          "internalType": "uint256[]",
          "name": "amounts",
          "type": "uint256[]"
        },
        {
          "internalType": "bytes",
          "name": "data",
          "type": "bytes"
        }
      ],
      "name": "safeBatchTransferFrom",
      "outputs": [],
      "stateMutability": "nonpayable",
      "type": "function"
    },
    {
      "inputs": [
        {
          "internalType": "address",
          "name": "from",
          "type": "address"
        },
        {
          "internalType": "address",
          "name": "to",
          "type": "address"
        },
        {
          "internalType": "uint256",
          "name": "id",
          "type": "uint256"
        },
        {
          "internalType": "uint256",
          "name": "amount",
          "type": "uint256"
        },
        {
          "internalType": "bytes",
          "name": "data",
          "type": "bytes"
        }
      ],
      "name": "safeTransferFrom",
      "outputs": [],
      "stateMutability": "nonpayable",
      "type": "function"
    },
    {
      "inputs": [
        {
          "internalType": "address",
          "name": "operator",
          "type": "address"
        },
        {
          "internalType": "bool",
          "name": "approved",
          "type": "bool"
        }
      ],
      "name": "setApprovalForAll",
      "outputs": [],
      "stateMutability": "nonpayable",
      "type": "function"
    },
    {
      "inputs": [
        {
          "internalType": "bytes4",
          "name": "interfaceId",
          "type": "bytes4"
        }
      ],
      "name": "supportsInterface",
      "outputs": [
        {
          "internalType": "bool",
          "name": "",
          "type": "bool"
        }
      ],
      "stateMutability": "view",
      "type": "function"
    },
    {
      "inputs": [
        {
          "internalType": "uint256",
          "name": "id",
          "type": "uint256"
        }
      ],
      "name": "totalSupply",
      "outputs": [
        {
          "internalType": "uint256",
          "name": "",
          "type": "uint256"
        }
      ],
      "stateMutability": "view",
      "type": "function"
    },
    {
      "inputs": [
        {
          "internalType": "uint256",
          "name": "",
          "type": "uint256"
        }
      ],
      "name": "uri",
      "outputs": [
        {
          "internalType": "string",
          "name": "",
          "type": "string"
        }
      ],
      "stateMutability": "view",
      "type": "function"
    },
    {
      "inputs": [
        {
          "internalType": "address",
          "name": "_account",
          "type": "address"
        },
        {
          "internalType": "uint256",
          "name": "_id",
          "type": "uint256"
        },
        {
          "internalType": "uint256",
          "name": "_member",
          "type": "uint256"
        }
      ],
      "name": "viewBalance",
      "outputs": [
        {
          "internalType": "uint256",
          "name": "",
          "type": "uint256"
        }
      ],
      "stateMutability": "view",
      "type": "function"
    },
    {
      "inputs": [
        {
          "internalType": "address",
          "name": "_account",
          "type": "address"
        },
        {
          "internalType": "uint256",
          "name": "_id",
          "type": "uint256"
        }
      ],
      "name": "viewPlot",
      "outputs": [
        {
          "internalType": "uint256",
          "name": "",
          "type": "uint256"
        }
      ],
      "stateMutability": "view",
      "type": "function"
    }
  ],
  "bytecode": "0x60806040523480156200001157600080fd5b5060405180606001604052806027815260200162004c6e602791396200003d816200024860201b60201c565b50620000643360016103e8604051806020016040528060008152506200026460201b60201c565b6200008a3360026103e8604051806020016040528060008152506200026460201b60201c565b620000b03360036103e8604051806020016040528060008152506200026460201b60201c565b620000d63360046103e8604051806020016040528060008152506200026460201b60201c565b6103e8600460003373ffffffffffffffffffffffffffffffffffffffff1673ffffffffffffffffffffffffffffffffffffffff168152602001908152602001600020600060018152602001908152602001600020600001819055506103e8600460003373ffffffffffffffffffffffffffffffffffffffff1673ffffffffffffffffffffffffffffffffffffffff168152602001908152602001600020600060028152602001908152602001600020600001819055506103e8600460003373ffffffffffffffffffffffffffffffffffffffff1673ffffffffffffffffffffffffffffffffffffffff168152602001908152602001600020600060038152602001908152602001600020600001819055506103e8600460003373ffffffffffffffffffffffffffffffffffffffff1673ffffffffffffffffffffffffffffffffffffffff1681526020019081526020016000206000600481526020019081526020016000206000018190555062001157565b80600290805190602001906200026092919062000983565b5050565b600073ffffffffffffffffffffffffffffffffffffffff168473ffffffffffffffffffffffffffffffffffffffff161415620002d7576040517f08c379a0000000000000000000000000000000000000000000000000000000008152600401620002ce9062000c5b565b60405180910390fd5b6000620002e96200042960201b60201c565b9050620003228160008762000304886200043160201b60201c565b62000315886200043160201b60201c565b87620004fa60201b60201c565b8260008086815260200190815260200160002060008773ffffffffffffffffffffffffffffffffffffffff1673ffffffffffffffffffffffffffffffffffffffff168152602001908152602001600020600082825462000383919062000cec565b925050819055508473ffffffffffffffffffffffffffffffffffffffff16600073ffffffffffffffffffffffffffffffffffffffff168273ffffffffffffffffffffffffffffffffffffffff167fc3d58168c5ae7397731d063d5bbf3d657854427343f4c083240f7aacaa2d0f6287876040516200040392919062000c7d565b60405180910390a462000422816000878787876200051d60201b60201c565b5050505050565b600033905090565b60606000600167ffffffffffffffff81111562000477577f4e487b7100000000000000000000000000000000000000000000000000000000600052604160045260246000fd5b604051908082528060200260200182016040528015620004a65781602001602082028036833780820191505090505b5090508281600081518110620004e5577f4e487b7100000000000000000000000000000000000000000000000000000000600052603260045260246000fd5b60200260200101818152505080915050919050565b620005158686868686866200072760201b620013f61760201c565b505050505050565b620005498473ffffffffffffffffffffffffffffffffffffffff166200095860201b620016081760201c565b156200071f578373ffffffffffffffffffffffffffffffffffffffff1663f23a6e6187878686866040518663ffffffff1660e01b81526004016200059295949392919062000b8f565b602060405180830381600087803b158015620005ad57600080fd5b505af1925050508015620005e157506040513d601f19601f82011682018060405250810190620005de919062000a4a565b60015b6200069357620005f062000f6b565b806308c379a01415620006545750620006086200109b565b8062000615575062000656565b806040517f08c379a00000000000000000000000000000000000000000000000000000000081526004016200064b919062000bf3565b60405180910390fd5b505b6040517f08c379a00000000000000000000000000000000000000000000000000000000081526004016200068a9062000c17565b60405180910390fd5b63f23a6e6160e01b7bffffffffffffffffffffffffffffffffffffffffffffffffffffffff1916817bffffffffffffffffffffffffffffffffffffffffffffffffffffffff1916146200071d576040517f08c379a0000000000000000000000000000000000000000000000000000000008152600401620007149062000c39565b60405180910390fd5b505b505050505050565b620007428686868686866200097b60201b6200162b1760201c565b600073ffffffffffffffffffffffffffffffffffffffff168573ffffffffffffffffffffffffffffffffffffffff161415620008495760005b83518110156200084757828181518110620007bf577f4e487b7100000000000000000000000000000000000000000000000000000000600052603260045260246000fd5b60200260200101516003600086848151811062000805577f4e487b7100000000000000000000000000000000000000000000000000000000600052603260045260246000fd5b6020026020010151815260200190815260200160002060008282546200082c919062000cec565b92505081905550806200083f9062000e90565b90506200077b565b505b600073ffffffffffffffffffffffffffffffffffffffff168473ffffffffffffffffffffffffffffffffffffffff161415620009505760005b83518110156200094e57828181518110620008c6577f4e487b7100000000000000000000000000000000000000000000000000000000600052603260045260246000fd5b6020026020010151600360008684815181106200090c577f4e487b7100000000000000000000000000000000000000000000000000000000600052603260045260246000fd5b60200260200101518152602001908152602001600020600082825462000933919062000d49565b9250508190555080620009469062000e90565b905062000882565b505b505050505050565b6000808273ffffffffffffffffffffffffffffffffffffffff163b119050919050565b505050505050565b828054620009919062000e24565b90600052602060002090601f016020900481019282620009b5576000855562000a01565b82601f10620009d057805160ff191683800117855562000a01565b8280016001018555821562000a01579182015b8281111562000a00578251825591602001919060010190620009e3565b5b50905062000a10919062000a14565b5090565b5b8082111562000a2f57600081600090555060010162000a15565b5090565b60008151905062000a44816200113d565b92915050565b60006020828403121562000a5d57600080fd5b600062000a6d8482850162000a33565b91505092915050565b62000a818162000d84565b82525050565b600062000a948262000cb4565b62000aa0818562000cca565b935062000ab281856020860162000dee565b62000abd8162000f90565b840191505092915050565b600062000ad58262000cbf565b62000ae1818562000cdb565b935062000af381856020860162000dee565b62000afe8162000f90565b840191505092915050565b600062000b1860348362000cdb565b915062000b258262000fae565b604082019050919050565b600062000b3f60288362000cdb565b915062000b4c8262000ffd565b604082019050919050565b600062000b6660218362000cdb565b915062000b73826200104c565b604082019050919050565b62000b898162000de4565b82525050565b600060a08201905062000ba6600083018862000a76565b62000bb5602083018762000a76565b62000bc4604083018662000b7e565b62000bd3606083018562000b7e565b818103608083015262000be7818462000a87565b90509695505050505050565b6000602082019050818103600083015262000c0f818462000ac8565b905092915050565b6000602082019050818103600083015262000c328162000b09565b9050919050565b6000602082019050818103600083015262000c548162000b30565b9050919050565b6000602082019050818103600083015262000c768162000b57565b9050919050565b600060408201905062000c94600083018562000b7e565b62000ca3602083018462000b7e565b9392505050565b6000604051905090565b600081519050919050565b600081519050919050565b600082825260208201905092915050565b600082825260208201905092915050565b600062000cf98262000de4565b915062000d068362000de4565b9250827fffffffffffffffffffffffffffffffffffffffffffffffffffffffffffffffff0382111562000d3e5762000d3d62000ede565b5b828201905092915050565b600062000d568262000de4565b915062000d638362000de4565b92508282101562000d795762000d7862000ede565b5b828203905092915050565b600062000d918262000dc4565b9050919050565b60007fffffffff0000000000000000000000000000000000000000000000000000000082169050919050565b600073ffffffffffffffffffffffffffffffffffffffff82169050919050565b6000819050919050565b60005b8381101562000e0e57808201518184015260208101905062000df1565b8381111562000e1e576000848401525b50505050565b6000600282049050600182168062000e3d57607f821691505b6020821081141562000e545762000e5362000f0d565b5b50919050565b62000e658262000f90565b810181811067ffffffffffffffff8211171562000e875762000e8662000f3c565b5b80604052505050565b600062000e9d8262000de4565b91507fffffffffffffffffffffffffffffffffffffffffffffffffffffffffffffffff82141562000ed35762000ed262000ede565b5b600182019050919050565b7f4e487b7100000000000000000000000000000000000000000000000000000000600052601160045260246000fd5b7f4e487b7100000000000000000000000000000000000000000000000000000000600052602260045260246000fd5b7f4e487b7100000000000000000000000000000000000000000000000000000000600052604160045260246000fd5b600060033d111562000f8d5760046000803e62000f8a60005162000fa1565b90505b90565b6000601f19601f8301169050919050565b60008160e01c9050919050565b7f455243313135353a207472616e7366657220746f206e6f6e204552433131353560008201527f526563656976657220696d706c656d656e746572000000000000000000000000602082015250565b7f455243313135353a204552433131353552656365697665722072656a6563746560008201527f6420746f6b656e73000000000000000000000000000000000000000000000000602082015250565b7f455243313135353a206d696e7420746f20746865207a65726f2061646472657360008201527f7300000000000000000000000000000000000000000000000000000000000000602082015250565b600060443d1015620010ad576200113a565b620010b762000caa565b60043d036004823e80513d602482011167ffffffffffffffff82111715620010e15750506200113a565b808201805167ffffffffffffffff8111156200110157505050506200113a565b80602083010160043d038501811115620011205750505050506200113a565b620011318260200185018662000e5a565b82955050505050505b90565b620011488162000d98565b81146200115457600080fd5b50565b613b0780620011676000396000f3fe608060405234801561001057600080fd5b50600436106101365760003560e01c8063bd85b039116100b8578063e985e9c51161007c578063e985e9c514610397578063f242432a146103c7578063f26be3fc146103e3578063f43e391814610401578063f8cd22451461041f578063ff2dff2d1461043b57610136565b8063bd85b039146102df578063bf4fbf491461030f578063bf701ed41461033f578063ccc3aeec1461035d578063ddc632621461037b57610136565b806349e66311116100ff57806349e66311146102175780634e1273f4146102475780634f558e791461027757806392658a28146102a7578063a22cb465146102c357610136565b8062fdd58e1461013b57806301ffc9a71461016b57806303b46fcc1461019b5780630e89341c146101cb5780632eb2c2d6146101fb575b600080fd5b6101556004803603810190610150919061295d565b610459565b60405161016291906131b7565b60405180910390f35b61018560048036038101906101809190612a54565b610522565b6040516101929190612f7a565b60405180910390f35b6101b560048036038101906101b09190612999565b610604565b6040516101c291906131b7565b60405180910390f35b6101e560048036038101906101e09190612aa6565b6106d9565b6040516101f29190612f95565b60405180910390f35b610215600480360381019061021091906127d3565b61076d565b005b610231600480360381019061022c919061295d565b61080e565b60405161023e91906131b7565b60405180910390f35b610261600480360381019061025c91906129e8565b61089a565b60405161026e9190612f21565b60405180910390f35b610291600480360381019061028c9190612aa6565b610a4b565b60405161029e9190612f7a565b60405180910390f35b6102c160048036038101906102bc9190612acf565b610a5f565b005b6102dd60048036038101906102d89190612921565b610ebf565b005b6102f960048036038101906102f49190612aa6565b610ed5565b60405161030691906131b7565b60405180910390f35b6103296004803603810190610324919061276e565b610ef2565b60405161033691906131b7565b60405180910390f35b610347610f0a565b60405161035491906131b7565b60405180910390f35b610365610f0f565b60405161037291906131b7565b60405180910390f35b61039560048036038101906103909190612aa6565b610f14565b005b6103b160048036038101906103ac9190612797565b6111d5565b6040516103be9190612f7a565b60405180910390f35b6103e160048036038101906103dc9190612892565b611269565b005b6103eb61130a565b6040516103f891906131b7565b60405180910390f35b61040961130f565b60405161041691906131b7565b60405180910390f35b6104396004803603810190610434919061276e565b611314565b005b6104436113f1565b60405161045091906131b7565b60405180910390f35b60008073ffffffffffffffffffffffffffffffffffffffff168373ffffffffffffffffffffffffffffffffffffffff1614156104ca576040517f08c379a00000000000000000000000000000000000000000000000000000000081526004016104c190612ff7565b60405180910390fd5b60008083815260200190815260200160002060008473ffffffffffffffffffffffffffffffffffffffff1673ffffffffffffffffffffffffffffffffffffffff16815260200190815260200160002054905092915050565b60007fd9b67a26000000000000000000000000000000000000000000000000000000007bffffffffffffffffffffffffffffffffffffffffffffffffffffffff1916827bffffffffffffffffffffffffffffffffffffffffffffffffffffffff191614806105ed57507f0e89341c000000000000000000000000000000000000000000000000000000007bffffffffffffffffffffffffffffffffffffffffffffffffffffffff1916827bffffffffffffffffffffffffffffffffffffffffffffffffffffffff1916145b806105fd57506105fc82611633565b5b9050919050565b60008082141561066957600460008573ffffffffffffffffffffffffffffffffffffffff1673ffffffffffffffffffffffffffffffffffffffff16815260200190815260200160002060008481526020019081526020016000206000015490506106d2565b60018214156106cd57600460008573ffffffffffffffffffffffffffffffffffffffff1673ffffffffffffffffffffffffffffffffffffffff16815260200190815260200160002060008481526020019081526020016000206001015490506106d2565b600090505b9392505050565b6060600280546106e89061345a565b80601f01602080910402602001604051908101604052809291908181526020018280546107149061345a565b80156107615780601f1061073657610100808354040283529160200191610761565b820191906000526020600020905b81548152906001019060200180831161074457829003601f168201915b50505050509050919050565b61077561169d565b73ffffffffffffffffffffffffffffffffffffffff168573ffffffffffffffffffffffffffffffffffffffff1614806107bb57506107ba856107b561169d565b6111d5565b5b6107fa576040517f08c379a00000000000000000000000000000000000000000000000000000000081526004016107f1906130f7565b60405180910390fd5b61080785858585856116a5565b5050505050565b6000600560008473ffffffffffffffffffffffffffffffffffffffff1673ffffffffffffffffffffffffffffffffffffffff16815260200190815260200160002060000182600a811061088a577f4e487b7100000000000000000000000000000000000000000000000000000000600052603260045260246000fd5b6005020160010154905092915050565b606081518351146108e0576040517f08c379a00000000000000000000000000000000000000000000000000000000081526004016108d790613177565b60405180910390fd5b6000835167ffffffffffffffff811115610923577f4e487b7100000000000000000000000000000000000000000000000000000000600052604160045260246000fd5b6040519080825280602002602001820160405280156109515781602001602082028036833780820191505090505b50905060005b8451811015610a40576109ea85828151811061099c577f4e487b7100000000000000000000000000000000000000000000000000000000600052603260045260246000fd5b60200260200101518583815181106109dd577f4e487b7100000000000000000000000000000000000000000000000000000000600052603260045260246000fd5b6020026020010151610459565b828281518110610a23577f4e487b7100000000000000000000000000000000000000000000000000000000600052603260045260246000fd5b60200260200101818152505080610a39906134bd565b9050610957565b508091505092915050565b600080610a5783610ed5565b119050919050565b6001600460003373ffffffffffffffffffffffffffffffffffffffff1673ffffffffffffffffffffffffffffffffffffffff1681526020019081526020016000206000838152602001908152602001600020600001541015610af6576040517f08c379a0000000000000000000000000000000000000000000000000000000008152600401610aed90613057565b60405180910390fd5b6000600660003373ffffffffffffffffffffffffffffffffffffffff1673ffffffffffffffffffffffffffffffffffffffff168152602001908152602001600020541415610b84576003600660003373ffffffffffffffffffffffffffffffffffffffff1673ffffffffffffffffffffffffffffffffffffffff168152602001908152602001600020819055505b600660003373ffffffffffffffffffffffffffffffffffffffff1673ffffffffffffffffffffffffffffffffffffffff168152602001908152602001600020548210610c05576040517f08c379a0000000000000000000000000000000000000000000000000000000008152600401610bfc90613017565b60405180910390fd5b60011515600560003373ffffffffffffffffffffffffffffffffffffffff1673ffffffffffffffffffffffffffffffffffffffff16815260200190815260200160002060000183600a8110610c83577f4e487b7100000000000000000000000000000000000000000000000000000000600052603260045260246000fd5b6005020160000160009054906101000a900460ff1615151415610cdb576040517f08c379a0000000000000000000000000000000000000000000000000000000008152600401610cd290613097565b60405180910390fd5b6000600560003373ffffffffffffffffffffffffffffffffffffffff1673ffffffffffffffffffffffffffffffffffffffff16815260200190815260200160002060000183600a8110610d57577f4e487b7100000000000000000000000000000000000000000000000000000000600052603260045260246000fd5b6005020190504281600401819055508181600101819055506040518060400160405280600581526020017f5748454154000000000000000000000000000000000000000000000000000000815250816002019080519060200190610dbc92919061248e565b506014816003018190555060018160000160006101000a81548160ff0219169083151502179055506001600460003373ffffffffffffffffffffffffffffffffffffffff1673ffffffffffffffffffffffffffffffffffffffff16815260200190815260200160002060008481526020019081526020016000206000016000828254610e489190613370565b925050819055506001600460003373ffffffffffffffffffffffffffffffffffffffff1673ffffffffffffffffffffffffffffffffffffffff16815260200190815260200160002060008481526020019081526020016000206001016000828254610eb3919061331a565b92505081905550505050565b610ed1610eca61169d565b8383611a05565b5050565b600060036000838152602001908152602001600020549050919050565b60066020528060005260406000206000915090505481565b600481565b600281565b6000600560003373ffffffffffffffffffffffffffffffffffffffff1673ffffffffffffffffffffffffffffffffffffffff16815260200190815260200160002060000182600a8110610f90577f4e487b7100000000000000000000000000000000000000000000000000000000600052603260045260246000fd5b600502019050600081600101541415610fde576040517f08c379a0000000000000000000000000000000000000000000000000000000008152600401610fd590613077565b60405180910390fd5b8060030154816004015442610ff39190613370565b1015611034576040517f08c379a000000000000000000000000000000000000000000000000000000000815260040161102b90613137565b60405180910390fd5b6000816001015490506002600460003373ffffffffffffffffffffffffffffffffffffffff1673ffffffffffffffffffffffffffffffffffffffff168152602001908152602001600020600083815260200190815260200160002060000160008282546110a1919061331a565b925050819055506001600460003373ffffffffffffffffffffffffffffffffffffffff1673ffffffffffffffffffffffffffffffffffffffff1681526020019081526020016000206000838152602001908152602001600020600101600082825461110c9190613370565b92505081905550600560003373ffffffffffffffffffffffffffffffffffffffff1673ffffffffffffffffffffffffffffffffffffffff16815260200190815260200160002060000183600a811061118d577f4e487b7100000000000000000000000000000000000000000000000000000000600052603260045260246000fd5b60050201600080820160006101000a81549060ff021916905560018201600090556002820160006111be9190612514565b600382016000905560048201600090555050505050565b6000600160008473ffffffffffffffffffffffffffffffffffffffff1673ffffffffffffffffffffffffffffffffffffffff16815260200190815260200160002060008373ffffffffffffffffffffffffffffffffffffffff1673ffffffffffffffffffffffffffffffffffffffff16815260200190815260200160002060009054906101000a900460ff16905092915050565b61127161169d565b73ffffffffffffffffffffffffffffffffffffffff168573ffffffffffffffffffffffffffffffffffffffff1614806112b757506112b6856112b161169d565b6111d5565b5b6112f6576040517f08c379a00000000000000000000000000000000000000000000000000000000081526004016112ed90613037565b60405180910390fd5b6113038585858585611b72565b5050505050565b600081565b600381565b600a600660008373ffffffffffffffffffffffffffffffffffffffff1673ffffffffffffffffffffffffffffffffffffffff168152602001908152602001600020541115611397576040517f08c379a000000000000000000000000000000000000000000000000000000000815260040161138e906130b7565b60405180910390fd5b6001600660008373ffffffffffffffffffffffffffffffffffffffff1673ffffffffffffffffffffffffffffffffffffffff16815260200190815260200160002060008282546113e7919061331a565b9250508190555050565b600181565b61140486868686868661162b565b600073ffffffffffffffffffffffffffffffffffffffff168573ffffffffffffffffffffffffffffffffffffffff1614156115025760005b83518110156115005782818151811061147e577f4e487b7100000000000000000000000000000000000000000000000000000000600052603260045260246000fd5b6020026020010151600360008684815181106114c3577f4e487b7100000000000000000000000000000000000000000000000000000000600052603260045260246000fd5b6020026020010151815260200190815260200160002060008282546114e8919061331a565b92505081905550806114f9906134bd565b905061143c565b505b600073ffffffffffffffffffffffffffffffffffffffff168473ffffffffffffffffffffffffffffffffffffffff1614156116005760005b83518110156115fe5782818151811061157c577f4e487b7100000000000000000000000000000000000000000000000000000000600052603260045260246000fd5b6020026020010151600360008684815181106115c1577f4e487b7100000000000000000000000000000000000000000000000000000000600052603260045260246000fd5b6020026020010151815260200190815260200160002060008282546115e69190613370565b92505081905550806115f7906134bd565b905061153a565b505b505050505050565b6000808273ffffffffffffffffffffffffffffffffffffffff163b119050919050565b505050505050565b60007f01ffc9a7000000000000000000000000000000000000000000000000000000007bffffffffffffffffffffffffffffffffffffffffffffffffffffffff1916827bffffffffffffffffffffffffffffffffffffffffffffffffffffffff1916149050919050565b600033905090565b81518351146116e9576040517f08c379a00000000000000000000000000000000000000000000000000000000081526004016116e090613197565b60405180910390fd5b600073ffffffffffffffffffffffffffffffffffffffff168473ffffffffffffffffffffffffffffffffffffffff161415611759576040517f08c379a0000000000000000000000000000000000000000000000000000000008152600401611750906130d7565b60405180910390fd5b600061176361169d565b9050611773818787878787611d62565b60005b84518110156119705760008582815181106117ba577f4e487b7100000000000000000000000000000000000000000000000000000000600052603260045260246000fd5b6020026020010151905060008583815181106117ff577f4e487b7100000000000000000000000000000000000000000000000000000000600052603260045260246000fd5b60200260200101519050600080600084815260200190815260200160002060008b73ffffffffffffffffffffffffffffffffffffffff1673ffffffffffffffffffffffffffffffffffffffff168152602001908152602001600020549050818110156118a0576040517f08c379a000000000000000000000000000000000000000000000000000000000815260040161189790613117565b60405180910390fd5b81810360008085815260200190815260200160002060008c73ffffffffffffffffffffffffffffffffffffffff1673ffffffffffffffffffffffffffffffffffffffff168152602001908152602001600020819055508160008085815260200190815260200160002060008b73ffffffffffffffffffffffffffffffffffffffff1673ffffffffffffffffffffffffffffffffffffffff1681526020019081526020016000206000828254611955919061331a565b9250508190555050505080611969906134bd565b9050611776565b508473ffffffffffffffffffffffffffffffffffffffff168673ffffffffffffffffffffffffffffffffffffffff168273ffffffffffffffffffffffffffffffffffffffff167f4a39dc06d4c0dbc64b70af90fd698a233a518aa5d07e595d983b8c0526c8f7fb87876040516119e7929190612f43565b60405180910390a46119fd818787878787611d78565b505050505050565b8173ffffffffffffffffffffffffffffffffffffffff168373ffffffffffffffffffffffffffffffffffffffff161415611a74576040517f08c379a0000000000000000000000000000000000000000000000000000000008152600401611a6b90613157565b60405180910390fd5b80600160008573ffffffffffffffffffffffffffffffffffffffff1673ffffffffffffffffffffffffffffffffffffffff16815260200190815260200160002060008473ffffffffffffffffffffffffffffffffffffffff1673ffffffffffffffffffffffffffffffffffffffff16815260200190815260200160002060006101000a81548160ff0219169083151502179055508173ffffffffffffffffffffffffffffffffffffffff168373ffffffffffffffffffffffffffffffffffffffff167f17307eab39ab6107e8899845ad3d59bd9653f200f220920489ca2b5937696c3183604051611b659190612f7a565b60405180910390a3505050565b600073ffffffffffffffffffffffffffffffffffffffff168473ffffffffffffffffffffffffffffffffffffffff161415611be2576040517f08c379a0000000000000000000000000000000000000000000000000000000008152600401611bd9906130d7565b60405180910390fd5b6000600460008773ffffffffffffffffffffffffffffffffffffffff1673ffffffffffffffffffffffffffffffffffffffff168152602001908152602001600020600085815260200190815260200160002060000154905082811015611c7d576040517f08c379a0000000000000000000000000000000000000000000000000000000008152600401611c7490613117565b60405180910390fd5b8281611c899190613370565b905082600460008773ffffffffffffffffffffffffffffffffffffffff1673ffffffffffffffffffffffffffffffffffffffff16815260200190815260200160002060008681526020019081526020016000206000016000828254611cee919061331a565b9250508190555080600460008873ffffffffffffffffffffffffffffffffffffffff1673ffffffffffffffffffffffffffffffffffffffff168152602001908152602001600020600086815260200190815260200160002060000181905550611d5a8686868686611f5f565b505050505050565b611d708686868686866113f6565b505050505050565b611d978473ffffffffffffffffffffffffffffffffffffffff16611608565b15611f57578373ffffffffffffffffffffffffffffffffffffffff1663bc197c8187878686866040518663ffffffff1660e01b8152600401611ddd959493929190612e5f565b602060405180830381600087803b158015611df757600080fd5b505af1925050508015611e2857506040513d601f19601f82011682018060405250810190611e259190612a7d565b60015b611ece57611e34613593565b806308c379a01415611e915750611e496139df565b80611e545750611e93565b806040517f08c379a0000000000000000000000000000000000000000000000000000000008152600401611e889190612f95565b60405180910390fd5b505b6040517f08c379a0000000000000000000000000000000000000000000000000000000008152600401611ec590612fb7565b60405180910390fd5b63bc197c8160e01b7bffffffffffffffffffffffffffffffffffffffffffffffffffffffff1916817bffffffffffffffffffffffffffffffffffffffffffffffffffffffff191614611f55576040517f08c379a0000000000000000000000000000000000000000000000000000000008152600401611f4c90612fd7565b60405180910390fd5b505b505050505050565b600073ffffffffffffffffffffffffffffffffffffffff168473ffffffffffffffffffffffffffffffffffffffff161415611fcf576040517f08c379a0000000000000000000000000000000000000000000000000000000008152600401611fc6906130d7565b60405180910390fd5b6000611fd961169d565b9050611ff9818787611fea886121e1565b611ff3886121e1565b87611d62565b600080600086815260200190815260200160002060008873ffffffffffffffffffffffffffffffffffffffff1673ffffffffffffffffffffffffffffffffffffffff16815260200190815260200160002054905083811015612090576040517f08c379a000000000000000000000000000000000000000000000000000000000815260040161208790613117565b60405180910390fd5b83810360008087815260200190815260200160002060008973ffffffffffffffffffffffffffffffffffffffff1673ffffffffffffffffffffffffffffffffffffffff168152602001908152602001600020819055508360008087815260200190815260200160002060008873ffffffffffffffffffffffffffffffffffffffff1673ffffffffffffffffffffffffffffffffffffffff1681526020019081526020016000206000828254612145919061331a565b925050819055508573ffffffffffffffffffffffffffffffffffffffff168773ffffffffffffffffffffffffffffffffffffffff168373ffffffffffffffffffffffffffffffffffffffff167fc3d58168c5ae7397731d063d5bbf3d657854427343f4c083240f7aacaa2d0f6288886040516121c29291906131d2565b60405180910390a46121d88288888888886122a7565b50505050505050565b60606000600167ffffffffffffffff811115612226577f4e487b7100000000000000000000000000000000000000000000000000000000600052604160045260246000fd5b6040519080825280602002602001820160405280156122545781602001602082028036833780820191505090505b5090508281600081518110612292577f4e487b7100000000000000000000000000000000000000000000000000000000600052603260045260246000fd5b60200260200101818152505080915050919050565b6122c68473ffffffffffffffffffffffffffffffffffffffff16611608565b15612486578373ffffffffffffffffffffffffffffffffffffffff1663f23a6e6187878686866040518663ffffffff1660e01b815260040161230c959493929190612ec7565b602060405180830381600087803b15801561232657600080fd5b505af192505050801561235757506040513d601f19601f820116820180604052508101906123549190612a7d565b60015b6123fd57612363613593565b806308c379a014156123c057506123786139df565b8061238357506123c2565b806040517f08c379a00000000000000000000000000000000000000000000000000000000081526004016123b79190612f95565b60405180910390fd5b505b6040517f08c379a00000000000000000000000000000000000000000000000000000000081526004016123f490612fb7565b60405180910390fd5b63f23a6e6160e01b7bffffffffffffffffffffffffffffffffffffffffffffffffffffffff1916817bffffffffffffffffffffffffffffffffffffffffffffffffffffffff191614612484576040517f08c379a000000000000000000000000000000000000000000000000000000000815260040161247b90612fd7565b60405180910390fd5b505b505050505050565b82805461249a9061345a565b90600052602060002090601f0160209004810192826124bc5760008555612503565b82601f106124d557805160ff1916838001178555612503565b82800160010185558215612503579182015b828111156125025782518255916020019190600101906124e7565b5b5090506125109190612554565b5090565b5080546125209061345a565b6000825580601f106125325750612551565b601f0160209004906000526020600020908101906125509190612554565b5b50565b5b8082111561256d576000816000905550600101612555565b5090565b600061258461257f84613220565b6131fb565b905080838252602082019050828560208602820111156125a357600080fd5b60005b858110156125d357816125b98882612687565b8452602084019350602083019250506001810190506125a6565b5050509392505050565b60006125f06125eb8461324c565b6131fb565b9050808382526020820190508285602086028201111561260f57600080fd5b60005b8581101561263f57816126258882612759565b845260208401935060208301925050600181019050612612565b5050509392505050565b600061265c61265784613278565b6131fb565b90508281526020810184848401111561267457600080fd5b61267f848285613418565b509392505050565b60008135905061269681613a75565b92915050565b600082601f8301126126ad57600080fd5b81356126bd848260208601612571565b91505092915050565b600082601f8301126126d757600080fd5b81356126e78482602086016125dd565b91505092915050565b6000813590506126ff81613a8c565b92915050565b60008135905061271481613aa3565b92915050565b60008151905061272981613aa3565b92915050565b600082601f83011261274057600080fd5b8135612750848260208601612649565b91505092915050565b60008135905061276881613aba565b92915050565b60006020828403121561278057600080fd5b600061278e84828501612687565b91505092915050565b600080604083850312156127aa57600080fd5b60006127b885828601612687565b92505060206127c985828601612687565b9150509250929050565b600080600080600060a086880312156127eb57600080fd5b60006127f988828901612687565b955050602061280a88828901612687565b945050604086013567ffffffffffffffff81111561282757600080fd5b612833888289016126c6565b935050606086013567ffffffffffffffff81111561285057600080fd5b61285c888289016126c6565b925050608086013567ffffffffffffffff81111561287957600080fd5b6128858882890161272f565b9150509295509295909350565b600080600080600060a086880312156128aa57600080fd5b60006128b888828901612687565b95505060206128c988828901612687565b94505060406128da88828901612759565b93505060606128eb88828901612759565b925050608086013567ffffffffffffffff81111561290857600080fd5b6129148882890161272f565b9150509295509295909350565b6000806040838503121561293457600080fd5b600061294285828601612687565b9250506020612953858286016126f0565b9150509250929050565b6000806040838503121561297057600080fd5b600061297e85828601612687565b925050602061298f85828601612759565b9150509250929050565b6000806000606084860312156129ae57600080fd5b60006129bc86828701612687565b93505060206129cd86828701612759565b92505060406129de86828701612759565b9150509250925092565b600080604083850312156129fb57600080fd5b600083013567ffffffffffffffff811115612a1557600080fd5b612a218582860161269c565b925050602083013567ffffffffffffffff811115612a3e57600080fd5b612a4a858286016126c6565b9150509250929050565b600060208284031215612a6657600080fd5b6000612a7484828501612705565b91505092915050565b600060208284031215612a8f57600080fd5b6000612a9d8482850161271a565b91505092915050565b600060208284031215612ab857600080fd5b6000612ac684828501612759565b91505092915050565b60008060408385031215612ae257600080fd5b6000612af085828601612759565b9250506020612b0185828601612759565b9150509250929050565b6000612b178383612e41565b60208301905092915050565b612b2c816133a4565b82525050565b6000612b3d826132b9565b612b4781856132e7565b9350612b52836132a9565b8060005b83811015612b83578151612b6a8882612b0b565b9750612b75836132da565b925050600181019050612b56565b5085935050505092915050565b612b99816133b6565b82525050565b6000612baa826132c4565b612bb481856132f8565b9350612bc4818560208601613427565b612bcd816135b5565b840191505092915050565b6000612be3826132cf565b612bed8185613309565b9350612bfd818560208601613427565b612c06816135b5565b840191505092915050565b6000612c1e603483613309565b9150612c29826135d3565b604082019050919050565b6000612c41602883613309565b9150612c4c82613622565b604082019050919050565b6000612c64602b83613309565b9150612c6f82613671565b604082019050919050565b6000612c87601a83613309565b9150612c92826136c0565b602082019050919050565b6000612caa602983613309565b9150612cb5826136e9565b604082019050919050565b6000612ccd601a83613309565b9150612cd882613738565b602082019050919050565b6000612cf0601d83613309565b9150612cfb82613761565b602082019050919050565b6000612d13601783613309565b9150612d1e8261378a565b602082019050919050565b6000612d36601f83613309565b9150612d41826137b3565b602082019050919050565b6000612d59602583613309565b9150612d64826137dc565b604082019050919050565b6000612d7c603283613309565b9150612d878261382b565b604082019050919050565b6000612d9f602a83613309565b9150612daa8261387a565b604082019050919050565b6000612dc2601683613309565b9150612dcd826138c9565b602082019050919050565b6000612de5602983613309565b9150612df0826138f2565b604082019050919050565b6000612e08602983613309565b9150612e1382613941565b604082019050919050565b6000612e2b602883613309565b9150612e3682613990565b604082019050919050565b612e4a8161340e565b82525050565b612e598161340e565b82525050565b600060a082019050612e746000830188612b23565b612e816020830187612b23565b8181036040830152612e938186612b32565b90508181036060830152612ea78185612b32565b90508181036080830152612ebb8184612b9f565b90509695505050505050565b600060a082019050612edc6000830188612b23565b612ee96020830187612b23565b612ef66040830186612e50565b612f036060830185612e50565b8181036080830152612f158184612b9f565b90509695505050505050565b60006020820190508181036000830152612f3b8184612b32565b905092915050565b60006040820190508181036000830152612f5d8185612b32565b90508181036020830152612f718184612b32565b90509392505050565b6000602082019050612f8f6000830184612b90565b92915050565b60006020820190508181036000830152612faf8184612bd8565b905092915050565b60006020820190508181036000830152612fd081612c11565b9050919050565b60006020820190508181036000830152612ff081612c34565b9050919050565b6000602082019050818103600083015261301081612c57565b9050919050565b6000602082019050818103600083015261303081612c7a565b9050919050565b6000602082019050818103600083015261305081612c9d565b9050919050565b6000602082019050818103600083015261307081612cc0565b9050919050565b6000602082019050818103600083015261309081612ce3565b9050919050565b600060208201905081810360008301526130b081612d06565b9050919050565b600060208201905081810360008301526130d081612d29565b9050919050565b600060208201905081810360008301526130f081612d4c565b9050919050565b6000602082019050818103600083015261311081612d6f565b9050919050565b6000602082019050818103600083015261313081612d92565b9050919050565b6000602082019050818103600083015261315081612db5565b9050919050565b6000602082019050818103600083015261317081612dd8565b9050919050565b6000602082019050818103600083015261319081612dfb565b9050919050565b600060208201905081810360008301526131b081612e1e565b9050919050565b60006020820190506131cc6000830184612e50565b92915050565b60006040820190506131e76000830185612e50565b6131f46020830184612e50565b9392505050565b6000613205613216565b9050613211828261348c565b919050565b6000604051905090565b600067ffffffffffffffff82111561323b5761323a613564565b5b602082029050602081019050919050565b600067ffffffffffffffff82111561326757613266613564565b5b602082029050602081019050919050565b600067ffffffffffffffff82111561329357613292613564565b5b61329c826135b5565b9050602081019050919050565b6000819050602082019050919050565b600081519050919050565b600081519050919050565b600081519050919050565b6000602082019050919050565b600082825260208201905092915050565b600082825260208201905092915050565b600082825260208201905092915050565b60006133258261340e565b91506133308361340e565b9250827fffffffffffffffffffffffffffffffffffffffffffffffffffffffffffffffff0382111561336557613364613506565b5b828201905092915050565b600061337b8261340e565b91506133868361340e565b92508282101561339957613398613506565b5b828203905092915050565b60006133af826133ee565b9050919050565b60008115159050919050565b60007fffffffff0000000000000000000000000000000000000000000000000000000082169050919050565b600073ffffffffffffffffffffffffffffffffffffffff82169050919050565b6000819050919050565b82818337600083830152505050565b60005b8381101561344557808201518184015260208101905061342a565b83811115613454576000848401525b50505050565b6000600282049050600182168061347257607f821691505b6020821081141561348657613485613535565b5b50919050565b613495826135b5565b810181811067ffffffffffffffff821117156134b4576134b3613564565b5b80604052505050565b60006134c88261340e565b91507fffffffffffffffffffffffffffffffffffffffffffffffffffffffffffffffff8214156134fb576134fa613506565b5b600182019050919050565b7f4e487b7100000000000000000000000000000000000000000000000000000000600052601160045260246000fd5b7f4e487b7100000000000000000000000000000000000000000000000000000000600052602260045260246000fd5b7f4e487b7100000000000000000000000000000000000000000000000000000000600052604160045260246000fd5b600060033d11156135b25760046000803e6135af6000516135c6565b90505b90565b6000601f19601f8301169050919050565b60008160e01c9050919050565b7f455243313135353a207472616e7366657220746f206e6f6e204552433131353560008201527f526563656976657220696d706c656d656e746572000000000000000000000000602082015250565b7f455243313135353a204552433131353552656365697665722072656a6563746560008201527f6420746f6b656e73000000000000000000000000000000000000000000000000602082015250565b7f455243313135353a2062616c616e636520717565727920666f7220746865207a60008201527f65726f2061646472657373000000000000000000000000000000000000000000602082015250565b7f596f7520646f6e2774206f776e20656e6f756768206c616e6421000000000000600082015250565b7f455243313135353a2063616c6c6572206973206e6f74206f776e6572206e6f7260008201527f20617070726f7665640000000000000000000000000000000000000000000000602082015250565b7f4e6f7420656e6f7567682063726f707320746f20706c616e7421000000000000600082015250565b7f4e6f7468696e6720706c616e74656420696e207468697320706c6f7421000000600082015250565b7f5468697320706c6f74206973206e6f7420656d70747921000000000000000000600082015250565b7f43616e277420696e637265617365206e756d626572206f6620706c6f74732e00600082015250565b7f455243313135353a207472616e7366657220746f20746865207a65726f20616460008201527f6472657373000000000000000000000000000000000000000000000000000000602082015250565b7f455243313135353a207472616e736665722063616c6c6572206973206e6f742060008201527f6f776e6572206e6f7220617070726f7665640000000000000000000000000000602082015250565b7f455243313135353a20696e73756666696369656e742062616c616e636520666f60008201527f72207472616e7366657200000000000000000000000000000000000000000000602082015250565b7f43726f70206e6f7420646f6e652067726f77696e672e00000000000000000000600082015250565b7f455243313135353a2073657474696e6720617070726f76616c2073746174757360008201527f20666f722073656c660000000000000000000000000000000000000000000000602082015250565b7f455243313135353a206163636f756e747320616e6420696473206c656e67746860008201527f206d69736d617463680000000000000000000000000000000000000000000000602082015250565b7f455243313135353a2069647320616e6420616d6f756e7473206c656e6774682060008201527f6d69736d61746368000000000000000000000000000000000000000000000000602082015250565b600060443d10156139ef57613a72565b6139f7613216565b60043d036004823e80513d602482011167ffffffffffffffff82111715613a1f575050613a72565b808201805167ffffffffffffffff811115613a3d5750505050613a72565b80602083010160043d038501811115613a5a575050505050613a72565b613a698260200185018661348c565b82955050505050505b90565b613a7e816133a4565b8114613a8957600080fd5b50565b613a95816133b6565b8114613aa057600080fd5b50565b613aac816133c2565b8114613ab757600080fd5b50565b613ac38161340e565b8114613ace57600080fd5b5056fea26469706673582212207f15b2d25c1dab488770927bdbd78dfa3b75f1436e654a448948c87ef7c8f49364736f6c6343000801003368747470733a2f2f67616d652e6578616d706c652f6170692f6974656d2f7b69647d2e6a736f6e",
  "linkReferences": {},
  "deployedLinkReferences": {}
}