{
  "_format": "hh-sol-artifact-1",
  "contractName": "GameItems",
  "sourceName": "contracts/Token.sol",
  "abi": [
    {
      "inputs": [],
      "stateMutability": "nonpayable",
      "type": "constructor"
    },
    {
      "anonymous": false,
      "inputs": [
        {
          "indexed": true,
          "internalType": "address",
          "name": "account",
          "type": "address"
        },
        {
          "indexed": true,
          "internalType": "address",
          "name": "operator",
          "type": "address"
        },
        {
          "indexed": false,
          "internalType": "bool",
          "name": "approved",
          "type": "bool"
        }
      ],
      "name": "ApprovalForAll",
      "type": "event"
    },
    {
      "anonymous": false,
      "inputs": [
        {
          "indexed": true,
          "internalType": "address",
          "name": "operator",
          "type": "address"
        },
        {
          "indexed": true,
          "internalType": "address",
          "name": "from",
          "type": "address"
        },
        {
          "indexed": true,
          "internalType": "address",
          "name": "to",
          "type": "address"
        },
        {
          "indexed": false,
          "internalType": "uint256[]",
          "name": "ids",
          "type": "uint256[]"
        },
        {
          "indexed": false,
          "internalType": "uint256[]",
          "name": "values",
          "type": "uint256[]"
        }
      ],
      "name": "TransferBatch",
      "type": "event"
    },
    {
      "anonymous": false,
      "inputs": [
        {
          "indexed": true,
          "internalType": "address",
          "name": "operator",
          "type": "address"
        },
        {
          "indexed": true,
          "internalType": "address",
          "name": "from",
          "type": "address"
        },
        {
          "indexed": true,
          "internalType": "address",
          "name": "to",
          "type": "address"
        },
        {
          "indexed": false,
          "internalType": "uint256",
          "name": "id",
          "type": "uint256"
        },
        {
          "indexed": false,
          "internalType": "uint256",
          "name": "value",
          "type": "uint256"
        }
      ],
      "name": "TransferSingle",
      "type": "event"
    },
    {
      "anonymous": false,
      "inputs": [
        {
          "indexed": false,
          "internalType": "string",
          "name": "value",
          "type": "string"
        },
        {
          "indexed": true,
          "internalType": "uint256",
          "name": "id",
          "type": "uint256"
        }
      ],
      "name": "URI",
      "type": "event"
    },
    {
      "inputs": [],
      "name": "CARROT",
      "outputs": [
        {
          "internalType": "uint256",
          "name": "",
          "type": "uint256"
        }
      ],
      "stateMutability": "view",
      "type": "function"
    },
    {
      "inputs": [],
      "name": "MELON",
      "outputs": [
        {
          "internalType": "uint256",
          "name": "",
          "type": "uint256"
        }
      ],
      "stateMutability": "view",
      "type": "function"
    },
    {
      "inputs": [],
      "name": "PUMPKIN",
      "outputs": [
        {
          "internalType": "uint256",
          "name": "",
          "type": "uint256"
        }
      ],
      "stateMutability": "view",
      "type": "function"
    },
    {
      "inputs": [],
      "name": "WHEAT",
      "outputs": [
        {
          "internalType": "uint256",
          "name": "",
          "type": "uint256"
        }
      ],
      "stateMutability": "view",
      "type": "function"
    },
    {
      "inputs": [
        {
          "internalType": "address",
          "name": "account",
          "type": "address"
        },
        {
          "internalType": "uint256",
          "name": "id",
          "type": "uint256"
        }
      ],
      "name": "balanceOf",
      "outputs": [
        {
          "internalType": "uint256",
          "name": "",
          "type": "uint256"
        }
      ],
      "stateMutability": "view",
      "type": "function"
    },
    {
      "inputs": [
        {
          "internalType": "address[]",
          "name": "accounts",
          "type": "address[]"
        },
        {
          "internalType": "uint256[]",
          "name": "ids",
          "type": "uint256[]"
        }
      ],
      "name": "balanceOfBatch",
      "outputs": [
        {
          "internalType": "uint256[]",
          "name": "",
          "type": "uint256[]"
        }
      ],
      "stateMutability": "view",
      "type": "function"
    },
    {
      "inputs": [
        {
          "internalType": "address",
          "name": "account",
          "type": "address"
        },
        {
          "internalType": "address",
          "name": "operator",
          "type": "address"
        }
      ],
      "name": "isApprovedForAll",
      "outputs": [
        {
          "internalType": "bool",
          "name": "",
          "type": "bool"
        }
      ],
      "stateMutability": "view",
      "type": "function"
    },
    {
      "inputs": [
        {
          "internalType": "address",
          "name": "from",
          "type": "address"
        },
        {
          "internalType": "address",
          "name": "to",
          "type": "address"
        },
        {
          "internalType": "uint256[]",
          "name": "ids",
          "type": "uint256[]"
        },
        {
          "internalType": "uint256[]",
          "name": "amounts",
          "type": "uint256[]"
        },
        {
          "internalType": "bytes",
          "name": "data",
          "type": "bytes"
        }
      ],
      "name": "safeBatchTransferFrom",
      "outputs": [],
      "stateMutability": "nonpayable",
      "type": "function"
    },
    {
      "inputs": [
        {
          "internalType": "address",
          "name": "from",
          "type": "address"
        },
        {
          "internalType": "address",
          "name": "to",
          "type": "address"
        },
        {
          "internalType": "uint256",
          "name": "id",
          "type": "uint256"
        },
        {
          "internalType": "uint256",
          "name": "amount",
          "type": "uint256"
        },
        {
          "internalType": "bytes",
          "name": "data",
          "type": "bytes"
        }
      ],
      "name": "safeTransferFrom",
      "outputs": [],
      "stateMutability": "nonpayable",
      "type": "function"
    },
    {
      "inputs": [
        {
          "internalType": "address",
          "name": "operator",
          "type": "address"
        },
        {
          "internalType": "bool",
          "name": "approved",
          "type": "bool"
        }
      ],
      "name": "setApprovalForAll",
      "outputs": [],
      "stateMutability": "nonpayable",
      "type": "function"
    },
    {
      "inputs": [
        {
          "internalType": "bytes4",
          "name": "interfaceId",
          "type": "bytes4"
        }
      ],
      "name": "supportsInterface",
      "outputs": [
        {
          "internalType": "bool",
          "name": "",
          "type": "bool"
        }
      ],
      "stateMutability": "view",
      "type": "function"
    },
    {
      "inputs": [
        {
          "internalType": "uint256",
          "name": "",
          "type": "uint256"
        }
      ],
      "name": "uri",
      "outputs": [
        {
          "internalType": "string",
          "name": "",
          "type": "string"
        }
      ],
      "stateMutability": "view",
      "type": "function"
    }
  ],
  "bytecode": "0x60806040523480156200001157600080fd5b5060405180606001604052806027815260200162003295602791396200003d81620000ed60201b60201c565b506200006a336000670de0b6b3a7640000604051806020016040528060008152506200010960201b60201c565b6200009a3360016b033b2e3c9fd0803ce8000000604051806020016040528060008152506200010960201b60201c565b620000bf3360026001604051806020016040528060008152506200010960201b60201c565b620000e7336003633b9aca00604051806020016040528060008152506200010960201b60201c565b62000c59565b806002908051906020019062000105929190620005aa565b5050565b600073ffffffffffffffffffffffffffffffffffffffff168473ffffffffffffffffffffffffffffffffffffffff1614156200017c576040517f08c379a0000000000000000000000000000000000000000000000000000000008152600401620001739062000945565b60405180910390fd5b60006200018e620002ce60201b60201c565b9050620001c781600087620001a988620002d660201b60201c565b620001ba88620002d660201b60201c565b876200039f60201b60201c565b8260008086815260200190815260200160002060008773ffffffffffffffffffffffffffffffffffffffff1673ffffffffffffffffffffffffffffffffffffffff1681526020019081526020016000206000828254620002289190620009cc565b925050819055508473ffffffffffffffffffffffffffffffffffffffff16600073ffffffffffffffffffffffffffffffffffffffff168273ffffffffffffffffffffffffffffffffffffffff167fc3d58168c5ae7397731d063d5bbf3d657854427343f4c083240f7aacaa2d0f628787604051620002a892919062000967565b60405180910390a4620002c781600087878787620003a760201b60201c565b5050505050565b600033905090565b60606000600167ffffffffffffffff8111156200031c577f4e487b7100000000000000000000000000000000000000000000000000000000600052604160045260246000fd5b6040519080825280602002602001820160405280156200034b5781602001602082028036833780820191505090505b50905082816000815181106200038a577f4e487b7100000000000000000000000000000000000000000000000000000000600052603260045260246000fd5b60200260200101818152505080915050919050565b505050505050565b620003d38473ffffffffffffffffffffffffffffffffffffffff166200059760201b620008641760201c565b156200058f578373ffffffffffffffffffffffffffffffffffffffff1663f23a6e6187878686866040518663ffffffff1660e01b81526004016200041c95949392919062000879565b602060405180830381600087803b1580156200043757600080fd5b505af19250505080156200046b57506040513d601f19601f8201168201806040525081019062000468919062000671565b60015b62000503576200047a62000b7b565b80620004875750620004c6565b806040517f08c379a0000000000000000000000000000000000000000000000000000000008152600401620004bd9190620008dd565b60405180910390fd5b6040517f08c379a0000000000000000000000000000000000000000000000000000000008152600401620004fa9062000901565b60405180910390fd5b63f23a6e6160e01b7bffffffffffffffffffffffffffffffffffffffffffffffffffffffff1916817bffffffffffffffffffffffffffffffffffffffffffffffffffffffff1916146200058d576040517f08c379a0000000000000000000000000000000000000000000000000000000008152600401620005849062000923565b60405180910390fd5b505b505050505050565b600080823b905060008111915050919050565b828054620005b89062000ac9565b90600052602060002090601f016020900481019282620005dc576000855562000628565b82601f10620005f757805160ff191683800117855562000628565b8280016001018555821562000628579182015b82811115620006275782518255916020019190600101906200060a565b5b5090506200063791906200063b565b5090565b5b80821115620006565760008160009055506001016200063c565b5090565b6000815190506200066b8162000c3f565b92915050565b6000602082840312156200068457600080fd5b600062000694848285016200065a565b91505092915050565b620006a88162000a29565b82525050565b6000620006bb8262000994565b620006c78185620009aa565b9350620006d981856020860162000a93565b620006e48162000b5d565b840191505092915050565b6000620006fc826200099f565b620007088185620009bb565b93506200071a81856020860162000a93565b620007258162000b5d565b840191505092915050565b60006200073f603483620009bb565b91507f455243313135353a207472616e7366657220746f206e6f6e204552433131353560008301527f526563656976657220696d706c656d656e7465720000000000000000000000006020830152604082019050919050565b6000620007a7602883620009bb565b91507f455243313135353a204552433131353552656365697665722072656a6563746560008301527f6420746f6b656e730000000000000000000000000000000000000000000000006020830152604082019050919050565b60006200080f602183620009bb565b91507f455243313135353a206d696e7420746f20746865207a65726f2061646472657360008301527f73000000000000000000000000000000000000000000000000000000000000006020830152604082019050919050565b620008738162000a89565b82525050565b600060a0820190506200089060008301886200069d565b6200089f60208301876200069d565b620008ae604083018662000868565b620008bd606083018562000868565b8181036080830152620008d18184620006ae565b90509695505050505050565b60006020820190508181036000830152620008f98184620006ef565b905092915050565b600060208201905081810360008301526200091c8162000730565b9050919050565b600060208201905081810360008301526200093e8162000798565b9050919050565b60006020820190508181036000830152620009608162000800565b9050919050565b60006040820190506200097e600083018562000868565b6200098d602083018462000868565b9392505050565b600081519050919050565b600081519050919050565b600082825260208201905092915050565b600082825260208201905092915050565b6000620009d98262000a89565b9150620009e68362000a89565b9250827fffffffffffffffffffffffffffffffffffffffffffffffffffffffffffffffff0382111562000a1e5762000a1d62000aff565b5b828201905092915050565b600062000a368262000a69565b9050919050565b60007fffffffff0000000000000000000000000000000000000000000000000000000082169050919050565b600073ffffffffffffffffffffffffffffffffffffffff82169050919050565b6000819050919050565b60005b8381101562000ab357808201518184015260208101905062000a96565b8381111562000ac3576000848401525b50505050565b6000600282049050600182168062000ae257607f821691505b6020821081141562000af95762000af862000b2e565b5b50919050565b7f4e487b7100000000000000000000000000000000000000000000000000000000600052601160045260246000fd5b7f4e487b7100000000000000000000000000000000000000000000000000000000600052602260045260246000fd5b6000601f19601f8301169050919050565b60008160e01c9050919050565b600060443d101562000b8d5762000c3c565b60046000803e62000ba060005162000b6e565b6308c379a0811462000bb3575062000c3c565b60405160043d036004823e80513d602482011167ffffffffffffffff8211171562000be15750505062000c3c565b808201805167ffffffffffffffff81111562000c0257505050505062000c3c565b8060208301013d850181111562000c1f5750505050505062000c3c565b62000c2a8262000b5d565b60208401016040528296505050505050505b90565b62000c4a8162000a3d565b811462000c5657600080fd5b50565b61262c8062000c696000396000f3fe608060405234801561001057600080fd5b50600436106100b35760003560e01c8063bf701ed411610071578063bf701ed4146101b0578063ccc3aeec146101ce578063e985e9c5146101ec578063f242432a1461021c578063f43e391814610238578063ff2dff2d14610256576100b3565b8062fdd58e146100b857806301ffc9a7146100e85780630e89341c146101185780632eb2c2d6146101485780634e1273f414610164578063a22cb46514610194575b600080fd5b6100d260048036038101906100cd9190611869565b610274565b6040516100df9190612144565b60405180910390f35b61010260048036038101906100fd9190611911565b61033d565b60405161010f9190611fc7565b60405180910390f35b610132600480360381019061012d9190611963565b61041f565b60405161013f9190611fe2565b60405180910390f35b610162600480360381019061015d91906116df565b6104b3565b005b61017e600480360381019061017991906118a5565b610554565b60405161018b9190611f6e565b60405180910390f35b6101ae60048036038101906101a9919061182d565b610705565b005b6101b861071b565b6040516101c59190612144565b60405180910390f35b6101d6610720565b6040516101e39190612144565b60405180910390f35b610206600480360381019061020191906116a3565b610725565b6040516102139190611fc7565b60405180910390f35b6102366004803603810190610231919061179e565b6107b9565b005b61024061085a565b60405161024d9190612144565b60405180910390f35b61025e61085f565b60405161026b9190612144565b60405180910390f35b60008073ffffffffffffffffffffffffffffffffffffffff168373ffffffffffffffffffffffffffffffffffffffff1614156102e5576040517f08c379a00000000000000000000000000000000000000000000000000000000081526004016102dc90612044565b60405180910390fd5b60008083815260200190815260200160002060008473ffffffffffffffffffffffffffffffffffffffff1673ffffffffffffffffffffffffffffffffffffffff16815260200190815260200160002054905092915050565b60007fd9b67a26000000000000000000000000000000000000000000000000000000007bffffffffffffffffffffffffffffffffffffffffffffffffffffffff1916827bffffffffffffffffffffffffffffffffffffffffffffffffffffffff1916148061040857507f0e89341c000000000000000000000000000000000000000000000000000000007bffffffffffffffffffffffffffffffffffffffffffffffffffffffff1916827bffffffffffffffffffffffffffffffffffffffffffffffffffffffff1916145b80610418575061041782610877565b5b9050919050565b60606002805461042e906123be565b80601f016020809104026020016040519081016040528092919081815260200182805461045a906123be565b80156104a75780601f1061047c576101008083540402835291602001916104a7565b820191906000526020600020905b81548152906001019060200180831161048a57829003601f168201915b50505050509050919050565b6104bb6108e1565b73ffffffffffffffffffffffffffffffffffffffff168573ffffffffffffffffffffffffffffffffffffffff1614806105015750610500856104fb6108e1565b610725565b5b610540576040517f08c379a0000000000000000000000000000000000000000000000000000000008152600401610537906120a4565b60405180910390fd5b61054d85858585856108e9565b5050505050565b6060815183511461059a576040517f08c379a000000000000000000000000000000000000000000000000000000000815260040161059190612104565b60405180910390fd5b6000835167ffffffffffffffff8111156105dd577f4e487b7100000000000000000000000000000000000000000000000000000000600052604160045260246000fd5b60405190808252806020026020018201604052801561060b5781602001602082028036833780820191505090505b50905060005b84518110156106fa576106a4858281518110610656577f4e487b7100000000000000000000000000000000000000000000000000000000600052603260045260246000fd5b6020026020010151858381518110610697577f4e487b7100000000000000000000000000000000000000000000000000000000600052603260045260246000fd5b6020026020010151610274565b8282815181106106dd577f4e487b7100000000000000000000000000000000000000000000000000000000600052603260045260246000fd5b602002602001018181525050806106f3906123f0565b9050610611565b508091505092915050565b6107176107106108e1565b8383610c49565b5050565b600381565b600181565b6000600160008473ffffffffffffffffffffffffffffffffffffffff1673ffffffffffffffffffffffffffffffffffffffff16815260200190815260200160002060008373ffffffffffffffffffffffffffffffffffffffff1673ffffffffffffffffffffffffffffffffffffffff16815260200190815260200160002060009054906101000a900460ff16905092915050565b6107c16108e1565b73ffffffffffffffffffffffffffffffffffffffff168573ffffffffffffffffffffffffffffffffffffffff1614806108075750610806856108016108e1565b610725565b5b610846576040517f08c379a000000000000000000000000000000000000000000000000000000000815260040161083d90612064565b60405180910390fd5b6108538585858585610db6565b5050505050565b600281565b600081565b600080823b905060008111915050919050565b60007f01ffc9a7000000000000000000000000000000000000000000000000000000007bffffffffffffffffffffffffffffffffffffffffffffffffffffffff1916827bffffffffffffffffffffffffffffffffffffffffffffffffffffffff1916149050919050565b600033905090565b815183511461092d576040517f08c379a000000000000000000000000000000000000000000000000000000000815260040161092490612124565b60405180910390fd5b600073ffffffffffffffffffffffffffffffffffffffff168473ffffffffffffffffffffffffffffffffffffffff16141561099d576040517f08c379a000000000000000000000000000000000000000000000000000000000815260040161099490612084565b60405180910390fd5b60006109a76108e1565b90506109b7818787878787611038565b60005b8451811015610bb45760008582815181106109fe577f4e487b7100000000000000000000000000000000000000000000000000000000600052603260045260246000fd5b602002602001015190506000858381518110610a43577f4e487b7100000000000000000000000000000000000000000000000000000000600052603260045260246000fd5b60200260200101519050600080600084815260200190815260200160002060008b73ffffffffffffffffffffffffffffffffffffffff1673ffffffffffffffffffffffffffffffffffffffff16815260200190815260200160002054905081811015610ae4576040517f08c379a0000000000000000000000000000000000000000000000000000000008152600401610adb906120c4565b60405180910390fd5b81810360008085815260200190815260200160002060008c73ffffffffffffffffffffffffffffffffffffffff1673ffffffffffffffffffffffffffffffffffffffff168152602001908152602001600020819055508160008085815260200190815260200160002060008b73ffffffffffffffffffffffffffffffffffffffff1673ffffffffffffffffffffffffffffffffffffffff1681526020019081526020016000206000828254610b9991906122b2565b9250508190555050505080610bad906123f0565b90506109ba565b508473ffffffffffffffffffffffffffffffffffffffff168673ffffffffffffffffffffffffffffffffffffffff168273ffffffffffffffffffffffffffffffffffffffff167f4a39dc06d4c0dbc64b70af90fd698a233a518aa5d07e595d983b8c0526c8f7fb8787604051610c2b929190611f90565b60405180910390a4610c41818787878787611040565b505050505050565b8173ffffffffffffffffffffffffffffffffffffffff168373ffffffffffffffffffffffffffffffffffffffff161415610cb8576040517f08c379a0000000000000000000000000000000000000000000000000000000008152600401610caf906120e4565b60405180910390fd5b80600160008573ffffffffffffffffffffffffffffffffffffffff1673ffffffffffffffffffffffffffffffffffffffff16815260200190815260200160002060008473ffffffffffffffffffffffffffffffffffffffff1673ffffffffffffffffffffffffffffffffffffffff16815260200190815260200160002060006101000a81548160ff0219169083151502179055508173ffffffffffffffffffffffffffffffffffffffff168373ffffffffffffffffffffffffffffffffffffffff167f17307eab39ab6107e8899845ad3d59bd9653f200f220920489ca2b5937696c3183604051610da99190611fc7565b60405180910390a3505050565b600073ffffffffffffffffffffffffffffffffffffffff168473ffffffffffffffffffffffffffffffffffffffff161415610e26576040517f08c379a0000000000000000000000000000000000000000000000000000000008152600401610e1d90612084565b60405180910390fd5b6000610e306108e1565b9050610e50818787610e4188611210565b610e4a88611210565b87611038565b600080600086815260200190815260200160002060008873ffffffffffffffffffffffffffffffffffffffff1673ffffffffffffffffffffffffffffffffffffffff16815260200190815260200160002054905083811015610ee7576040517f08c379a0000000000000000000000000000000000000000000000000000000008152600401610ede906120c4565b60405180910390fd5b83810360008087815260200190815260200160002060008973ffffffffffffffffffffffffffffffffffffffff1673ffffffffffffffffffffffffffffffffffffffff168152602001908152602001600020819055508360008087815260200190815260200160002060008873ffffffffffffffffffffffffffffffffffffffff1673ffffffffffffffffffffffffffffffffffffffff1681526020019081526020016000206000828254610f9c91906122b2565b925050819055508573ffffffffffffffffffffffffffffffffffffffff168773ffffffffffffffffffffffffffffffffffffffff168373ffffffffffffffffffffffffffffffffffffffff167fc3d58168c5ae7397731d063d5bbf3d657854427343f4c083240f7aacaa2d0f62888860405161101992919061215f565b60405180910390a461102f8288888888886112d6565b50505050505050565b505050505050565b61105f8473ffffffffffffffffffffffffffffffffffffffff16610864565b15611208578373ffffffffffffffffffffffffffffffffffffffff1663bc197c8187878686866040518663ffffffff1660e01b81526004016110a5959493929190611eac565b602060405180830381600087803b1580156110bf57600080fd5b505af19250505080156110f057506040513d601f19601f820116820180604052508101906110ed919061193a565b60015b61117f576110fc6124e4565b806111075750611144565b806040517f08c379a000000000000000000000000000000000000000000000000000000000815260040161113b9190611fe2565b60405180910390fd5b6040517f08c379a000000000000000000000000000000000000000000000000000000000815260040161117690612004565b60405180910390fd5b63bc197c8160e01b7bffffffffffffffffffffffffffffffffffffffffffffffffffffffff1916817bffffffffffffffffffffffffffffffffffffffffffffffffffffffff191614611206576040517f08c379a00000000000000000000000000000000000000000000000000000000081526004016111fd90612024565b60405180910390fd5b505b505050505050565b60606000600167ffffffffffffffff811115611255577f4e487b7100000000000000000000000000000000000000000000000000000000600052604160045260246000fd5b6040519080825280602002602001820160405280156112835781602001602082028036833780820191505090505b50905082816000815181106112c1577f4e487b7100000000000000000000000000000000000000000000000000000000600052603260045260246000fd5b60200260200101818152505080915050919050565b6112f58473ffffffffffffffffffffffffffffffffffffffff16610864565b1561149e578373ffffffffffffffffffffffffffffffffffffffff1663f23a6e6187878686866040518663ffffffff1660e01b815260040161133b959493929190611f14565b602060405180830381600087803b15801561135557600080fd5b505af192505050801561138657506040513d601f19601f82011682018060405250810190611383919061193a565b60015b611415576113926124e4565b8061139d57506113da565b806040517f08c379a00000000000000000000000000000000000000000000000000000000081526004016113d19190611fe2565b60405180910390fd5b6040517f08c379a000000000000000000000000000000000000000000000000000000000815260040161140c90612004565b60405180910390fd5b63f23a6e6160e01b7bffffffffffffffffffffffffffffffffffffffffffffffffffffffff1916817bffffffffffffffffffffffffffffffffffffffffffffffffffffffff19161461149c576040517f08c379a000000000000000000000000000000000000000000000000000000000815260040161149390612024565b60405180910390fd5b505b505050505050565b60006114b96114b4846121b9565b612188565b905080838252602082019050828560208602820111156114d857600080fd5b60005b8581101561150857816114ee88826115bc565b8452602084019350602083019250506001810190506114db565b5050509392505050565b6000611525611520846121e5565b612188565b9050808382526020820190508285602086028201111561154457600080fd5b60005b85811015611574578161155a888261168e565b845260208401935060208301925050600181019050611547565b5050509392505050565b600061159161158c84612211565b612188565b9050828152602081018484840111156115a957600080fd5b6115b484828561237c565b509392505050565b6000813590506115cb8161259a565b92915050565b600082601f8301126115e257600080fd5b81356115f28482602086016114a6565b91505092915050565b600082601f83011261160c57600080fd5b813561161c848260208601611512565b91505092915050565b600081359050611634816125b1565b92915050565b600081359050611649816125c8565b92915050565b60008151905061165e816125c8565b92915050565b600082601f83011261167557600080fd5b813561168584826020860161157e565b91505092915050565b60008135905061169d816125df565b92915050565b600080604083850312156116b657600080fd5b60006116c4858286016115bc565b92505060206116d5858286016115bc565b9150509250929050565b600080600080600060a086880312156116f757600080fd5b6000611705888289016115bc565b9550506020611716888289016115bc565b945050604086013567ffffffffffffffff81111561173357600080fd5b61173f888289016115fb565b935050606086013567ffffffffffffffff81111561175c57600080fd5b611768888289016115fb565b925050608086013567ffffffffffffffff81111561178557600080fd5b61179188828901611664565b9150509295509295909350565b600080600080600060a086880312156117b657600080fd5b60006117c4888289016115bc565b95505060206117d5888289016115bc565b94505060406117e68882890161168e565b93505060606117f78882890161168e565b925050608086013567ffffffffffffffff81111561181457600080fd5b61182088828901611664565b9150509295509295909350565b6000806040838503121561184057600080fd5b600061184e858286016115bc565b925050602061185f85828601611625565b9150509250929050565b6000806040838503121561187c57600080fd5b600061188a858286016115bc565b925050602061189b8582860161168e565b9150509250929050565b600080604083850312156118b857600080fd5b600083013567ffffffffffffffff8111156118d257600080fd5b6118de858286016115d1565b925050602083013567ffffffffffffffff8111156118fb57600080fd5b611907858286016115fb565b9150509250929050565b60006020828403121561192357600080fd5b60006119318482850161163a565b91505092915050565b60006020828403121561194c57600080fd5b600061195a8482850161164f565b91505092915050565b60006020828403121561197557600080fd5b60006119838482850161168e565b91505092915050565b60006119988383611e8e565b60208301905092915050565b6119ad81612308565b82525050565b60006119be82612251565b6119c8818561227f565b93506119d383612241565b8060005b83811015611a045781516119eb888261198c565b97506119f683612272565b9250506001810190506119d7565b5085935050505092915050565b611a1a8161231a565b82525050565b6000611a2b8261225c565b611a358185612290565b9350611a4581856020860161238b565b611a4e816124c6565b840191505092915050565b6000611a6482612267565b611a6e81856122a1565b9350611a7e81856020860161238b565b611a87816124c6565b840191505092915050565b6000611a9f6034836122a1565b91507f455243313135353a207472616e7366657220746f206e6f6e204552433131353560008301527f526563656976657220696d706c656d656e7465720000000000000000000000006020830152604082019050919050565b6000611b056028836122a1565b91507f455243313135353a204552433131353552656365697665722072656a6563746560008301527f6420746f6b656e730000000000000000000000000000000000000000000000006020830152604082019050919050565b6000611b6b602b836122a1565b91507f455243313135353a2062616c616e636520717565727920666f7220746865207a60008301527f65726f20616464726573730000000000000000000000000000000000000000006020830152604082019050919050565b6000611bd16029836122a1565b91507f455243313135353a2063616c6c6572206973206e6f74206f776e6572206e6f7260008301527f20617070726f76656400000000000000000000000000000000000000000000006020830152604082019050919050565b6000611c376025836122a1565b91507f455243313135353a207472616e7366657220746f20746865207a65726f20616460008301527f64726573730000000000000000000000000000000000000000000000000000006020830152604082019050919050565b6000611c9d6032836122a1565b91507f455243313135353a207472616e736665722063616c6c6572206973206e6f742060008301527f6f776e6572206e6f7220617070726f76656400000000000000000000000000006020830152604082019050919050565b6000611d03602a836122a1565b91507f455243313135353a20696e73756666696369656e742062616c616e636520666f60008301527f72207472616e73666572000000000000000000000000000000000000000000006020830152604082019050919050565b6000611d696029836122a1565b91507f455243313135353a2073657474696e6720617070726f76616c2073746174757360008301527f20666f722073656c6600000000000000000000000000000000000000000000006020830152604082019050919050565b6000611dcf6029836122a1565b91507f455243313135353a206163636f756e747320616e6420696473206c656e67746860008301527f206d69736d6174636800000000000000000000000000000000000000000000006020830152604082019050919050565b6000611e356028836122a1565b91507f455243313135353a2069647320616e6420616d6f756e7473206c656e6774682060008301527f6d69736d617463680000000000000000000000000000000000000000000000006020830152604082019050919050565b611e9781612372565b82525050565b611ea681612372565b82525050565b600060a082019050611ec160008301886119a4565b611ece60208301876119a4565b8181036040830152611ee081866119b3565b90508181036060830152611ef481856119b3565b90508181036080830152611f088184611a20565b90509695505050505050565b600060a082019050611f2960008301886119a4565b611f3660208301876119a4565b611f436040830186611e9d565b611f506060830185611e9d565b8181036080830152611f628184611a20565b90509695505050505050565b60006020820190508181036000830152611f8881846119b3565b905092915050565b60006040820190508181036000830152611faa81856119b3565b90508181036020830152611fbe81846119b3565b90509392505050565b6000602082019050611fdc6000830184611a11565b92915050565b60006020820190508181036000830152611ffc8184611a59565b905092915050565b6000602082019050818103600083015261201d81611a92565b9050919050565b6000602082019050818103600083015261203d81611af8565b9050919050565b6000602082019050818103600083015261205d81611b5e565b9050919050565b6000602082019050818103600083015261207d81611bc4565b9050919050565b6000602082019050818103600083015261209d81611c2a565b9050919050565b600060208201905081810360008301526120bd81611c90565b9050919050565b600060208201905081810360008301526120dd81611cf6565b9050919050565b600060208201905081810360008301526120fd81611d5c565b9050919050565b6000602082019050818103600083015261211d81611dc2565b9050919050565b6000602082019050818103600083015261213d81611e28565b9050919050565b60006020820190506121596000830184611e9d565b92915050565b60006040820190506121746000830185611e9d565b6121816020830184611e9d565b9392505050565b6000604051905081810181811067ffffffffffffffff821117156121af576121ae612497565b5b8060405250919050565b600067ffffffffffffffff8211156121d4576121d3612497565b5b602082029050602081019050919050565b600067ffffffffffffffff821115612200576121ff612497565b5b602082029050602081019050919050565b600067ffffffffffffffff82111561222c5761222b612497565b5b601f19601f8301169050602081019050919050565b6000819050602082019050919050565b600081519050919050565b600081519050919050565b600081519050919050565b6000602082019050919050565b600082825260208201905092915050565b600082825260208201905092915050565b600082825260208201905092915050565b60006122bd82612372565b91506122c883612372565b9250827fffffffffffffffffffffffffffffffffffffffffffffffffffffffffffffffff038211156122fd576122fc612439565b5b828201905092915050565b600061231382612352565b9050919050565b60008115159050919050565b60007fffffffff0000000000000000000000000000000000000000000000000000000082169050919050565b600073ffffffffffffffffffffffffffffffffffffffff82169050919050565b6000819050919050565b82818337600083830152505050565b60005b838110156123a957808201518184015260208101905061238e565b838111156123b8576000848401525b50505050565b600060028204905060018216806123d657607f821691505b602082108114156123ea576123e9612468565b5b50919050565b60006123fb82612372565b91507fffffffffffffffffffffffffffffffffffffffffffffffffffffffffffffffff82141561242e5761242d612439565b5b600182019050919050565b7f4e487b7100000000000000000000000000000000000000000000000000000000600052601160045260246000fd5b7f4e487b7100000000000000000000000000000000000000000000000000000000600052602260045260246000fd5b7f4e487b7100000000000000000000000000000000000000000000000000000000600052604160045260246000fd5b6000601f19601f8301169050919050565b60008160e01c9050919050565b600060443d10156124f457612597565b60046000803e6125056000516124d7565b6308c379a081146125165750612597565b60405160043d036004823e80513d602482011167ffffffffffffffff8211171561254257505050612597565b808201805167ffffffffffffffff811115612561575050505050612597565b8060208301013d850181111561257c57505050505050612597565b612585826124c6565b60208401016040528296505050505050505b90565b6125a381612308565b81146125ae57600080fd5b50565b6125ba8161231a565b81146125c557600080fd5b50565b6125d181612326565b81146125dc57600080fd5b50565b6125e881612372565b81146125f357600080fd5b5056fea26469706673582212206163cc120bb4f80bb993c4f42d810a8e908fb520ba195a4e904995e528e6e15464736f6c6343000800003368747470733a2f2f67616d652e6578616d706c652f6170692f6974656d2f7b69647d2e6a736f6e",
  "linkReferences": {},
  "deployedLinkReferences": {}
}