{
  "_format": "hh-sol-artifact-1",
  "contractName": "CropFarm",
  "sourceName": "contracts/Token.sol",
  "abi": [
    {
      "inputs": [],
      "stateMutability": "nonpayable",
      "type": "constructor"
    },
    {
      "anonymous": false,
      "inputs": [
        {
          "indexed": true,
          "internalType": "address",
          "name": "account",
          "type": "address"
        },
        {
          "indexed": true,
          "internalType": "address",
          "name": "operator",
          "type": "address"
        },
        {
          "indexed": false,
          "internalType": "bool",
          "name": "approved",
          "type": "bool"
        }
      ],
      "name": "ApprovalForAll",
      "type": "event"
    },
    {
      "anonymous": false,
      "inputs": [
        {
          "indexed": true,
          "internalType": "address",
          "name": "operator",
          "type": "address"
        },
        {
          "indexed": true,
          "internalType": "address",
          "name": "from",
          "type": "address"
        },
        {
          "indexed": true,
          "internalType": "address",
          "name": "to",
          "type": "address"
        },
        {
          "indexed": false,
          "internalType": "uint256[]",
          "name": "ids",
          "type": "uint256[]"
        },
        {
          "indexed": false,
          "internalType": "uint256[]",
          "name": "values",
          "type": "uint256[]"
        }
      ],
      "name": "TransferBatch",
      "type": "event"
    },
    {
      "anonymous": false,
      "inputs": [
        {
          "indexed": true,
          "internalType": "address",
          "name": "operator",
          "type": "address"
        },
        {
          "indexed": true,
          "internalType": "address",
          "name": "from",
          "type": "address"
        },
        {
          "indexed": true,
          "internalType": "address",
          "name": "to",
          "type": "address"
        },
        {
          "indexed": false,
          "internalType": "uint256",
          "name": "id",
          "type": "uint256"
        },
        {
          "indexed": false,
          "internalType": "uint256",
          "name": "value",
          "type": "uint256"
        }
      ],
      "name": "TransferSingle",
      "type": "event"
    },
    {
      "anonymous": false,
      "inputs": [
        {
          "indexed": false,
          "internalType": "string",
          "name": "value",
          "type": "string"
        },
        {
          "indexed": true,
          "internalType": "uint256",
          "name": "id",
          "type": "uint256"
        }
      ],
      "name": "URI",
      "type": "event"
    },
    {
      "inputs": [],
      "name": "CORN",
      "outputs": [
        {
          "internalType": "uint256",
          "name": "",
          "type": "uint256"
        }
      ],
      "stateMutability": "view",
      "type": "function"
    },
    {
      "inputs": [],
      "name": "MELON",
      "outputs": [
        {
          "internalType": "uint256",
          "name": "",
          "type": "uint256"
        }
      ],
      "stateMutability": "view",
      "type": "function"
    },
    {
      "inputs": [],
      "name": "NULL",
      "outputs": [
        {
          "internalType": "uint256",
          "name": "",
          "type": "uint256"
        }
      ],
      "stateMutability": "view",
      "type": "function"
    },
    {
      "inputs": [],
      "name": "TOMATO",
      "outputs": [
        {
          "internalType": "uint256",
          "name": "",
          "type": "uint256"
        }
      ],
      "stateMutability": "view",
      "type": "function"
    },
    {
      "inputs": [],
      "name": "WHEAT",
      "outputs": [
        {
          "internalType": "uint256",
          "name": "",
          "type": "uint256"
        }
      ],
      "stateMutability": "view",
      "type": "function"
    },
    {
      "inputs": [
        {
          "internalType": "address",
          "name": "",
          "type": "address"
        },
        {
          "internalType": "uint256",
          "name": "",
          "type": "uint256"
        }
      ],
      "name": "_balances",
      "outputs": [
        {
          "internalType": "uint256",
          "name": "totalBalance",
          "type": "uint256"
        },
        {
          "internalType": "uint256",
          "name": "stakedBalance",
          "type": "uint256"
        }
      ],
      "stateMutability": "view",
      "type": "function"
    },
    {
      "inputs": [
        {
          "internalType": "uint256",
          "name": "",
          "type": "uint256"
        }
      ],
      "name": "_crops",
      "outputs": [
        {
          "internalType": "uint256",
          "name": "id",
          "type": "uint256"
        },
        {
          "internalType": "uint256",
          "name": "growTime",
          "type": "uint256"
        },
        {
          "internalType": "uint256",
          "name": "harvest",
          "type": "uint256"
        },
        {
          "internalType": "string",
          "name": "name",
          "type": "string"
        }
      ],
      "stateMutability": "view",
      "type": "function"
    },
    {
      "inputs": [
        {
          "internalType": "address",
          "name": "",
          "type": "address"
        }
      ],
      "name": "_plotNum",
      "outputs": [
        {
          "internalType": "uint256",
          "name": "",
          "type": "uint256"
        }
      ],
      "stateMutability": "view",
      "type": "function"
    },
    {
      "inputs": [
        {
          "internalType": "address",
          "name": "account",
          "type": "address"
        },
        {
          "internalType": "uint256",
          "name": "id",
          "type": "uint256"
        }
      ],
      "name": "balanceOf",
      "outputs": [
        {
          "internalType": "uint256",
          "name": "",
          "type": "uint256"
        }
      ],
      "stateMutability": "view",
      "type": "function"
    },
    {
      "inputs": [
        {
          "internalType": "address[]",
          "name": "accounts",
          "type": "address[]"
        },
        {
          "internalType": "uint256[]",
          "name": "ids",
          "type": "uint256[]"
        }
      ],
      "name": "balanceOfBatch",
      "outputs": [
        {
          "internalType": "uint256[]",
          "name": "",
          "type": "uint256[]"
        }
      ],
      "stateMutability": "view",
      "type": "function"
    },
    {
      "inputs": [],
      "name": "buyPlot",
      "outputs": [],
      "stateMutability": "nonpayable",
      "type": "function"
    },
    {
      "inputs": [
        {
          "internalType": "uint256",
          "name": "id",
          "type": "uint256"
        }
      ],
      "name": "exists",
      "outputs": [
        {
          "internalType": "bool",
          "name": "",
          "type": "bool"
        }
      ],
      "stateMutability": "view",
      "type": "function"
    },
    {
      "inputs": [
        {
          "internalType": "uint256",
          "name": "_plot",
          "type": "uint256"
        }
      ],
      "name": "harvest",
      "outputs": [],
      "stateMutability": "nonpayable",
      "type": "function"
    },
    {
      "inputs": [
        {
          "internalType": "address",
          "name": "account",
          "type": "address"
        },
        {
          "internalType": "address",
          "name": "operator",
          "type": "address"
        }
      ],
      "name": "isApprovedForAll",
      "outputs": [
        {
          "internalType": "bool",
          "name": "",
          "type": "bool"
        }
      ],
      "stateMutability": "view",
      "type": "function"
    },
    {
      "inputs": [
        {
          "internalType": "address",
          "name": "",
          "type": "address"
        },
        {
          "internalType": "address",
          "name": "",
          "type": "address"
        },
        {
          "internalType": "uint256",
          "name": "",
          "type": "uint256"
        },
        {
          "internalType": "uint256",
          "name": "",
          "type": "uint256"
        },
        {
          "internalType": "bytes",
          "name": "",
          "type": "bytes"
        }
      ],
      "name": "onERC1155Received",
      "outputs": [
        {
          "internalType": "bytes4",
          "name": "",
          "type": "bytes4"
        }
      ],
      "stateMutability": "nonpayable",
      "type": "function"
    },
    {
      "inputs": [
        {
          "internalType": "uint256",
          "name": "_plot",
          "type": "uint256"
        },
        {
          "internalType": "uint256",
          "name": "_id",
          "type": "uint256"
        }
      ],
      "name": "plant",
      "outputs": [],
      "stateMutability": "nonpayable",
      "type": "function"
    },
    {
      "inputs": [
        {
          "internalType": "address",
          "name": "from",
          "type": "address"
        },
        {
          "internalType": "address",
          "name": "to",
          "type": "address"
        },
        {
          "internalType": "uint256[]",
          "name": "ids",
          "type": "uint256[]"
        },
        {
          "internalType": "uint256[]",
          "name": "amounts",
          "type": "uint256[]"
        },
        {
          "internalType": "bytes",
          "name": "data",
          "type": "bytes"
        }
      ],
      "name": "safeBatchTransferFrom",
      "outputs": [],
      "stateMutability": "nonpayable",
      "type": "function"
    },
    {
      "inputs": [
        {
          "internalType": "address",
          "name": "from",
          "type": "address"
        },
        {
          "internalType": "address",
          "name": "to",
          "type": "address"
        },
        {
          "internalType": "uint256",
          "name": "id",
          "type": "uint256"
        },
        {
          "internalType": "uint256",
          "name": "amount",
          "type": "uint256"
        },
        {
          "internalType": "bytes",
          "name": "data",
          "type": "bytes"
        }
      ],
      "name": "safeTransferFrom",
      "outputs": [],
      "stateMutability": "nonpayable",
      "type": "function"
    },
    {
      "inputs": [
        {
          "internalType": "address",
          "name": "operator",
          "type": "address"
        },
        {
          "internalType": "bool",
          "name": "approved",
          "type": "bool"
        }
      ],
      "name": "setApprovalForAll",
      "outputs": [],
      "stateMutability": "nonpayable",
      "type": "function"
    },
    {
      "inputs": [
        {
          "internalType": "bytes4",
          "name": "interfaceId",
          "type": "bytes4"
        }
      ],
      "name": "supportsInterface",
      "outputs": [
        {
          "internalType": "bool",
          "name": "",
          "type": "bool"
        }
      ],
      "stateMutability": "view",
      "type": "function"
    },
    {
      "inputs": [
        {
          "internalType": "uint256",
          "name": "id",
          "type": "uint256"
        }
      ],
      "name": "totalSupply",
      "outputs": [
        {
          "internalType": "uint256",
          "name": "",
          "type": "uint256"
        }
      ],
      "stateMutability": "view",
      "type": "function"
    },
    {
      "inputs": [
        {
          "internalType": "uint256",
          "name": "",
          "type": "uint256"
        }
      ],
      "name": "uri",
      "outputs": [
        {
          "internalType": "string",
          "name": "",
          "type": "string"
        }
      ],
      "stateMutability": "view",
      "type": "function"
    },
    {
      "inputs": [
        {
          "internalType": "address",
          "name": "_account",
          "type": "address"
        },
        {
          "internalType": "uint256",
          "name": "_id",
          "type": "uint256"
        },
        {
          "internalType": "uint256",
          "name": "_member",
          "type": "uint256"
        }
      ],
      "name": "viewBalance",
      "outputs": [
        {
          "internalType": "uint256",
          "name": "",
          "type": "uint256"
        }
      ],
      "stateMutability": "view",
      "type": "function"
    },
    {
      "inputs": [
        {
          "internalType": "address",
          "name": "_account",
          "type": "address"
        },
        {
          "internalType": "uint256",
          "name": "_plot",
          "type": "uint256"
        }
      ],
      "name": "viewGrowStatus",
      "outputs": [
        {
          "internalType": "uint256",
          "name": "",
          "type": "uint256"
        },
        {
          "internalType": "uint256",
          "name": "",
          "type": "uint256"
        }
      ],
      "stateMutability": "view",
      "type": "function"
    },
    {
      "inputs": [
        {
          "internalType": "address",
          "name": "_account",
          "type": "address"
        },
        {
          "internalType": "uint256",
          "name": "_id",
          "type": "uint256"
        }
      ],
      "name": "viewPlot",
      "outputs": [
        {
          "internalType": "uint256",
          "name": "",
          "type": "uint256"
        }
      ],
      "stateMutability": "view",
      "type": "function"
    }
  ],
  "bytecode": "0x60806040523480156200001157600080fd5b506040518060600160405280602781526020016200557e602791396200003d816200062460201b60201c565b50620000643360016103e8604051806020016040528060008152506200064060201b60201c565b6200008a3360026103e8604051806020016040528060008152506200064060201b60201c565b620000b03360036103e8604051806020016040528060008152506200064060201b60201c565b620000d63360046103e8604051806020016040528060008152506200064060201b60201c565b6000604051806101e00160405280600061ffff168152602001600061ffff168152602001600061ffff168152602001600161ffff168152602001606461ffff168152602001600361ffff168152602001600261ffff16815260200160c861ffff168152602001600561ffff168152602001600361ffff168152602001606461ffff168152602001600561ffff168152602001600461ffff1681526020016101f461ffff168152602001600361ffff16815250905060006040518060a001604052806040518060200160405280600081525081526020016040518060400160405280600681526020017f546f6d61746f000000000000000000000000000000000000000000000000000081525081526020016040518060400160405280600481526020017f436f726e0000000000000000000000000000000000000000000000000000000081525081526020016040518060400160405280600581526020017f574845415400000000000000000000000000000000000000000000000000000081525081526020016040518060400160405280600581526020017f4d454c4f4e00000000000000000000000000000000000000000000000000000081525081525090506000600190505b600481116200041c5782600382620002b8919062001125565b600f8110620002f0577f4e487b7100000000000000000000000000000000000000000000000000000000600052603260045260246000fd5b602002015161ffff16600660008381526020019081526020016000206000018190555082600160038362000325919062001125565b620003319190620010c8565b600f811062000369577f4e487b7100000000000000000000000000000000000000000000000000000000600052603260045260246000fd5b602002015161ffff1660066000838152602001908152602001600020600101819055508260026003836200039e919062001125565b620003aa9190620010c8565b600f8110620003e2577f4e487b7100000000000000000000000000000000000000000000000000000000600052603260045260246000fd5b602002015161ffff166006600083815260200190815260200160002060020181905550600181620004149190620010c8565b90506200029f565b506000600190505b60048111620004af5781816005811062000467577f4e487b7100000000000000000000000000000000000000000000000000000000600052603260045260246000fd5b60200201516006600083815260200190815260200160002060030190805190602001906200049792919062000d5f565b50600181620004a79190620010c8565b905062000424565b506103e8600460003373ffffffffffffffffffffffffffffffffffffffff1673ffffffffffffffffffffffffffffffffffffffff168152602001908152602001600020600060018152602001908152602001600020600001819055506103e8600460003373ffffffffffffffffffffffffffffffffffffffff1673ffffffffffffffffffffffffffffffffffffffff168152602001908152602001600020600060028152602001908152602001600020600001819055506103e8600460003373ffffffffffffffffffffffffffffffffffffffff1673ffffffffffffffffffffffffffffffffffffffff168152602001908152602001600020600060038152602001908152602001600020600001819055506103e8600460003373ffffffffffffffffffffffffffffffffffffffff1673ffffffffffffffffffffffffffffffffffffffff16815260200190815260200160002060006004815260200190815260200160002060000181905550505062001594565b80600290805190602001906200063c92919062000d5f565b5050565b600073ffffffffffffffffffffffffffffffffffffffff168473ffffffffffffffffffffffffffffffffffffffff161415620006b3576040517f08c379a0000000000000000000000000000000000000000000000000000000008152600401620006aa9062001037565b60405180910390fd5b6000620006c56200080560201b60201c565b9050620006fe81600087620006e0886200080d60201b60201c565b620006f1886200080d60201b60201c565b87620008d660201b60201c565b8260008086815260200190815260200160002060008773ffffffffffffffffffffffffffffffffffffffff1673ffffffffffffffffffffffffffffffffffffffff16815260200190815260200160002060008282546200075f9190620010c8565b925050819055508473ffffffffffffffffffffffffffffffffffffffff16600073ffffffffffffffffffffffffffffffffffffffff168273ffffffffffffffffffffffffffffffffffffffff167fc3d58168c5ae7397731d063d5bbf3d657854427343f4c083240f7aacaa2d0f628787604051620007df92919062001059565b60405180910390a4620007fe81600087878787620008f960201b60201c565b5050505050565b600033905090565b60606000600167ffffffffffffffff81111562000853577f4e487b7100000000000000000000000000000000000000000000000000000000600052604160045260246000fd5b604051908082528060200260200182016040528015620008825781602001602082028036833780820191505090505b5090508281600081518110620008c1577f4e487b7100000000000000000000000000000000000000000000000000000000600052603260045260246000fd5b60200260200101818152505080915050919050565b620008f186868686868662000b0360201b620016dd1760201c565b505050505050565b620009258473ffffffffffffffffffffffffffffffffffffffff1662000d3460201b620018ef1760201c565b1562000afb578373ffffffffffffffffffffffffffffffffffffffff1663f23a6e6187878686866040518663ffffffff1660e01b81526004016200096e95949392919062000f6b565b602060405180830381600087803b1580156200098957600080fd5b505af1925050508015620009bd57506040513d601f19601f82011682018060405250810190620009ba919062000e26565b60015b62000a6f57620009cc620013a8565b806308c379a0141562000a305750620009e4620014d8565b80620009f1575062000a32565b806040517f08c379a000000000000000000000000000000000000000000000000000000000815260040162000a27919062000fcf565b60405180910390fd5b505b6040517f08c379a000000000000000000000000000000000000000000000000000000000815260040162000a669062000ff3565b60405180910390fd5b63f23a6e6160e01b7bffffffffffffffffffffffffffffffffffffffffffffffffffffffff1916817bffffffffffffffffffffffffffffffffffffffffffffffffffffffff19161462000af9576040517f08c379a000000000000000000000000000000000000000000000000000000000815260040162000af09062001015565b60405180910390fd5b505b505050505050565b62000b1e86868686868662000d5760201b620019121760201c565b600073ffffffffffffffffffffffffffffffffffffffff168573ffffffffffffffffffffffffffffffffffffffff16141562000c255760005b835181101562000c235782818151811062000b9b577f4e487b7100000000000000000000000000000000000000000000000000000000600052603260045260246000fd5b60200260200101516003600086848151811062000be1577f4e487b7100000000000000000000000000000000000000000000000000000000600052603260045260246000fd5b60200260200101518152602001908152602001600020600082825462000c089190620010c8565b925050819055508062000c1b90620012cd565b905062000b57565b505b600073ffffffffffffffffffffffffffffffffffffffff168473ffffffffffffffffffffffffffffffffffffffff16141562000d2c5760005b835181101562000d2a5782818151811062000ca2577f4e487b7100000000000000000000000000000000000000000000000000000000600052603260045260246000fd5b60200260200101516003600086848151811062000ce8577f4e487b7100000000000000000000000000000000000000000000000000000000600052603260045260246000fd5b60200260200101518152602001908152602001600020600082825462000d0f919062001186565b925050819055508062000d2290620012cd565b905062000c5e565b505b505050505050565b6000808273ffffffffffffffffffffffffffffffffffffffff163b119050919050565b505050505050565b82805462000d6d9062001261565b90600052602060002090601f01602090048101928262000d91576000855562000ddd565b82601f1062000dac57805160ff191683800117855562000ddd565b8280016001018555821562000ddd579182015b8281111562000ddc57825182559160200191906001019062000dbf565b5b50905062000dec919062000df0565b5090565b5b8082111562000e0b57600081600090555060010162000df1565b5090565b60008151905062000e20816200157a565b92915050565b60006020828403121562000e3957600080fd5b600062000e498482850162000e0f565b91505092915050565b62000e5d81620011c1565b82525050565b600062000e708262001090565b62000e7c8185620010a6565b935062000e8e8185602086016200122b565b62000e9981620013cd565b840191505092915050565b600062000eb1826200109b565b62000ebd8185620010b7565b935062000ecf8185602086016200122b565b62000eda81620013cd565b840191505092915050565b600062000ef4603483620010b7565b915062000f0182620013eb565b604082019050919050565b600062000f1b602883620010b7565b915062000f28826200143a565b604082019050919050565b600062000f42602183620010b7565b915062000f4f8262001489565b604082019050919050565b62000f658162001221565b82525050565b600060a08201905062000f82600083018862000e52565b62000f91602083018762000e52565b62000fa0604083018662000f5a565b62000faf606083018562000f5a565b818103608083015262000fc3818462000e63565b90509695505050505050565b6000602082019050818103600083015262000feb818462000ea4565b905092915050565b600060208201905081810360008301526200100e8162000ee5565b9050919050565b60006020820190508181036000830152620010308162000f0c565b9050919050565b60006020820190508181036000830152620010528162000f33565b9050919050565b600060408201905062001070600083018562000f5a565b6200107f602083018462000f5a565b9392505050565b6000604051905090565b600081519050919050565b600081519050919050565b600082825260208201905092915050565b600082825260208201905092915050565b6000620010d58262001221565b9150620010e28362001221565b9250827fffffffffffffffffffffffffffffffffffffffffffffffffffffffffffffffff038211156200111a57620011196200131b565b5b828201905092915050565b6000620011328262001221565b91506200113f8362001221565b9250817fffffffffffffffffffffffffffffffffffffffffffffffffffffffffffffffff04831182151516156200117b576200117a6200131b565b5b828202905092915050565b6000620011938262001221565b9150620011a08362001221565b925082821015620011b657620011b56200131b565b5b828203905092915050565b6000620011ce8262001201565b9050919050565b60007fffffffff0000000000000000000000000000000000000000000000000000000082169050919050565b600073ffffffffffffffffffffffffffffffffffffffff82169050919050565b6000819050919050565b60005b838110156200124b5780820151818401526020810190506200122e565b838111156200125b576000848401525b50505050565b600060028204905060018216806200127a57607f821691505b602082108114156200129157620012906200134a565b5b50919050565b620012a282620013cd565b810181811067ffffffffffffffff82111715620012c457620012c362001379565b5b80604052505050565b6000620012da8262001221565b91507fffffffffffffffffffffffffffffffffffffffffffffffffffffffffffffffff82141562001310576200130f6200131b565b5b600182019050919050565b7f4e487b7100000000000000000000000000000000000000000000000000000000600052601160045260246000fd5b7f4e487b7100000000000000000000000000000000000000000000000000000000600052602260045260246000fd5b7f4e487b7100000000000000000000000000000000000000000000000000000000600052604160045260246000fd5b600060033d1115620013ca5760046000803e620013c7600051620013de565b90505b90565b6000601f19601f8301169050919050565b60008160e01c9050919050565b7f455243313135353a207472616e7366657220746f206e6f6e204552433131353560008201527f526563656976657220696d706c656d656e746572000000000000000000000000602082015250565b7f455243313135353a204552433131353552656365697665722072656a6563746560008201527f6420746f6b656e73000000000000000000000000000000000000000000000000602082015250565b7f455243313135353a206d696e7420746f20746865207a65726f2061646472657360008201527f7300000000000000000000000000000000000000000000000000000000000000602082015250565b600060443d1015620014ea5762001577565b620014f462001086565b60043d036004823e80513d602482011167ffffffffffffffff821117156200151e57505062001577565b808201805167ffffffffffffffff8111156200153e575050505062001577565b80602083010160043d0385018111156200155d57505050505062001577565b6200156e8260200185018662001297565b82955050505050505b90565b6200158581620011d5565b81146200159157600080fd5b50565b613fda80620015a46000396000f3fe608060405234801561001057600080fd5b50600436106101725760003560e01c80637d0c78f2116100de578063e3f8f55511610097578063f242432a11610071578063f242432a146104d2578063f26be3fc146104ee578063f43e39181461050c578063ff2dff2d1461052a57610172565b8063e3f8f55514610454578063e985e9c514610472578063f23a6e61146104a257610172565b80637d0c78f21461038257806392658a28146103a0578063a22cb465146103bc578063bd85b039146103d8578063bf4fbf4914610408578063ddc632621461043857610172565b80632eb2c2d6116101305780632eb2c2d61461029b57806349e66311146102b75780634e1273f4146102e75780634f558e791461031757806359098a55146103475780636be8d6b51461035157610172565b8062fdd58e1461017757806301ffc9a7146101a757806303b46fcc146101d75780630b3ba0bf146102075780630e89341c1461023a5780632568c6371461026a575b600080fd5b610191600480360381019061018c9190612d28565b610548565b60405161019e91906135ef565b60405180910390f35b6101c160048036038101906101bc9190612e1f565b610611565b6040516101ce9190613377565b60405180910390f35b6101f160048036038101906101ec9190612d64565b6106f3565b6040516101fe91906135ef565b60405180910390f35b610221600480360381019061021c9190612e71565b6107c8565b6040516102319493929190613633565b60405180910390f35b610254600480360381019061024f9190612e71565b610880565b60405161026191906133ad565b60405180910390f35b610284600480360381019061027f9190612d28565b610914565b60405161029292919061360a565b60405180910390f35b6102b560048036038101906102b09190612b9e565b610a31565b005b6102d160048036038101906102cc9190612d28565b610ad2565b6040516102de91906135ef565b60405180910390f35b61030160048036038101906102fc9190612db3565b610b5e565b60405161030e919061331e565b60405180910390f35b610331600480360381019061032c9190612e71565b610d0f565b60405161033e9190613377565b60405180910390f35b61034f610d23565b005b61036b60048036038101906103669190612d28565b610dcf565b60405161037992919061360a565b60405180910390f35b61038a610e00565b60405161039791906135ef565b60405180910390f35b6103ba60048036038101906103b59190612e9a565b610e05565b005b6103d660048036038101906103d19190612cec565b61125e565b005b6103f260048036038101906103ed9190612e71565b611274565b6040516103ff91906135ef565b60405180910390f35b610422600480360381019061041d9190612b39565b611291565b60405161042f91906135ef565b60405180910390f35b610452600480360381019061044d9190612e71565b6112a9565b005b61045c61157f565b60405161046991906135ef565b60405180910390f35b61048c60048036038101906104879190612b62565b611584565b6040516104999190613377565b60405180910390f35b6104bc60048036038101906104b79190612c5d565b611618565b6040516104c99190613392565b60405180910390f35b6104ec60048036038101906104e79190612c5d565b61162d565b005b6104f66116ce565b60405161050391906135ef565b60405180910390f35b6105146116d3565b60405161052191906135ef565b60405180910390f35b6105326116d8565b60405161053f91906135ef565b60405180910390f35b60008073ffffffffffffffffffffffffffffffffffffffff168373ffffffffffffffffffffffffffffffffffffffff1614156105b9576040517f08c379a00000000000000000000000000000000000000000000000000000000081526004016105b09061340f565b60405180910390fd5b60008083815260200190815260200160002060008473ffffffffffffffffffffffffffffffffffffffff1673ffffffffffffffffffffffffffffffffffffffff16815260200190815260200160002054905092915050565b60007fd9b67a26000000000000000000000000000000000000000000000000000000007bffffffffffffffffffffffffffffffffffffffffffffffffffffffff1916827bffffffffffffffffffffffffffffffffffffffffffffffffffffffff191614806106dc57507f0e89341c000000000000000000000000000000000000000000000000000000007bffffffffffffffffffffffffffffffffffffffffffffffffffffffff1916827bffffffffffffffffffffffffffffffffffffffffffffffffffffffff1916145b806106ec57506106eb8261191a565b5b9050919050565b60008082141561075857600460008573ffffffffffffffffffffffffffffffffffffffff1673ffffffffffffffffffffffffffffffffffffffff16815260200190815260200160002060008481526020019081526020016000206000015490506107c1565b60018214156107bc57600460008573ffffffffffffffffffffffffffffffffffffffff1673ffffffffffffffffffffffffffffffffffffffff16815260200190815260200160002060008481526020019081526020016000206001015490506107c1565b600090505b9392505050565b60066020528060005260406000206000915090508060000154908060010154908060020154908060030180546107fd906138de565b80601f0160208091040260200160405190810160405280929190818152602001828054610829906138de565b80156108765780601f1061084b57610100808354040283529160200191610876565b820191906000526020600020905b81548152906001019060200180831161085957829003601f168201915b5050505050905084565b60606002805461088f906138de565b80601f01602080910402602001604051908101604052809291908181526020018280546108bb906138de565b80156109085780601f106108dd57610100808354040283529160200191610908565b820191906000526020600020905b8154815290600101906020018083116108eb57829003601f168201915b50505050509050919050565b600080600560008573ffffffffffffffffffffffffffffffffffffffff1673ffffffffffffffffffffffffffffffffffffffff16815260200190815260200160002060000183600a8110610991577f4e487b7100000000000000000000000000000000000000000000000000000000600052603260045260246000fd5b6005020160040154426109a491906137f4565b600560008673ffffffffffffffffffffffffffffffffffffffff1673ffffffffffffffffffffffffffffffffffffffff16815260200190815260200160002060000184600a8110610a1e577f4e487b7100000000000000000000000000000000000000000000000000000000600052603260045260246000fd5b6005020160030154915091509250929050565b610a39611984565b73ffffffffffffffffffffffffffffffffffffffff168573ffffffffffffffffffffffffffffffffffffffff161480610a7f5750610a7e85610a79611984565b611584565b5b610abe576040517f08c379a0000000000000000000000000000000000000000000000000000000008152600401610ab59061350f565b60405180910390fd5b610acb858585858561198c565b5050505050565b6000600560008473ffffffffffffffffffffffffffffffffffffffff1673ffffffffffffffffffffffffffffffffffffffff16815260200190815260200160002060000182600a8110610b4e577f4e487b7100000000000000000000000000000000000000000000000000000000600052603260045260246000fd5b6005020160010154905092915050565b60608151835114610ba4576040517f08c379a0000000000000000000000000000000000000000000000000000000008152600401610b9b906135af565b60405180910390fd5b6000835167ffffffffffffffff811115610be7577f4e487b7100000000000000000000000000000000000000000000000000000000600052604160045260246000fd5b604051908082528060200260200182016040528015610c155781602001602082028036833780820191505090505b50905060005b8451811015610d0457610cae858281518110610c60577f4e487b7100000000000000000000000000000000000000000000000000000000600052603260045260246000fd5b6020026020010151858381518110610ca1577f4e487b7100000000000000000000000000000000000000000000000000000000600052603260045260246000fd5b6020026020010151610548565b828281518110610ce7577f4e487b7100000000000000000000000000000000000000000000000000000000600052603260045260246000fd5b60200260200101818152505080610cfd90613941565b9050610c1b565b508091505092915050565b600080610d1b83611274565b119050919050565b6003600760003373ffffffffffffffffffffffffffffffffffffffff1673ffffffffffffffffffffffffffffffffffffffff168152602001908152602001600020541015610da6576040517f08c379a0000000000000000000000000000000000000000000000000000000008152600401610d9d9061352f565b60405180910390fd5b610dc433306001600a60405180602001604052806000815250611cec565b610dcd33611edc565b565b6004602052816000526040600020602052806000526040600020600091509150508060000154908060010154905082565b600181565b6001600460003373ffffffffffffffffffffffffffffffffffffffff1673ffffffffffffffffffffffffffffffffffffffff1681526020019081526020016000206000838152602001908152602001600020600001541015610e9c576040517f08c379a0000000000000000000000000000000000000000000000000000000008152600401610e939061346f565b60405180910390fd5b6000600760003373ffffffffffffffffffffffffffffffffffffffff1673ffffffffffffffffffffffffffffffffffffffff168152602001908152602001600020541415610f2a576003600760003373ffffffffffffffffffffffffffffffffffffffff1673ffffffffffffffffffffffffffffffffffffffff168152602001908152602001600020819055505b600760003373ffffffffffffffffffffffffffffffffffffffff1673ffffffffffffffffffffffffffffffffffffffff168152602001908152602001600020548210610fab576040517f08c379a0000000000000000000000000000000000000000000000000000000008152600401610fa29061342f565b60405180910390fd5b60011515600560003373ffffffffffffffffffffffffffffffffffffffff1673ffffffffffffffffffffffffffffffffffffffff16815260200190815260200160002060000183600a8110611029577f4e487b7100000000000000000000000000000000000000000000000000000000600052603260045260246000fd5b6005020160000160009054906101000a900460ff1615151415611081576040517f08c379a0000000000000000000000000000000000000000000000000000000008152600401611078906134af565b60405180910390fd5b6000600560003373ffffffffffffffffffffffffffffffffffffffff1673ffffffffffffffffffffffffffffffffffffffff16815260200190815260200160002060000183600a81106110fd577f4e487b7100000000000000000000000000000000000000000000000000000000600052603260045260246000fd5b600502019050428160040181905550818160010181905550600660008381526020019081526020016000206003018160020190805461113b906138de565b611146929190612852565b506006600083815260200190815260200160002060010154816003018190555060018160000160006101000a81548160ff0219169083151502179055506001600460003373ffffffffffffffffffffffffffffffffffffffff1673ffffffffffffffffffffffffffffffffffffffff168152602001908152602001600020600084815260200190815260200160002060000160008282546111e791906137f4565b925050819055506001600460003373ffffffffffffffffffffffffffffffffffffffff1673ffffffffffffffffffffffffffffffffffffffff16815260200190815260200160002060008481526020019081526020016000206001016000828254611252919061379e565b92505081905550505050565b611270611269611984565b8383611fb9565b5050565b600060036000838152602001908152602001600020549050919050565b60076020528060005260406000206000915090505481565b6000600560003373ffffffffffffffffffffffffffffffffffffffff1673ffffffffffffffffffffffffffffffffffffffff16815260200190815260200160002060000182600a8110611325577f4e487b7100000000000000000000000000000000000000000000000000000000600052603260045260246000fd5b600502019050600081600101541415611373576040517f08c379a000000000000000000000000000000000000000000000000000000000815260040161136a9061348f565b60405180910390fd5b806003015481600401544261138891906137f4565b10156113c9576040517f08c379a00000000000000000000000000000000000000000000000000000000081526004016113c09061356f565b60405180910390fd5b6000816001015490506006600082815260200190815260200160002060020154600460003373ffffffffffffffffffffffffffffffffffffffff1673ffffffffffffffffffffffffffffffffffffffff1681526020019081526020016000206000838152602001908152602001600020600001600082825461144b919061379e565b925050819055506001600460003373ffffffffffffffffffffffffffffffffffffffff1673ffffffffffffffffffffffffffffffffffffffff168152602001908152602001600020600083815260200190815260200160002060010160008282546114b691906137f4565b92505081905550600560003373ffffffffffffffffffffffffffffffffffffffff1673ffffffffffffffffffffffffffffffffffffffff16815260200190815260200160002060000183600a8110611537577f4e487b7100000000000000000000000000000000000000000000000000000000600052603260045260246000fd5b60050201600080820160006101000a81549060ff0219169055600182016000905560028201600061156891906128df565b600382016000905560048201600090555050505050565b600281565b6000600160008473ffffffffffffffffffffffffffffffffffffffff1673ffffffffffffffffffffffffffffffffffffffff16815260200190815260200160002060008373ffffffffffffffffffffffffffffffffffffffff1673ffffffffffffffffffffffffffffffffffffffff16815260200190815260200160002060009054906101000a900460ff16905092915050565b600063f23a6e6160e01b905095945050505050565b611635611984565b73ffffffffffffffffffffffffffffffffffffffff168573ffffffffffffffffffffffffffffffffffffffff16148061167b575061167a85611675611984565b611584565b5b6116ba576040517f08c379a00000000000000000000000000000000000000000000000000000000081526004016116b19061344f565b60405180910390fd5b6116c78585858585611cec565b5050505050565b600081565b600481565b600381565b6116eb868686868686611912565b600073ffffffffffffffffffffffffffffffffffffffff168573ffffffffffffffffffffffffffffffffffffffff1614156117e95760005b83518110156117e757828181518110611765577f4e487b7100000000000000000000000000000000000000000000000000000000600052603260045260246000fd5b6020026020010151600360008684815181106117aa577f4e487b7100000000000000000000000000000000000000000000000000000000600052603260045260246000fd5b6020026020010151815260200190815260200160002060008282546117cf919061379e565b92505081905550806117e090613941565b9050611723565b505b600073ffffffffffffffffffffffffffffffffffffffff168473ffffffffffffffffffffffffffffffffffffffff1614156118e75760005b83518110156118e557828181518110611863577f4e487b7100000000000000000000000000000000000000000000000000000000600052603260045260246000fd5b6020026020010151600360008684815181106118a8577f4e487b7100000000000000000000000000000000000000000000000000000000600052603260045260246000fd5b6020026020010151815260200190815260200160002060008282546118cd91906137f4565b92505081905550806118de90613941565b9050611821565b505b505050505050565b6000808273ffffffffffffffffffffffffffffffffffffffff163b119050919050565b505050505050565b60007f01ffc9a7000000000000000000000000000000000000000000000000000000007bffffffffffffffffffffffffffffffffffffffffffffffffffffffff1916827bffffffffffffffffffffffffffffffffffffffffffffffffffffffff1916149050919050565b600033905090565b81518351146119d0576040517f08c379a00000000000000000000000000000000000000000000000000000000081526004016119c7906135cf565b60405180910390fd5b600073ffffffffffffffffffffffffffffffffffffffff168473ffffffffffffffffffffffffffffffffffffffff161415611a40576040517f08c379a0000000000000000000000000000000000000000000000000000000008152600401611a37906134ef565b60405180910390fd5b6000611a4a611984565b9050611a5a818787878787612126565b60005b8451811015611c57576000858281518110611aa1577f4e487b7100000000000000000000000000000000000000000000000000000000600052603260045260246000fd5b602002602001015190506000858381518110611ae6577f4e487b7100000000000000000000000000000000000000000000000000000000600052603260045260246000fd5b60200260200101519050600080600084815260200190815260200160002060008b73ffffffffffffffffffffffffffffffffffffffff1673ffffffffffffffffffffffffffffffffffffffff16815260200190815260200160002054905081811015611b87576040517f08c379a0000000000000000000000000000000000000000000000000000000008152600401611b7e9061354f565b60405180910390fd5b81810360008085815260200190815260200160002060008c73ffffffffffffffffffffffffffffffffffffffff1673ffffffffffffffffffffffffffffffffffffffff168152602001908152602001600020819055508160008085815260200190815260200160002060008b73ffffffffffffffffffffffffffffffffffffffff1673ffffffffffffffffffffffffffffffffffffffff1681526020019081526020016000206000828254611c3c919061379e565b9250508190555050505080611c5090613941565b9050611a5d565b508473ffffffffffffffffffffffffffffffffffffffff168673ffffffffffffffffffffffffffffffffffffffff168273ffffffffffffffffffffffffffffffffffffffff167f4a39dc06d4c0dbc64b70af90fd698a233a518aa5d07e595d983b8c0526c8f7fb8787604051611cce929190613340565b60405180910390a4611ce481878787878761213c565b505050505050565b600073ffffffffffffffffffffffffffffffffffffffff168473ffffffffffffffffffffffffffffffffffffffff161415611d5c576040517f08c379a0000000000000000000000000000000000000000000000000000000008152600401611d53906134ef565b60405180910390fd5b6000600460008773ffffffffffffffffffffffffffffffffffffffff1673ffffffffffffffffffffffffffffffffffffffff168152602001908152602001600020600085815260200190815260200160002060000154905082811015611df7576040517f08c379a0000000000000000000000000000000000000000000000000000000008152600401611dee9061354f565b60405180910390fd5b8281611e0391906137f4565b905082600460008773ffffffffffffffffffffffffffffffffffffffff1673ffffffffffffffffffffffffffffffffffffffff16815260200190815260200160002060008681526020019081526020016000206000016000828254611e68919061379e565b9250508190555080600460008873ffffffffffffffffffffffffffffffffffffffff1673ffffffffffffffffffffffffffffffffffffffff168152602001908152602001600020600086815260200190815260200160002060000181905550611ed48686868686612323565b505050505050565b600a600760008373ffffffffffffffffffffffffffffffffffffffff1673ffffffffffffffffffffffffffffffffffffffff168152602001908152602001600020541115611f5f576040517f08c379a0000000000000000000000000000000000000000000000000000000008152600401611f56906134cf565b60405180910390fd5b6001600760008373ffffffffffffffffffffffffffffffffffffffff1673ffffffffffffffffffffffffffffffffffffffff1681526020019081526020016000206000828254611faf919061379e565b9250508190555050565b8173ffffffffffffffffffffffffffffffffffffffff168373ffffffffffffffffffffffffffffffffffffffff161415612028576040517f08c379a000000000000000000000000000000000000000000000000000000000815260040161201f9061358f565b60405180910390fd5b80600160008573ffffffffffffffffffffffffffffffffffffffff1673ffffffffffffffffffffffffffffffffffffffff16815260200190815260200160002060008473ffffffffffffffffffffffffffffffffffffffff1673ffffffffffffffffffffffffffffffffffffffff16815260200190815260200160002060006101000a81548160ff0219169083151502179055508173ffffffffffffffffffffffffffffffffffffffff168373ffffffffffffffffffffffffffffffffffffffff167f17307eab39ab6107e8899845ad3d59bd9653f200f220920489ca2b5937696c31836040516121199190613377565b60405180910390a3505050565b6121348686868686866116dd565b505050505050565b61215b8473ffffffffffffffffffffffffffffffffffffffff166118ef565b1561231b578373ffffffffffffffffffffffffffffffffffffffff1663bc197c8187878686866040518663ffffffff1660e01b81526004016121a195949392919061325c565b602060405180830381600087803b1580156121bb57600080fd5b505af19250505080156121ec57506040513d601f19601f820116820180604052508101906121e99190612e48565b60015b612292576121f8613a17565b806308c379a01415612255575061220d613eb2565b806122185750612257565b806040517f08c379a000000000000000000000000000000000000000000000000000000000815260040161224c91906133ad565b60405180910390fd5b505b6040517f08c379a0000000000000000000000000000000000000000000000000000000008152600401612289906133cf565b60405180910390fd5b63bc197c8160e01b7bffffffffffffffffffffffffffffffffffffffffffffffffffffffff1916817bffffffffffffffffffffffffffffffffffffffffffffffffffffffff191614612319576040517f08c379a0000000000000000000000000000000000000000000000000000000008152600401612310906133ef565b60405180910390fd5b505b505050505050565b600073ffffffffffffffffffffffffffffffffffffffff168473ffffffffffffffffffffffffffffffffffffffff161415612393576040517f08c379a000000000000000000000000000000000000000000000000000000000815260040161238a906134ef565b60405180910390fd5b600061239d611984565b90506123bd8187876123ae886125a5565b6123b7886125a5565b87612126565b600080600086815260200190815260200160002060008873ffffffffffffffffffffffffffffffffffffffff1673ffffffffffffffffffffffffffffffffffffffff16815260200190815260200160002054905083811015612454576040517f08c379a000000000000000000000000000000000000000000000000000000000815260040161244b9061354f565b60405180910390fd5b83810360008087815260200190815260200160002060008973ffffffffffffffffffffffffffffffffffffffff1673ffffffffffffffffffffffffffffffffffffffff168152602001908152602001600020819055508360008087815260200190815260200160002060008873ffffffffffffffffffffffffffffffffffffffff1673ffffffffffffffffffffffffffffffffffffffff1681526020019081526020016000206000828254612509919061379e565b925050819055508573ffffffffffffffffffffffffffffffffffffffff168773ffffffffffffffffffffffffffffffffffffffff168373ffffffffffffffffffffffffffffffffffffffff167fc3d58168c5ae7397731d063d5bbf3d657854427343f4c083240f7aacaa2d0f62888860405161258692919061360a565b60405180910390a461259c82888888888861266b565b50505050505050565b60606000600167ffffffffffffffff8111156125ea577f4e487b7100000000000000000000000000000000000000000000000000000000600052604160045260246000fd5b6040519080825280602002602001820160405280156126185781602001602082028036833780820191505090505b5090508281600081518110612656577f4e487b7100000000000000000000000000000000000000000000000000000000600052603260045260246000fd5b60200260200101818152505080915050919050565b61268a8473ffffffffffffffffffffffffffffffffffffffff166118ef565b1561284a578373ffffffffffffffffffffffffffffffffffffffff1663f23a6e6187878686866040518663ffffffff1660e01b81526004016126d09594939291906132c4565b602060405180830381600087803b1580156126ea57600080fd5b505af192505050801561271b57506040513d601f19601f820116820180604052508101906127189190612e48565b60015b6127c157612727613a17565b806308c379a01415612784575061273c613eb2565b806127475750612786565b806040517f08c379a000000000000000000000000000000000000000000000000000000000815260040161277b91906133ad565b60405180910390fd5b505b6040517f08c379a00000000000000000000000000000000000000000000000000000000081526004016127b8906133cf565b60405180910390fd5b63f23a6e6160e01b7bffffffffffffffffffffffffffffffffffffffffffffffffffffffff1916817bffffffffffffffffffffffffffffffffffffffffffffffffffffffff191614612848576040517f08c379a000000000000000000000000000000000000000000000000000000000815260040161283f906133ef565b60405180910390fd5b505b505050505050565b82805461285e906138de565b90600052602060002090601f01602090048101928261288057600085556128ce565b82601f1061289157805485556128ce565b828001600101855582156128ce57600052602060002091601f016020900482015b828111156128cd5782548255916001019190600101906128b2565b5b5090506128db919061291f565b5090565b5080546128eb906138de565b6000825580601f106128fd575061291c565b601f01602090049060005260206000209081019061291b919061291f565b5b50565b5b80821115612938576000816000905550600101612920565b5090565b600061294f61294a846136a4565b61367f565b9050808382526020820190508285602086028201111561296e57600080fd5b60005b8581101561299e57816129848882612a52565b845260208401935060208301925050600181019050612971565b5050509392505050565b60006129bb6129b6846136d0565b61367f565b905080838252602082019050828560208602820111156129da57600080fd5b60005b85811015612a0a57816129f08882612b24565b8452602084019350602083019250506001810190506129dd565b5050509392505050565b6000612a27612a22846136fc565b61367f565b905082815260208101848484011115612a3f57600080fd5b612a4a84828561389c565b509392505050565b600081359050612a6181613f48565b92915050565b600082601f830112612a7857600080fd5b8135612a8884826020860161293c565b91505092915050565b600082601f830112612aa257600080fd5b8135612ab28482602086016129a8565b91505092915050565b600081359050612aca81613f5f565b92915050565b600081359050612adf81613f76565b92915050565b600081519050612af481613f76565b92915050565b600082601f830112612b0b57600080fd5b8135612b1b848260208601612a14565b91505092915050565b600081359050612b3381613f8d565b92915050565b600060208284031215612b4b57600080fd5b6000612b5984828501612a52565b91505092915050565b60008060408385031215612b7557600080fd5b6000612b8385828601612a52565b9250506020612b9485828601612a52565b9150509250929050565b600080600080600060a08688031215612bb657600080fd5b6000612bc488828901612a52565b9550506020612bd588828901612a52565b945050604086013567ffffffffffffffff811115612bf257600080fd5b612bfe88828901612a91565b935050606086013567ffffffffffffffff811115612c1b57600080fd5b612c2788828901612a91565b925050608086013567ffffffffffffffff811115612c4457600080fd5b612c5088828901612afa565b9150509295509295909350565b600080600080600060a08688031215612c7557600080fd5b6000612c8388828901612a52565b9550506020612c9488828901612a52565b9450506040612ca588828901612b24565b9350506060612cb688828901612b24565b925050608086013567ffffffffffffffff811115612cd357600080fd5b612cdf88828901612afa565b9150509295509295909350565b60008060408385031215612cff57600080fd5b6000612d0d85828601612a52565b9250506020612d1e85828601612abb565b9150509250929050565b60008060408385031215612d3b57600080fd5b6000612d4985828601612a52565b9250506020612d5a85828601612b24565b9150509250929050565b600080600060608486031215612d7957600080fd5b6000612d8786828701612a52565b9350506020612d9886828701612b24565b9250506040612da986828701612b24565b9150509250925092565b60008060408385031215612dc657600080fd5b600083013567ffffffffffffffff811115612de057600080fd5b612dec85828601612a67565b925050602083013567ffffffffffffffff811115612e0957600080fd5b612e1585828601612a91565b9150509250929050565b600060208284031215612e3157600080fd5b6000612e3f84828501612ad0565b91505092915050565b600060208284031215612e5a57600080fd5b6000612e6884828501612ae5565b91505092915050565b600060208284031215612e8357600080fd5b6000612e9184828501612b24565b91505092915050565b60008060408385031215612ead57600080fd5b6000612ebb85828601612b24565b9250506020612ecc85828601612b24565b9150509250929050565b6000612ee2838361323e565b60208301905092915050565b612ef781613828565b82525050565b6000612f088261373d565b612f12818561376b565b9350612f1d8361372d565b8060005b83811015612f4e578151612f358882612ed6565b9750612f408361375e565b925050600181019050612f21565b5085935050505092915050565b612f648161383a565b82525050565b612f7381613846565b82525050565b6000612f8482613748565b612f8e818561377c565b9350612f9e8185602086016138ab565b612fa781613a39565b840191505092915050565b6000612fbd82613753565b612fc7818561378d565b9350612fd78185602086016138ab565b612fe081613a39565b840191505092915050565b6000612ff860348361378d565b915061300382613a57565b604082019050919050565b600061301b60288361378d565b915061302682613aa6565b604082019050919050565b600061303e602b8361378d565b915061304982613af5565b604082019050919050565b6000613061601a8361378d565b915061306c82613b44565b602082019050919050565b600061308460298361378d565b915061308f82613b6d565b604082019050919050565b60006130a7601a8361378d565b91506130b282613bbc565b602082019050919050565b60006130ca601d8361378d565b91506130d582613be5565b602082019050919050565b60006130ed60178361378d565b91506130f882613c0e565b602082019050919050565b6000613110601f8361378d565b915061311b82613c37565b602082019050919050565b600061313360258361378d565b915061313e82613c60565b604082019050919050565b600061315660328361378d565b915061316182613caf565b604082019050919050565b600061317960338361378d565b915061318482613cfe565b604082019050919050565b600061319c602a8361378d565b91506131a782613d4d565b604082019050919050565b60006131bf60168361378d565b91506131ca82613d9c565b602082019050919050565b60006131e260298361378d565b91506131ed82613dc5565b604082019050919050565b600061320560298361378d565b915061321082613e14565b604082019050919050565b600061322860288361378d565b915061323382613e63565b604082019050919050565b61324781613892565b82525050565b61325681613892565b82525050565b600060a0820190506132716000830188612eee565b61327e6020830187612eee565b81810360408301526132908186612efd565b905081810360608301526132a48185612efd565b905081810360808301526132b88184612f79565b90509695505050505050565b600060a0820190506132d96000830188612eee565b6132e66020830187612eee565b6132f3604083018661324d565b613300606083018561324d565b81810360808301526133128184612f79565b90509695505050505050565b600060208201905081810360008301526133388184612efd565b905092915050565b6000604082019050818103600083015261335a8185612efd565b9050818103602083015261336e8184612efd565b90509392505050565b600060208201905061338c6000830184612f5b565b92915050565b60006020820190506133a76000830184612f6a565b92915050565b600060208201905081810360008301526133c78184612fb2565b905092915050565b600060208201905081810360008301526133e881612feb565b9050919050565b600060208201905081810360008301526134088161300e565b9050919050565b6000602082019050818103600083015261342881613031565b9050919050565b6000602082019050818103600083015261344881613054565b9050919050565b6000602082019050818103600083015261346881613077565b9050919050565b600060208201905081810360008301526134888161309a565b9050919050565b600060208201905081810360008301526134a8816130bd565b9050919050565b600060208201905081810360008301526134c8816130e0565b9050919050565b600060208201905081810360008301526134e881613103565b9050919050565b6000602082019050818103600083015261350881613126565b9050919050565b6000602082019050818103600083015261352881613149565b9050919050565b600060208201905081810360008301526135488161316c565b9050919050565b600060208201905081810360008301526135688161318f565b9050919050565b60006020820190508181036000830152613588816131b2565b9050919050565b600060208201905081810360008301526135a8816131d5565b9050919050565b600060208201905081810360008301526135c8816131f8565b9050919050565b600060208201905081810360008301526135e88161321b565b9050919050565b6000602082019050613604600083018461324d565b92915050565b600060408201905061361f600083018561324d565b61362c602083018461324d565b9392505050565b6000608082019050613648600083018761324d565b613655602083018661324d565b613662604083018561324d565b81810360608301526136748184612fb2565b905095945050505050565b600061368961369a565b90506136958282613910565b919050565b6000604051905090565b600067ffffffffffffffff8211156136bf576136be6139e8565b5b602082029050602081019050919050565b600067ffffffffffffffff8211156136eb576136ea6139e8565b5b602082029050602081019050919050565b600067ffffffffffffffff821115613717576137166139e8565b5b61372082613a39565b9050602081019050919050565b6000819050602082019050919050565b600081519050919050565b600081519050919050565b600081519050919050565b6000602082019050919050565b600082825260208201905092915050565b600082825260208201905092915050565b600082825260208201905092915050565b60006137a982613892565b91506137b483613892565b9250827fffffffffffffffffffffffffffffffffffffffffffffffffffffffffffffffff038211156137e9576137e861398a565b5b828201905092915050565b60006137ff82613892565b915061380a83613892565b92508282101561381d5761381c61398a565b5b828203905092915050565b600061383382613872565b9050919050565b60008115159050919050565b60007fffffffff0000000000000000000000000000000000000000000000000000000082169050919050565b600073ffffffffffffffffffffffffffffffffffffffff82169050919050565b6000819050919050565b82818337600083830152505050565b60005b838110156138c95780820151818401526020810190506138ae565b838111156138d8576000848401525b50505050565b600060028204905060018216806138f657607f821691505b6020821081141561390a576139096139b9565b5b50919050565b61391982613a39565b810181811067ffffffffffffffff82111715613938576139376139e8565b5b80604052505050565b600061394c82613892565b91507fffffffffffffffffffffffffffffffffffffffffffffffffffffffffffffffff82141561397f5761397e61398a565b5b600182019050919050565b7f4e487b7100000000000000000000000000000000000000000000000000000000600052601160045260246000fd5b7f4e487b7100000000000000000000000000000000000000000000000000000000600052602260045260246000fd5b7f4e487b7100000000000000000000000000000000000000000000000000000000600052604160045260246000fd5b600060033d1115613a365760046000803e613a33600051613a4a565b90505b90565b6000601f19601f8301169050919050565b60008160e01c9050919050565b7f455243313135353a207472616e7366657220746f206e6f6e204552433131353560008201527f526563656976657220696d706c656d656e746572000000000000000000000000602082015250565b7f455243313135353a204552433131353552656365697665722072656a6563746560008201527f6420746f6b656e73000000000000000000000000000000000000000000000000602082015250565b7f455243313135353a2062616c616e636520717565727920666f7220746865207a60008201527f65726f2061646472657373000000000000000000000000000000000000000000602082015250565b7f596f7520646f6e2774206f776e20656e6f756768206c616e6421000000000000600082015250565b7f455243313135353a2063616c6c6572206973206e6f74206f776e6572206e6f7260008201527f20617070726f7665640000000000000000000000000000000000000000000000602082015250565b7f4e6f7420656e6f7567682063726f707320746f20706c616e7421000000000000600082015250565b7f4e6f7468696e6720706c616e74656420696e207468697320706c6f7421000000600082015250565b7f5468697320706c6f74206973206e6f7420656d70747921000000000000000000600082015250565b7f43616e277420696e637265617365206e756d626572206f6620706c6f74732e00600082015250565b7f455243313135353a207472616e7366657220746f20746865207a65726f20616460008201527f6472657373000000000000000000000000000000000000000000000000000000602082015250565b7f455243313135353a207472616e736665722063616c6c6572206973206e6f742060008201527f6f776e6572206e6f7220617070726f7665640000000000000000000000000000602082015250565b7f55736572206d75737420706c616e742063726f7073206f6e6365206265666f7260008201527f652070757263686173696e6720706c6f74732100000000000000000000000000602082015250565b7f455243313135353a20696e73756666696369656e742062616c616e636520666f60008201527f72207472616e7366657200000000000000000000000000000000000000000000602082015250565b7f43726f70206e6f7420646f6e652067726f77696e672e00000000000000000000600082015250565b7f455243313135353a2073657474696e6720617070726f76616c2073746174757360008201527f20666f722073656c660000000000000000000000000000000000000000000000602082015250565b7f455243313135353a206163636f756e747320616e6420696473206c656e67746860008201527f206d69736d617463680000000000000000000000000000000000000000000000602082015250565b7f455243313135353a2069647320616e6420616d6f756e7473206c656e6774682060008201527f6d69736d61746368000000000000000000000000000000000000000000000000602082015250565b600060443d1015613ec257613f45565b613eca61369a565b60043d036004823e80513d602482011167ffffffffffffffff82111715613ef2575050613f45565b808201805167ffffffffffffffff811115613f105750505050613f45565b80602083010160043d038501811115613f2d575050505050613f45565b613f3c82602001850186613910565b82955050505050505b90565b613f5181613828565b8114613f5c57600080fd5b50565b613f688161383a565b8114613f7357600080fd5b50565b613f7f81613846565b8114613f8a57600080fd5b50565b613f9681613892565b8114613fa157600080fd5b5056fea26469706673582212209b88eaae2a263d0775b8cdc0ce7064c2896ebcc95c4a1d27d142ae8f954a3a2c64736f6c6343000801003368747470733a2f2f67616d652e6578616d706c652f6170692f6974656d2f7b69647d2e6a736f6e",
  "linkReferences": {},
  "deployedLinkReferences": {}
}